{
	"internal/repo/contracts/Fcontract.sol": {
		"AttendanceContract": {
			"abi": [
				{
					"inputs": [],
					"stateMutability": "nonpayable",
					"type": "constructor"
				},
				{
					"anonymous": false,
					"inputs": [
						{
							"indexed": true,
							"internalType": "uint256",
							"name": "employeeId",
							"type": "uint256"
						},
						{
							"indexed": false,
							"internalType": "uint256",
							"name": "checkInTime",
							"type": "uint256"
						},
						{
							"indexed": false,
							"internalType": "string",
							"name": "details",
							"type": "string"
						}
					],
					"name": "AttendanceRecorded",
					"type": "event"
				},
				{
					"anonymous": false,
					"inputs": [
						{
							"indexed": true,
							"internalType": "uint256",
							"name": "employeeId",
							"type": "uint256"
						},
						{
							"indexed": false,
							"internalType": "uint256",
							"name": "index",
							"type": "uint256"
						},
						{
							"indexed": false,
							"internalType": "uint256",
							"name": "newCheckInTime",
							"type": "uint256"
						},
						{
							"indexed": false,
							"internalType": "string",
							"name": "newDetails",
							"type": "string"
						}
					],
					"name": "AttendanceUpdated",
					"type": "event"
				},
				{
					"inputs": [
						{
							"internalType": "address",
							"name": "_entity",
							"type": "address"
						}
					],
					"name": "authorizeEntity",
					"outputs": [],
					"stateMutability": "nonpayable",
					"type": "function"
				},
				{
					"inputs": [
						{
							"internalType": "uint256",
							"name": "_employeeId",
							"type": "uint256"
						},
						{
							"internalType": "uint256",
							"name": "_start",
							"type": "uint256"
						},
						{
							"internalType": "uint256",
							"name": "_end",
							"type": "uint256"
						}
					],
					"name": "getAttendanceByDateRange",
					"outputs": [
						{
							"components": [
								{
									"internalType": "uint256",
									"name": "employeeId",
									"type": "uint256"
								},
								{
									"internalType": "uint256",
									"name": "checkInTime",
									"type": "uint256"
								},
								{
									"internalType": "string",
									"name": "details",
									"type": "string"
								}
							],
							"internalType": "struct AttendanceContract.AttendanceRecord[]",
							"name": "",
							"type": "tuple[]"
						}
					],
					"stateMutability": "view",
					"type": "function"
				},
				{
					"inputs": [
						{
							"internalType": "uint256",
							"name": "_employeeId",
							"type": "uint256"
						}
					],
					"name": "getAttendanceByEmployeeId",
					"outputs": [
						{
							"components": [
								{
									"internalType": "uint256",
									"name": "employeeId",
									"type": "uint256"
								},
								{
									"internalType": "uint256",
									"name": "checkInTime",
									"type": "uint256"
								},
								{
									"internalType": "string",
									"name": "details",
									"type": "string"
								}
							],
							"internalType": "struct AttendanceContract.AttendanceRecord[]",
							"name": "",
							"type": "tuple[]"
						}
					],
					"stateMutability": "view",
					"type": "function"
				},
				{
					"inputs": [],
					"name": "getEmployeeID",
					"outputs": [
						{
							"internalType": "uint256",
							"name": "_emID",
							"type": "uint256"
						}
					],
					"stateMutability": "view",
					"type": "function"
				},
				{
					"inputs": [
						{
							"internalType": "uint256",
							"name": "_employeeId",
							"type": "uint256"
						},
						{
							"internalType": "uint256",
							"name": "_checkInTime",
							"type": "uint256"
						},
						{
							"internalType": "string",
							"name": "_details",
							"type": "string"
						}
					],
					"name": "recordAttendance",
					"outputs": [],
					"stateMutability": "nonpayable",
					"type": "function"
				},
				{
					"inputs": [
						{
							"internalType": "address",
							"name": "_entity",
							"type": "address"
						}
					],
					"name": "revokeAuthorization",
					"outputs": [],
					"stateMutability": "nonpayable",
					"type": "function"
				},
				{
					"inputs": [
						{
							"internalType": "uint256",
							"name": "_employeeId",
							"type": "uint256"
						},
						{
							"internalType": "uint256",
							"name": "_index",
							"type": "uint256"
						},
						{
							"internalType": "uint256",
							"name": "_newCheckInTime",
							"type": "uint256"
						},
						{
							"internalType": "string",
							"name": "_newDetails",
							"type": "string"
						}
					],
					"name": "updateAttendance",
					"outputs": [],
					"stateMutability": "nonpayable",
					"type": "function"
				}
			],
			"devdoc": {
				"kind": "dev",
				"methods": {},
				"version": 1
			},
			"evm": {
				"assembly": "    /* \"internal/repo/contracts/Fcontract.sol\":59:2954  contract AttendanceContract {... */\n  mstore(0x40, 0x80)\n    /* \"internal/repo/contracts/Fcontract.sol\":230:231  1 */\n  0x01\n    /* \"internal/repo/contracts/Fcontract.sol\":205:231  uint256 private number = 1 */\n  0x00\n  sstore\n    /* \"internal/repo/contracts/Fcontract.sol\":562:670  constructor() {... */\n  callvalue\n  dup1\n  iszero\n  tag_1\n  jumpi\n  0x00\n  dup1\n  revert\ntag_1:\n  pop\n    /* \"internal/repo/contracts/Fcontract.sol\":619:626  1000000 */\n  0x0f4240\n    /* \"internal/repo/contracts/Fcontract.sol\":586:604  authorizedEntities */\n  0x02\n    /* \"internal/repo/contracts/Fcontract.sol\":586:616  authorizedEntities[msg.sender] */\n  0x00\n    /* \"internal/repo/contracts/Fcontract.sol\":605:615  msg.sender */\n  caller\n    /* \"internal/repo/contracts/Fcontract.sol\":586:616  authorizedEntities[msg.sender] */\n  0xffffffffffffffffffffffffffffffffffffffff\n  and\n  0xffffffffffffffffffffffffffffffffffffffff\n  and\n  dup2\n  mstore\n  0x20\n  add\n  swap1\n  dup2\n  mstore\n  0x20\n  add\n  0x00\n  keccak256\n    /* \"internal/repo/contracts/Fcontract.sol\":586:626  authorizedEntities[msg.sender] = 1000000 */\n  dup2\n  swap1\n  sstore\n  pop\n    /* \"internal/repo/contracts/Fcontract.sol\":59:2954  contract AttendanceContract {... */\n  dataSize(sub_0)\n  dup1\n  dataOffset(sub_0)\n  0x00\n  codecopy\n  0x00\n  return\nstop\n\nsub_0: assembly {\n        /* \"internal/repo/contracts/Fcontract.sol\":59:2954  contract AttendanceContract {... */\n      mstore(0x40, 0x80)\n      callvalue\n      dup1\n      iszero\n      tag_1\n      jumpi\n      0x00\n      dup1\n      revert\n    tag_1:\n      pop\n      jumpi(tag_2, lt(calldatasize, 0x04))\n      shr(0xe0, calldataload(0x00))\n      dup1\n      0x9f43f46f\n      gt\n      tag_10\n      jumpi\n      dup1\n      0x9f43f46f\n      eq\n      tag_6\n      jumpi\n      dup1\n      0xb48028e3\n      eq\n      tag_7\n      jumpi\n      dup1\n      0xb608d3a4\n      eq\n      tag_8\n      jumpi\n      dup1\n      0xdd0826c6\n      eq\n      tag_9\n      jumpi\n      jump(tag_2)\n    tag_10:\n      dup1\n      0x02031024\n      eq\n      tag_3\n      jumpi\n      dup1\n      0x08c220c2\n      eq\n      tag_4\n      jumpi\n      dup1\n      0x0c6b5348\n      eq\n      tag_5\n      jumpi\n    tag_2:\n      0x00\n      dup1\n      revert\n        /* \"internal/repo/contracts/Fcontract.sol\":2686:2830  function authorizeEntity(address _entity) public onlyAuthorized {... */\n    tag_3:\n      tag_11\n      0x04\n      dup1\n      calldatasize\n      sub\n      dup2\n      add\n      swap1\n      tag_12\n      swap2\n      swap1\n      tag_13\n      jump\t// in\n    tag_12:\n      tag_14\n      jump\t// in\n    tag_11:\n      stop\n        /* \"internal/repo/contracts/Fcontract.sol\":881:1303  function recordAttendance(uint _employeeId, uint _checkInTime, string memory _details) public onlyAuthorized {... */\n    tag_4:\n      tag_15\n      0x04\n      dup1\n      calldatasize\n      sub\n      dup2\n      add\n      swap1\n      tag_16\n      swap2\n      swap1\n      tag_17\n      jump\t// in\n    tag_16:\n      tag_18\n      jump\t// in\n    tag_15:\n      stop\n        /* \"internal/repo/contracts/Fcontract.sol\":2476:2680  function getEmployeeID() public onlyAuthorized view returns (uint _emID){... */\n    tag_5:\n      tag_19\n      tag_20\n      jump\t// in\n    tag_19:\n      mload(0x40)\n      tag_21\n      swap2\n      swap1\n      tag_22\n      jump\t// in\n    tag_21:\n      mload(0x40)\n      dup1\n      swap2\n      sub\n      swap1\n      return\n        /* \"internal/repo/contracts/Fcontract.sol\":1470:2010  function getAttendanceByDateRange(uint _employeeId, uint _start, uint _end) public view returns (AttendanceRecord[] memory) {... */\n    tag_6:\n      tag_23\n      0x04\n      dup1\n      calldatasize\n      sub\n      dup2\n      add\n      swap1\n      tag_24\n      swap2\n      swap1\n      tag_25\n      jump\t// in\n    tag_24:\n      tag_26\n      jump\t// in\n    tag_23:\n      mload(0x40)\n      tag_27\n      swap2\n      swap1\n      tag_28\n      jump\t// in\n    tag_27:\n      mload(0x40)\n      dup1\n      swap2\n      sub\n      swap1\n      return\n        /* \"internal/repo/contracts/Fcontract.sol\":2836:2952  function revokeAuthorization(address _entity) public onlyAuthorized {... */\n    tag_7:\n      tag_29\n      0x04\n      dup1\n      calldatasize\n      sub\n      dup2\n      add\n      swap1\n      tag_30\n      swap2\n      swap1\n      tag_13\n      jump\t// in\n    tag_30:\n      tag_31\n      jump\t// in\n    tag_29:\n      stop\n        /* \"internal/repo/contracts/Fcontract.sol\":2016:2470  function updateAttendance(uint _employeeId, uint _index, uint _newCheckInTime, string memory _newDetails) public onlyAuthorized {... */\n    tag_8:\n      tag_32\n      0x04\n      dup1\n      calldatasize\n      sub\n      dup2\n      add\n      swap1\n      tag_33\n      swap2\n      swap1\n      tag_34\n      jump\t// in\n    tag_33:\n      tag_35\n      jump\t// in\n    tag_32:\n      stop\n        /* \"internal/repo/contracts/Fcontract.sol\":1309:1464  function getAttendanceByEmployeeId(uint _employeeId) public view returns (AttendanceRecord[] memory) {... */\n    tag_9:\n      tag_36\n      0x04\n      dup1\n      calldatasize\n      sub\n      dup2\n      add\n      swap1\n      tag_37\n      swap2\n      swap1\n      tag_38\n      jump\t// in\n    tag_37:\n      tag_39\n      jump\t// in\n    tag_36:\n      mload(0x40)\n      tag_40\n      swap2\n      swap1\n      tag_28\n      jump\t// in\n    tag_40:\n      mload(0x40)\n      dup1\n      swap2\n      sub\n      swap1\n      return\n        /* \"internal/repo/contracts/Fcontract.sol\":2686:2830  function authorizeEntity(address _entity) public onlyAuthorized {... */\n    tag_14:\n        /* \"internal/repo/contracts/Fcontract.sol\":774:775  0 */\n      0x00\n        /* \"internal/repo/contracts/Fcontract.sol\":740:758  authorizedEntities */\n      0x02\n        /* \"internal/repo/contracts/Fcontract.sol\":740:770  authorizedEntities[msg.sender] */\n      0x00\n        /* \"internal/repo/contracts/Fcontract.sol\":759:769  msg.sender */\n      caller\n        /* \"internal/repo/contracts/Fcontract.sol\":740:770  authorizedEntities[msg.sender] */\n      0xffffffffffffffffffffffffffffffffffffffff\n      and\n      0xffffffffffffffffffffffffffffffffffffffff\n      and\n      dup2\n      mstore\n      0x20\n      add\n      swap1\n      dup2\n      mstore\n      0x20\n      add\n      0x00\n      keccak256\n      sload\n        /* \"internal/repo/contracts/Fcontract.sol\":740:775  authorizedEntities[msg.sender] != 0 */\n      sub\n        /* \"internal/repo/contracts/Fcontract.sol\":732:799  require(authorizedEntities[msg.sender] != 0, \"Unauthorized access\") */\n      tag_42\n      jumpi\n      mload(0x40)\n      0x08c379a000000000000000000000000000000000000000000000000000000000\n      dup2\n      mstore\n      0x04\n      add\n      tag_43\n      swap1\n      tag_44\n      jump\t// in\n    tag_43:\n      mload(0x40)\n      dup1\n      swap2\n      sub\n      swap1\n      revert\n    tag_42:\n        /* \"internal/repo/contracts/Fcontract.sol\":2769:2775  number */\n      0x00\n      dup1\n        /* \"internal/repo/contracts/Fcontract.sol\":2769:2777  number++ */\n      dup2\n      sload\n      dup1\n      swap3\n      swap2\n      swap1\n      tag_46\n      swap1\n      tag_47\n      jump\t// in\n    tag_46:\n      swap2\n      swap1\n      pop\n      sstore\n        /* \"internal/repo/contracts/Fcontract.sol\":2760:2766  number */\n      0x00\n        /* \"internal/repo/contracts/Fcontract.sol\":2760:2777  number = number++ */\n      dup2\n      swap1\n      sstore\n      pop\n        /* \"internal/repo/contracts/Fcontract.sol\":2817:2823  number */\n      sload(0x00)\n        /* \"internal/repo/contracts/Fcontract.sol\":2787:2805  authorizedEntities */\n      0x02\n        /* \"internal/repo/contracts/Fcontract.sol\":2787:2814  authorizedEntities[_entity] */\n      0x00\n        /* \"internal/repo/contracts/Fcontract.sol\":2806:2813  _entity */\n      dup4\n        /* \"internal/repo/contracts/Fcontract.sol\":2787:2814  authorizedEntities[_entity] */\n      0xffffffffffffffffffffffffffffffffffffffff\n      and\n      0xffffffffffffffffffffffffffffffffffffffff\n      and\n      dup2\n      mstore\n      0x20\n      add\n      swap1\n      dup2\n      mstore\n      0x20\n      add\n      0x00\n      keccak256\n        /* \"internal/repo/contracts/Fcontract.sol\":2787:2823  authorizedEntities[_entity] = number */\n      dup2\n      swap1\n      sstore\n      pop\n        /* \"internal/repo/contracts/Fcontract.sol\":2686:2830  function authorizeEntity(address _entity) public onlyAuthorized {... */\n      pop\n      jump\t// out\n        /* \"internal/repo/contracts/Fcontract.sol\":881:1303  function recordAttendance(uint _employeeId, uint _checkInTime, string memory _details) public onlyAuthorized {... */\n    tag_18:\n        /* \"internal/repo/contracts/Fcontract.sol\":774:775  0 */\n      0x00\n        /* \"internal/repo/contracts/Fcontract.sol\":740:758  authorizedEntities */\n      0x02\n        /* \"internal/repo/contracts/Fcontract.sol\":740:770  authorizedEntities[msg.sender] */\n      0x00\n        /* \"internal/repo/contracts/Fcontract.sol\":759:769  msg.sender */\n      caller\n        /* \"internal/repo/contracts/Fcontract.sol\":740:770  authorizedEntities[msg.sender] */\n      0xffffffffffffffffffffffffffffffffffffffff\n      and\n      0xffffffffffffffffffffffffffffffffffffffff\n      and\n      dup2\n      mstore\n      0x20\n      add\n      swap1\n      dup2\n      mstore\n      0x20\n      add\n      0x00\n      keccak256\n      sload\n        /* \"internal/repo/contracts/Fcontract.sol\":740:775  authorizedEntities[msg.sender] != 0 */\n      sub\n        /* \"internal/repo/contracts/Fcontract.sol\":732:799  require(authorizedEntities[msg.sender] != 0, \"Unauthorized access\") */\n      tag_49\n      jumpi\n      mload(0x40)\n      0x08c379a000000000000000000000000000000000000000000000000000000000\n      dup2\n      mstore\n      0x04\n      add\n      tag_50\n      swap1\n      tag_44\n      jump\t// in\n    tag_50:\n      mload(0x40)\n      dup1\n      swap2\n      sub\n      swap1\n      revert\n    tag_49:\n        /* \"internal/repo/contracts/Fcontract.sol\":1038:1045  1000000 */\n      0x0f4240\n        /* \"internal/repo/contracts/Fcontract.sol\":1004:1022  authorizedEntities */\n      0x02\n        /* \"internal/repo/contracts/Fcontract.sol\":1004:1034  authorizedEntities[msg.sender] */\n      0x00\n        /* \"internal/repo/contracts/Fcontract.sol\":1023:1033  msg.sender */\n      caller\n        /* \"internal/repo/contracts/Fcontract.sol\":1004:1034  authorizedEntities[msg.sender] */\n      0xffffffffffffffffffffffffffffffffffffffff\n      and\n      0xffffffffffffffffffffffffffffffffffffffff\n      and\n      dup2\n      mstore\n      0x20\n      add\n      swap1\n      dup2\n      mstore\n      0x20\n      add\n      0x00\n      keccak256\n      sload\n        /* \"internal/repo/contracts/Fcontract.sol\":1004:1045  authorizedEntities[msg.sender] != 1000000 */\n      eq\n      iszero\n        /* \"internal/repo/contracts/Fcontract.sol\":1004:1095  authorizedEntities[msg.sender] != 1000000  && _employeeId != authorizedEntities[msg.sender] */\n      dup1\n      iszero\n      tag_52\n      jumpi\n      pop\n        /* \"internal/repo/contracts/Fcontract.sol\":1065:1083  authorizedEntities */\n      0x02\n        /* \"internal/repo/contracts/Fcontract.sol\":1065:1095  authorizedEntities[msg.sender] */\n      0x00\n        /* \"internal/repo/contracts/Fcontract.sol\":1084:1094  msg.sender */\n      caller\n        /* \"internal/repo/contracts/Fcontract.sol\":1065:1095  authorizedEntities[msg.sender] */\n      0xffffffffffffffffffffffffffffffffffffffff\n      and\n      0xffffffffffffffffffffffffffffffffffffffff\n      and\n      dup2\n      mstore\n      0x20\n      add\n      swap1\n      dup2\n      mstore\n      0x20\n      add\n      0x00\n      keccak256\n      sload\n        /* \"internal/repo/contracts/Fcontract.sol\":1050:1061  _employeeId */\n      dup4\n        /* \"internal/repo/contracts/Fcontract.sol\":1050:1095  _employeeId != authorizedEntities[msg.sender] */\n      eq\n      iszero\n        /* \"internal/repo/contracts/Fcontract.sol\":1004:1095  authorizedEntities[msg.sender] != 1000000  && _employeeId != authorizedEntities[msg.sender] */\n    tag_52:\n        /* \"internal/repo/contracts/Fcontract.sol\":1110:1117  return; */\n      tag_51\n        /* \"internal/repo/contracts/Fcontract.sol\":1000:1127  if (authorizedEntities[msg.sender] != 1000000  && _employeeId != authorizedEntities[msg.sender]){... */\n      jumpi\n        /* \"internal/repo/contracts/Fcontract.sol\":1136:1153  attendanceRecords */\n      0x01\n        /* \"internal/repo/contracts/Fcontract.sol\":1136:1166  attendanceRecords[_employeeId] */\n      0x00\n        /* \"internal/repo/contracts/Fcontract.sol\":1154:1165  _employeeId */\n      dup5\n        /* \"internal/repo/contracts/Fcontract.sol\":1136:1166  attendanceRecords[_employeeId] */\n      dup2\n      mstore\n      0x20\n      add\n      swap1\n      dup2\n      mstore\n      0x20\n      add\n      0x00\n      keccak256\n        /* \"internal/repo/contracts/Fcontract.sol\":1172:1225  AttendanceRecord(_employeeId, _checkInTime, _details) */\n      mload(0x40)\n      dup1\n      0x60\n      add\n      0x40\n      mstore\n      dup1\n        /* \"internal/repo/contracts/Fcontract.sol\":1189:1200  _employeeId */\n      dup6\n        /* \"internal/repo/contracts/Fcontract.sol\":1172:1225  AttendanceRecord(_employeeId, _checkInTime, _details) */\n      dup2\n      mstore\n      0x20\n      add\n        /* \"internal/repo/contracts/Fcontract.sol\":1202:1214  _checkInTime */\n      dup5\n        /* \"internal/repo/contracts/Fcontract.sol\":1172:1225  AttendanceRecord(_employeeId, _checkInTime, _details) */\n      dup2\n      mstore\n      0x20\n      add\n        /* \"internal/repo/contracts/Fcontract.sol\":1216:1224  _details */\n      dup4\n        /* \"internal/repo/contracts/Fcontract.sol\":1172:1225  AttendanceRecord(_employeeId, _checkInTime, _details) */\n      dup2\n      mstore\n      pop\n        /* \"internal/repo/contracts/Fcontract.sol\":1136:1226  attendanceRecords[_employeeId].push(AttendanceRecord(_employeeId, _checkInTime, _details)) */\n      swap1\n      dup1\n      0x01\n      dup2\n      sload\n      add\n      dup1\n      dup3\n      sstore\n      dup1\n      swap2\n      pop\n      pop\n      0x01\n      swap1\n      sub\n      swap1\n      0x00\n      mstore\n      keccak256(0x00, 0x20)\n      swap1\n      0x03\n      mul\n      add\n      0x00\n      swap1\n      swap2\n      swap1\n      swap2\n      swap1\n      swap2\n      pop\n      0x00\n      dup3\n      add\n      mload\n      dup2\n      0x00\n      add\n      sstore\n      0x20\n      dup3\n      add\n      mload\n      dup2\n      0x01\n      add\n      sstore\n      0x40\n      dup3\n      add\n      mload\n      dup2\n      0x02\n      add\n      swap1\n      dup2\n      tag_55\n      swap2\n      swap1\n      tag_56\n      jump\t// in\n    tag_55:\n      pop\n      pop\n      pop\n        /* \"internal/repo/contracts/Fcontract.sol\":1260:1271  _employeeId */\n      dup3\n        /* \"internal/repo/contracts/Fcontract.sol\":1241:1296  AttendanceRecorded(_employeeId, _checkInTime, _details) */\n      0x32e7c28972e89757b6baa3898e54af0a57a00f3a4df3d1ad95609eb202460b3a\n        /* \"internal/repo/contracts/Fcontract.sol\":1273:1285  _checkInTime */\n      dup4\n        /* \"internal/repo/contracts/Fcontract.sol\":1287:1295  _details */\n      dup4\n        /* \"internal/repo/contracts/Fcontract.sol\":1241:1296  AttendanceRecorded(_employeeId, _checkInTime, _details) */\n      mload(0x40)\n      tag_57\n      swap3\n      swap2\n      swap1\n      tag_58\n      jump\t// in\n    tag_57:\n      mload(0x40)\n      dup1\n      swap2\n      sub\n      swap1\n      log2\n        /* \"internal/repo/contracts/Fcontract.sol\":809:810  _ */\n    tag_51:\n        /* \"internal/repo/contracts/Fcontract.sol\":881:1303  function recordAttendance(uint _employeeId, uint _checkInTime, string memory _details) public onlyAuthorized {... */\n      pop\n      pop\n      pop\n      jump\t// out\n        /* \"internal/repo/contracts/Fcontract.sol\":2476:2680  function getEmployeeID() public onlyAuthorized view returns (uint _emID){... */\n    tag_20:\n        /* \"internal/repo/contracts/Fcontract.sol\":2537:2547  uint _emID */\n      0x00\n        /* \"internal/repo/contracts/Fcontract.sol\":774:775  0 */\n      dup1\n        /* \"internal/repo/contracts/Fcontract.sol\":740:758  authorizedEntities */\n      0x02\n        /* \"internal/repo/contracts/Fcontract.sol\":740:770  authorizedEntities[msg.sender] */\n      0x00\n        /* \"internal/repo/contracts/Fcontract.sol\":759:769  msg.sender */\n      caller\n        /* \"internal/repo/contracts/Fcontract.sol\":740:770  authorizedEntities[msg.sender] */\n      0xffffffffffffffffffffffffffffffffffffffff\n      and\n      0xffffffffffffffffffffffffffffffffffffffff\n      and\n      dup2\n      mstore\n      0x20\n      add\n      swap1\n      dup2\n      mstore\n      0x20\n      add\n      0x00\n      keccak256\n      sload\n        /* \"internal/repo/contracts/Fcontract.sol\":740:775  authorizedEntities[msg.sender] != 0 */\n      sub\n        /* \"internal/repo/contracts/Fcontract.sol\":732:799  require(authorizedEntities[msg.sender] != 0, \"Unauthorized access\") */\n      tag_60\n      jumpi\n      mload(0x40)\n      0x08c379a000000000000000000000000000000000000000000000000000000000\n      dup2\n      mstore\n      0x04\n      add\n      tag_61\n      swap1\n      tag_44\n      jump\t// in\n    tag_61:\n      mload(0x40)\n      dup1\n      swap2\n      sub\n      swap1\n      revert\n    tag_60:\n        /* \"internal/repo/contracts/Fcontract.sol\":2600:2601  0 */\n      0x00\n        /* \"internal/repo/contracts/Fcontract.sol\":2566:2584  authorizedEntities */\n      0x02\n        /* \"internal/repo/contracts/Fcontract.sol\":2566:2596  authorizedEntities[msg.sender] */\n      0x00\n        /* \"internal/repo/contracts/Fcontract.sol\":2585:2595  msg.sender */\n      caller\n        /* \"internal/repo/contracts/Fcontract.sol\":2566:2596  authorizedEntities[msg.sender] */\n      0xffffffffffffffffffffffffffffffffffffffff\n      and\n      0xffffffffffffffffffffffffffffffffffffffff\n      and\n      dup2\n      mstore\n      0x20\n      add\n      swap1\n      dup2\n      mstore\n      0x20\n      add\n      0x00\n      keccak256\n      sload\n        /* \"internal/repo/contracts/Fcontract.sol\":2566:2601  authorizedEntities[msg.sender] != 0 */\n      sub\n        /* \"internal/repo/contracts/Fcontract.sol\":2558:2625  require(authorizedEntities[msg.sender] != 0, \"Unauthorized access\") */\n      tag_63\n      jumpi\n      mload(0x40)\n      0x08c379a000000000000000000000000000000000000000000000000000000000\n      dup2\n      mstore\n      0x04\n      add\n      tag_64\n      swap1\n      tag_44\n      jump\t// in\n    tag_64:\n      mload(0x40)\n      dup1\n      swap2\n      sub\n      swap1\n      revert\n    tag_63:\n        /* \"internal/repo/contracts/Fcontract.sol\":2643:2661  authorizedEntities */\n      0x02\n        /* \"internal/repo/contracts/Fcontract.sol\":2643:2673  authorizedEntities[msg.sender] */\n      0x00\n        /* \"internal/repo/contracts/Fcontract.sol\":2662:2672  msg.sender */\n      caller\n        /* \"internal/repo/contracts/Fcontract.sol\":2643:2673  authorizedEntities[msg.sender] */\n      0xffffffffffffffffffffffffffffffffffffffff\n      and\n      0xffffffffffffffffffffffffffffffffffffffff\n      and\n      dup2\n      mstore\n      0x20\n      add\n      swap1\n      dup2\n      mstore\n      0x20\n      add\n      0x00\n      keccak256\n      sload\n        /* \"internal/repo/contracts/Fcontract.sol\":2636:2673  return authorizedEntities[msg.sender] */\n      swap1\n      pop\n        /* \"internal/repo/contracts/Fcontract.sol\":2476:2680  function getEmployeeID() public onlyAuthorized view returns (uint _emID){... */\n      swap1\n      jump\t// out\n        /* \"internal/repo/contracts/Fcontract.sol\":1470:2010  function getAttendanceByDateRange(uint _employeeId, uint _start, uint _end) public view returns (AttendanceRecord[] memory) {... */\n    tag_26:\n        /* \"internal/repo/contracts/Fcontract.sol\":1567:1592  AttendanceRecord[] memory */\n      0x60\n        /* \"internal/repo/contracts/Fcontract.sol\":1604:1637  AttendanceRecord[] memory records */\n      0x00\n        /* \"internal/repo/contracts/Fcontract.sol\":1640:1657  attendanceRecords */\n      0x01\n        /* \"internal/repo/contracts/Fcontract.sol\":1640:1670  attendanceRecords[_employeeId] */\n      0x00\n        /* \"internal/repo/contracts/Fcontract.sol\":1658:1669  _employeeId */\n      dup7\n        /* \"internal/repo/contracts/Fcontract.sol\":1640:1670  attendanceRecords[_employeeId] */\n      dup2\n      mstore\n      0x20\n      add\n      swap1\n      dup2\n      mstore\n      0x20\n      add\n      0x00\n      keccak256\n        /* \"internal/repo/contracts/Fcontract.sol\":1604:1670  AttendanceRecord[] memory records = attendanceRecords[_employeeId] */\n      dup1\n      sload\n      dup1\n      0x20\n      mul\n      0x20\n      add\n      mload(0x40)\n      swap1\n      dup2\n      add\n      0x40\n      mstore\n      dup1\n      swap3\n      swap2\n      swap1\n      dup2\n      dup2\n      mstore\n      0x20\n      add\n      0x00\n      swap1\n    tag_66:\n      dup3\n      dup3\n      lt\n      iszero\n      tag_67\n      jumpi\n      dup4\n      dup3\n      swap1\n      0x00\n      mstore\n      keccak256(0x00, 0x20)\n      swap1\n      0x03\n      mul\n      add\n      mload(0x40)\n      dup1\n      0x60\n      add\n      0x40\n      mstore\n      swap1\n      dup2\n      0x00\n      dup3\n      add\n      sload\n      dup2\n      mstore\n      0x20\n      add\n      0x01\n      dup3\n      add\n      sload\n      dup2\n      mstore\n      0x20\n      add\n      0x02\n      dup3\n      add\n      dup1\n      sload\n      tag_69\n      swap1\n      tag_70\n      jump\t// in\n    tag_69:\n      dup1\n      0x1f\n      add\n      0x20\n      dup1\n      swap2\n      div\n      mul\n      0x20\n      add\n      mload(0x40)\n      swap1\n      dup2\n      add\n      0x40\n      mstore\n      dup1\n      swap3\n      swap2\n      swap1\n      dup2\n      dup2\n      mstore\n      0x20\n      add\n      dup3\n      dup1\n      sload\n      tag_71\n      swap1\n      tag_70\n      jump\t// in\n    tag_71:\n      dup1\n      iszero\n      tag_72\n      jumpi\n      dup1\n      0x1f\n      lt\n      tag_73\n      jumpi\n      0x0100\n      dup1\n      dup4\n      sload\n      div\n      mul\n      dup4\n      mstore\n      swap2\n      0x20\n      add\n      swap2\n      jump(tag_72)\n    tag_73:\n      dup3\n      add\n      swap2\n      swap1\n      0x00\n      mstore\n      keccak256(0x00, 0x20)\n      swap1\n    tag_74:\n      dup2\n      sload\n      dup2\n      mstore\n      swap1\n      0x01\n      add\n      swap1\n      0x20\n      add\n      dup1\n      dup4\n      gt\n      tag_74\n      jumpi\n      dup3\n      swap1\n      sub\n      0x1f\n      and\n      dup3\n      add\n      swap2\n    tag_72:\n      pop\n      pop\n      pop\n      pop\n      pop\n      dup2\n      mstore\n      pop\n      pop\n      dup2\n      mstore\n      0x20\n      add\n      swap1\n      0x01\n      add\n      swap1\n      jump(tag_66)\n    tag_67:\n      pop\n      pop\n      pop\n      pop\n      swap1\n      pop\n        /* \"internal/repo/contracts/Fcontract.sol\":1680:1721  AttendanceRecord[] memory filteredRecords */\n      0x00\n        /* \"internal/repo/contracts/Fcontract.sol\":1747:1754  records */\n      dup2\n        /* \"internal/repo/contracts/Fcontract.sol\":1747:1761  records.length */\n      mload\n        /* \"internal/repo/contracts/Fcontract.sol\":1724:1762  new AttendanceRecord[](records.length) */\n      0xffffffffffffffff\n      dup2\n      gt\n      iszero\n      tag_75\n      jumpi\n      tag_76\n      tag_77\n      jump\t// in\n    tag_76:\n    tag_75:\n      mload(0x40)\n      swap1\n      dup1\n      dup3\n      mstore\n      dup1\n      0x20\n      mul\n      0x20\n      add\n      dup3\n      add\n      0x40\n      mstore\n      dup1\n      iszero\n      tag_78\n      jumpi\n      dup2\n      0x20\n      add\n    tag_79:\n      tag_80\n      tag_81\n      jump\t// in\n    tag_80:\n      dup2\n      mstore\n      0x20\n      add\n      swap1\n      0x01\n      swap1\n      sub\n      swap1\n      dup2\n      tag_79\n      jumpi\n      swap1\n      pop\n    tag_78:\n      pop\n        /* \"internal/repo/contracts/Fcontract.sol\":1680:1762  AttendanceRecord[] memory filteredRecords = new AttendanceRecord[](records.length) */\n      swap1\n      pop\n        /* \"internal/repo/contracts/Fcontract.sol\":1777:1783  uint i */\n      0x00\n        /* \"internal/repo/contracts/Fcontract.sol\":1772:1972  for (uint i = 0; i < records.length; i++) {... */\n    tag_82:\n        /* \"internal/repo/contracts/Fcontract.sol\":1793:1800  records */\n      dup3\n        /* \"internal/repo/contracts/Fcontract.sol\":1793:1807  records.length */\n      mload\n        /* \"internal/repo/contracts/Fcontract.sol\":1789:1790  i */\n      dup2\n        /* \"internal/repo/contracts/Fcontract.sol\":1789:1807  i < records.length */\n      lt\n        /* \"internal/repo/contracts/Fcontract.sol\":1772:1972  for (uint i = 0; i < records.length; i++) {... */\n      iszero\n      tag_83\n      jumpi\n        /* \"internal/repo/contracts/Fcontract.sol\":1858:1864  _start */\n      dup6\n        /* \"internal/repo/contracts/Fcontract.sol\":1832:1839  records */\n      dup4\n        /* \"internal/repo/contracts/Fcontract.sol\":1840:1841  i */\n      dup3\n        /* \"internal/repo/contracts/Fcontract.sol\":1832:1842  records[i] */\n      dup2\n      mload\n      dup2\n      lt\n      tag_85\n      jumpi\n      tag_86\n      tag_87\n      jump\t// in\n    tag_86:\n    tag_85:\n      0x20\n      mul\n      0x20\n      add\n      add\n      mload\n        /* \"internal/repo/contracts/Fcontract.sol\":1832:1854  records[i].checkInTime */\n      0x20\n      add\n      mload\n        /* \"internal/repo/contracts/Fcontract.sol\":1832:1864  records[i].checkInTime >= _start */\n      lt\n      iszero\n        /* \"internal/repo/contracts/Fcontract.sol\":1832:1898  records[i].checkInTime >= _start && records[i].checkInTime <= _end */\n      dup1\n      iszero\n      tag_88\n      jumpi\n      pop\n        /* \"internal/repo/contracts/Fcontract.sol\":1894:1898  _end */\n      dup5\n        /* \"internal/repo/contracts/Fcontract.sol\":1868:1875  records */\n      dup4\n        /* \"internal/repo/contracts/Fcontract.sol\":1876:1877  i */\n      dup3\n        /* \"internal/repo/contracts/Fcontract.sol\":1868:1878  records[i] */\n      dup2\n      mload\n      dup2\n      lt\n      tag_89\n      jumpi\n      tag_90\n      tag_87\n      jump\t// in\n    tag_90:\n    tag_89:\n      0x20\n      mul\n      0x20\n      add\n      add\n      mload\n        /* \"internal/repo/contracts/Fcontract.sol\":1868:1890  records[i].checkInTime */\n      0x20\n      add\n      mload\n        /* \"internal/repo/contracts/Fcontract.sol\":1868:1898  records[i].checkInTime <= _end */\n      gt\n      iszero\n        /* \"internal/repo/contracts/Fcontract.sol\":1832:1898  records[i].checkInTime >= _start && records[i].checkInTime <= _end */\n    tag_88:\n        /* \"internal/repo/contracts/Fcontract.sol\":1828:1962  if (records[i].checkInTime >= _start && records[i].checkInTime <= _end) {... */\n      iszero\n      tag_91\n      jumpi\n        /* \"internal/repo/contracts/Fcontract.sol\":1937:1944  records */\n      dup3\n        /* \"internal/repo/contracts/Fcontract.sol\":1945:1946  i */\n      dup2\n        /* \"internal/repo/contracts/Fcontract.sol\":1937:1947  records[i] */\n      dup2\n      mload\n      dup2\n      lt\n      tag_92\n      jumpi\n      tag_93\n      tag_87\n      jump\t// in\n    tag_93:\n    tag_92:\n      0x20\n      mul\n      0x20\n      add\n      add\n      mload\n        /* \"internal/repo/contracts/Fcontract.sol\":1918:1933  filteredRecords */\n      dup3\n        /* \"internal/repo/contracts/Fcontract.sol\":1934:1935  i */\n      dup3\n        /* \"internal/repo/contracts/Fcontract.sol\":1918:1936  filteredRecords[i] */\n      dup2\n      mload\n      dup2\n      lt\n      tag_94\n      jumpi\n      tag_95\n      tag_87\n      jump\t// in\n    tag_95:\n    tag_94:\n      0x20\n      mul\n      0x20\n      add\n      add\n        /* \"internal/repo/contracts/Fcontract.sol\":1918:1947  filteredRecords[i]=records[i] */\n      dup2\n      swap1\n      mstore\n      pop\n        /* \"internal/repo/contracts/Fcontract.sol\":1828:1962  if (records[i].checkInTime >= _start && records[i].checkInTime <= _end) {... */\n    tag_91:\n        /* \"internal/repo/contracts/Fcontract.sol\":1809:1812  i++ */\n      dup1\n      dup1\n      0x01\n      add\n      swap2\n      pop\n      pop\n        /* \"internal/repo/contracts/Fcontract.sol\":1772:1972  for (uint i = 0; i < records.length; i++) {... */\n      jump(tag_82)\n    tag_83:\n      pop\n        /* \"internal/repo/contracts/Fcontract.sol\":1988:2003  filteredRecords */\n      dup1\n        /* \"internal/repo/contracts/Fcontract.sol\":1981:2003  return filteredRecords */\n      swap3\n      pop\n      pop\n      pop\n        /* \"internal/repo/contracts/Fcontract.sol\":1470:2010  function getAttendanceByDateRange(uint _employeeId, uint _start, uint _end) public view returns (AttendanceRecord[] memory) {... */\n      swap4\n      swap3\n      pop\n      pop\n      pop\n      jump\t// out\n        /* \"internal/repo/contracts/Fcontract.sol\":2836:2952  function revokeAuthorization(address _entity) public onlyAuthorized {... */\n    tag_31:\n        /* \"internal/repo/contracts/Fcontract.sol\":774:775  0 */\n      0x00\n        /* \"internal/repo/contracts/Fcontract.sol\":740:758  authorizedEntities */\n      0x02\n        /* \"internal/repo/contracts/Fcontract.sol\":740:770  authorizedEntities[msg.sender] */\n      0x00\n        /* \"internal/repo/contracts/Fcontract.sol\":759:769  msg.sender */\n      caller\n        /* \"internal/repo/contracts/Fcontract.sol\":740:770  authorizedEntities[msg.sender] */\n      0xffffffffffffffffffffffffffffffffffffffff\n      and\n      0xffffffffffffffffffffffffffffffffffffffff\n      and\n      dup2\n      mstore\n      0x20\n      add\n      swap1\n      dup2\n      mstore\n      0x20\n      add\n      0x00\n      keccak256\n      sload\n        /* \"internal/repo/contracts/Fcontract.sol\":740:775  authorizedEntities[msg.sender] != 0 */\n      sub\n        /* \"internal/repo/contracts/Fcontract.sol\":732:799  require(authorizedEntities[msg.sender] != 0, \"Unauthorized access\") */\n      tag_97\n      jumpi\n      mload(0x40)\n      0x08c379a000000000000000000000000000000000000000000000000000000000\n      dup2\n      mstore\n      0x04\n      add\n      tag_98\n      swap1\n      tag_44\n      jump\t// in\n    tag_98:\n      mload(0x40)\n      dup1\n      swap2\n      sub\n      swap1\n      revert\n    tag_97:\n        /* \"internal/repo/contracts/Fcontract.sol\":2944:2945  0 */\n      0x00\n        /* \"internal/repo/contracts/Fcontract.sol\":2914:2932  authorizedEntities */\n      0x02\n        /* \"internal/repo/contracts/Fcontract.sol\":2914:2941  authorizedEntities[_entity] */\n      0x00\n        /* \"internal/repo/contracts/Fcontract.sol\":2933:2940  _entity */\n      dup4\n        /* \"internal/repo/contracts/Fcontract.sol\":2914:2941  authorizedEntities[_entity] */\n      0xffffffffffffffffffffffffffffffffffffffff\n      and\n      0xffffffffffffffffffffffffffffffffffffffff\n      and\n      dup2\n      mstore\n      0x20\n      add\n      swap1\n      dup2\n      mstore\n      0x20\n      add\n      0x00\n      keccak256\n        /* \"internal/repo/contracts/Fcontract.sol\":2914:2945  authorizedEntities[_entity] = 0 */\n      dup2\n      swap1\n      sstore\n      pop\n        /* \"internal/repo/contracts/Fcontract.sol\":2836:2952  function revokeAuthorization(address _entity) public onlyAuthorized {... */\n      pop\n      jump\t// out\n        /* \"internal/repo/contracts/Fcontract.sol\":2016:2470  function updateAttendance(uint _employeeId, uint _index, uint _newCheckInTime, string memory _newDetails) public onlyAuthorized {... */\n    tag_35:\n        /* \"internal/repo/contracts/Fcontract.sol\":774:775  0 */\n      0x00\n        /* \"internal/repo/contracts/Fcontract.sol\":740:758  authorizedEntities */\n      0x02\n        /* \"internal/repo/contracts/Fcontract.sol\":740:770  authorizedEntities[msg.sender] */\n      0x00\n        /* \"internal/repo/contracts/Fcontract.sol\":759:769  msg.sender */\n      caller\n        /* \"internal/repo/contracts/Fcontract.sol\":740:770  authorizedEntities[msg.sender] */\n      0xffffffffffffffffffffffffffffffffffffffff\n      and\n      0xffffffffffffffffffffffffffffffffffffffff\n      and\n      dup2\n      mstore\n      0x20\n      add\n      swap1\n      dup2\n      mstore\n      0x20\n      add\n      0x00\n      keccak256\n      sload\n        /* \"internal/repo/contracts/Fcontract.sol\":740:775  authorizedEntities[msg.sender] != 0 */\n      sub\n        /* \"internal/repo/contracts/Fcontract.sol\":732:799  require(authorizedEntities[msg.sender] != 0, \"Unauthorized access\") */\n      tag_101\n      jumpi\n      mload(0x40)\n      0x08c379a000000000000000000000000000000000000000000000000000000000\n      dup2\n      mstore\n      0x04\n      add\n      tag_102\n      swap1\n      tag_44\n      jump\t// in\n    tag_102:\n      mload(0x40)\n      dup1\n      swap2\n      sub\n      swap1\n      revert\n    tag_101:\n        /* \"internal/repo/contracts/Fcontract.sol\":2171:2188  attendanceRecords */\n      0x01\n        /* \"internal/repo/contracts/Fcontract.sol\":2171:2201  attendanceRecords[_employeeId] */\n      0x00\n        /* \"internal/repo/contracts/Fcontract.sol\":2189:2200  _employeeId */\n      dup6\n        /* \"internal/repo/contracts/Fcontract.sol\":2171:2201  attendanceRecords[_employeeId] */\n      dup2\n      mstore\n      0x20\n      add\n      swap1\n      dup2\n      mstore\n      0x20\n      add\n      0x00\n      keccak256\n        /* \"internal/repo/contracts/Fcontract.sol\":2171:2208  attendanceRecords[_employeeId].length */\n      dup1\n      sload\n      swap1\n      pop\n        /* \"internal/repo/contracts/Fcontract.sol\":2162:2168  _index */\n      dup4\n        /* \"internal/repo/contracts/Fcontract.sol\":2162:2208  _index < attendanceRecords[_employeeId].length */\n      lt\n        /* \"internal/repo/contracts/Fcontract.sol\":2154:2232  require(_index < attendanceRecords[_employeeId].length, \"Index out of bounds\") */\n      tag_104\n      jumpi\n      mload(0x40)\n      0x08c379a000000000000000000000000000000000000000000000000000000000\n      dup2\n      mstore\n      0x04\n      add\n      tag_105\n      swap1\n      tag_106\n      jump\t// in\n    tag_105:\n      mload(0x40)\n      dup1\n      swap2\n      sub\n      swap1\n      revert\n    tag_104:\n        /* \"internal/repo/contracts/Fcontract.sol\":2295:2310  _newCheckInTime */\n      dup2\n        /* \"internal/repo/contracts/Fcontract.sol\":2242:2259  attendanceRecords */\n      0x01\n        /* \"internal/repo/contracts/Fcontract.sol\":2242:2272  attendanceRecords[_employeeId] */\n      0x00\n        /* \"internal/repo/contracts/Fcontract.sol\":2260:2271  _employeeId */\n      dup7\n        /* \"internal/repo/contracts/Fcontract.sol\":2242:2272  attendanceRecords[_employeeId] */\n      dup2\n      mstore\n      0x20\n      add\n      swap1\n      dup2\n      mstore\n      0x20\n      add\n      0x00\n      keccak256\n        /* \"internal/repo/contracts/Fcontract.sol\":2273:2279  _index */\n      dup5\n        /* \"internal/repo/contracts/Fcontract.sol\":2242:2280  attendanceRecords[_employeeId][_index] */\n      dup2\n      sload\n      dup2\n      lt\n      tag_107\n      jumpi\n      tag_108\n      tag_87\n      jump\t// in\n    tag_108:\n    tag_107:\n      swap1\n      0x00\n      mstore\n      keccak256(0x00, 0x20)\n      swap1\n      0x03\n      mul\n      add\n        /* \"internal/repo/contracts/Fcontract.sol\":2242:2292  attendanceRecords[_employeeId][_index].checkInTime */\n      0x01\n      add\n        /* \"internal/repo/contracts/Fcontract.sol\":2242:2310  attendanceRecords[_employeeId][_index].checkInTime = _newCheckInTime */\n      dup2\n      swap1\n      sstore\n      pop\n        /* \"internal/repo/contracts/Fcontract.sol\":2369:2380  _newDetails */\n      dup1\n        /* \"internal/repo/contracts/Fcontract.sol\":2320:2337  attendanceRecords */\n      0x01\n        /* \"internal/repo/contracts/Fcontract.sol\":2320:2350  attendanceRecords[_employeeId] */\n      0x00\n        /* \"internal/repo/contracts/Fcontract.sol\":2338:2349  _employeeId */\n      dup7\n        /* \"internal/repo/contracts/Fcontract.sol\":2320:2350  attendanceRecords[_employeeId] */\n      dup2\n      mstore\n      0x20\n      add\n      swap1\n      dup2\n      mstore\n      0x20\n      add\n      0x00\n      keccak256\n        /* \"internal/repo/contracts/Fcontract.sol\":2351:2357  _index */\n      dup5\n        /* \"internal/repo/contracts/Fcontract.sol\":2320:2358  attendanceRecords[_employeeId][_index] */\n      dup2\n      sload\n      dup2\n      lt\n      tag_110\n      jumpi\n      tag_111\n      tag_87\n      jump\t// in\n    tag_111:\n    tag_110:\n      swap1\n      0x00\n      mstore\n      keccak256(0x00, 0x20)\n      swap1\n      0x03\n      mul\n      add\n        /* \"internal/repo/contracts/Fcontract.sol\":2320:2366  attendanceRecords[_employeeId][_index].details */\n      0x02\n      add\n        /* \"internal/repo/contracts/Fcontract.sol\":2320:2380  attendanceRecords[_employeeId][_index].details = _newDetails */\n      swap1\n      dup2\n      tag_113\n      swap2\n      swap1\n      tag_56\n      jump\t// in\n    tag_113:\n      pop\n        /* \"internal/repo/contracts/Fcontract.sol\":2413:2424  _employeeId */\n      dup4\n        /* \"internal/repo/contracts/Fcontract.sol\":2395:2463  AttendanceUpdated(_employeeId, _index, _newCheckInTime, _newDetails) */\n      0xa0d3071670661a556feb29023709b20ab2a62d5c56f63343d67c087d28be3df7\n        /* \"internal/repo/contracts/Fcontract.sol\":2426:2432  _index */\n      dup5\n        /* \"internal/repo/contracts/Fcontract.sol\":2434:2449  _newCheckInTime */\n      dup5\n        /* \"internal/repo/contracts/Fcontract.sol\":2451:2462  _newDetails */\n      dup5\n        /* \"internal/repo/contracts/Fcontract.sol\":2395:2463  AttendanceUpdated(_employeeId, _index, _newCheckInTime, _newDetails) */\n      mload(0x40)\n      tag_114\n      swap4\n      swap3\n      swap2\n      swap1\n      tag_115\n      jump\t// in\n    tag_114:\n      mload(0x40)\n      dup1\n      swap2\n      sub\n      swap1\n      log2\n        /* \"internal/repo/contracts/Fcontract.sol\":2016:2470  function updateAttendance(uint _employeeId, uint _index, uint _newCheckInTime, string memory _newDetails) public onlyAuthorized {... */\n      pop\n      pop\n      pop\n      pop\n      jump\t// out\n        /* \"internal/repo/contracts/Fcontract.sol\":1309:1464  function getAttendanceByEmployeeId(uint _employeeId) public view returns (AttendanceRecord[] memory) {... */\n    tag_39:\n        /* \"internal/repo/contracts/Fcontract.sol\":1383:1408  AttendanceRecord[] memory */\n      0x60\n        /* \"internal/repo/contracts/Fcontract.sol\":1427:1444  attendanceRecords */\n      0x01\n        /* \"internal/repo/contracts/Fcontract.sol\":1427:1457  attendanceRecords[_employeeId] */\n      0x00\n        /* \"internal/repo/contracts/Fcontract.sol\":1445:1456  _employeeId */\n      dup4\n        /* \"internal/repo/contracts/Fcontract.sol\":1427:1457  attendanceRecords[_employeeId] */\n      dup2\n      mstore\n      0x20\n      add\n      swap1\n      dup2\n      mstore\n      0x20\n      add\n      0x00\n      keccak256\n        /* \"internal/repo/contracts/Fcontract.sol\":1420:1457  return attendanceRecords[_employeeId] */\n      dup1\n      sload\n      dup1\n      0x20\n      mul\n      0x20\n      add\n      mload(0x40)\n      swap1\n      dup2\n      add\n      0x40\n      mstore\n      dup1\n      swap3\n      swap2\n      swap1\n      dup2\n      dup2\n      mstore\n      0x20\n      add\n      0x00\n      swap1\n    tag_117:\n      dup3\n      dup3\n      lt\n      iszero\n      tag_118\n      jumpi\n      dup4\n      dup3\n      swap1\n      0x00\n      mstore\n      keccak256(0x00, 0x20)\n      swap1\n      0x03\n      mul\n      add\n      mload(0x40)\n      dup1\n      0x60\n      add\n      0x40\n      mstore\n      swap1\n      dup2\n      0x00\n      dup3\n      add\n      sload\n      dup2\n      mstore\n      0x20\n      add\n      0x01\n      dup3\n      add\n      sload\n      dup2\n      mstore\n      0x20\n      add\n      0x02\n      dup3\n      add\n      dup1\n      sload\n      tag_120\n      swap1\n      tag_70\n      jump\t// in\n    tag_120:\n      dup1\n      0x1f\n      add\n      0x20\n      dup1\n      swap2\n      div\n      mul\n      0x20\n      add\n      mload(0x40)\n      swap1\n      dup2\n      add\n      0x40\n      mstore\n      dup1\n      swap3\n      swap2\n      swap1\n      dup2\n      dup2\n      mstore\n      0x20\n      add\n      dup3\n      dup1\n      sload\n      tag_121\n      swap1\n      tag_70\n      jump\t// in\n    tag_121:\n      dup1\n      iszero\n      tag_122\n      jumpi\n      dup1\n      0x1f\n      lt\n      tag_123\n      jumpi\n      0x0100\n      dup1\n      dup4\n      sload\n      div\n      mul\n      dup4\n      mstore\n      swap2\n      0x20\n      add\n      swap2\n      jump(tag_122)\n    tag_123:\n      dup3\n      add\n      swap2\n      swap1\n      0x00\n      mstore\n      keccak256(0x00, 0x20)\n      swap1\n    tag_124:\n      dup2\n      sload\n      dup2\n      mstore\n      swap1\n      0x01\n      add\n      swap1\n      0x20\n      add\n      dup1\n      dup4\n      gt\n      tag_124\n      jumpi\n      dup3\n      swap1\n      sub\n      0x1f\n      and\n      dup3\n      add\n      swap2\n    tag_122:\n      pop\n      pop\n      pop\n      pop\n      pop\n      dup2\n      mstore\n      pop\n      pop\n      dup2\n      mstore\n      0x20\n      add\n      swap1\n      0x01\n      add\n      swap1\n      jump(tag_117)\n    tag_118:\n      pop\n      pop\n      pop\n      pop\n      swap1\n      pop\n        /* \"internal/repo/contracts/Fcontract.sol\":1309:1464  function getAttendanceByEmployeeId(uint _employeeId) public view returns (AttendanceRecord[] memory) {... */\n      swap2\n      swap1\n      pop\n      jump\t// out\n    tag_81:\n      mload(0x40)\n      dup1\n      0x60\n      add\n      0x40\n      mstore\n      dup1\n      0x00\n      dup2\n      mstore\n      0x20\n      add\n      0x00\n      dup2\n      mstore\n      0x20\n      add\n      0x60\n      dup2\n      mstore\n      pop\n      swap1\n      jump\t// out\n        /* \"#utility.yul\":7:82   */\n    tag_125:\n        /* \"#utility.yul\":40:46   */\n      0x00\n        /* \"#utility.yul\":73:75   */\n      0x40\n        /* \"#utility.yul\":67:76   */\n      mload\n        /* \"#utility.yul\":57:76   */\n      swap1\n      pop\n        /* \"#utility.yul\":7:82   */\n      swap1\n      jump\t// out\n        /* \"#utility.yul\":88:205   */\n    tag_126:\n        /* \"#utility.yul\":197:198   */\n      0x00\n        /* \"#utility.yul\":194:195   */\n      dup1\n        /* \"#utility.yul\":187:199   */\n      revert\n        /* \"#utility.yul\":211:328   */\n    tag_127:\n        /* \"#utility.yul\":320:321   */\n      0x00\n        /* \"#utility.yul\":317:318   */\n      dup1\n        /* \"#utility.yul\":310:322   */\n      revert\n        /* \"#utility.yul\":334:460   */\n    tag_128:\n        /* \"#utility.yul\":371:378   */\n      0x00\n        /* \"#utility.yul\":411:453   */\n      0xffffffffffffffffffffffffffffffffffffffff\n        /* \"#utility.yul\":404:409   */\n      dup3\n        /* \"#utility.yul\":400:454   */\n      and\n        /* \"#utility.yul\":389:454   */\n      swap1\n      pop\n        /* \"#utility.yul\":334:460   */\n      swap2\n      swap1\n      pop\n      jump\t// out\n        /* \"#utility.yul\":466:562   */\n    tag_129:\n        /* \"#utility.yul\":503:510   */\n      0x00\n        /* \"#utility.yul\":532:556   */\n      tag_186\n        /* \"#utility.yul\":550:555   */\n      dup3\n        /* \"#utility.yul\":532:556   */\n      tag_128\n      jump\t// in\n    tag_186:\n        /* \"#utility.yul\":521:556   */\n      swap1\n      pop\n        /* \"#utility.yul\":466:562   */\n      swap2\n      swap1\n      pop\n      jump\t// out\n        /* \"#utility.yul\":568:690   */\n    tag_130:\n        /* \"#utility.yul\":641:665   */\n      tag_188\n        /* \"#utility.yul\":659:664   */\n      dup2\n        /* \"#utility.yul\":641:665   */\n      tag_129\n      jump\t// in\n    tag_188:\n        /* \"#utility.yul\":634:639   */\n      dup2\n        /* \"#utility.yul\":631:666   */\n      eq\n        /* \"#utility.yul\":621:684   */\n      tag_189\n      jumpi\n        /* \"#utility.yul\":680:681   */\n      0x00\n        /* \"#utility.yul\":677:678   */\n      dup1\n        /* \"#utility.yul\":670:682   */\n      revert\n        /* \"#utility.yul\":621:684   */\n    tag_189:\n        /* \"#utility.yul\":568:690   */\n      pop\n      jump\t// out\n        /* \"#utility.yul\":696:835   */\n    tag_131:\n        /* \"#utility.yul\":742:747   */\n      0x00\n        /* \"#utility.yul\":780:786   */\n      dup2\n        /* \"#utility.yul\":767:787   */\n      calldataload\n        /* \"#utility.yul\":758:787   */\n      swap1\n      pop\n        /* \"#utility.yul\":796:829   */\n      tag_191\n        /* \"#utility.yul\":823:828   */\n      dup2\n        /* \"#utility.yul\":796:829   */\n      tag_130\n      jump\t// in\n    tag_191:\n        /* \"#utility.yul\":696:835   */\n      swap3\n      swap2\n      pop\n      pop\n      jump\t// out\n        /* \"#utility.yul\":841:1170   */\n    tag_13:\n        /* \"#utility.yul\":900:906   */\n      0x00\n        /* \"#utility.yul\":949:951   */\n      0x20\n        /* \"#utility.yul\":937:946   */\n      dup3\n        /* \"#utility.yul\":928:935   */\n      dup5\n        /* \"#utility.yul\":924:947   */\n      sub\n        /* \"#utility.yul\":920:952   */\n      slt\n        /* \"#utility.yul\":917:1036   */\n      iszero\n      tag_193\n      jumpi\n        /* \"#utility.yul\":955:1034   */\n      tag_194\n      tag_126\n      jump\t// in\n    tag_194:\n        /* \"#utility.yul\":917:1036   */\n    tag_193:\n        /* \"#utility.yul\":1075:1076   */\n      0x00\n        /* \"#utility.yul\":1100:1153   */\n      tag_195\n        /* \"#utility.yul\":1145:1152   */\n      dup5\n        /* \"#utility.yul\":1136:1142   */\n      dup3\n        /* \"#utility.yul\":1125:1134   */\n      dup6\n        /* \"#utility.yul\":1121:1143   */\n      add\n        /* \"#utility.yul\":1100:1153   */\n      tag_131\n      jump\t// in\n    tag_195:\n        /* \"#utility.yul\":1090:1153   */\n      swap2\n      pop\n        /* \"#utility.yul\":1046:1163   */\n      pop\n        /* \"#utility.yul\":841:1170   */\n      swap3\n      swap2\n      pop\n      pop\n      jump\t// out\n        /* \"#utility.yul\":1176:1253   */\n    tag_132:\n        /* \"#utility.yul\":1213:1220   */\n      0x00\n        /* \"#utility.yul\":1242:1247   */\n      dup2\n        /* \"#utility.yul\":1231:1247   */\n      swap1\n      pop\n        /* \"#utility.yul\":1176:1253   */\n      swap2\n      swap1\n      pop\n      jump\t// out\n        /* \"#utility.yul\":1259:1381   */\n    tag_133:\n        /* \"#utility.yul\":1332:1356   */\n      tag_198\n        /* \"#utility.yul\":1350:1355   */\n      dup2\n        /* \"#utility.yul\":1332:1356   */\n      tag_132\n      jump\t// in\n    tag_198:\n        /* \"#utility.yul\":1325:1330   */\n      dup2\n        /* \"#utility.yul\":1322:1357   */\n      eq\n        /* \"#utility.yul\":1312:1375   */\n      tag_199\n      jumpi\n        /* \"#utility.yul\":1371:1372   */\n      0x00\n        /* \"#utility.yul\":1368:1369   */\n      dup1\n        /* \"#utility.yul\":1361:1373   */\n      revert\n        /* \"#utility.yul\":1312:1375   */\n    tag_199:\n        /* \"#utility.yul\":1259:1381   */\n      pop\n      jump\t// out\n        /* \"#utility.yul\":1387:1526   */\n    tag_134:\n        /* \"#utility.yul\":1433:1438   */\n      0x00\n        /* \"#utility.yul\":1471:1477   */\n      dup2\n        /* \"#utility.yul\":1458:1478   */\n      calldataload\n        /* \"#utility.yul\":1449:1478   */\n      swap1\n      pop\n        /* \"#utility.yul\":1487:1520   */\n      tag_201\n        /* \"#utility.yul\":1514:1519   */\n      dup2\n        /* \"#utility.yul\":1487:1520   */\n      tag_133\n      jump\t// in\n    tag_201:\n        /* \"#utility.yul\":1387:1526   */\n      swap3\n      swap2\n      pop\n      pop\n      jump\t// out\n        /* \"#utility.yul\":1532:1649   */\n    tag_135:\n        /* \"#utility.yul\":1641:1642   */\n      0x00\n        /* \"#utility.yul\":1638:1639   */\n      dup1\n        /* \"#utility.yul\":1631:1643   */\n      revert\n        /* \"#utility.yul\":1655:1772   */\n    tag_136:\n        /* \"#utility.yul\":1764:1765   */\n      0x00\n        /* \"#utility.yul\":1761:1762   */\n      dup1\n        /* \"#utility.yul\":1754:1766   */\n      revert\n        /* \"#utility.yul\":1778:1880   */\n    tag_137:\n        /* \"#utility.yul\":1819:1825   */\n      0x00\n        /* \"#utility.yul\":1870:1872   */\n      0x1f\n        /* \"#utility.yul\":1866:1873   */\n      not\n        /* \"#utility.yul\":1861:1863   */\n      0x1f\n        /* \"#utility.yul\":1854:1859   */\n      dup4\n        /* \"#utility.yul\":1850:1864   */\n      add\n        /* \"#utility.yul\":1846:1874   */\n      and\n        /* \"#utility.yul\":1836:1874   */\n      swap1\n      pop\n        /* \"#utility.yul\":1778:1880   */\n      swap2\n      swap1\n      pop\n      jump\t// out\n        /* \"#utility.yul\":1886:2066   */\n    tag_77:\n        /* \"#utility.yul\":1934:2011   */\n      0x4e487b7100000000000000000000000000000000000000000000000000000000\n        /* \"#utility.yul\":1931:1932   */\n      0x00\n        /* \"#utility.yul\":1924:2012   */\n      mstore\n        /* \"#utility.yul\":2031:2035   */\n      0x41\n        /* \"#utility.yul\":2028:2029   */\n      0x04\n        /* \"#utility.yul\":2021:2036   */\n      mstore\n        /* \"#utility.yul\":2055:2059   */\n      0x24\n        /* \"#utility.yul\":2052:2053   */\n      0x00\n        /* \"#utility.yul\":2045:2060   */\n      revert\n        /* \"#utility.yul\":2072:2353   */\n    tag_138:\n        /* \"#utility.yul\":2155:2182   */\n      tag_207\n        /* \"#utility.yul\":2177:2181   */\n      dup3\n        /* \"#utility.yul\":2155:2182   */\n      tag_137\n      jump\t// in\n    tag_207:\n        /* \"#utility.yul\":2147:2153   */\n      dup2\n        /* \"#utility.yul\":2143:2183   */\n      add\n        /* \"#utility.yul\":2285:2291   */\n      dup2\n        /* \"#utility.yul\":2273:2283   */\n      dup2\n        /* \"#utility.yul\":2270:2292   */\n      lt\n        /* \"#utility.yul\":2249:2267   */\n      0xffffffffffffffff\n        /* \"#utility.yul\":2237:2247   */\n      dup3\n        /* \"#utility.yul\":2234:2268   */\n      gt\n        /* \"#utility.yul\":2231:2293   */\n      or\n        /* \"#utility.yul\":2228:2316   */\n      iszero\n      tag_208\n      jumpi\n        /* \"#utility.yul\":2296:2314   */\n      tag_209\n      tag_77\n      jump\t// in\n    tag_209:\n        /* \"#utility.yul\":2228:2316   */\n    tag_208:\n        /* \"#utility.yul\":2336:2346   */\n      dup1\n        /* \"#utility.yul\":2332:2334   */\n      0x40\n        /* \"#utility.yul\":2325:2347   */\n      mstore\n        /* \"#utility.yul\":2115:2353   */\n      pop\n        /* \"#utility.yul\":2072:2353   */\n      pop\n      pop\n      jump\t// out\n        /* \"#utility.yul\":2359:2488   */\n    tag_139:\n        /* \"#utility.yul\":2393:2399   */\n      0x00\n        /* \"#utility.yul\":2420:2440   */\n      tag_211\n      tag_125\n      jump\t// in\n    tag_211:\n        /* \"#utility.yul\":2410:2440   */\n      swap1\n      pop\n        /* \"#utility.yul\":2449:2482   */\n      tag_212\n        /* \"#utility.yul\":2477:2481   */\n      dup3\n        /* \"#utility.yul\":2469:2475   */\n      dup3\n        /* \"#utility.yul\":2449:2482   */\n      tag_138\n      jump\t// in\n    tag_212:\n        /* \"#utility.yul\":2359:2488   */\n      swap2\n      swap1\n      pop\n      jump\t// out\n        /* \"#utility.yul\":2494:2802   */\n    tag_140:\n        /* \"#utility.yul\":2556:2560   */\n      0x00\n        /* \"#utility.yul\":2646:2664   */\n      0xffffffffffffffff\n        /* \"#utility.yul\":2638:2644   */\n      dup3\n        /* \"#utility.yul\":2635:2665   */\n      gt\n        /* \"#utility.yul\":2632:2688   */\n      iszero\n      tag_214\n      jumpi\n        /* \"#utility.yul\":2668:2686   */\n      tag_215\n      tag_77\n      jump\t// in\n    tag_215:\n        /* \"#utility.yul\":2632:2688   */\n    tag_214:\n        /* \"#utility.yul\":2706:2735   */\n      tag_216\n        /* \"#utility.yul\":2728:2734   */\n      dup3\n        /* \"#utility.yul\":2706:2735   */\n      tag_137\n      jump\t// in\n    tag_216:\n        /* \"#utility.yul\":2698:2735   */\n      swap1\n      pop\n        /* \"#utility.yul\":2790:2794   */\n      0x20\n        /* \"#utility.yul\":2784:2788   */\n      dup2\n        /* \"#utility.yul\":2780:2795   */\n      add\n        /* \"#utility.yul\":2772:2795   */\n      swap1\n      pop\n        /* \"#utility.yul\":2494:2802   */\n      swap2\n      swap1\n      pop\n      jump\t// out\n        /* \"#utility.yul\":2808:2954   */\n    tag_141:\n        /* \"#utility.yul\":2905:2911   */\n      dup3\n        /* \"#utility.yul\":2900:2903   */\n      dup2\n        /* \"#utility.yul\":2895:2898   */\n      dup4\n        /* \"#utility.yul\":2882:2912   */\n      calldatacopy\n        /* \"#utility.yul\":2946:2947   */\n      0x00\n        /* \"#utility.yul\":2937:2943   */\n      dup4\n        /* \"#utility.yul\":2932:2935   */\n      dup4\n        /* \"#utility.yul\":2928:2944   */\n      add\n        /* \"#utility.yul\":2921:2948   */\n      mstore\n        /* \"#utility.yul\":2808:2954   */\n      pop\n      pop\n      pop\n      jump\t// out\n        /* \"#utility.yul\":2960:3385   */\n    tag_142:\n        /* \"#utility.yul\":3038:3043   */\n      0x00\n        /* \"#utility.yul\":3063:3129   */\n      tag_219\n        /* \"#utility.yul\":3079:3128   */\n      tag_220\n        /* \"#utility.yul\":3121:3127   */\n      dup5\n        /* \"#utility.yul\":3079:3128   */\n      tag_140\n      jump\t// in\n    tag_220:\n        /* \"#utility.yul\":3063:3129   */\n      tag_139\n      jump\t// in\n    tag_219:\n        /* \"#utility.yul\":3054:3129   */\n      swap1\n      pop\n        /* \"#utility.yul\":3152:3158   */\n      dup3\n        /* \"#utility.yul\":3145:3150   */\n      dup2\n        /* \"#utility.yul\":3138:3159   */\n      mstore\n        /* \"#utility.yul\":3190:3194   */\n      0x20\n        /* \"#utility.yul\":3183:3188   */\n      dup2\n        /* \"#utility.yul\":3179:3195   */\n      add\n        /* \"#utility.yul\":3228:3231   */\n      dup5\n        /* \"#utility.yul\":3219:3225   */\n      dup5\n        /* \"#utility.yul\":3214:3217   */\n      dup5\n        /* \"#utility.yul\":3210:3226   */\n      add\n        /* \"#utility.yul\":3207:3232   */\n      gt\n        /* \"#utility.yul\":3204:3316   */\n      iszero\n      tag_221\n      jumpi\n        /* \"#utility.yul\":3235:3314   */\n      tag_222\n      tag_136\n      jump\t// in\n    tag_222:\n        /* \"#utility.yul\":3204:3316   */\n    tag_221:\n        /* \"#utility.yul\":3325:3379   */\n      tag_223\n        /* \"#utility.yul\":3372:3378   */\n      dup5\n        /* \"#utility.yul\":3367:3370   */\n      dup3\n        /* \"#utility.yul\":3362:3365   */\n      dup6\n        /* \"#utility.yul\":3325:3379   */\n      tag_141\n      jump\t// in\n    tag_223:\n        /* \"#utility.yul\":3044:3385   */\n      pop\n        /* \"#utility.yul\":2960:3385   */\n      swap4\n      swap3\n      pop\n      pop\n      pop\n      jump\t// out\n        /* \"#utility.yul\":3405:3745   */\n    tag_143:\n        /* \"#utility.yul\":3461:3466   */\n      0x00\n        /* \"#utility.yul\":3510:3513   */\n      dup3\n        /* \"#utility.yul\":3503:3507   */\n      0x1f\n        /* \"#utility.yul\":3495:3501   */\n      dup4\n        /* \"#utility.yul\":3491:3508   */\n      add\n        /* \"#utility.yul\":3487:3514   */\n      slt\n        /* \"#utility.yul\":3477:3599   */\n      tag_225\n      jumpi\n        /* \"#utility.yul\":3518:3597   */\n      tag_226\n      tag_135\n      jump\t// in\n    tag_226:\n        /* \"#utility.yul\":3477:3599   */\n    tag_225:\n        /* \"#utility.yul\":3635:3641   */\n      dup2\n        /* \"#utility.yul\":3622:3642   */\n      calldataload\n        /* \"#utility.yul\":3660:3739   */\n      tag_227\n        /* \"#utility.yul\":3735:3738   */\n      dup5\n        /* \"#utility.yul\":3727:3733   */\n      dup3\n        /* \"#utility.yul\":3720:3724   */\n      0x20\n        /* \"#utility.yul\":3712:3718   */\n      dup7\n        /* \"#utility.yul\":3708:3725   */\n      add\n        /* \"#utility.yul\":3660:3739   */\n      tag_142\n      jump\t// in\n    tag_227:\n        /* \"#utility.yul\":3651:3739   */\n      swap2\n      pop\n        /* \"#utility.yul\":3467:3745   */\n      pop\n        /* \"#utility.yul\":3405:3745   */\n      swap3\n      swap2\n      pop\n      pop\n      jump\t// out\n        /* \"#utility.yul\":3751:4550   */\n    tag_17:\n        /* \"#utility.yul\":3838:3844   */\n      0x00\n        /* \"#utility.yul\":3846:3852   */\n      dup1\n        /* \"#utility.yul\":3854:3860   */\n      0x00\n        /* \"#utility.yul\":3903:3905   */\n      0x60\n        /* \"#utility.yul\":3891:3900   */\n      dup5\n        /* \"#utility.yul\":3882:3889   */\n      dup7\n        /* \"#utility.yul\":3878:3901   */\n      sub\n        /* \"#utility.yul\":3874:3906   */\n      slt\n        /* \"#utility.yul\":3871:3990   */\n      iszero\n      tag_229\n      jumpi\n        /* \"#utility.yul\":3909:3988   */\n      tag_230\n      tag_126\n      jump\t// in\n    tag_230:\n        /* \"#utility.yul\":3871:3990   */\n    tag_229:\n        /* \"#utility.yul\":4029:4030   */\n      0x00\n        /* \"#utility.yul\":4054:4107   */\n      tag_231\n        /* \"#utility.yul\":4099:4106   */\n      dup7\n        /* \"#utility.yul\":4090:4096   */\n      dup3\n        /* \"#utility.yul\":4079:4088   */\n      dup8\n        /* \"#utility.yul\":4075:4097   */\n      add\n        /* \"#utility.yul\":4054:4107   */\n      tag_134\n      jump\t// in\n    tag_231:\n        /* \"#utility.yul\":4044:4107   */\n      swap4\n      pop\n        /* \"#utility.yul\":4000:4117   */\n      pop\n        /* \"#utility.yul\":4156:4158   */\n      0x20\n        /* \"#utility.yul\":4182:4235   */\n      tag_232\n        /* \"#utility.yul\":4227:4234   */\n      dup7\n        /* \"#utility.yul\":4218:4224   */\n      dup3\n        /* \"#utility.yul\":4207:4216   */\n      dup8\n        /* \"#utility.yul\":4203:4225   */\n      add\n        /* \"#utility.yul\":4182:4235   */\n      tag_134\n      jump\t// in\n    tag_232:\n        /* \"#utility.yul\":4172:4235   */\n      swap3\n      pop\n        /* \"#utility.yul\":4127:4245   */\n      pop\n        /* \"#utility.yul\":4312:4314   */\n      0x40\n        /* \"#utility.yul\":4301:4310   */\n      dup5\n        /* \"#utility.yul\":4297:4315   */\n      add\n        /* \"#utility.yul\":4284:4316   */\n      calldataload\n        /* \"#utility.yul\":4343:4361   */\n      0xffffffffffffffff\n        /* \"#utility.yul\":4335:4341   */\n      dup2\n        /* \"#utility.yul\":4332:4362   */\n      gt\n        /* \"#utility.yul\":4329:4446   */\n      iszero\n      tag_233\n      jumpi\n        /* \"#utility.yul\":4365:4444   */\n      tag_234\n      tag_127\n      jump\t// in\n    tag_234:\n        /* \"#utility.yul\":4329:4446   */\n    tag_233:\n        /* \"#utility.yul\":4470:4533   */\n      tag_235\n        /* \"#utility.yul\":4525:4532   */\n      dup7\n        /* \"#utility.yul\":4516:4522   */\n      dup3\n        /* \"#utility.yul\":4505:4514   */\n      dup8\n        /* \"#utility.yul\":4501:4523   */\n      add\n        /* \"#utility.yul\":4470:4533   */\n      tag_143\n      jump\t// in\n    tag_235:\n        /* \"#utility.yul\":4460:4533   */\n      swap2\n      pop\n        /* \"#utility.yul\":4255:4543   */\n      pop\n        /* \"#utility.yul\":3751:4550   */\n      swap3\n      pop\n      swap3\n      pop\n      swap3\n      jump\t// out\n        /* \"#utility.yul\":4556:4674   */\n    tag_144:\n        /* \"#utility.yul\":4643:4667   */\n      tag_237\n        /* \"#utility.yul\":4661:4666   */\n      dup2\n        /* \"#utility.yul\":4643:4667   */\n      tag_132\n      jump\t// in\n    tag_237:\n        /* \"#utility.yul\":4638:4641   */\n      dup3\n        /* \"#utility.yul\":4631:4668   */\n      mstore\n        /* \"#utility.yul\":4556:4674   */\n      pop\n      pop\n      jump\t// out\n        /* \"#utility.yul\":4680:4902   */\n    tag_22:\n        /* \"#utility.yul\":4773:4777   */\n      0x00\n        /* \"#utility.yul\":4811:4813   */\n      0x20\n        /* \"#utility.yul\":4800:4809   */\n      dup3\n        /* \"#utility.yul\":4796:4814   */\n      add\n        /* \"#utility.yul\":4788:4814   */\n      swap1\n      pop\n        /* \"#utility.yul\":4824:4895   */\n      tag_239\n        /* \"#utility.yul\":4892:4893   */\n      0x00\n        /* \"#utility.yul\":4881:4890   */\n      dup4\n        /* \"#utility.yul\":4877:4894   */\n      add\n        /* \"#utility.yul\":4868:4874   */\n      dup5\n        /* \"#utility.yul\":4824:4895   */\n      tag_144\n      jump\t// in\n    tag_239:\n        /* \"#utility.yul\":4680:4902   */\n      swap3\n      swap2\n      pop\n      pop\n      jump\t// out\n        /* \"#utility.yul\":4908:5527   */\n    tag_25:\n        /* \"#utility.yul\":4985:4991   */\n      0x00\n        /* \"#utility.yul\":4993:4999   */\n      dup1\n        /* \"#utility.yul\":5001:5007   */\n      0x00\n        /* \"#utility.yul\":5050:5052   */\n      0x60\n        /* \"#utility.yul\":5038:5047   */\n      dup5\n        /* \"#utility.yul\":5029:5036   */\n      dup7\n        /* \"#utility.yul\":5025:5048   */\n      sub\n        /* \"#utility.yul\":5021:5053   */\n      slt\n        /* \"#utility.yul\":5018:5137   */\n      iszero\n      tag_241\n      jumpi\n        /* \"#utility.yul\":5056:5135   */\n      tag_242\n      tag_126\n      jump\t// in\n    tag_242:\n        /* \"#utility.yul\":5018:5137   */\n    tag_241:\n        /* \"#utility.yul\":5176:5177   */\n      0x00\n        /* \"#utility.yul\":5201:5254   */\n      tag_243\n        /* \"#utility.yul\":5246:5253   */\n      dup7\n        /* \"#utility.yul\":5237:5243   */\n      dup3\n        /* \"#utility.yul\":5226:5235   */\n      dup8\n        /* \"#utility.yul\":5222:5244   */\n      add\n        /* \"#utility.yul\":5201:5254   */\n      tag_134\n      jump\t// in\n    tag_243:\n        /* \"#utility.yul\":5191:5254   */\n      swap4\n      pop\n        /* \"#utility.yul\":5147:5264   */\n      pop\n        /* \"#utility.yul\":5303:5305   */\n      0x20\n        /* \"#utility.yul\":5329:5382   */\n      tag_244\n        /* \"#utility.yul\":5374:5381   */\n      dup7\n        /* \"#utility.yul\":5365:5371   */\n      dup3\n        /* \"#utility.yul\":5354:5363   */\n      dup8\n        /* \"#utility.yul\":5350:5372   */\n      add\n        /* \"#utility.yul\":5329:5382   */\n      tag_134\n      jump\t// in\n    tag_244:\n        /* \"#utility.yul\":5319:5382   */\n      swap3\n      pop\n        /* \"#utility.yul\":5274:5392   */\n      pop\n        /* \"#utility.yul\":5431:5433   */\n      0x40\n        /* \"#utility.yul\":5457:5510   */\n      tag_245\n        /* \"#utility.yul\":5502:5509   */\n      dup7\n        /* \"#utility.yul\":5493:5499   */\n      dup3\n        /* \"#utility.yul\":5482:5491   */\n      dup8\n        /* \"#utility.yul\":5478:5500   */\n      add\n        /* \"#utility.yul\":5457:5510   */\n      tag_134\n      jump\t// in\n    tag_245:\n        /* \"#utility.yul\":5447:5510   */\n      swap2\n      pop\n        /* \"#utility.yul\":5402:5520   */\n      pop\n        /* \"#utility.yul\":4908:5527   */\n      swap3\n      pop\n      swap3\n      pop\n      swap3\n      jump\t// out\n        /* \"#utility.yul\":5533:5678   */\n    tag_145:\n        /* \"#utility.yul\":5631:5637   */\n      0x00\n        /* \"#utility.yul\":5665:5670   */\n      dup2\n        /* \"#utility.yul\":5659:5671   */\n      mload\n        /* \"#utility.yul\":5649:5671   */\n      swap1\n      pop\n        /* \"#utility.yul\":5533:5678   */\n      swap2\n      swap1\n      pop\n      jump\t// out\n        /* \"#utility.yul\":5684:5899   */\n    tag_146:\n        /* \"#utility.yul\":5814:5825   */\n      0x00\n        /* \"#utility.yul\":5848:5854   */\n      dup3\n        /* \"#utility.yul\":5843:5846   */\n      dup3\n        /* \"#utility.yul\":5836:5855   */\n      mstore\n        /* \"#utility.yul\":5888:5892   */\n      0x20\n        /* \"#utility.yul\":5883:5886   */\n      dup3\n        /* \"#utility.yul\":5879:5893   */\n      add\n        /* \"#utility.yul\":5864:5893   */\n      swap1\n      pop\n        /* \"#utility.yul\":5684:5899   */\n      swap3\n      swap2\n      pop\n      pop\n      jump\t// out\n        /* \"#utility.yul\":5905:6068   */\n    tag_147:\n        /* \"#utility.yul\":6003:6007   */\n      0x00\n        /* \"#utility.yul\":6026:6029   */\n      dup2\n        /* \"#utility.yul\":6018:6029   */\n      swap1\n      pop\n        /* \"#utility.yul\":6056:6060   */\n      0x20\n        /* \"#utility.yul\":6051:6054   */\n      dup3\n        /* \"#utility.yul\":6047:6061   */\n      add\n        /* \"#utility.yul\":6039:6061   */\n      swap1\n      pop\n        /* \"#utility.yul\":5905:6068   */\n      swap2\n      swap1\n      pop\n      jump\t// out\n        /* \"#utility.yul\":6074:6182   */\n    tag_148:\n        /* \"#utility.yul\":6151:6175   */\n      tag_250\n        /* \"#utility.yul\":6169:6174   */\n      dup2\n        /* \"#utility.yul\":6151:6175   */\n      tag_132\n      jump\t// in\n    tag_250:\n        /* \"#utility.yul\":6146:6149   */\n      dup3\n        /* \"#utility.yul\":6139:6176   */\n      mstore\n        /* \"#utility.yul\":6074:6182   */\n      pop\n      pop\n      jump\t// out\n        /* \"#utility.yul\":6188:6287   */\n    tag_149:\n        /* \"#utility.yul\":6240:6246   */\n      0x00\n        /* \"#utility.yul\":6274:6279   */\n      dup2\n        /* \"#utility.yul\":6268:6280   */\n      mload\n        /* \"#utility.yul\":6258:6280   */\n      swap1\n      pop\n        /* \"#utility.yul\":6188:6287   */\n      swap2\n      swap1\n      pop\n      jump\t// out\n        /* \"#utility.yul\":6293:6452   */\n    tag_150:\n        /* \"#utility.yul\":6367:6378   */\n      0x00\n        /* \"#utility.yul\":6401:6407   */\n      dup3\n        /* \"#utility.yul\":6396:6399   */\n      dup3\n        /* \"#utility.yul\":6389:6408   */\n      mstore\n        /* \"#utility.yul\":6441:6445   */\n      0x20\n        /* \"#utility.yul\":6436:6439   */\n      dup3\n        /* \"#utility.yul\":6432:6446   */\n      add\n        /* \"#utility.yul\":6417:6446   */\n      swap1\n      pop\n        /* \"#utility.yul\":6293:6452   */\n      swap3\n      swap2\n      pop\n      pop\n      jump\t// out\n        /* \"#utility.yul\":6458:6704   */\n    tag_151:\n        /* \"#utility.yul\":6539:6540   */\n      0x00\n        /* \"#utility.yul\":6549:6662   */\n    tag_254:\n        /* \"#utility.yul\":6563:6569   */\n      dup4\n        /* \"#utility.yul\":6560:6561   */\n      dup2\n        /* \"#utility.yul\":6557:6570   */\n      lt\n        /* \"#utility.yul\":6549:6662   */\n      iszero\n      tag_256\n      jumpi\n        /* \"#utility.yul\":6648:6649   */\n      dup1\n        /* \"#utility.yul\":6643:6646   */\n      dup3\n        /* \"#utility.yul\":6639:6650   */\n      add\n        /* \"#utility.yul\":6633:6651   */\n      mload\n        /* \"#utility.yul\":6629:6630   */\n      dup2\n        /* \"#utility.yul\":6624:6627   */\n      dup5\n        /* \"#utility.yul\":6620:6631   */\n      add\n        /* \"#utility.yul\":6613:6652   */\n      mstore\n        /* \"#utility.yul\":6585:6587   */\n      0x20\n        /* \"#utility.yul\":6582:6583   */\n      dup2\n        /* \"#utility.yul\":6578:6588   */\n      add\n        /* \"#utility.yul\":6573:6588   */\n      swap1\n      pop\n        /* \"#utility.yul\":6549:6662   */\n      jump(tag_254)\n    tag_256:\n        /* \"#utility.yul\":6696:6697   */\n      0x00\n        /* \"#utility.yul\":6687:6693   */\n      dup5\n        /* \"#utility.yul\":6682:6685   */\n      dup5\n        /* \"#utility.yul\":6678:6694   */\n      add\n        /* \"#utility.yul\":6671:6698   */\n      mstore\n        /* \"#utility.yul\":6520:6704   */\n      pop\n        /* \"#utility.yul\":6458:6704   */\n      pop\n      pop\n      pop\n      jump\t// out\n        /* \"#utility.yul\":6710:7067   */\n    tag_152:\n        /* \"#utility.yul\":6788:6791   */\n      0x00\n        /* \"#utility.yul\":6816:6855   */\n      tag_258\n        /* \"#utility.yul\":6849:6854   */\n      dup3\n        /* \"#utility.yul\":6816:6855   */\n      tag_149\n      jump\t// in\n    tag_258:\n        /* \"#utility.yul\":6871:6932   */\n      tag_259\n        /* \"#utility.yul\":6925:6931   */\n      dup2\n        /* \"#utility.yul\":6920:6923   */\n      dup6\n        /* \"#utility.yul\":6871:6932   */\n      tag_150\n      jump\t// in\n    tag_259:\n        /* \"#utility.yul\":6864:6932   */\n      swap4\n      pop\n        /* \"#utility.yul\":6941:7006   */\n      tag_260\n        /* \"#utility.yul\":6999:7005   */\n      dup2\n        /* \"#utility.yul\":6994:6997   */\n      dup6\n        /* \"#utility.yul\":6987:6991   */\n      0x20\n        /* \"#utility.yul\":6980:6985   */\n      dup7\n        /* \"#utility.yul\":6976:6992   */\n      add\n        /* \"#utility.yul\":6941:7006   */\n      tag_151\n      jump\t// in\n    tag_260:\n        /* \"#utility.yul\":7031:7060   */\n      tag_261\n        /* \"#utility.yul\":7053:7059   */\n      dup2\n        /* \"#utility.yul\":7031:7060   */\n      tag_137\n      jump\t// in\n    tag_261:\n        /* \"#utility.yul\":7026:7029   */\n      dup5\n        /* \"#utility.yul\":7022:7061   */\n      add\n        /* \"#utility.yul\":7015:7061   */\n      swap2\n      pop\n        /* \"#utility.yul\":6792:7067   */\n      pop\n        /* \"#utility.yul\":6710:7067   */\n      swap3\n      swap2\n      pop\n      pop\n      jump\t// out\n        /* \"#utility.yul\":7169:7967   */\n    tag_153:\n        /* \"#utility.yul\":7290:7293   */\n      0x00\n        /* \"#utility.yul\":7326:7330   */\n      0x60\n        /* \"#utility.yul\":7321:7324   */\n      dup4\n        /* \"#utility.yul\":7317:7331   */\n      add\n        /* \"#utility.yul\":7419:7423   */\n      0x00\n        /* \"#utility.yul\":7412:7417   */\n      dup4\n        /* \"#utility.yul\":7408:7424   */\n      add\n        /* \"#utility.yul\":7402:7425   */\n      mload\n        /* \"#utility.yul\":7438:7501   */\n      tag_263\n        /* \"#utility.yul\":7495:7499   */\n      0x00\n        /* \"#utility.yul\":7490:7493   */\n      dup7\n        /* \"#utility.yul\":7486:7500   */\n      add\n        /* \"#utility.yul\":7472:7484   */\n      dup3\n        /* \"#utility.yul\":7438:7501   */\n      tag_148\n      jump\t// in\n    tag_263:\n        /* \"#utility.yul\":7341:7511   */\n      pop\n        /* \"#utility.yul\":7600:7604   */\n      0x20\n        /* \"#utility.yul\":7593:7598   */\n      dup4\n        /* \"#utility.yul\":7589:7605   */\n      add\n        /* \"#utility.yul\":7583:7606   */\n      mload\n        /* \"#utility.yul\":7619:7682   */\n      tag_264\n        /* \"#utility.yul\":7676:7680   */\n      0x20\n        /* \"#utility.yul\":7671:7674   */\n      dup7\n        /* \"#utility.yul\":7667:7681   */\n      add\n        /* \"#utility.yul\":7653:7665   */\n      dup3\n        /* \"#utility.yul\":7619:7682   */\n      tag_148\n      jump\t// in\n    tag_264:\n        /* \"#utility.yul\":7521:7692   */\n      pop\n        /* \"#utility.yul\":7777:7781   */\n      0x40\n        /* \"#utility.yul\":7770:7775   */\n      dup4\n        /* \"#utility.yul\":7766:7782   */\n      add\n        /* \"#utility.yul\":7760:7783   */\n      mload\n        /* \"#utility.yul\":7830:7833   */\n      dup5\n        /* \"#utility.yul\":7824:7828   */\n      dup3\n        /* \"#utility.yul\":7820:7834   */\n      sub\n        /* \"#utility.yul\":7813:7817   */\n      0x40\n        /* \"#utility.yul\":7808:7811   */\n      dup7\n        /* \"#utility.yul\":7804:7818   */\n      add\n        /* \"#utility.yul\":7797:7835   */\n      mstore\n        /* \"#utility.yul\":7856:7929   */\n      tag_265\n        /* \"#utility.yul\":7924:7928   */\n      dup3\n        /* \"#utility.yul\":7910:7922   */\n      dup3\n        /* \"#utility.yul\":7856:7929   */\n      tag_152\n      jump\t// in\n    tag_265:\n        /* \"#utility.yul\":7848:7929   */\n      swap2\n      pop\n        /* \"#utility.yul\":7702:7940   */\n      pop\n        /* \"#utility.yul\":7957:7961   */\n      dup1\n        /* \"#utility.yul\":7950:7961   */\n      swap2\n      pop\n        /* \"#utility.yul\":7295:7967   */\n      pop\n        /* \"#utility.yul\":7169:7967   */\n      swap3\n      swap2\n      pop\n      pop\n      jump\t// out\n        /* \"#utility.yul\":7973:8253   */\n    tag_154:\n        /* \"#utility.yul\":8104:8114   */\n      0x00\n        /* \"#utility.yul\":8139:8247   */\n      tag_267\n        /* \"#utility.yul\":8243:8246   */\n      dup4\n        /* \"#utility.yul\":8235:8241   */\n      dup4\n        /* \"#utility.yul\":8139:8247   */\n      tag_153\n      jump\t// in\n    tag_267:\n        /* \"#utility.yul\":8125:8247   */\n      swap1\n      pop\n        /* \"#utility.yul\":7973:8253   */\n      swap3\n      swap2\n      pop\n      pop\n      jump\t// out\n        /* \"#utility.yul\":8259:8403   */\n    tag_155:\n        /* \"#utility.yul\":8360:8364   */\n      0x00\n        /* \"#utility.yul\":8392:8396   */\n      0x20\n        /* \"#utility.yul\":8387:8390   */\n      dup3\n        /* \"#utility.yul\":8383:8397   */\n      add\n        /* \"#utility.yul\":8375:8397   */\n      swap1\n      pop\n        /* \"#utility.yul\":8259:8403   */\n      swap2\n      swap1\n      pop\n      jump\t// out\n        /* \"#utility.yul\":8509:9668   */\n    tag_156:\n        /* \"#utility.yul\":8690:8693   */\n      0x00\n        /* \"#utility.yul\":8719:8804   */\n      tag_270\n        /* \"#utility.yul\":8798:8803   */\n      dup3\n        /* \"#utility.yul\":8719:8804   */\n      tag_145\n      jump\t// in\n    tag_270:\n        /* \"#utility.yul\":8820:8937   */\n      tag_271\n        /* \"#utility.yul\":8930:8936   */\n      dup2\n        /* \"#utility.yul\":8925:8928   */\n      dup6\n        /* \"#utility.yul\":8820:8937   */\n      tag_146\n      jump\t// in\n    tag_271:\n        /* \"#utility.yul\":8813:8937   */\n      swap4\n      pop\n        /* \"#utility.yul\":8963:8966   */\n      dup4\n        /* \"#utility.yul\":9008:9012   */\n      0x20\n        /* \"#utility.yul\":9000:9006   */\n      dup3\n        /* \"#utility.yul\":8996:9013   */\n      mul\n        /* \"#utility.yul\":8991:8994   */\n      dup6\n        /* \"#utility.yul\":8987:9014   */\n      add\n        /* \"#utility.yul\":9038:9125   */\n      tag_272\n        /* \"#utility.yul\":9119:9124   */\n      dup6\n        /* \"#utility.yul\":9038:9125   */\n      tag_147\n      jump\t// in\n    tag_272:\n        /* \"#utility.yul\":9148:9155   */\n      dup1\n        /* \"#utility.yul\":9179:9180   */\n      0x00\n        /* \"#utility.yul\":9164:9623   */\n    tag_273:\n        /* \"#utility.yul\":9189:9195   */\n      dup6\n        /* \"#utility.yul\":9186:9187   */\n      dup2\n        /* \"#utility.yul\":9183:9196   */\n      lt\n        /* \"#utility.yul\":9164:9623   */\n      iszero\n      tag_275\n      jumpi\n        /* \"#utility.yul\":9260:9269   */\n      dup5\n        /* \"#utility.yul\":9254:9258   */\n      dup5\n        /* \"#utility.yul\":9250:9270   */\n      sub\n        /* \"#utility.yul\":9245:9248   */\n      dup10\n        /* \"#utility.yul\":9238:9271   */\n      mstore\n        /* \"#utility.yul\":9311:9317   */\n      dup2\n        /* \"#utility.yul\":9305:9318   */\n      mload\n        /* \"#utility.yul\":9339:9465   */\n      tag_276\n        /* \"#utility.yul\":9460:9464   */\n      dup6\n        /* \"#utility.yul\":9445:9458   */\n      dup3\n        /* \"#utility.yul\":9339:9465   */\n      tag_154\n      jump\t// in\n    tag_276:\n        /* \"#utility.yul\":9331:9465   */\n      swap5\n      pop\n        /* \"#utility.yul\":9488:9579   */\n      tag_277\n        /* \"#utility.yul\":9572:9578   */\n      dup4\n        /* \"#utility.yul\":9488:9579   */\n      tag_155\n      jump\t// in\n    tag_277:\n        /* \"#utility.yul\":9478:9579   */\n      swap3\n      pop\n        /* \"#utility.yul\":9608:9612   */\n      0x20\n        /* \"#utility.yul\":9603:9606   */\n      dup11\n        /* \"#utility.yul\":9599:9613   */\n      add\n        /* \"#utility.yul\":9592:9613   */\n      swap10\n      pop\n        /* \"#utility.yul\":9224:9623   */\n      pop\n        /* \"#utility.yul\":9211:9212   */\n      0x01\n        /* \"#utility.yul\":9208:9209   */\n      dup2\n        /* \"#utility.yul\":9204:9213   */\n      add\n        /* \"#utility.yul\":9199:9213   */\n      swap1\n      pop\n        /* \"#utility.yul\":9164:9623   */\n      jump(tag_273)\n    tag_275:\n        /* \"#utility.yul\":9168:9182   */\n      pop\n        /* \"#utility.yul\":9639:9643   */\n      dup3\n        /* \"#utility.yul\":9632:9643   */\n      swap8\n      pop\n        /* \"#utility.yul\":9659:9662   */\n      dup8\n        /* \"#utility.yul\":9652:9662   */\n      swap6\n      pop\n        /* \"#utility.yul\":8695:9668   */\n      pop\n      pop\n      pop\n      pop\n      pop\n        /* \"#utility.yul\":8509:9668   */\n      swap3\n      swap2\n      pop\n      pop\n      jump\t// out\n        /* \"#utility.yul\":9674:10171   */\n    tag_28:\n        /* \"#utility.yul\":9879:9883   */\n      0x00\n        /* \"#utility.yul\":9917:9919   */\n      0x20\n        /* \"#utility.yul\":9906:9915   */\n      dup3\n        /* \"#utility.yul\":9902:9920   */\n      add\n        /* \"#utility.yul\":9894:9920   */\n      swap1\n      pop\n        /* \"#utility.yul\":9966:9975   */\n      dup2\n        /* \"#utility.yul\":9960:9964   */\n      dup2\n        /* \"#utility.yul\":9956:9976   */\n      sub\n        /* \"#utility.yul\":9952:9953   */\n      0x00\n        /* \"#utility.yul\":9941:9950   */\n      dup4\n        /* \"#utility.yul\":9937:9954   */\n      add\n        /* \"#utility.yul\":9930:9977   */\n      mstore\n        /* \"#utility.yul\":9994:10164   */\n      tag_279\n        /* \"#utility.yul\":10159:10163   */\n      dup2\n        /* \"#utility.yul\":10150:10156   */\n      dup5\n        /* \"#utility.yul\":9994:10164   */\n      tag_156\n      jump\t// in\n    tag_279:\n        /* \"#utility.yul\":9986:10164   */\n      swap1\n      pop\n        /* \"#utility.yul\":9674:10171   */\n      swap3\n      swap2\n      pop\n      pop\n      jump\t// out\n        /* \"#utility.yul\":10177:11122   */\n    tag_34:\n        /* \"#utility.yul\":10273:10279   */\n      0x00\n        /* \"#utility.yul\":10281:10287   */\n      dup1\n        /* \"#utility.yul\":10289:10295   */\n      0x00\n        /* \"#utility.yul\":10297:10303   */\n      dup1\n        /* \"#utility.yul\":10346:10349   */\n      0x80\n        /* \"#utility.yul\":10334:10343   */\n      dup6\n        /* \"#utility.yul\":10325:10332   */\n      dup8\n        /* \"#utility.yul\":10321:10344   */\n      sub\n        /* \"#utility.yul\":10317:10350   */\n      slt\n        /* \"#utility.yul\":10314:10434   */\n      iszero\n      tag_281\n      jumpi\n        /* \"#utility.yul\":10353:10432   */\n      tag_282\n      tag_126\n      jump\t// in\n    tag_282:\n        /* \"#utility.yul\":10314:10434   */\n    tag_281:\n        /* \"#utility.yul\":10473:10474   */\n      0x00\n        /* \"#utility.yul\":10498:10551   */\n      tag_283\n        /* \"#utility.yul\":10543:10550   */\n      dup8\n        /* \"#utility.yul\":10534:10540   */\n      dup3\n        /* \"#utility.yul\":10523:10532   */\n      dup9\n        /* \"#utility.yul\":10519:10541   */\n      add\n        /* \"#utility.yul\":10498:10551   */\n      tag_134\n      jump\t// in\n    tag_283:\n        /* \"#utility.yul\":10488:10551   */\n      swap5\n      pop\n        /* \"#utility.yul\":10444:10561   */\n      pop\n        /* \"#utility.yul\":10600:10602   */\n      0x20\n        /* \"#utility.yul\":10626:10679   */\n      tag_284\n        /* \"#utility.yul\":10671:10678   */\n      dup8\n        /* \"#utility.yul\":10662:10668   */\n      dup3\n        /* \"#utility.yul\":10651:10660   */\n      dup9\n        /* \"#utility.yul\":10647:10669   */\n      add\n        /* \"#utility.yul\":10626:10679   */\n      tag_134\n      jump\t// in\n    tag_284:\n        /* \"#utility.yul\":10616:10679   */\n      swap4\n      pop\n        /* \"#utility.yul\":10571:10689   */\n      pop\n        /* \"#utility.yul\":10728:10730   */\n      0x40\n        /* \"#utility.yul\":10754:10807   */\n      tag_285\n        /* \"#utility.yul\":10799:10806   */\n      dup8\n        /* \"#utility.yul\":10790:10796   */\n      dup3\n        /* \"#utility.yul\":10779:10788   */\n      dup9\n        /* \"#utility.yul\":10775:10797   */\n      add\n        /* \"#utility.yul\":10754:10807   */\n      tag_134\n      jump\t// in\n    tag_285:\n        /* \"#utility.yul\":10744:10807   */\n      swap3\n      pop\n        /* \"#utility.yul\":10699:10817   */\n      pop\n        /* \"#utility.yul\":10884:10886   */\n      0x60\n        /* \"#utility.yul\":10873:10882   */\n      dup6\n        /* \"#utility.yul\":10869:10887   */\n      add\n        /* \"#utility.yul\":10856:10888   */\n      calldataload\n        /* \"#utility.yul\":10915:10933   */\n      0xffffffffffffffff\n        /* \"#utility.yul\":10907:10913   */\n      dup2\n        /* \"#utility.yul\":10904:10934   */\n      gt\n        /* \"#utility.yul\":10901:11018   */\n      iszero\n      tag_286\n      jumpi\n        /* \"#utility.yul\":10937:11016   */\n      tag_287\n      tag_127\n      jump\t// in\n    tag_287:\n        /* \"#utility.yul\":10901:11018   */\n    tag_286:\n        /* \"#utility.yul\":11042:11105   */\n      tag_288\n        /* \"#utility.yul\":11097:11104   */\n      dup8\n        /* \"#utility.yul\":11088:11094   */\n      dup3\n        /* \"#utility.yul\":11077:11086   */\n      dup9\n        /* \"#utility.yul\":11073:11095   */\n      add\n        /* \"#utility.yul\":11042:11105   */\n      tag_143\n      jump\t// in\n    tag_288:\n        /* \"#utility.yul\":11032:11105   */\n      swap2\n      pop\n        /* \"#utility.yul\":10827:11115   */\n      pop\n        /* \"#utility.yul\":10177:11122   */\n      swap3\n      swap6\n      swap2\n      swap5\n      pop\n      swap3\n      pop\n      jump\t// out\n        /* \"#utility.yul\":11128:11457   */\n    tag_38:\n        /* \"#utility.yul\":11187:11193   */\n      0x00\n        /* \"#utility.yul\":11236:11238   */\n      0x20\n        /* \"#utility.yul\":11224:11233   */\n      dup3\n        /* \"#utility.yul\":11215:11222   */\n      dup5\n        /* \"#utility.yul\":11211:11234   */\n      sub\n        /* \"#utility.yul\":11207:11239   */\n      slt\n        /* \"#utility.yul\":11204:11323   */\n      iszero\n      tag_290\n      jumpi\n        /* \"#utility.yul\":11242:11321   */\n      tag_291\n      tag_126\n      jump\t// in\n    tag_291:\n        /* \"#utility.yul\":11204:11323   */\n    tag_290:\n        /* \"#utility.yul\":11362:11363   */\n      0x00\n        /* \"#utility.yul\":11387:11440   */\n      tag_292\n        /* \"#utility.yul\":11432:11439   */\n      dup5\n        /* \"#utility.yul\":11423:11429   */\n      dup3\n        /* \"#utility.yul\":11412:11421   */\n      dup6\n        /* \"#utility.yul\":11408:11430   */\n      add\n        /* \"#utility.yul\":11387:11440   */\n      tag_134\n      jump\t// in\n    tag_292:\n        /* \"#utility.yul\":11377:11440   */\n      swap2\n      pop\n        /* \"#utility.yul\":11333:11450   */\n      pop\n        /* \"#utility.yul\":11128:11457   */\n      swap3\n      swap2\n      pop\n      pop\n      jump\t// out\n        /* \"#utility.yul\":11463:11632   */\n    tag_157:\n        /* \"#utility.yul\":11547:11558   */\n      0x00\n        /* \"#utility.yul\":11581:11587   */\n      dup3\n        /* \"#utility.yul\":11576:11579   */\n      dup3\n        /* \"#utility.yul\":11569:11588   */\n      mstore\n        /* \"#utility.yul\":11621:11625   */\n      0x20\n        /* \"#utility.yul\":11616:11619   */\n      dup3\n        /* \"#utility.yul\":11612:11626   */\n      add\n        /* \"#utility.yul\":11597:11626   */\n      swap1\n      pop\n        /* \"#utility.yul\":11463:11632   */\n      swap3\n      swap2\n      pop\n      pop\n      jump\t// out\n        /* \"#utility.yul\":11638:11807   */\n    tag_158:\n        /* \"#utility.yul\":11778:11799   */\n      0x556e617574686f72697a65642061636365737300000000000000000000000000\n        /* \"#utility.yul\":11774:11775   */\n      0x00\n        /* \"#utility.yul\":11766:11772   */\n      dup3\n        /* \"#utility.yul\":11762:11776   */\n      add\n        /* \"#utility.yul\":11755:11800   */\n      mstore\n        /* \"#utility.yul\":11638:11807   */\n      pop\n      jump\t// out\n        /* \"#utility.yul\":11813:12179   */\n    tag_159:\n        /* \"#utility.yul\":11955:11958   */\n      0x00\n        /* \"#utility.yul\":11976:12043   */\n      tag_296\n        /* \"#utility.yul\":12040:12042   */\n      0x13\n        /* \"#utility.yul\":12035:12038   */\n      dup4\n        /* \"#utility.yul\":11976:12043   */\n      tag_157\n      jump\t// in\n    tag_296:\n        /* \"#utility.yul\":11969:12043   */\n      swap2\n      pop\n        /* \"#utility.yul\":12052:12145   */\n      tag_297\n        /* \"#utility.yul\":12141:12144   */\n      dup3\n        /* \"#utility.yul\":12052:12145   */\n      tag_158\n      jump\t// in\n    tag_297:\n        /* \"#utility.yul\":12170:12172   */\n      0x20\n        /* \"#utility.yul\":12165:12168   */\n      dup3\n        /* \"#utility.yul\":12161:12173   */\n      add\n        /* \"#utility.yul\":12154:12173   */\n      swap1\n      pop\n        /* \"#utility.yul\":11813:12179   */\n      swap2\n      swap1\n      pop\n      jump\t// out\n        /* \"#utility.yul\":12185:12604   */\n    tag_44:\n        /* \"#utility.yul\":12351:12355   */\n      0x00\n        /* \"#utility.yul\":12389:12391   */\n      0x20\n        /* \"#utility.yul\":12378:12387   */\n      dup3\n        /* \"#utility.yul\":12374:12392   */\n      add\n        /* \"#utility.yul\":12366:12392   */\n      swap1\n      pop\n        /* \"#utility.yul\":12438:12447   */\n      dup2\n        /* \"#utility.yul\":12432:12436   */\n      dup2\n        /* \"#utility.yul\":12428:12448   */\n      sub\n        /* \"#utility.yul\":12424:12425   */\n      0x00\n        /* \"#utility.yul\":12413:12422   */\n      dup4\n        /* \"#utility.yul\":12409:12426   */\n      add\n        /* \"#utility.yul\":12402:12449   */\n      mstore\n        /* \"#utility.yul\":12466:12597   */\n      tag_299\n        /* \"#utility.yul\":12592:12596   */\n      dup2\n        /* \"#utility.yul\":12466:12597   */\n      tag_159\n      jump\t// in\n    tag_299:\n        /* \"#utility.yul\":12458:12597   */\n      swap1\n      pop\n        /* \"#utility.yul\":12185:12604   */\n      swap2\n      swap1\n      pop\n      jump\t// out\n        /* \"#utility.yul\":12610:12790   */\n    tag_160:\n        /* \"#utility.yul\":12658:12735   */\n      0x4e487b7100000000000000000000000000000000000000000000000000000000\n        /* \"#utility.yul\":12655:12656   */\n      0x00\n        /* \"#utility.yul\":12648:12736   */\n      mstore\n        /* \"#utility.yul\":12755:12759   */\n      0x11\n        /* \"#utility.yul\":12752:12753   */\n      0x04\n        /* \"#utility.yul\":12745:12760   */\n      mstore\n        /* \"#utility.yul\":12779:12783   */\n      0x24\n        /* \"#utility.yul\":12776:12777   */\n      0x00\n        /* \"#utility.yul\":12769:12784   */\n      revert\n        /* \"#utility.yul\":12796:13029   */\n    tag_47:\n        /* \"#utility.yul\":12835:12838   */\n      0x00\n        /* \"#utility.yul\":12858:12882   */\n      tag_302\n        /* \"#utility.yul\":12876:12881   */\n      dup3\n        /* \"#utility.yul\":12858:12882   */\n      tag_132\n      jump\t// in\n    tag_302:\n        /* \"#utility.yul\":12849:12882   */\n      swap2\n      pop\n        /* \"#utility.yul\":12904:12970   */\n      0xffffffffffffffffffffffffffffffffffffffffffffffffffffffffffffffff\n        /* \"#utility.yul\":12897:12902   */\n      dup3\n        /* \"#utility.yul\":12894:12971   */\n      sub\n        /* \"#utility.yul\":12891:12994   */\n      tag_303\n      jumpi\n        /* \"#utility.yul\":12974:12992   */\n      tag_304\n      tag_160\n      jump\t// in\n    tag_304:\n        /* \"#utility.yul\":12891:12994   */\n    tag_303:\n        /* \"#utility.yul\":13021:13022   */\n      0x01\n        /* \"#utility.yul\":13014:13019   */\n      dup3\n        /* \"#utility.yul\":13010:13023   */\n      add\n        /* \"#utility.yul\":13003:13023   */\n      swap1\n      pop\n        /* \"#utility.yul\":12796:13029   */\n      swap2\n      swap1\n      pop\n      jump\t// out\n        /* \"#utility.yul\":13035:13215   */\n    tag_161:\n        /* \"#utility.yul\":13083:13160   */\n      0x4e487b7100000000000000000000000000000000000000000000000000000000\n        /* \"#utility.yul\":13080:13081   */\n      0x00\n        /* \"#utility.yul\":13073:13161   */\n      mstore\n        /* \"#utility.yul\":13180:13184   */\n      0x22\n        /* \"#utility.yul\":13177:13178   */\n      0x04\n        /* \"#utility.yul\":13170:13185   */\n      mstore\n        /* \"#utility.yul\":13204:13208   */\n      0x24\n        /* \"#utility.yul\":13201:13202   */\n      0x00\n        /* \"#utility.yul\":13194:13209   */\n      revert\n        /* \"#utility.yul\":13221:13541   */\n    tag_70:\n        /* \"#utility.yul\":13265:13271   */\n      0x00\n        /* \"#utility.yul\":13302:13303   */\n      0x02\n        /* \"#utility.yul\":13296:13300   */\n      dup3\n        /* \"#utility.yul\":13292:13304   */\n      div\n        /* \"#utility.yul\":13282:13304   */\n      swap1\n      pop\n        /* \"#utility.yul\":13349:13350   */\n      0x01\n        /* \"#utility.yul\":13343:13347   */\n      dup3\n        /* \"#utility.yul\":13339:13351   */\n      and\n        /* \"#utility.yul\":13370:13388   */\n      dup1\n        /* \"#utility.yul\":13360:13441   */\n      tag_307\n      jumpi\n        /* \"#utility.yul\":13426:13430   */\n      0x7f\n        /* \"#utility.yul\":13418:13424   */\n      dup3\n        /* \"#utility.yul\":13414:13431   */\n      and\n        /* \"#utility.yul\":13404:13431   */\n      swap2\n      pop\n        /* \"#utility.yul\":13360:13441   */\n    tag_307:\n        /* \"#utility.yul\":13488:13490   */\n      0x20\n        /* \"#utility.yul\":13480:13486   */\n      dup3\n        /* \"#utility.yul\":13477:13491   */\n      lt\n        /* \"#utility.yul\":13457:13475   */\n      dup2\n        /* \"#utility.yul\":13454:13492   */\n      sub\n        /* \"#utility.yul\":13451:13535   */\n      tag_308\n      jumpi\n        /* \"#utility.yul\":13507:13525   */\n      tag_309\n      tag_161\n      jump\t// in\n    tag_309:\n        /* \"#utility.yul\":13451:13535   */\n    tag_308:\n        /* \"#utility.yul\":13272:13541   */\n      pop\n        /* \"#utility.yul\":13221:13541   */\n      swap2\n      swap1\n      pop\n      jump\t// out\n        /* \"#utility.yul\":13547:13688   */\n    tag_162:\n        /* \"#utility.yul\":13596:13600   */\n      0x00\n        /* \"#utility.yul\":13619:13622   */\n      dup2\n        /* \"#utility.yul\":13611:13622   */\n      swap1\n      pop\n        /* \"#utility.yul\":13642:13645   */\n      dup2\n        /* \"#utility.yul\":13639:13640   */\n      0x00\n        /* \"#utility.yul\":13632:13646   */\n      mstore\n        /* \"#utility.yul\":13676:13680   */\n      0x20\n        /* \"#utility.yul\":13673:13674   */\n      0x00\n        /* \"#utility.yul\":13663:13681   */\n      keccak256\n        /* \"#utility.yul\":13655:13681   */\n      swap1\n      pop\n        /* \"#utility.yul\":13547:13688   */\n      swap2\n      swap1\n      pop\n      jump\t// out\n        /* \"#utility.yul\":13694:13787   */\n    tag_163:\n        /* \"#utility.yul\":13731:13737   */\n      0x00\n        /* \"#utility.yul\":13778:13780   */\n      0x20\n        /* \"#utility.yul\":13773:13775   */\n      0x1f\n        /* \"#utility.yul\":13766:13771   */\n      dup4\n        /* \"#utility.yul\":13762:13776   */\n      add\n        /* \"#utility.yul\":13758:13781   */\n      div\n        /* \"#utility.yul\":13748:13781   */\n      swap1\n      pop\n        /* \"#utility.yul\":13694:13787   */\n      swap2\n      swap1\n      pop\n      jump\t// out\n        /* \"#utility.yul\":13793:13900   */\n    tag_164:\n        /* \"#utility.yul\":13837:13845   */\n      0x00\n        /* \"#utility.yul\":13887:13892   */\n      dup3\n        /* \"#utility.yul\":13881:13885   */\n      dup3\n        /* \"#utility.yul\":13877:13893   */\n      shl\n        /* \"#utility.yul\":13856:13893   */\n      swap1\n      pop\n        /* \"#utility.yul\":13793:13900   */\n      swap3\n      swap2\n      pop\n      pop\n      jump\t// out\n        /* \"#utility.yul\":13906:14299   */\n    tag_165:\n        /* \"#utility.yul\":13975:13981   */\n      0x00\n        /* \"#utility.yul\":14025:14026   */\n      0x08\n        /* \"#utility.yul\":14013:14023   */\n      dup4\n        /* \"#utility.yul\":14009:14027   */\n      mul\n        /* \"#utility.yul\":14048:14145   */\n      tag_314\n        /* \"#utility.yul\":14078:14144   */\n      0xffffffffffffffffffffffffffffffffffffffffffffffffffffffffffffffff\n        /* \"#utility.yul\":14067:14076   */\n      dup3\n        /* \"#utility.yul\":14048:14145   */\n      tag_164\n      jump\t// in\n    tag_314:\n        /* \"#utility.yul\":14166:14205   */\n      tag_315\n        /* \"#utility.yul\":14196:14204   */\n      dup7\n        /* \"#utility.yul\":14185:14194   */\n      dup4\n        /* \"#utility.yul\":14166:14205   */\n      tag_164\n      jump\t// in\n    tag_315:\n        /* \"#utility.yul\":14154:14205   */\n      swap6\n      pop\n        /* \"#utility.yul\":14238:14242   */\n      dup1\n        /* \"#utility.yul\":14234:14243   */\n      not\n        /* \"#utility.yul\":14227:14232   */\n      dup5\n        /* \"#utility.yul\":14223:14244   */\n      and\n        /* \"#utility.yul\":14214:14244   */\n      swap4\n      pop\n        /* \"#utility.yul\":14287:14291   */\n      dup1\n        /* \"#utility.yul\":14277:14285   */\n      dup7\n        /* \"#utility.yul\":14273:14292   */\n      and\n        /* \"#utility.yul\":14266:14271   */\n      dup5\n        /* \"#utility.yul\":14263:14293   */\n      or\n        /* \"#utility.yul\":14253:14293   */\n      swap3\n      pop\n        /* \"#utility.yul\":13982:14299   */\n      pop\n      pop\n        /* \"#utility.yul\":13906:14299   */\n      swap4\n      swap3\n      pop\n      pop\n      pop\n      jump\t// out\n        /* \"#utility.yul\":14305:14365   */\n    tag_166:\n        /* \"#utility.yul\":14333:14336   */\n      0x00\n        /* \"#utility.yul\":14354:14359   */\n      dup2\n        /* \"#utility.yul\":14347:14359   */\n      swap1\n      pop\n        /* \"#utility.yul\":14305:14365   */\n      swap2\n      swap1\n      pop\n      jump\t// out\n        /* \"#utility.yul\":14371:14513   */\n    tag_167:\n        /* \"#utility.yul\":14421:14430   */\n      0x00\n        /* \"#utility.yul\":14454:14507   */\n      tag_318\n        /* \"#utility.yul\":14472:14506   */\n      tag_319\n        /* \"#utility.yul\":14481:14505   */\n      tag_320\n        /* \"#utility.yul\":14499:14504   */\n      dup5\n        /* \"#utility.yul\":14481:14505   */\n      tag_132\n      jump\t// in\n    tag_320:\n        /* \"#utility.yul\":14472:14506   */\n      tag_166\n      jump\t// in\n    tag_319:\n        /* \"#utility.yul\":14454:14507   */\n      tag_132\n      jump\t// in\n    tag_318:\n        /* \"#utility.yul\":14441:14507   */\n      swap1\n      pop\n        /* \"#utility.yul\":14371:14513   */\n      swap2\n      swap1\n      pop\n      jump\t// out\n        /* \"#utility.yul\":14519:14594   */\n    tag_168:\n        /* \"#utility.yul\":14562:14565   */\n      0x00\n        /* \"#utility.yul\":14583:14588   */\n      dup2\n        /* \"#utility.yul\":14576:14588   */\n      swap1\n      pop\n        /* \"#utility.yul\":14519:14594   */\n      swap2\n      swap1\n      pop\n      jump\t// out\n        /* \"#utility.yul\":14600:14869   */\n    tag_169:\n        /* \"#utility.yul\":14710:14749   */\n      tag_323\n        /* \"#utility.yul\":14741:14748   */\n      dup4\n        /* \"#utility.yul\":14710:14749   */\n      tag_167\n      jump\t// in\n    tag_323:\n        /* \"#utility.yul\":14771:14862   */\n      tag_324\n        /* \"#utility.yul\":14820:14861   */\n      tag_325\n        /* \"#utility.yul\":14844:14860   */\n      dup3\n        /* \"#utility.yul\":14820:14861   */\n      tag_168\n      jump\t// in\n    tag_325:\n        /* \"#utility.yul\":14812:14818   */\n      dup5\n        /* \"#utility.yul\":14805:14809   */\n      dup5\n        /* \"#utility.yul\":14799:14810   */\n      sload\n        /* \"#utility.yul\":14771:14862   */\n      tag_165\n      jump\t// in\n    tag_324:\n        /* \"#utility.yul\":14765:14769   */\n      dup3\n        /* \"#utility.yul\":14758:14863   */\n      sstore\n        /* \"#utility.yul\":14676:14869   */\n      pop\n        /* \"#utility.yul\":14600:14869   */\n      pop\n      pop\n      pop\n      jump\t// out\n        /* \"#utility.yul\":14875:14948   */\n    tag_170:\n        /* \"#utility.yul\":14920:14923   */\n      0x00\n        /* \"#utility.yul\":14875:14948   */\n      swap1\n      jump\t// out\n        /* \"#utility.yul\":14954:15143   */\n    tag_171:\n        /* \"#utility.yul\":15031:15063   */\n      tag_328\n      tag_170\n      jump\t// in\n    tag_328:\n        /* \"#utility.yul\":15072:15137   */\n      tag_329\n        /* \"#utility.yul\":15130:15136   */\n      dup2\n        /* \"#utility.yul\":15122:15128   */\n      dup5\n        /* \"#utility.yul\":15116:15120   */\n      dup5\n        /* \"#utility.yul\":15072:15137   */\n      tag_169\n      jump\t// in\n    tag_329:\n        /* \"#utility.yul\":15007:15143   */\n      pop\n        /* \"#utility.yul\":14954:15143   */\n      pop\n      pop\n      jump\t// out\n        /* \"#utility.yul\":15149:15335   */\n    tag_172:\n        /* \"#utility.yul\":15209:15329   */\n    tag_331:\n        /* \"#utility.yul\":15226:15229   */\n      dup2\n        /* \"#utility.yul\":15219:15224   */\n      dup2\n        /* \"#utility.yul\":15216:15230   */\n      lt\n        /* \"#utility.yul\":15209:15329   */\n      iszero\n      tag_333\n      jumpi\n        /* \"#utility.yul\":15280:15319   */\n      tag_334\n        /* \"#utility.yul\":15317:15318   */\n      0x00\n        /* \"#utility.yul\":15310:15315   */\n      dup3\n        /* \"#utility.yul\":15280:15319   */\n      tag_171\n      jump\t// in\n    tag_334:\n        /* \"#utility.yul\":15253:15254   */\n      0x01\n        /* \"#utility.yul\":15246:15251   */\n      dup2\n        /* \"#utility.yul\":15242:15255   */\n      add\n        /* \"#utility.yul\":15233:15255   */\n      swap1\n      pop\n        /* \"#utility.yul\":15209:15329   */\n      jump(tag_331)\n    tag_333:\n        /* \"#utility.yul\":15149:15335   */\n      pop\n      pop\n      jump\t// out\n        /* \"#utility.yul\":15341:15884   */\n    tag_173:\n        /* \"#utility.yul\":15442:15444   */\n      0x1f\n        /* \"#utility.yul\":15437:15440   */\n      dup3\n        /* \"#utility.yul\":15434:15445   */\n      gt\n        /* \"#utility.yul\":15431:15877   */\n      iszero\n      tag_336\n      jumpi\n        /* \"#utility.yul\":15476:15514   */\n      tag_337\n        /* \"#utility.yul\":15508:15513   */\n      dup2\n        /* \"#utility.yul\":15476:15514   */\n      tag_162\n      jump\t// in\n    tag_337:\n        /* \"#utility.yul\":15560:15589   */\n      tag_338\n        /* \"#utility.yul\":15578:15588   */\n      dup5\n        /* \"#utility.yul\":15560:15589   */\n      tag_163\n      jump\t// in\n    tag_338:\n        /* \"#utility.yul\":15550:15558   */\n      dup2\n        /* \"#utility.yul\":15546:15590   */\n      add\n        /* \"#utility.yul\":15743:15745   */\n      0x20\n        /* \"#utility.yul\":15731:15741   */\n      dup6\n        /* \"#utility.yul\":15728:15746   */\n      lt\n        /* \"#utility.yul\":15725:15774   */\n      iszero\n      tag_339\n      jumpi\n        /* \"#utility.yul\":15764:15772   */\n      dup2\n        /* \"#utility.yul\":15749:15772   */\n      swap1\n      pop\n        /* \"#utility.yul\":15725:15774   */\n    tag_339:\n        /* \"#utility.yul\":15787:15867   */\n      tag_340\n        /* \"#utility.yul\":15843:15865   */\n      tag_341\n        /* \"#utility.yul\":15861:15864   */\n      dup6\n        /* \"#utility.yul\":15843:15865   */\n      tag_163\n      jump\t// in\n    tag_341:\n        /* \"#utility.yul\":15833:15841   */\n      dup4\n        /* \"#utility.yul\":15829:15866   */\n      add\n        /* \"#utility.yul\":15816:15827   */\n      dup3\n        /* \"#utility.yul\":15787:15867   */\n      tag_172\n      jump\t// in\n    tag_340:\n        /* \"#utility.yul\":15446:15877   */\n      pop\n      pop\n        /* \"#utility.yul\":15431:15877   */\n    tag_336:\n        /* \"#utility.yul\":15341:15884   */\n      pop\n      pop\n      pop\n      jump\t// out\n        /* \"#utility.yul\":15890:16007   */\n    tag_174:\n        /* \"#utility.yul\":15944:15952   */\n      0x00\n        /* \"#utility.yul\":15994:15999   */\n      dup3\n        /* \"#utility.yul\":15988:15992   */\n      dup3\n        /* \"#utility.yul\":15984:16000   */\n      shr\n        /* \"#utility.yul\":15963:16000   */\n      swap1\n      pop\n        /* \"#utility.yul\":15890:16007   */\n      swap3\n      swap2\n      pop\n      pop\n      jump\t// out\n        /* \"#utility.yul\":16013:16182   */\n    tag_175:\n        /* \"#utility.yul\":16057:16063   */\n      0x00\n        /* \"#utility.yul\":16090:16141   */\n      tag_344\n        /* \"#utility.yul\":16138:16139   */\n      0x00\n        /* \"#utility.yul\":16134:16140   */\n      not\n        /* \"#utility.yul\":16126:16131   */\n      dup5\n        /* \"#utility.yul\":16123:16124   */\n      0x08\n        /* \"#utility.yul\":16119:16132   */\n      mul\n        /* \"#utility.yul\":16090:16141   */\n      tag_174\n      jump\t// in\n    tag_344:\n        /* \"#utility.yul\":16086:16142   */\n      not\n        /* \"#utility.yul\":16171:16175   */\n      dup1\n        /* \"#utility.yul\":16165:16169   */\n      dup4\n        /* \"#utility.yul\":16161:16176   */\n      and\n        /* \"#utility.yul\":16151:16176   */\n      swap2\n      pop\n        /* \"#utility.yul\":16064:16182   */\n      pop\n        /* \"#utility.yul\":16013:16182   */\n      swap3\n      swap2\n      pop\n      pop\n      jump\t// out\n        /* \"#utility.yul\":16187:16482   */\n    tag_176:\n        /* \"#utility.yul\":16263:16267   */\n      0x00\n        /* \"#utility.yul\":16409:16438   */\n      tag_346\n        /* \"#utility.yul\":16434:16437   */\n      dup4\n        /* \"#utility.yul\":16428:16432   */\n      dup4\n        /* \"#utility.yul\":16409:16438   */\n      tag_175\n      jump\t// in\n    tag_346:\n        /* \"#utility.yul\":16401:16438   */\n      swap2\n      pop\n        /* \"#utility.yul\":16471:16474   */\n      dup3\n        /* \"#utility.yul\":16468:16469   */\n      0x02\n        /* \"#utility.yul\":16464:16475   */\n      mul\n        /* \"#utility.yul\":16458:16462   */\n      dup3\n        /* \"#utility.yul\":16455:16476   */\n      or\n        /* \"#utility.yul\":16447:16476   */\n      swap1\n      pop\n        /* \"#utility.yul\":16187:16482   */\n      swap3\n      swap2\n      pop\n      pop\n      jump\t// out\n        /* \"#utility.yul\":16487:17882   */\n    tag_56:\n        /* \"#utility.yul\":16604:16641   */\n      tag_348\n        /* \"#utility.yul\":16637:16640   */\n      dup3\n        /* \"#utility.yul\":16604:16641   */\n      tag_149\n      jump\t// in\n    tag_348:\n        /* \"#utility.yul\":16706:16724   */\n      0xffffffffffffffff\n        /* \"#utility.yul\":16698:16704   */\n      dup2\n        /* \"#utility.yul\":16695:16725   */\n      gt\n        /* \"#utility.yul\":16692:16748   */\n      iszero\n      tag_349\n      jumpi\n        /* \"#utility.yul\":16728:16746   */\n      tag_350\n      tag_77\n      jump\t// in\n    tag_350:\n        /* \"#utility.yul\":16692:16748   */\n    tag_349:\n        /* \"#utility.yul\":16772:16810   */\n      tag_351\n        /* \"#utility.yul\":16804:16808   */\n      dup3\n        /* \"#utility.yul\":16798:16809   */\n      sload\n        /* \"#utility.yul\":16772:16810   */\n      tag_70\n      jump\t// in\n    tag_351:\n        /* \"#utility.yul\":16857:16924   */\n      tag_352\n        /* \"#utility.yul\":16917:16923   */\n      dup3\n        /* \"#utility.yul\":16909:16915   */\n      dup3\n        /* \"#utility.yul\":16903:16907   */\n      dup6\n        /* \"#utility.yul\":16857:16924   */\n      tag_173\n      jump\t// in\n    tag_352:\n        /* \"#utility.yul\":16951:16952   */\n      0x00\n        /* \"#utility.yul\":16975:16979   */\n      0x20\n        /* \"#utility.yul\":16962:16979   */\n      swap1\n      pop\n        /* \"#utility.yul\":17007:17009   */\n      0x1f\n        /* \"#utility.yul\":16999:17005   */\n      dup4\n        /* \"#utility.yul\":16996:17010   */\n      gt\n        /* \"#utility.yul\":17024:17025   */\n      0x01\n        /* \"#utility.yul\":17019:17637   */\n      dup2\n      eq\n      tag_354\n      jumpi\n        /* \"#utility.yul\":17681:17682   */\n      0x00\n        /* \"#utility.yul\":17698:17704   */\n      dup5\n        /* \"#utility.yul\":17695:17772   */\n      iszero\n      tag_355\n      jumpi\n        /* \"#utility.yul\":17747:17756   */\n      dup3\n        /* \"#utility.yul\":17742:17745   */\n      dup8\n        /* \"#utility.yul\":17738:17757   */\n      add\n        /* \"#utility.yul\":17732:17758   */\n      mload\n        /* \"#utility.yul\":17723:17758   */\n      swap1\n      pop\n        /* \"#utility.yul\":17695:17772   */\n    tag_355:\n        /* \"#utility.yul\":17798:17865   */\n      tag_356\n        /* \"#utility.yul\":17858:17864   */\n      dup6\n        /* \"#utility.yul\":17851:17856   */\n      dup3\n        /* \"#utility.yul\":17798:17865   */\n      tag_176\n      jump\t// in\n    tag_356:\n        /* \"#utility.yul\":17792:17796   */\n      dup7\n        /* \"#utility.yul\":17785:17866   */\n      sstore\n        /* \"#utility.yul\":17654:17876   */\n      pop\n        /* \"#utility.yul\":16989:17876   */\n      jump(tag_353)\n        /* \"#utility.yul\":17019:17637   */\n    tag_354:\n        /* \"#utility.yul\":17071:17075   */\n      0x1f\n        /* \"#utility.yul\":17067:17076   */\n      not\n        /* \"#utility.yul\":17059:17065   */\n      dup5\n        /* \"#utility.yul\":17055:17077   */\n      and\n        /* \"#utility.yul\":17105:17142   */\n      tag_357\n        /* \"#utility.yul\":17137:17141   */\n      dup7\n        /* \"#utility.yul\":17105:17142   */\n      tag_162\n      jump\t// in\n    tag_357:\n        /* \"#utility.yul\":17164:17165   */\n      0x00\n        /* \"#utility.yul\":17178:17386   */\n    tag_358:\n        /* \"#utility.yul\":17192:17199   */\n      dup3\n        /* \"#utility.yul\":17189:17190   */\n      dup2\n        /* \"#utility.yul\":17186:17200   */\n      lt\n        /* \"#utility.yul\":17178:17386   */\n      iszero\n      tag_360\n      jumpi\n        /* \"#utility.yul\":17271:17280   */\n      dup5\n        /* \"#utility.yul\":17266:17269   */\n      dup10\n        /* \"#utility.yul\":17262:17281   */\n      add\n        /* \"#utility.yul\":17256:17282   */\n      mload\n        /* \"#utility.yul\":17248:17254   */\n      dup3\n        /* \"#utility.yul\":17241:17283   */\n      sstore\n        /* \"#utility.yul\":17322:17323   */\n      0x01\n        /* \"#utility.yul\":17314:17320   */\n      dup3\n        /* \"#utility.yul\":17310:17324   */\n      add\n        /* \"#utility.yul\":17300:17324   */\n      swap2\n      pop\n        /* \"#utility.yul\":17369:17371   */\n      0x20\n        /* \"#utility.yul\":17358:17367   */\n      dup6\n        /* \"#utility.yul\":17354:17372   */\n      add\n        /* \"#utility.yul\":17341:17372   */\n      swap5\n      pop\n        /* \"#utility.yul\":17215:17219   */\n      0x20\n        /* \"#utility.yul\":17212:17213   */\n      dup2\n        /* \"#utility.yul\":17208:17220   */\n      add\n        /* \"#utility.yul\":17203:17220   */\n      swap1\n      pop\n        /* \"#utility.yul\":17178:17386   */\n      jump(tag_358)\n    tag_360:\n        /* \"#utility.yul\":17414:17420   */\n      dup7\n        /* \"#utility.yul\":17405:17412   */\n      dup4\n        /* \"#utility.yul\":17402:17421   */\n      lt\n        /* \"#utility.yul\":17399:17578   */\n      iszero\n      tag_361\n      jumpi\n        /* \"#utility.yul\":17472:17481   */\n      dup5\n        /* \"#utility.yul\":17467:17470   */\n      dup10\n        /* \"#utility.yul\":17463:17482   */\n      add\n        /* \"#utility.yul\":17457:17483   */\n      mload\n        /* \"#utility.yul\":17515:17563   */\n      tag_362\n        /* \"#utility.yul\":17557:17561   */\n      0x1f\n        /* \"#utility.yul\":17549:17555   */\n      dup10\n        /* \"#utility.yul\":17545:17562   */\n      and\n        /* \"#utility.yul\":17534:17543   */\n      dup3\n        /* \"#utility.yul\":17515:17563   */\n      tag_175\n      jump\t// in\n    tag_362:\n        /* \"#utility.yul\":17507:17513   */\n      dup4\n        /* \"#utility.yul\":17500:17564   */\n      sstore\n        /* \"#utility.yul\":17422:17578   */\n      pop\n        /* \"#utility.yul\":17399:17578   */\n    tag_361:\n        /* \"#utility.yul\":17624:17625   */\n      0x01\n        /* \"#utility.yul\":17620:17621   */\n      0x02\n        /* \"#utility.yul\":17612:17618   */\n      dup9\n        /* \"#utility.yul\":17608:17622   */\n      mul\n        /* \"#utility.yul\":17604:17626   */\n      add\n        /* \"#utility.yul\":17598:17602   */\n      dup9\n        /* \"#utility.yul\":17591:17627   */\n      sstore\n        /* \"#utility.yul\":17026:17637   */\n      pop\n      pop\n      pop\n        /* \"#utility.yul\":16989:17876   */\n    tag_353:\n      pop\n        /* \"#utility.yul\":16579:17882   */\n      pop\n      pop\n      pop\n        /* \"#utility.yul\":16487:17882   */\n      pop\n      pop\n      jump\t// out\n        /* \"#utility.yul\":17888:18265   */\n    tag_177:\n        /* \"#utility.yul\":17976:17979   */\n      0x00\n        /* \"#utility.yul\":18004:18043   */\n      tag_364\n        /* \"#utility.yul\":18037:18042   */\n      dup3\n        /* \"#utility.yul\":18004:18043   */\n      tag_149\n      jump\t// in\n    tag_364:\n        /* \"#utility.yul\":18059:18130   */\n      tag_365\n        /* \"#utility.yul\":18123:18129   */\n      dup2\n        /* \"#utility.yul\":18118:18121   */\n      dup6\n        /* \"#utility.yul\":18059:18130   */\n      tag_157\n      jump\t// in\n    tag_365:\n        /* \"#utility.yul\":18052:18130   */\n      swap4\n      pop\n        /* \"#utility.yul\":18139:18204   */\n      tag_366\n        /* \"#utility.yul\":18197:18203   */\n      dup2\n        /* \"#utility.yul\":18192:18195   */\n      dup6\n        /* \"#utility.yul\":18185:18189   */\n      0x20\n        /* \"#utility.yul\":18178:18183   */\n      dup7\n        /* \"#utility.yul\":18174:18190   */\n      add\n        /* \"#utility.yul\":18139:18204   */\n      tag_151\n      jump\t// in\n    tag_366:\n        /* \"#utility.yul\":18229:18258   */\n      tag_367\n        /* \"#utility.yul\":18251:18257   */\n      dup2\n        /* \"#utility.yul\":18229:18258   */\n      tag_137\n      jump\t// in\n    tag_367:\n        /* \"#utility.yul\":18224:18227   */\n      dup5\n        /* \"#utility.yul\":18220:18259   */\n      add\n        /* \"#utility.yul\":18213:18259   */\n      swap2\n      pop\n        /* \"#utility.yul\":17980:18265   */\n      pop\n        /* \"#utility.yul\":17888:18265   */\n      swap3\n      swap2\n      pop\n      pop\n      jump\t// out\n        /* \"#utility.yul\":18271:18694   */\n    tag_58:\n        /* \"#utility.yul\":18412:18416   */\n      0x00\n        /* \"#utility.yul\":18450:18452   */\n      0x40\n        /* \"#utility.yul\":18439:18448   */\n      dup3\n        /* \"#utility.yul\":18435:18453   */\n      add\n        /* \"#utility.yul\":18427:18453   */\n      swap1\n      pop\n        /* \"#utility.yul\":18463:18534   */\n      tag_369\n        /* \"#utility.yul\":18531:18532   */\n      0x00\n        /* \"#utility.yul\":18520:18529   */\n      dup4\n        /* \"#utility.yul\":18516:18533   */\n      add\n        /* \"#utility.yul\":18507:18513   */\n      dup6\n        /* \"#utility.yul\":18463:18534   */\n      tag_144\n      jump\t// in\n    tag_369:\n        /* \"#utility.yul\":18581:18590   */\n      dup2\n        /* \"#utility.yul\":18575:18579   */\n      dup2\n        /* \"#utility.yul\":18571:18591   */\n      sub\n        /* \"#utility.yul\":18566:18568   */\n      0x20\n        /* \"#utility.yul\":18555:18564   */\n      dup4\n        /* \"#utility.yul\":18551:18569   */\n      add\n        /* \"#utility.yul\":18544:18592   */\n      mstore\n        /* \"#utility.yul\":18609:18687   */\n      tag_370\n        /* \"#utility.yul\":18682:18686   */\n      dup2\n        /* \"#utility.yul\":18673:18679   */\n      dup5\n        /* \"#utility.yul\":18609:18687   */\n      tag_177\n      jump\t// in\n    tag_370:\n        /* \"#utility.yul\":18601:18687   */\n      swap1\n      pop\n        /* \"#utility.yul\":18271:18694   */\n      swap4\n      swap3\n      pop\n      pop\n      pop\n      jump\t// out\n        /* \"#utility.yul\":18700:18880   */\n    tag_87:\n        /* \"#utility.yul\":18748:18825   */\n      0x4e487b7100000000000000000000000000000000000000000000000000000000\n        /* \"#utility.yul\":18745:18746   */\n      0x00\n        /* \"#utility.yul\":18738:18826   */\n      mstore\n        /* \"#utility.yul\":18845:18849   */\n      0x32\n        /* \"#utility.yul\":18842:18843   */\n      0x04\n        /* \"#utility.yul\":18835:18850   */\n      mstore\n        /* \"#utility.yul\":18869:18873   */\n      0x24\n        /* \"#utility.yul\":18866:18867   */\n      0x00\n        /* \"#utility.yul\":18859:18874   */\n      revert\n        /* \"#utility.yul\":18886:19055   */\n    tag_178:\n        /* \"#utility.yul\":19026:19047   */\n      0x496e646578206f7574206f6620626f756e647300000000000000000000000000\n        /* \"#utility.yul\":19022:19023   */\n      0x00\n        /* \"#utility.yul\":19014:19020   */\n      dup3\n        /* \"#utility.yul\":19010:19024   */\n      add\n        /* \"#utility.yul\":19003:19048   */\n      mstore\n        /* \"#utility.yul\":18886:19055   */\n      pop\n      jump\t// out\n        /* \"#utility.yul\":19061:19427   */\n    tag_179:\n        /* \"#utility.yul\":19203:19206   */\n      0x00\n        /* \"#utility.yul\":19224:19291   */\n      tag_374\n        /* \"#utility.yul\":19288:19290   */\n      0x13\n        /* \"#utility.yul\":19283:19286   */\n      dup4\n        /* \"#utility.yul\":19224:19291   */\n      tag_157\n      jump\t// in\n    tag_374:\n        /* \"#utility.yul\":19217:19291   */\n      swap2\n      pop\n        /* \"#utility.yul\":19300:19393   */\n      tag_375\n        /* \"#utility.yul\":19389:19392   */\n      dup3\n        /* \"#utility.yul\":19300:19393   */\n      tag_178\n      jump\t// in\n    tag_375:\n        /* \"#utility.yul\":19418:19420   */\n      0x20\n        /* \"#utility.yul\":19413:19416   */\n      dup3\n        /* \"#utility.yul\":19409:19421   */\n      add\n        /* \"#utility.yul\":19402:19421   */\n      swap1\n      pop\n        /* \"#utility.yul\":19061:19427   */\n      swap2\n      swap1\n      pop\n      jump\t// out\n        /* \"#utility.yul\":19433:19852   */\n    tag_106:\n        /* \"#utility.yul\":19599:19603   */\n      0x00\n        /* \"#utility.yul\":19637:19639   */\n      0x20\n        /* \"#utility.yul\":19626:19635   */\n      dup3\n        /* \"#utility.yul\":19622:19640   */\n      add\n        /* \"#utility.yul\":19614:19640   */\n      swap1\n      pop\n        /* \"#utility.yul\":19686:19695   */\n      dup2\n        /* \"#utility.yul\":19680:19684   */\n      dup2\n        /* \"#utility.yul\":19676:19696   */\n      sub\n        /* \"#utility.yul\":19672:19673   */\n      0x00\n        /* \"#utility.yul\":19661:19670   */\n      dup4\n        /* \"#utility.yul\":19657:19674   */\n      add\n        /* \"#utility.yul\":19650:19697   */\n      mstore\n        /* \"#utility.yul\":19714:19845   */\n      tag_377\n        /* \"#utility.yul\":19840:19844   */\n      dup2\n        /* \"#utility.yul\":19714:19845   */\n      tag_179\n      jump\t// in\n    tag_377:\n        /* \"#utility.yul\":19706:19845   */\n      swap1\n      pop\n        /* \"#utility.yul\":19433:19852   */\n      swap2\n      swap1\n      pop\n      jump\t// out\n        /* \"#utility.yul\":19858:20391   */\n    tag_115:\n        /* \"#utility.yul\":20027:20031   */\n      0x00\n        /* \"#utility.yul\":20065:20067   */\n      0x60\n        /* \"#utility.yul\":20054:20063   */\n      dup3\n        /* \"#utility.yul\":20050:20068   */\n      add\n        /* \"#utility.yul\":20042:20068   */\n      swap1\n      pop\n        /* \"#utility.yul\":20078:20149   */\n      tag_379\n        /* \"#utility.yul\":20146:20147   */\n      0x00\n        /* \"#utility.yul\":20135:20144   */\n      dup4\n        /* \"#utility.yul\":20131:20148   */\n      add\n        /* \"#utility.yul\":20122:20128   */\n      dup7\n        /* \"#utility.yul\":20078:20149   */\n      tag_144\n      jump\t// in\n    tag_379:\n        /* \"#utility.yul\":20159:20231   */\n      tag_380\n        /* \"#utility.yul\":20227:20229   */\n      0x20\n        /* \"#utility.yul\":20216:20225   */\n      dup4\n        /* \"#utility.yul\":20212:20230   */\n      add\n        /* \"#utility.yul\":20203:20209   */\n      dup6\n        /* \"#utility.yul\":20159:20231   */\n      tag_144\n      jump\t// in\n    tag_380:\n        /* \"#utility.yul\":20278:20287   */\n      dup2\n        /* \"#utility.yul\":20272:20276   */\n      dup2\n        /* \"#utility.yul\":20268:20288   */\n      sub\n        /* \"#utility.yul\":20263:20265   */\n      0x40\n        /* \"#utility.yul\":20252:20261   */\n      dup4\n        /* \"#utility.yul\":20248:20266   */\n      add\n        /* \"#utility.yul\":20241:20289   */\n      mstore\n        /* \"#utility.yul\":20306:20384   */\n      tag_381\n        /* \"#utility.yul\":20379:20383   */\n      dup2\n        /* \"#utility.yul\":20370:20376   */\n      dup5\n        /* \"#utility.yul\":20306:20384   */\n      tag_177\n      jump\t// in\n    tag_381:\n        /* \"#utility.yul\":20298:20384   */\n      swap1\n      pop\n        /* \"#utility.yul\":19858:20391   */\n      swap5\n      swap4\n      pop\n      pop\n      pop\n      pop\n      jump\t// out\n\n    auxdata: 0xa2646970667358221220c08864a4fd0b30575f91910696238395c7b0e780f780b57c4cb3b1d98849911c64736f6c63430008160033\n}\n",
				"bytecode": {
					"linkReferences": {},
					"object": "608060405260015f55348015610013575f80fd5b50620f424060025f3373ffffffffffffffffffffffffffffffffffffffff1673ffffffffffffffffffffffffffffffffffffffff1681526020019081526020015f2081905550611556806100665f395ff3fe608060405234801561000f575f80fd5b506004361061007b575f3560e01c80639f43f46f116100595780639f43f46f146100d5578063b48028e314610105578063b608d3a414610121578063dd0826c61461013d5761007b565b8063020310241461007f57806308c220c21461009b5780630c6b5348146100b7575b5f80fd5b61009960048036038101906100949190610b5a565b61016d565b005b6100b560048036038101906100b09190610cf4565b61024c565b005b6100bf610418565b6040516100cc9190610d6f565b60405180910390f35b6100ef60048036038101906100ea9190610d88565b61055a565b6040516100fc9190610f69565b60405180910390f35b61011f600480360381019061011a9190610b5a565b61076e565b005b61013b60048036038101906101369190610f89565b610832565b005b61015760048036038101906101529190611009565b6109c0565b6040516101649190610f69565b60405180910390f35b5f60025f3373ffffffffffffffffffffffffffffffffffffffff1673ffffffffffffffffffffffffffffffffffffffff1681526020019081526020015f2054036101ec576040517f08c379a00000000000000000000000000000000000000000000000000000000081526004016101e39061108e565b60405180910390fd5b5f808154809291906101fd906110d9565b919050555f819055505f5460025f8373ffffffffffffffffffffffffffffffffffffffff1673ffffffffffffffffffffffffffffffffffffffff1681526020019081526020015f208190555050565b5f60025f3373ffffffffffffffffffffffffffffffffffffffff1673ffffffffffffffffffffffffffffffffffffffff1681526020019081526020015f2054036102cb576040517f08c379a00000000000000000000000000000000000000000000000000000000081526004016102c29061108e565b60405180910390fd5b620f424060025f3373ffffffffffffffffffffffffffffffffffffffff1673ffffffffffffffffffffffffffffffffffffffff1681526020019081526020015f205414158015610358575060025f3373ffffffffffffffffffffffffffffffffffffffff1673ffffffffffffffffffffffffffffffffffffffff1681526020019081526020015f20548314155b6104135760015f8481526020019081526020015f20604051806060016040528085815260200184815260200183815250908060018154018082558091505060019003905f5260205f2090600302015f909190919091505f820151815f01556020820151816001015560408201518160020190816103d5919061131a565b505050827f32e7c28972e89757b6baa3898e54af0a57a00f3a4df3d1ad95609eb202460b3a838360405161040a929190611421565b60405180910390a25b505050565b5f8060025f3373ffffffffffffffffffffffffffffffffffffffff1673ffffffffffffffffffffffffffffffffffffffff1681526020019081526020015f205403610498576040517f08c379a000000000000000000000000000000000000000000000000000000000815260040161048f9061108e565b60405180910390fd5b5f60025f3373ffffffffffffffffffffffffffffffffffffffff1673ffffffffffffffffffffffffffffffffffffffff1681526020019081526020015f205403610517576040517f08c379a000000000000000000000000000000000000000000000000000000000815260040161050e9061108e565b60405180910390fd5b60025f3373ffffffffffffffffffffffffffffffffffffffff1673ffffffffffffffffffffffffffffffffffffffff1681526020019081526020015f2054905090565b60605f60015f8681526020019081526020015f20805480602002602001604051908101604052809291908181526020015f905b82821015610660578382905f5260205f2090600302016040518060600160405290815f8201548152602001600182015481526020016002820180546105d19061114d565b80601f01602080910402602001604051908101604052809291908181526020018280546105fd9061114d565b80156106485780601f1061061f57610100808354040283529160200191610648565b820191905f5260205f20905b81548152906001019060200180831161062b57829003601f168201915b5050505050815250508152602001906001019061058d565b5050505090505f815167ffffffffffffffff81111561068257610681610bd0565b5b6040519080825280602002602001820160405280156106bb57816020015b6106a8610ad0565b8152602001906001900390816106a05790505b5090505f5b825181101561076157858382815181106106dd576106dc61144f565b5b602002602001015160200151101580156107155750848382815181106107065761070561144f565b5b60200260200101516020015111155b156107545782818151811061072d5761072c61144f565b5b60200260200101518282815181106107485761074761144f565b5b60200260200101819052505b80806001019150506106c0565b5080925050509392505050565b5f60025f3373ffffffffffffffffffffffffffffffffffffffff1673ffffffffffffffffffffffffffffffffffffffff1681526020019081526020015f2054036107ed576040517f08c379a00000000000000000000000000000000000000000000000000000000081526004016107e49061108e565b60405180910390fd5b5f60025f8373ffffffffffffffffffffffffffffffffffffffff1673ffffffffffffffffffffffffffffffffffffffff1681526020019081526020015f208190555050565b5f60025f3373ffffffffffffffffffffffffffffffffffffffff1673ffffffffffffffffffffffffffffffffffffffff1681526020019081526020015f2054036108b1576040517f08c379a00000000000000000000000000000000000000000000000000000000081526004016108a89061108e565b60405180910390fd5b60015f8581526020019081526020015f20805490508310610907576040517f08c379a00000000000000000000000000000000000000000000000000000000081526004016108fe906114c6565b60405180910390fd5b8160015f8681526020019081526020015f20848154811061092b5761092a61144f565b5b905f5260205f209060030201600101819055508060015f8681526020019081526020015f2084815481106109625761096161144f565b5b905f5260205f209060030201600201908161097d919061131a565b50837fa0d3071670661a556feb29023709b20ab2a62d5c56f63343d67c087d28be3df78484846040516109b2939291906114e4565b60405180910390a250505050565b606060015f8381526020019081526020015f20805480602002602001604051908101604052809291908181526020015f905b82821015610ac5578382905f5260205f2090600302016040518060600160405290815f820154815260200160018201548152602001600282018054610a369061114d565b80601f0160208091040260200160405190810160405280929190818152602001828054610a629061114d565b8015610aad5780601f10610a8457610100808354040283529160200191610aad565b820191905f5260205f20905b815481529060010190602001808311610a9057829003601f168201915b505050505081525050815260200190600101906109f2565b505050509050919050565b60405180606001604052805f81526020015f8152602001606081525090565b5f604051905090565b5f80fd5b5f80fd5b5f73ffffffffffffffffffffffffffffffffffffffff82169050919050565b5f610b2982610b00565b9050919050565b610b3981610b1f565b8114610b43575f80fd5b50565b5f81359050610b5481610b30565b92915050565b5f60208284031215610b6f57610b6e610af8565b5b5f610b7c84828501610b46565b91505092915050565b5f819050919050565b610b9781610b85565b8114610ba1575f80fd5b50565b5f81359050610bb281610b8e565b92915050565b5f80fd5b5f80fd5b5f601f19601f8301169050919050565b7f4e487b71000000000000000000000000000000000000000000000000000000005f52604160045260245ffd5b610c0682610bc0565b810181811067ffffffffffffffff82111715610c2557610c24610bd0565b5b80604052505050565b5f610c37610aef565b9050610c438282610bfd565b919050565b5f67ffffffffffffffff821115610c6257610c61610bd0565b5b610c6b82610bc0565b9050602081019050919050565b828183375f83830152505050565b5f610c98610c9384610c48565b610c2e565b905082815260208101848484011115610cb457610cb3610bbc565b5b610cbf848285610c78565b509392505050565b5f82601f830112610cdb57610cda610bb8565b5b8135610ceb848260208601610c86565b91505092915050565b5f805f60608486031215610d0b57610d0a610af8565b5b5f610d1886828701610ba4565b9350506020610d2986828701610ba4565b925050604084013567ffffffffffffffff811115610d4a57610d49610afc565b5b610d5686828701610cc7565b9150509250925092565b610d6981610b85565b82525050565b5f602082019050610d825f830184610d60565b92915050565b5f805f60608486031215610d9f57610d9e610af8565b5b5f610dac86828701610ba4565b9350506020610dbd86828701610ba4565b9250506040610dce86828701610ba4565b9150509250925092565b5f81519050919050565b5f82825260208201905092915050565b5f819050602082019050919050565b610e0a81610b85565b82525050565b5f81519050919050565b5f82825260208201905092915050565b5f5b83811015610e47578082015181840152602081019050610e2c565b5f8484015250505050565b5f610e5c82610e10565b610e668185610e1a565b9350610e76818560208601610e2a565b610e7f81610bc0565b840191505092915050565b5f606083015f830151610e9f5f860182610e01565b506020830151610eb26020860182610e01565b5060408301518482036040860152610eca8282610e52565b9150508091505092915050565b5f610ee28383610e8a565b905092915050565b5f602082019050919050565b5f610f0082610dd8565b610f0a8185610de2565b935083602082028501610f1c85610df2565b805f5b85811015610f575784840389528151610f388582610ed7565b9450610f4383610eea565b925060208a01995050600181019050610f1f565b50829750879550505050505092915050565b5f6020820190508181035f830152610f818184610ef6565b905092915050565b5f805f8060808587031215610fa157610fa0610af8565b5b5f610fae87828801610ba4565b9450506020610fbf87828801610ba4565b9350506040610fd087828801610ba4565b925050606085013567ffffffffffffffff811115610ff157610ff0610afc565b5b610ffd87828801610cc7565b91505092959194509250565b5f6020828403121561101e5761101d610af8565b5b5f61102b84828501610ba4565b91505092915050565b5f82825260208201905092915050565b7f556e617574686f72697a656420616363657373000000000000000000000000005f82015250565b5f611078601383611034565b915061108382611044565b602082019050919050565b5f6020820190508181035f8301526110a58161106c565b9050919050565b7f4e487b71000000000000000000000000000000000000000000000000000000005f52601160045260245ffd5b5f6110e382610b85565b91507fffffffffffffffffffffffffffffffffffffffffffffffffffffffffffffffff8203611115576111146110ac565b5b600182019050919050565b7f4e487b71000000000000000000000000000000000000000000000000000000005f52602260045260245ffd5b5f600282049050600182168061116457607f821691505b60208210810361117757611176611120565b5b50919050565b5f819050815f5260205f209050919050565b5f6020601f8301049050919050565b5f82821b905092915050565b5f600883026111d97fffffffffffffffffffffffffffffffffffffffffffffffffffffffffffffffff8261119e565b6111e3868361119e565b95508019841693508086168417925050509392505050565b5f819050919050565b5f61121e61121961121484610b85565b6111fb565b610b85565b9050919050565b5f819050919050565b61123783611204565b61124b61124382611225565b8484546111aa565b825550505050565b5f90565b61125f611253565b61126a81848461122e565b505050565b5b8181101561128d576112825f82611257565b600181019050611270565b5050565b601f8211156112d2576112a38161117d565b6112ac8461118f565b810160208510156112bb578190505b6112cf6112c78561118f565b83018261126f565b50505b505050565b5f82821c905092915050565b5f6112f25f19846008026112d7565b1980831691505092915050565b5f61130a83836112e3565b9150826002028217905092915050565b61132382610e10565b67ffffffffffffffff81111561133c5761133b610bd0565b5b611346825461114d565b611351828285611291565b5f60209050601f831160018114611382575f8415611370578287015190505b61137a85826112ff565b8655506113e1565b601f1984166113908661117d565b5f5b828110156113b757848901518255600182019150602085019450602081019050611392565b868310156113d457848901516113d0601f8916826112e3565b8355505b6001600288020188555050505b505050505050565b5f6113f382610e10565b6113fd8185611034565b935061140d818560208601610e2a565b61141681610bc0565b840191505092915050565b5f6040820190506114345f830185610d60565b818103602083015261144681846113e9565b90509392505050565b7f4e487b71000000000000000000000000000000000000000000000000000000005f52603260045260245ffd5b7f496e646578206f7574206f6620626f756e6473000000000000000000000000005f82015250565b5f6114b0601383611034565b91506114bb8261147c565b602082019050919050565b5f6020820190508181035f8301526114dd816114a4565b9050919050565b5f6060820190506114f75f830186610d60565b6115046020830185610d60565b818103604083015261151681846113e9565b905094935050505056fea2646970667358221220c08864a4fd0b30575f91910696238395c7b0e780f780b57c4cb3b1d98849911c64736f6c63430008160033",
					"opcodes": "PUSH1 0x80 PUSH1 0x40 MSTORE PUSH1 0x1 PUSH0 SSTORE CALLVALUE DUP1 ISZERO PUSH2 0x13 JUMPI PUSH0 DUP1 REVERT JUMPDEST POP PUSH3 0xF4240 PUSH1 0x2 PUSH0 CALLER PUSH20 0xFFFFFFFFFFFFFFFFFFFFFFFFFFFFFFFFFFFFFFFF AND PUSH20 0xFFFFFFFFFFFFFFFFFFFFFFFFFFFFFFFFFFFFFFFF AND DUP2 MSTORE PUSH1 0x20 ADD SWAP1 DUP2 MSTORE PUSH1 0x20 ADD PUSH0 KECCAK256 DUP2 SWAP1 SSTORE POP PUSH2 0x1556 DUP1 PUSH2 0x66 PUSH0 CODECOPY PUSH0 RETURN INVALID PUSH1 0x80 PUSH1 0x40 MSTORE CALLVALUE DUP1 ISZERO PUSH2 0xF JUMPI PUSH0 DUP1 REVERT JUMPDEST POP PUSH1 0x4 CALLDATASIZE LT PUSH2 0x7B JUMPI PUSH0 CALLDATALOAD PUSH1 0xE0 SHR DUP1 PUSH4 0x9F43F46F GT PUSH2 0x59 JUMPI DUP1 PUSH4 0x9F43F46F EQ PUSH2 0xD5 JUMPI DUP1 PUSH4 0xB48028E3 EQ PUSH2 0x105 JUMPI DUP1 PUSH4 0xB608D3A4 EQ PUSH2 0x121 JUMPI DUP1 PUSH4 0xDD0826C6 EQ PUSH2 0x13D JUMPI PUSH2 0x7B JUMP JUMPDEST DUP1 PUSH4 0x2031024 EQ PUSH2 0x7F JUMPI DUP1 PUSH4 0x8C220C2 EQ PUSH2 0x9B JUMPI DUP1 PUSH4 0xC6B5348 EQ PUSH2 0xB7 JUMPI JUMPDEST PUSH0 DUP1 REVERT JUMPDEST PUSH2 0x99 PUSH1 0x4 DUP1 CALLDATASIZE SUB DUP2 ADD SWAP1 PUSH2 0x94 SWAP2 SWAP1 PUSH2 0xB5A JUMP JUMPDEST PUSH2 0x16D JUMP JUMPDEST STOP JUMPDEST PUSH2 0xB5 PUSH1 0x4 DUP1 CALLDATASIZE SUB DUP2 ADD SWAP1 PUSH2 0xB0 SWAP2 SWAP1 PUSH2 0xCF4 JUMP JUMPDEST PUSH2 0x24C JUMP JUMPDEST STOP JUMPDEST PUSH2 0xBF PUSH2 0x418 JUMP JUMPDEST PUSH1 0x40 MLOAD PUSH2 0xCC SWAP2 SWAP1 PUSH2 0xD6F JUMP JUMPDEST PUSH1 0x40 MLOAD DUP1 SWAP2 SUB SWAP1 RETURN JUMPDEST PUSH2 0xEF PUSH1 0x4 DUP1 CALLDATASIZE SUB DUP2 ADD SWAP1 PUSH2 0xEA SWAP2 SWAP1 PUSH2 0xD88 JUMP JUMPDEST PUSH2 0x55A JUMP JUMPDEST PUSH1 0x40 MLOAD PUSH2 0xFC SWAP2 SWAP1 PUSH2 0xF69 JUMP JUMPDEST PUSH1 0x40 MLOAD DUP1 SWAP2 SUB SWAP1 RETURN JUMPDEST PUSH2 0x11F PUSH1 0x4 DUP1 CALLDATASIZE SUB DUP2 ADD SWAP1 PUSH2 0x11A SWAP2 SWAP1 PUSH2 0xB5A JUMP JUMPDEST PUSH2 0x76E JUMP JUMPDEST STOP JUMPDEST PUSH2 0x13B PUSH1 0x4 DUP1 CALLDATASIZE SUB DUP2 ADD SWAP1 PUSH2 0x136 SWAP2 SWAP1 PUSH2 0xF89 JUMP JUMPDEST PUSH2 0x832 JUMP JUMPDEST STOP JUMPDEST PUSH2 0x157 PUSH1 0x4 DUP1 CALLDATASIZE SUB DUP2 ADD SWAP1 PUSH2 0x152 SWAP2 SWAP1 PUSH2 0x1009 JUMP JUMPDEST PUSH2 0x9C0 JUMP JUMPDEST PUSH1 0x40 MLOAD PUSH2 0x164 SWAP2 SWAP1 PUSH2 0xF69 JUMP JUMPDEST PUSH1 0x40 MLOAD DUP1 SWAP2 SUB SWAP1 RETURN JUMPDEST PUSH0 PUSH1 0x2 PUSH0 CALLER PUSH20 0xFFFFFFFFFFFFFFFFFFFFFFFFFFFFFFFFFFFFFFFF AND PUSH20 0xFFFFFFFFFFFFFFFFFFFFFFFFFFFFFFFFFFFFFFFF AND DUP2 MSTORE PUSH1 0x20 ADD SWAP1 DUP2 MSTORE PUSH1 0x20 ADD PUSH0 KECCAK256 SLOAD SUB PUSH2 0x1EC JUMPI PUSH1 0x40 MLOAD PUSH32 0x8C379A000000000000000000000000000000000000000000000000000000000 DUP2 MSTORE PUSH1 0x4 ADD PUSH2 0x1E3 SWAP1 PUSH2 0x108E JUMP JUMPDEST PUSH1 0x40 MLOAD DUP1 SWAP2 SUB SWAP1 REVERT JUMPDEST PUSH0 DUP1 DUP2 SLOAD DUP1 SWAP3 SWAP2 SWAP1 PUSH2 0x1FD SWAP1 PUSH2 0x10D9 JUMP JUMPDEST SWAP2 SWAP1 POP SSTORE PUSH0 DUP2 SWAP1 SSTORE POP PUSH0 SLOAD PUSH1 0x2 PUSH0 DUP4 PUSH20 0xFFFFFFFFFFFFFFFFFFFFFFFFFFFFFFFFFFFFFFFF AND PUSH20 0xFFFFFFFFFFFFFFFFFFFFFFFFFFFFFFFFFFFFFFFF AND DUP2 MSTORE PUSH1 0x20 ADD SWAP1 DUP2 MSTORE PUSH1 0x20 ADD PUSH0 KECCAK256 DUP2 SWAP1 SSTORE POP POP JUMP JUMPDEST PUSH0 PUSH1 0x2 PUSH0 CALLER PUSH20 0xFFFFFFFFFFFFFFFFFFFFFFFFFFFFFFFFFFFFFFFF AND PUSH20 0xFFFFFFFFFFFFFFFFFFFFFFFFFFFFFFFFFFFFFFFF AND DUP2 MSTORE PUSH1 0x20 ADD SWAP1 DUP2 MSTORE PUSH1 0x20 ADD PUSH0 KECCAK256 SLOAD SUB PUSH2 0x2CB JUMPI PUSH1 0x40 MLOAD PUSH32 0x8C379A000000000000000000000000000000000000000000000000000000000 DUP2 MSTORE PUSH1 0x4 ADD PUSH2 0x2C2 SWAP1 PUSH2 0x108E JUMP JUMPDEST PUSH1 0x40 MLOAD DUP1 SWAP2 SUB SWAP1 REVERT JUMPDEST PUSH3 0xF4240 PUSH1 0x2 PUSH0 CALLER PUSH20 0xFFFFFFFFFFFFFFFFFFFFFFFFFFFFFFFFFFFFFFFF AND PUSH20 0xFFFFFFFFFFFFFFFFFFFFFFFFFFFFFFFFFFFFFFFF AND DUP2 MSTORE PUSH1 0x20 ADD SWAP1 DUP2 MSTORE PUSH1 0x20 ADD PUSH0 KECCAK256 SLOAD EQ ISZERO DUP1 ISZERO PUSH2 0x358 JUMPI POP PUSH1 0x2 PUSH0 CALLER PUSH20 0xFFFFFFFFFFFFFFFFFFFFFFFFFFFFFFFFFFFFFFFF AND PUSH20 0xFFFFFFFFFFFFFFFFFFFFFFFFFFFFFFFFFFFFFFFF AND DUP2 MSTORE PUSH1 0x20 ADD SWAP1 DUP2 MSTORE PUSH1 0x20 ADD PUSH0 KECCAK256 SLOAD DUP4 EQ ISZERO JUMPDEST PUSH2 0x413 JUMPI PUSH1 0x1 PUSH0 DUP5 DUP2 MSTORE PUSH1 0x20 ADD SWAP1 DUP2 MSTORE PUSH1 0x20 ADD PUSH0 KECCAK256 PUSH1 0x40 MLOAD DUP1 PUSH1 0x60 ADD PUSH1 0x40 MSTORE DUP1 DUP6 DUP2 MSTORE PUSH1 0x20 ADD DUP5 DUP2 MSTORE PUSH1 0x20 ADD DUP4 DUP2 MSTORE POP SWAP1 DUP1 PUSH1 0x1 DUP2 SLOAD ADD DUP1 DUP3 SSTORE DUP1 SWAP2 POP POP PUSH1 0x1 SWAP1 SUB SWAP1 PUSH0 MSTORE PUSH1 0x20 PUSH0 KECCAK256 SWAP1 PUSH1 0x3 MUL ADD PUSH0 SWAP1 SWAP2 SWAP1 SWAP2 SWAP1 SWAP2 POP PUSH0 DUP3 ADD MLOAD DUP2 PUSH0 ADD SSTORE PUSH1 0x20 DUP3 ADD MLOAD DUP2 PUSH1 0x1 ADD SSTORE PUSH1 0x40 DUP3 ADD MLOAD DUP2 PUSH1 0x2 ADD SWAP1 DUP2 PUSH2 0x3D5 SWAP2 SWAP1 PUSH2 0x131A JUMP JUMPDEST POP POP POP DUP3 PUSH32 0x32E7C28972E89757B6BAA3898E54AF0A57A00F3A4DF3D1AD95609EB202460B3A DUP4 DUP4 PUSH1 0x40 MLOAD PUSH2 0x40A SWAP3 SWAP2 SWAP1 PUSH2 0x1421 JUMP JUMPDEST PUSH1 0x40 MLOAD DUP1 SWAP2 SUB SWAP1 LOG2 JUMPDEST POP POP POP JUMP JUMPDEST PUSH0 DUP1 PUSH1 0x2 PUSH0 CALLER PUSH20 0xFFFFFFFFFFFFFFFFFFFFFFFFFFFFFFFFFFFFFFFF AND PUSH20 0xFFFFFFFFFFFFFFFFFFFFFFFFFFFFFFFFFFFFFFFF AND DUP2 MSTORE PUSH1 0x20 ADD SWAP1 DUP2 MSTORE PUSH1 0x20 ADD PUSH0 KECCAK256 SLOAD SUB PUSH2 0x498 JUMPI PUSH1 0x40 MLOAD PUSH32 0x8C379A000000000000000000000000000000000000000000000000000000000 DUP2 MSTORE PUSH1 0x4 ADD PUSH2 0x48F SWAP1 PUSH2 0x108E JUMP JUMPDEST PUSH1 0x40 MLOAD DUP1 SWAP2 SUB SWAP1 REVERT JUMPDEST PUSH0 PUSH1 0x2 PUSH0 CALLER PUSH20 0xFFFFFFFFFFFFFFFFFFFFFFFFFFFFFFFFFFFFFFFF AND PUSH20 0xFFFFFFFFFFFFFFFFFFFFFFFFFFFFFFFFFFFFFFFF AND DUP2 MSTORE PUSH1 0x20 ADD SWAP1 DUP2 MSTORE PUSH1 0x20 ADD PUSH0 KECCAK256 SLOAD SUB PUSH2 0x517 JUMPI PUSH1 0x40 MLOAD PUSH32 0x8C379A000000000000000000000000000000000000000000000000000000000 DUP2 MSTORE PUSH1 0x4 ADD PUSH2 0x50E SWAP1 PUSH2 0x108E JUMP JUMPDEST PUSH1 0x40 MLOAD DUP1 SWAP2 SUB SWAP1 REVERT JUMPDEST PUSH1 0x2 PUSH0 CALLER PUSH20 0xFFFFFFFFFFFFFFFFFFFFFFFFFFFFFFFFFFFFFFFF AND PUSH20 0xFFFFFFFFFFFFFFFFFFFFFFFFFFFFFFFFFFFFFFFF AND DUP2 MSTORE PUSH1 0x20 ADD SWAP1 DUP2 MSTORE PUSH1 0x20 ADD PUSH0 KECCAK256 SLOAD SWAP1 POP SWAP1 JUMP JUMPDEST PUSH1 0x60 PUSH0 PUSH1 0x1 PUSH0 DUP7 DUP2 MSTORE PUSH1 0x20 ADD SWAP1 DUP2 MSTORE PUSH1 0x20 ADD PUSH0 KECCAK256 DUP1 SLOAD DUP1 PUSH1 0x20 MUL PUSH1 0x20 ADD PUSH1 0x40 MLOAD SWAP1 DUP2 ADD PUSH1 0x40 MSTORE DUP1 SWAP3 SWAP2 SWAP1 DUP2 DUP2 MSTORE PUSH1 0x20 ADD PUSH0 SWAP1 JUMPDEST DUP3 DUP3 LT ISZERO PUSH2 0x660 JUMPI DUP4 DUP3 SWAP1 PUSH0 MSTORE PUSH1 0x20 PUSH0 KECCAK256 SWAP1 PUSH1 0x3 MUL ADD PUSH1 0x40 MLOAD DUP1 PUSH1 0x60 ADD PUSH1 0x40 MSTORE SWAP1 DUP2 PUSH0 DUP3 ADD SLOAD DUP2 MSTORE PUSH1 0x20 ADD PUSH1 0x1 DUP3 ADD SLOAD DUP2 MSTORE PUSH1 0x20 ADD PUSH1 0x2 DUP3 ADD DUP1 SLOAD PUSH2 0x5D1 SWAP1 PUSH2 0x114D JUMP JUMPDEST DUP1 PUSH1 0x1F ADD PUSH1 0x20 DUP1 SWAP2 DIV MUL PUSH1 0x20 ADD PUSH1 0x40 MLOAD SWAP1 DUP2 ADD PUSH1 0x40 MSTORE DUP1 SWAP3 SWAP2 SWAP1 DUP2 DUP2 MSTORE PUSH1 0x20 ADD DUP3 DUP1 SLOAD PUSH2 0x5FD SWAP1 PUSH2 0x114D JUMP JUMPDEST DUP1 ISZERO PUSH2 0x648 JUMPI DUP1 PUSH1 0x1F LT PUSH2 0x61F JUMPI PUSH2 0x100 DUP1 DUP4 SLOAD DIV MUL DUP4 MSTORE SWAP2 PUSH1 0x20 ADD SWAP2 PUSH2 0x648 JUMP JUMPDEST DUP3 ADD SWAP2 SWAP1 PUSH0 MSTORE PUSH1 0x20 PUSH0 KECCAK256 SWAP1 JUMPDEST DUP2 SLOAD DUP2 MSTORE SWAP1 PUSH1 0x1 ADD SWAP1 PUSH1 0x20 ADD DUP1 DUP4 GT PUSH2 0x62B JUMPI DUP3 SWAP1 SUB PUSH1 0x1F AND DUP3 ADD SWAP2 JUMPDEST POP POP POP POP POP DUP2 MSTORE POP POP DUP2 MSTORE PUSH1 0x20 ADD SWAP1 PUSH1 0x1 ADD SWAP1 PUSH2 0x58D JUMP JUMPDEST POP POP POP POP SWAP1 POP PUSH0 DUP2 MLOAD PUSH8 0xFFFFFFFFFFFFFFFF DUP2 GT ISZERO PUSH2 0x682 JUMPI PUSH2 0x681 PUSH2 0xBD0 JUMP JUMPDEST JUMPDEST PUSH1 0x40 MLOAD SWAP1 DUP1 DUP3 MSTORE DUP1 PUSH1 0x20 MUL PUSH1 0x20 ADD DUP3 ADD PUSH1 0x40 MSTORE DUP1 ISZERO PUSH2 0x6BB JUMPI DUP2 PUSH1 0x20 ADD JUMPDEST PUSH2 0x6A8 PUSH2 0xAD0 JUMP JUMPDEST DUP2 MSTORE PUSH1 0x20 ADD SWAP1 PUSH1 0x1 SWAP1 SUB SWAP1 DUP2 PUSH2 0x6A0 JUMPI SWAP1 POP JUMPDEST POP SWAP1 POP PUSH0 JUMPDEST DUP3 MLOAD DUP2 LT ISZERO PUSH2 0x761 JUMPI DUP6 DUP4 DUP3 DUP2 MLOAD DUP2 LT PUSH2 0x6DD JUMPI PUSH2 0x6DC PUSH2 0x144F JUMP JUMPDEST JUMPDEST PUSH1 0x20 MUL PUSH1 0x20 ADD ADD MLOAD PUSH1 0x20 ADD MLOAD LT ISZERO DUP1 ISZERO PUSH2 0x715 JUMPI POP DUP5 DUP4 DUP3 DUP2 MLOAD DUP2 LT PUSH2 0x706 JUMPI PUSH2 0x705 PUSH2 0x144F JUMP JUMPDEST JUMPDEST PUSH1 0x20 MUL PUSH1 0x20 ADD ADD MLOAD PUSH1 0x20 ADD MLOAD GT ISZERO JUMPDEST ISZERO PUSH2 0x754 JUMPI DUP3 DUP2 DUP2 MLOAD DUP2 LT PUSH2 0x72D JUMPI PUSH2 0x72C PUSH2 0x144F JUMP JUMPDEST JUMPDEST PUSH1 0x20 MUL PUSH1 0x20 ADD ADD MLOAD DUP3 DUP3 DUP2 MLOAD DUP2 LT PUSH2 0x748 JUMPI PUSH2 0x747 PUSH2 0x144F JUMP JUMPDEST JUMPDEST PUSH1 0x20 MUL PUSH1 0x20 ADD ADD DUP2 SWAP1 MSTORE POP JUMPDEST DUP1 DUP1 PUSH1 0x1 ADD SWAP2 POP POP PUSH2 0x6C0 JUMP JUMPDEST POP DUP1 SWAP3 POP POP POP SWAP4 SWAP3 POP POP POP JUMP JUMPDEST PUSH0 PUSH1 0x2 PUSH0 CALLER PUSH20 0xFFFFFFFFFFFFFFFFFFFFFFFFFFFFFFFFFFFFFFFF AND PUSH20 0xFFFFFFFFFFFFFFFFFFFFFFFFFFFFFFFFFFFFFFFF AND DUP2 MSTORE PUSH1 0x20 ADD SWAP1 DUP2 MSTORE PUSH1 0x20 ADD PUSH0 KECCAK256 SLOAD SUB PUSH2 0x7ED JUMPI PUSH1 0x40 MLOAD PUSH32 0x8C379A000000000000000000000000000000000000000000000000000000000 DUP2 MSTORE PUSH1 0x4 ADD PUSH2 0x7E4 SWAP1 PUSH2 0x108E JUMP JUMPDEST PUSH1 0x40 MLOAD DUP1 SWAP2 SUB SWAP1 REVERT JUMPDEST PUSH0 PUSH1 0x2 PUSH0 DUP4 PUSH20 0xFFFFFFFFFFFFFFFFFFFFFFFFFFFFFFFFFFFFFFFF AND PUSH20 0xFFFFFFFFFFFFFFFFFFFFFFFFFFFFFFFFFFFFFFFF AND DUP2 MSTORE PUSH1 0x20 ADD SWAP1 DUP2 MSTORE PUSH1 0x20 ADD PUSH0 KECCAK256 DUP2 SWAP1 SSTORE POP POP JUMP JUMPDEST PUSH0 PUSH1 0x2 PUSH0 CALLER PUSH20 0xFFFFFFFFFFFFFFFFFFFFFFFFFFFFFFFFFFFFFFFF AND PUSH20 0xFFFFFFFFFFFFFFFFFFFFFFFFFFFFFFFFFFFFFFFF AND DUP2 MSTORE PUSH1 0x20 ADD SWAP1 DUP2 MSTORE PUSH1 0x20 ADD PUSH0 KECCAK256 SLOAD SUB PUSH2 0x8B1 JUMPI PUSH1 0x40 MLOAD PUSH32 0x8C379A000000000000000000000000000000000000000000000000000000000 DUP2 MSTORE PUSH1 0x4 ADD PUSH2 0x8A8 SWAP1 PUSH2 0x108E JUMP JUMPDEST PUSH1 0x40 MLOAD DUP1 SWAP2 SUB SWAP1 REVERT JUMPDEST PUSH1 0x1 PUSH0 DUP6 DUP2 MSTORE PUSH1 0x20 ADD SWAP1 DUP2 MSTORE PUSH1 0x20 ADD PUSH0 KECCAK256 DUP1 SLOAD SWAP1 POP DUP4 LT PUSH2 0x907 JUMPI PUSH1 0x40 MLOAD PUSH32 0x8C379A000000000000000000000000000000000000000000000000000000000 DUP2 MSTORE PUSH1 0x4 ADD PUSH2 0x8FE SWAP1 PUSH2 0x14C6 JUMP JUMPDEST PUSH1 0x40 MLOAD DUP1 SWAP2 SUB SWAP1 REVERT JUMPDEST DUP2 PUSH1 0x1 PUSH0 DUP7 DUP2 MSTORE PUSH1 0x20 ADD SWAP1 DUP2 MSTORE PUSH1 0x20 ADD PUSH0 KECCAK256 DUP5 DUP2 SLOAD DUP2 LT PUSH2 0x92B JUMPI PUSH2 0x92A PUSH2 0x144F JUMP JUMPDEST JUMPDEST SWAP1 PUSH0 MSTORE PUSH1 0x20 PUSH0 KECCAK256 SWAP1 PUSH1 0x3 MUL ADD PUSH1 0x1 ADD DUP2 SWAP1 SSTORE POP DUP1 PUSH1 0x1 PUSH0 DUP7 DUP2 MSTORE PUSH1 0x20 ADD SWAP1 DUP2 MSTORE PUSH1 0x20 ADD PUSH0 KECCAK256 DUP5 DUP2 SLOAD DUP2 LT PUSH2 0x962 JUMPI PUSH2 0x961 PUSH2 0x144F JUMP JUMPDEST JUMPDEST SWAP1 PUSH0 MSTORE PUSH1 0x20 PUSH0 KECCAK256 SWAP1 PUSH1 0x3 MUL ADD PUSH1 0x2 ADD SWAP1 DUP2 PUSH2 0x97D SWAP2 SWAP1 PUSH2 0x131A JUMP JUMPDEST POP DUP4 PUSH32 0xA0D3071670661A556FEB29023709B20AB2A62D5C56F63343D67C087D28BE3DF7 DUP5 DUP5 DUP5 PUSH1 0x40 MLOAD PUSH2 0x9B2 SWAP4 SWAP3 SWAP2 SWAP1 PUSH2 0x14E4 JUMP JUMPDEST PUSH1 0x40 MLOAD DUP1 SWAP2 SUB SWAP1 LOG2 POP POP POP POP JUMP JUMPDEST PUSH1 0x60 PUSH1 0x1 PUSH0 DUP4 DUP2 MSTORE PUSH1 0x20 ADD SWAP1 DUP2 MSTORE PUSH1 0x20 ADD PUSH0 KECCAK256 DUP1 SLOAD DUP1 PUSH1 0x20 MUL PUSH1 0x20 ADD PUSH1 0x40 MLOAD SWAP1 DUP2 ADD PUSH1 0x40 MSTORE DUP1 SWAP3 SWAP2 SWAP1 DUP2 DUP2 MSTORE PUSH1 0x20 ADD PUSH0 SWAP1 JUMPDEST DUP3 DUP3 LT ISZERO PUSH2 0xAC5 JUMPI DUP4 DUP3 SWAP1 PUSH0 MSTORE PUSH1 0x20 PUSH0 KECCAK256 SWAP1 PUSH1 0x3 MUL ADD PUSH1 0x40 MLOAD DUP1 PUSH1 0x60 ADD PUSH1 0x40 MSTORE SWAP1 DUP2 PUSH0 DUP3 ADD SLOAD DUP2 MSTORE PUSH1 0x20 ADD PUSH1 0x1 DUP3 ADD SLOAD DUP2 MSTORE PUSH1 0x20 ADD PUSH1 0x2 DUP3 ADD DUP1 SLOAD PUSH2 0xA36 SWAP1 PUSH2 0x114D JUMP JUMPDEST DUP1 PUSH1 0x1F ADD PUSH1 0x20 DUP1 SWAP2 DIV MUL PUSH1 0x20 ADD PUSH1 0x40 MLOAD SWAP1 DUP2 ADD PUSH1 0x40 MSTORE DUP1 SWAP3 SWAP2 SWAP1 DUP2 DUP2 MSTORE PUSH1 0x20 ADD DUP3 DUP1 SLOAD PUSH2 0xA62 SWAP1 PUSH2 0x114D JUMP JUMPDEST DUP1 ISZERO PUSH2 0xAAD JUMPI DUP1 PUSH1 0x1F LT PUSH2 0xA84 JUMPI PUSH2 0x100 DUP1 DUP4 SLOAD DIV MUL DUP4 MSTORE SWAP2 PUSH1 0x20 ADD SWAP2 PUSH2 0xAAD JUMP JUMPDEST DUP3 ADD SWAP2 SWAP1 PUSH0 MSTORE PUSH1 0x20 PUSH0 KECCAK256 SWAP1 JUMPDEST DUP2 SLOAD DUP2 MSTORE SWAP1 PUSH1 0x1 ADD SWAP1 PUSH1 0x20 ADD DUP1 DUP4 GT PUSH2 0xA90 JUMPI DUP3 SWAP1 SUB PUSH1 0x1F AND DUP3 ADD SWAP2 JUMPDEST POP POP POP POP POP DUP2 MSTORE POP POP DUP2 MSTORE PUSH1 0x20 ADD SWAP1 PUSH1 0x1 ADD SWAP1 PUSH2 0x9F2 JUMP JUMPDEST POP POP POP POP SWAP1 POP SWAP2 SWAP1 POP JUMP JUMPDEST PUSH1 0x40 MLOAD DUP1 PUSH1 0x60 ADD PUSH1 0x40 MSTORE DUP1 PUSH0 DUP2 MSTORE PUSH1 0x20 ADD PUSH0 DUP2 MSTORE PUSH1 0x20 ADD PUSH1 0x60 DUP2 MSTORE POP SWAP1 JUMP JUMPDEST PUSH0 PUSH1 0x40 MLOAD SWAP1 POP SWAP1 JUMP JUMPDEST PUSH0 DUP1 REVERT JUMPDEST PUSH0 DUP1 REVERT JUMPDEST PUSH0 PUSH20 0xFFFFFFFFFFFFFFFFFFFFFFFFFFFFFFFFFFFFFFFF DUP3 AND SWAP1 POP SWAP2 SWAP1 POP JUMP JUMPDEST PUSH0 PUSH2 0xB29 DUP3 PUSH2 0xB00 JUMP JUMPDEST SWAP1 POP SWAP2 SWAP1 POP JUMP JUMPDEST PUSH2 0xB39 DUP2 PUSH2 0xB1F JUMP JUMPDEST DUP2 EQ PUSH2 0xB43 JUMPI PUSH0 DUP1 REVERT JUMPDEST POP JUMP JUMPDEST PUSH0 DUP2 CALLDATALOAD SWAP1 POP PUSH2 0xB54 DUP2 PUSH2 0xB30 JUMP JUMPDEST SWAP3 SWAP2 POP POP JUMP JUMPDEST PUSH0 PUSH1 0x20 DUP3 DUP5 SUB SLT ISZERO PUSH2 0xB6F JUMPI PUSH2 0xB6E PUSH2 0xAF8 JUMP JUMPDEST JUMPDEST PUSH0 PUSH2 0xB7C DUP5 DUP3 DUP6 ADD PUSH2 0xB46 JUMP JUMPDEST SWAP2 POP POP SWAP3 SWAP2 POP POP JUMP JUMPDEST PUSH0 DUP2 SWAP1 POP SWAP2 SWAP1 POP JUMP JUMPDEST PUSH2 0xB97 DUP2 PUSH2 0xB85 JUMP JUMPDEST DUP2 EQ PUSH2 0xBA1 JUMPI PUSH0 DUP1 REVERT JUMPDEST POP JUMP JUMPDEST PUSH0 DUP2 CALLDATALOAD SWAP1 POP PUSH2 0xBB2 DUP2 PUSH2 0xB8E JUMP JUMPDEST SWAP3 SWAP2 POP POP JUMP JUMPDEST PUSH0 DUP1 REVERT JUMPDEST PUSH0 DUP1 REVERT JUMPDEST PUSH0 PUSH1 0x1F NOT PUSH1 0x1F DUP4 ADD AND SWAP1 POP SWAP2 SWAP1 POP JUMP JUMPDEST PUSH32 0x4E487B7100000000000000000000000000000000000000000000000000000000 PUSH0 MSTORE PUSH1 0x41 PUSH1 0x4 MSTORE PUSH1 0x24 PUSH0 REVERT JUMPDEST PUSH2 0xC06 DUP3 PUSH2 0xBC0 JUMP JUMPDEST DUP2 ADD DUP2 DUP2 LT PUSH8 0xFFFFFFFFFFFFFFFF DUP3 GT OR ISZERO PUSH2 0xC25 JUMPI PUSH2 0xC24 PUSH2 0xBD0 JUMP JUMPDEST JUMPDEST DUP1 PUSH1 0x40 MSTORE POP POP POP JUMP JUMPDEST PUSH0 PUSH2 0xC37 PUSH2 0xAEF JUMP JUMPDEST SWAP1 POP PUSH2 0xC43 DUP3 DUP3 PUSH2 0xBFD JUMP JUMPDEST SWAP2 SWAP1 POP JUMP JUMPDEST PUSH0 PUSH8 0xFFFFFFFFFFFFFFFF DUP3 GT ISZERO PUSH2 0xC62 JUMPI PUSH2 0xC61 PUSH2 0xBD0 JUMP JUMPDEST JUMPDEST PUSH2 0xC6B DUP3 PUSH2 0xBC0 JUMP JUMPDEST SWAP1 POP PUSH1 0x20 DUP2 ADD SWAP1 POP SWAP2 SWAP1 POP JUMP JUMPDEST DUP3 DUP2 DUP4 CALLDATACOPY PUSH0 DUP4 DUP4 ADD MSTORE POP POP POP JUMP JUMPDEST PUSH0 PUSH2 0xC98 PUSH2 0xC93 DUP5 PUSH2 0xC48 JUMP JUMPDEST PUSH2 0xC2E JUMP JUMPDEST SWAP1 POP DUP3 DUP2 MSTORE PUSH1 0x20 DUP2 ADD DUP5 DUP5 DUP5 ADD GT ISZERO PUSH2 0xCB4 JUMPI PUSH2 0xCB3 PUSH2 0xBBC JUMP JUMPDEST JUMPDEST PUSH2 0xCBF DUP5 DUP3 DUP6 PUSH2 0xC78 JUMP JUMPDEST POP SWAP4 SWAP3 POP POP POP JUMP JUMPDEST PUSH0 DUP3 PUSH1 0x1F DUP4 ADD SLT PUSH2 0xCDB JUMPI PUSH2 0xCDA PUSH2 0xBB8 JUMP JUMPDEST JUMPDEST DUP2 CALLDATALOAD PUSH2 0xCEB DUP5 DUP3 PUSH1 0x20 DUP7 ADD PUSH2 0xC86 JUMP JUMPDEST SWAP2 POP POP SWAP3 SWAP2 POP POP JUMP JUMPDEST PUSH0 DUP1 PUSH0 PUSH1 0x60 DUP5 DUP7 SUB SLT ISZERO PUSH2 0xD0B JUMPI PUSH2 0xD0A PUSH2 0xAF8 JUMP JUMPDEST JUMPDEST PUSH0 PUSH2 0xD18 DUP7 DUP3 DUP8 ADD PUSH2 0xBA4 JUMP JUMPDEST SWAP4 POP POP PUSH1 0x20 PUSH2 0xD29 DUP7 DUP3 DUP8 ADD PUSH2 0xBA4 JUMP JUMPDEST SWAP3 POP POP PUSH1 0x40 DUP5 ADD CALLDATALOAD PUSH8 0xFFFFFFFFFFFFFFFF DUP2 GT ISZERO PUSH2 0xD4A JUMPI PUSH2 0xD49 PUSH2 0xAFC JUMP JUMPDEST JUMPDEST PUSH2 0xD56 DUP7 DUP3 DUP8 ADD PUSH2 0xCC7 JUMP JUMPDEST SWAP2 POP POP SWAP3 POP SWAP3 POP SWAP3 JUMP JUMPDEST PUSH2 0xD69 DUP2 PUSH2 0xB85 JUMP JUMPDEST DUP3 MSTORE POP POP JUMP JUMPDEST PUSH0 PUSH1 0x20 DUP3 ADD SWAP1 POP PUSH2 0xD82 PUSH0 DUP4 ADD DUP5 PUSH2 0xD60 JUMP JUMPDEST SWAP3 SWAP2 POP POP JUMP JUMPDEST PUSH0 DUP1 PUSH0 PUSH1 0x60 DUP5 DUP7 SUB SLT ISZERO PUSH2 0xD9F JUMPI PUSH2 0xD9E PUSH2 0xAF8 JUMP JUMPDEST JUMPDEST PUSH0 PUSH2 0xDAC DUP7 DUP3 DUP8 ADD PUSH2 0xBA4 JUMP JUMPDEST SWAP4 POP POP PUSH1 0x20 PUSH2 0xDBD DUP7 DUP3 DUP8 ADD PUSH2 0xBA4 JUMP JUMPDEST SWAP3 POP POP PUSH1 0x40 PUSH2 0xDCE DUP7 DUP3 DUP8 ADD PUSH2 0xBA4 JUMP JUMPDEST SWAP2 POP POP SWAP3 POP SWAP3 POP SWAP3 JUMP JUMPDEST PUSH0 DUP2 MLOAD SWAP1 POP SWAP2 SWAP1 POP JUMP JUMPDEST PUSH0 DUP3 DUP3 MSTORE PUSH1 0x20 DUP3 ADD SWAP1 POP SWAP3 SWAP2 POP POP JUMP JUMPDEST PUSH0 DUP2 SWAP1 POP PUSH1 0x20 DUP3 ADD SWAP1 POP SWAP2 SWAP1 POP JUMP JUMPDEST PUSH2 0xE0A DUP2 PUSH2 0xB85 JUMP JUMPDEST DUP3 MSTORE POP POP JUMP JUMPDEST PUSH0 DUP2 MLOAD SWAP1 POP SWAP2 SWAP1 POP JUMP JUMPDEST PUSH0 DUP3 DUP3 MSTORE PUSH1 0x20 DUP3 ADD SWAP1 POP SWAP3 SWAP2 POP POP JUMP JUMPDEST PUSH0 JUMPDEST DUP4 DUP2 LT ISZERO PUSH2 0xE47 JUMPI DUP1 DUP3 ADD MLOAD DUP2 DUP5 ADD MSTORE PUSH1 0x20 DUP2 ADD SWAP1 POP PUSH2 0xE2C JUMP JUMPDEST PUSH0 DUP5 DUP5 ADD MSTORE POP POP POP POP JUMP JUMPDEST PUSH0 PUSH2 0xE5C DUP3 PUSH2 0xE10 JUMP JUMPDEST PUSH2 0xE66 DUP2 DUP6 PUSH2 0xE1A JUMP JUMPDEST SWAP4 POP PUSH2 0xE76 DUP2 DUP6 PUSH1 0x20 DUP7 ADD PUSH2 0xE2A JUMP JUMPDEST PUSH2 0xE7F DUP2 PUSH2 0xBC0 JUMP JUMPDEST DUP5 ADD SWAP2 POP POP SWAP3 SWAP2 POP POP JUMP JUMPDEST PUSH0 PUSH1 0x60 DUP4 ADD PUSH0 DUP4 ADD MLOAD PUSH2 0xE9F PUSH0 DUP7 ADD DUP3 PUSH2 0xE01 JUMP JUMPDEST POP PUSH1 0x20 DUP4 ADD MLOAD PUSH2 0xEB2 PUSH1 0x20 DUP7 ADD DUP3 PUSH2 0xE01 JUMP JUMPDEST POP PUSH1 0x40 DUP4 ADD MLOAD DUP5 DUP3 SUB PUSH1 0x40 DUP7 ADD MSTORE PUSH2 0xECA DUP3 DUP3 PUSH2 0xE52 JUMP JUMPDEST SWAP2 POP POP DUP1 SWAP2 POP POP SWAP3 SWAP2 POP POP JUMP JUMPDEST PUSH0 PUSH2 0xEE2 DUP4 DUP4 PUSH2 0xE8A JUMP JUMPDEST SWAP1 POP SWAP3 SWAP2 POP POP JUMP JUMPDEST PUSH0 PUSH1 0x20 DUP3 ADD SWAP1 POP SWAP2 SWAP1 POP JUMP JUMPDEST PUSH0 PUSH2 0xF00 DUP3 PUSH2 0xDD8 JUMP JUMPDEST PUSH2 0xF0A DUP2 DUP6 PUSH2 0xDE2 JUMP JUMPDEST SWAP4 POP DUP4 PUSH1 0x20 DUP3 MUL DUP6 ADD PUSH2 0xF1C DUP6 PUSH2 0xDF2 JUMP JUMPDEST DUP1 PUSH0 JUMPDEST DUP6 DUP2 LT ISZERO PUSH2 0xF57 JUMPI DUP5 DUP5 SUB DUP10 MSTORE DUP2 MLOAD PUSH2 0xF38 DUP6 DUP3 PUSH2 0xED7 JUMP JUMPDEST SWAP5 POP PUSH2 0xF43 DUP4 PUSH2 0xEEA JUMP JUMPDEST SWAP3 POP PUSH1 0x20 DUP11 ADD SWAP10 POP POP PUSH1 0x1 DUP2 ADD SWAP1 POP PUSH2 0xF1F JUMP JUMPDEST POP DUP3 SWAP8 POP DUP8 SWAP6 POP POP POP POP POP POP SWAP3 SWAP2 POP POP JUMP JUMPDEST PUSH0 PUSH1 0x20 DUP3 ADD SWAP1 POP DUP2 DUP2 SUB PUSH0 DUP4 ADD MSTORE PUSH2 0xF81 DUP2 DUP5 PUSH2 0xEF6 JUMP JUMPDEST SWAP1 POP SWAP3 SWAP2 POP POP JUMP JUMPDEST PUSH0 DUP1 PUSH0 DUP1 PUSH1 0x80 DUP6 DUP8 SUB SLT ISZERO PUSH2 0xFA1 JUMPI PUSH2 0xFA0 PUSH2 0xAF8 JUMP JUMPDEST JUMPDEST PUSH0 PUSH2 0xFAE DUP8 DUP3 DUP9 ADD PUSH2 0xBA4 JUMP JUMPDEST SWAP5 POP POP PUSH1 0x20 PUSH2 0xFBF DUP8 DUP3 DUP9 ADD PUSH2 0xBA4 JUMP JUMPDEST SWAP4 POP POP PUSH1 0x40 PUSH2 0xFD0 DUP8 DUP3 DUP9 ADD PUSH2 0xBA4 JUMP JUMPDEST SWAP3 POP POP PUSH1 0x60 DUP6 ADD CALLDATALOAD PUSH8 0xFFFFFFFFFFFFFFFF DUP2 GT ISZERO PUSH2 0xFF1 JUMPI PUSH2 0xFF0 PUSH2 0xAFC JUMP JUMPDEST JUMPDEST PUSH2 0xFFD DUP8 DUP3 DUP9 ADD PUSH2 0xCC7 JUMP JUMPDEST SWAP2 POP POP SWAP3 SWAP6 SWAP2 SWAP5 POP SWAP3 POP JUMP JUMPDEST PUSH0 PUSH1 0x20 DUP3 DUP5 SUB SLT ISZERO PUSH2 0x101E JUMPI PUSH2 0x101D PUSH2 0xAF8 JUMP JUMPDEST JUMPDEST PUSH0 PUSH2 0x102B DUP5 DUP3 DUP6 ADD PUSH2 0xBA4 JUMP JUMPDEST SWAP2 POP POP SWAP3 SWAP2 POP POP JUMP JUMPDEST PUSH0 DUP3 DUP3 MSTORE PUSH1 0x20 DUP3 ADD SWAP1 POP SWAP3 SWAP2 POP POP JUMP JUMPDEST PUSH32 0x556E617574686F72697A65642061636365737300000000000000000000000000 PUSH0 DUP3 ADD MSTORE POP JUMP JUMPDEST PUSH0 PUSH2 0x1078 PUSH1 0x13 DUP4 PUSH2 0x1034 JUMP JUMPDEST SWAP2 POP PUSH2 0x1083 DUP3 PUSH2 0x1044 JUMP JUMPDEST PUSH1 0x20 DUP3 ADD SWAP1 POP SWAP2 SWAP1 POP JUMP JUMPDEST PUSH0 PUSH1 0x20 DUP3 ADD SWAP1 POP DUP2 DUP2 SUB PUSH0 DUP4 ADD MSTORE PUSH2 0x10A5 DUP2 PUSH2 0x106C JUMP JUMPDEST SWAP1 POP SWAP2 SWAP1 POP JUMP JUMPDEST PUSH32 0x4E487B7100000000000000000000000000000000000000000000000000000000 PUSH0 MSTORE PUSH1 0x11 PUSH1 0x4 MSTORE PUSH1 0x24 PUSH0 REVERT JUMPDEST PUSH0 PUSH2 0x10E3 DUP3 PUSH2 0xB85 JUMP JUMPDEST SWAP2 POP PUSH32 0xFFFFFFFFFFFFFFFFFFFFFFFFFFFFFFFFFFFFFFFFFFFFFFFFFFFFFFFFFFFFFFFF DUP3 SUB PUSH2 0x1115 JUMPI PUSH2 0x1114 PUSH2 0x10AC JUMP JUMPDEST JUMPDEST PUSH1 0x1 DUP3 ADD SWAP1 POP SWAP2 SWAP1 POP JUMP JUMPDEST PUSH32 0x4E487B7100000000000000000000000000000000000000000000000000000000 PUSH0 MSTORE PUSH1 0x22 PUSH1 0x4 MSTORE PUSH1 0x24 PUSH0 REVERT JUMPDEST PUSH0 PUSH1 0x2 DUP3 DIV SWAP1 POP PUSH1 0x1 DUP3 AND DUP1 PUSH2 0x1164 JUMPI PUSH1 0x7F DUP3 AND SWAP2 POP JUMPDEST PUSH1 0x20 DUP3 LT DUP2 SUB PUSH2 0x1177 JUMPI PUSH2 0x1176 PUSH2 0x1120 JUMP JUMPDEST JUMPDEST POP SWAP2 SWAP1 POP JUMP JUMPDEST PUSH0 DUP2 SWAP1 POP DUP2 PUSH0 MSTORE PUSH1 0x20 PUSH0 KECCAK256 SWAP1 POP SWAP2 SWAP1 POP JUMP JUMPDEST PUSH0 PUSH1 0x20 PUSH1 0x1F DUP4 ADD DIV SWAP1 POP SWAP2 SWAP1 POP JUMP JUMPDEST PUSH0 DUP3 DUP3 SHL SWAP1 POP SWAP3 SWAP2 POP POP JUMP JUMPDEST PUSH0 PUSH1 0x8 DUP4 MUL PUSH2 0x11D9 PUSH32 0xFFFFFFFFFFFFFFFFFFFFFFFFFFFFFFFFFFFFFFFFFFFFFFFFFFFFFFFFFFFFFFFF DUP3 PUSH2 0x119E JUMP JUMPDEST PUSH2 0x11E3 DUP7 DUP4 PUSH2 0x119E JUMP JUMPDEST SWAP6 POP DUP1 NOT DUP5 AND SWAP4 POP DUP1 DUP7 AND DUP5 OR SWAP3 POP POP POP SWAP4 SWAP3 POP POP POP JUMP JUMPDEST PUSH0 DUP2 SWAP1 POP SWAP2 SWAP1 POP JUMP JUMPDEST PUSH0 PUSH2 0x121E PUSH2 0x1219 PUSH2 0x1214 DUP5 PUSH2 0xB85 JUMP JUMPDEST PUSH2 0x11FB JUMP JUMPDEST PUSH2 0xB85 JUMP JUMPDEST SWAP1 POP SWAP2 SWAP1 POP JUMP JUMPDEST PUSH0 DUP2 SWAP1 POP SWAP2 SWAP1 POP JUMP JUMPDEST PUSH2 0x1237 DUP4 PUSH2 0x1204 JUMP JUMPDEST PUSH2 0x124B PUSH2 0x1243 DUP3 PUSH2 0x1225 JUMP JUMPDEST DUP5 DUP5 SLOAD PUSH2 0x11AA JUMP JUMPDEST DUP3 SSTORE POP POP POP POP JUMP JUMPDEST PUSH0 SWAP1 JUMP JUMPDEST PUSH2 0x125F PUSH2 0x1253 JUMP JUMPDEST PUSH2 0x126A DUP2 DUP5 DUP5 PUSH2 0x122E JUMP JUMPDEST POP POP POP JUMP JUMPDEST JUMPDEST DUP2 DUP2 LT ISZERO PUSH2 0x128D JUMPI PUSH2 0x1282 PUSH0 DUP3 PUSH2 0x1257 JUMP JUMPDEST PUSH1 0x1 DUP2 ADD SWAP1 POP PUSH2 0x1270 JUMP JUMPDEST POP POP JUMP JUMPDEST PUSH1 0x1F DUP3 GT ISZERO PUSH2 0x12D2 JUMPI PUSH2 0x12A3 DUP2 PUSH2 0x117D JUMP JUMPDEST PUSH2 0x12AC DUP5 PUSH2 0x118F JUMP JUMPDEST DUP2 ADD PUSH1 0x20 DUP6 LT ISZERO PUSH2 0x12BB JUMPI DUP2 SWAP1 POP JUMPDEST PUSH2 0x12CF PUSH2 0x12C7 DUP6 PUSH2 0x118F JUMP JUMPDEST DUP4 ADD DUP3 PUSH2 0x126F JUMP JUMPDEST POP POP JUMPDEST POP POP POP JUMP JUMPDEST PUSH0 DUP3 DUP3 SHR SWAP1 POP SWAP3 SWAP2 POP POP JUMP JUMPDEST PUSH0 PUSH2 0x12F2 PUSH0 NOT DUP5 PUSH1 0x8 MUL PUSH2 0x12D7 JUMP JUMPDEST NOT DUP1 DUP4 AND SWAP2 POP POP SWAP3 SWAP2 POP POP JUMP JUMPDEST PUSH0 PUSH2 0x130A DUP4 DUP4 PUSH2 0x12E3 JUMP JUMPDEST SWAP2 POP DUP3 PUSH1 0x2 MUL DUP3 OR SWAP1 POP SWAP3 SWAP2 POP POP JUMP JUMPDEST PUSH2 0x1323 DUP3 PUSH2 0xE10 JUMP JUMPDEST PUSH8 0xFFFFFFFFFFFFFFFF DUP2 GT ISZERO PUSH2 0x133C JUMPI PUSH2 0x133B PUSH2 0xBD0 JUMP JUMPDEST JUMPDEST PUSH2 0x1346 DUP3 SLOAD PUSH2 0x114D JUMP JUMPDEST PUSH2 0x1351 DUP3 DUP3 DUP6 PUSH2 0x1291 JUMP JUMPDEST PUSH0 PUSH1 0x20 SWAP1 POP PUSH1 0x1F DUP4 GT PUSH1 0x1 DUP2 EQ PUSH2 0x1382 JUMPI PUSH0 DUP5 ISZERO PUSH2 0x1370 JUMPI DUP3 DUP8 ADD MLOAD SWAP1 POP JUMPDEST PUSH2 0x137A DUP6 DUP3 PUSH2 0x12FF JUMP JUMPDEST DUP7 SSTORE POP PUSH2 0x13E1 JUMP JUMPDEST PUSH1 0x1F NOT DUP5 AND PUSH2 0x1390 DUP7 PUSH2 0x117D JUMP JUMPDEST PUSH0 JUMPDEST DUP3 DUP2 LT ISZERO PUSH2 0x13B7 JUMPI DUP5 DUP10 ADD MLOAD DUP3 SSTORE PUSH1 0x1 DUP3 ADD SWAP2 POP PUSH1 0x20 DUP6 ADD SWAP5 POP PUSH1 0x20 DUP2 ADD SWAP1 POP PUSH2 0x1392 JUMP JUMPDEST DUP7 DUP4 LT ISZERO PUSH2 0x13D4 JUMPI DUP5 DUP10 ADD MLOAD PUSH2 0x13D0 PUSH1 0x1F DUP10 AND DUP3 PUSH2 0x12E3 JUMP JUMPDEST DUP4 SSTORE POP JUMPDEST PUSH1 0x1 PUSH1 0x2 DUP9 MUL ADD DUP9 SSTORE POP POP POP JUMPDEST POP POP POP POP POP POP JUMP JUMPDEST PUSH0 PUSH2 0x13F3 DUP3 PUSH2 0xE10 JUMP JUMPDEST PUSH2 0x13FD DUP2 DUP6 PUSH2 0x1034 JUMP JUMPDEST SWAP4 POP PUSH2 0x140D DUP2 DUP6 PUSH1 0x20 DUP7 ADD PUSH2 0xE2A JUMP JUMPDEST PUSH2 0x1416 DUP2 PUSH2 0xBC0 JUMP JUMPDEST DUP5 ADD SWAP2 POP POP SWAP3 SWAP2 POP POP JUMP JUMPDEST PUSH0 PUSH1 0x40 DUP3 ADD SWAP1 POP PUSH2 0x1434 PUSH0 DUP4 ADD DUP6 PUSH2 0xD60 JUMP JUMPDEST DUP2 DUP2 SUB PUSH1 0x20 DUP4 ADD MSTORE PUSH2 0x1446 DUP2 DUP5 PUSH2 0x13E9 JUMP JUMPDEST SWAP1 POP SWAP4 SWAP3 POP POP POP JUMP JUMPDEST PUSH32 0x4E487B7100000000000000000000000000000000000000000000000000000000 PUSH0 MSTORE PUSH1 0x32 PUSH1 0x4 MSTORE PUSH1 0x24 PUSH0 REVERT JUMPDEST PUSH32 0x496E646578206F7574206F6620626F756E647300000000000000000000000000 PUSH0 DUP3 ADD MSTORE POP JUMP JUMPDEST PUSH0 PUSH2 0x14B0 PUSH1 0x13 DUP4 PUSH2 0x1034 JUMP JUMPDEST SWAP2 POP PUSH2 0x14BB DUP3 PUSH2 0x147C JUMP JUMPDEST PUSH1 0x20 DUP3 ADD SWAP1 POP SWAP2 SWAP1 POP JUMP JUMPDEST PUSH0 PUSH1 0x20 DUP3 ADD SWAP1 POP DUP2 DUP2 SUB PUSH0 DUP4 ADD MSTORE PUSH2 0x14DD DUP2 PUSH2 0x14A4 JUMP JUMPDEST SWAP1 POP SWAP2 SWAP1 POP JUMP JUMPDEST PUSH0 PUSH1 0x60 DUP3 ADD SWAP1 POP PUSH2 0x14F7 PUSH0 DUP4 ADD DUP7 PUSH2 0xD60 JUMP JUMPDEST PUSH2 0x1504 PUSH1 0x20 DUP4 ADD DUP6 PUSH2 0xD60 JUMP JUMPDEST DUP2 DUP2 SUB PUSH1 0x40 DUP4 ADD MSTORE PUSH2 0x1516 DUP2 DUP5 PUSH2 0x13E9 JUMP JUMPDEST SWAP1 POP SWAP5 SWAP4 POP POP POP POP JUMP INVALID LOG2 PUSH5 0x6970667358 0x22 SLT KECCAK256 0xC0 DUP9 PUSH5 0xA4FD0B3057 PUSH0 SWAP2 SWAP2 MOD SWAP7 0x23 DUP4 SWAP6 0xC7 0xB0 0xE7 DUP1 0xF7 DUP1 0xB5 PUSH29 0x4CB3B1D98849911C64736F6C6343000816003300000000000000000000 "
				},
				"gasEstimates": {
					"creation": {
						"codeDepositCost": "1092400",
						"executionCost": "45438",
						"totalCost": "1137838"
					},
					"external": {
						"authorizeEntity(address)": "73422",
						"getAttendanceByDateRange(uint256,uint256,uint256)": "infinite",
						"getAttendanceByEmployeeId(uint256)": "infinite",
						"getEmployeeID()": "6983",
						"recordAttendance(uint256,uint256,string)": "infinite",
						"revokeAuthorization(address)": "7781",
						"updateAttendance(uint256,uint256,uint256,string)": "infinite"
					}
				},
				"methodIdentifiers": {
					"authorizeEntity(address)": "02031024",
					"getAttendanceByDateRange(uint256,uint256,uint256)": "9f43f46f",
					"getAttendanceByEmployeeId(uint256)": "dd0826c6",
					"getEmployeeID()": "0c6b5348",
					"recordAttendance(uint256,uint256,string)": "08c220c2",
					"revokeAuthorization(address)": "b48028e3",
					"updateAttendance(uint256,uint256,uint256,string)": "b608d3a4"
				}
			},
			"storageLayout": {
				"storage": [
					{
						"astId": 11,
						"contract": "internal/repo/contracts/Fcontract.sol:AttendanceContract",
						"label": "number",
						"offset": 0,
						"slot": "0",
						"type": "t_uint256"
					},
					{
						"astId": 17,
						"contract": "internal/repo/contracts/Fcontract.sol:AttendanceContract",
						"label": "attendanceRecords",
						"offset": 0,
						"slot": "1",
						"type": "t_mapping(t_uint256,t_array(t_struct(AttendanceRecord)8_storage)dyn_storage)"
					},
					{
						"astId": 21,
						"contract": "internal/repo/contracts/Fcontract.sol:AttendanceContract",
						"label": "authorizedEntities",
						"offset": 0,
						"slot": "2",
						"type": "t_mapping(t_address,t_uint256)"
					}
				],
				"types": {
					"t_address": {
						"encoding": "inplace",
						"label": "address",
						"numberOfBytes": "20"
					},
					"t_array(t_struct(AttendanceRecord)8_storage)dyn_storage": {
						"base": "t_struct(AttendanceRecord)8_storage",
						"encoding": "dynamic_array",
						"label": "struct AttendanceContract.AttendanceRecord[]",
						"numberOfBytes": "32"
					},
					"t_mapping(t_address,t_uint256)": {
						"encoding": "mapping",
						"key": "t_address",
						"label": "mapping(address => uint256)",
						"numberOfBytes": "32",
						"value": "t_uint256"
					},
					"t_mapping(t_uint256,t_array(t_struct(AttendanceRecord)8_storage)dyn_storage)": {
						"encoding": "mapping",
						"key": "t_uint256",
						"label": "mapping(uint256 => struct AttendanceContract.AttendanceRecord[])",
						"numberOfBytes": "32",
						"value": "t_array(t_struct(AttendanceRecord)8_storage)dyn_storage"
					},
					"t_string_storage": {
						"encoding": "bytes",
						"label": "string",
						"numberOfBytes": "32"
					},
					"t_struct(AttendanceRecord)8_storage": {
						"encoding": "inplace",
						"label": "struct AttendanceContract.AttendanceRecord",
						"members": [
							{
								"astId": 3,
								"contract": "internal/repo/contracts/Fcontract.sol:AttendanceContract",
								"label": "employeeId",
								"offset": 0,
								"slot": "0",
								"type": "t_uint256"
							},
							{
								"astId": 5,
								"contract": "internal/repo/contracts/Fcontract.sol:AttendanceContract",
								"label": "checkInTime",
								"offset": 0,
								"slot": "1",
								"type": "t_uint256"
							},
							{
								"astId": 7,
								"contract": "internal/repo/contracts/Fcontract.sol:AttendanceContract",
								"label": "details",
								"offset": 0,
								"slot": "2",
								"type": "t_string_storage"
							}
						],
						"numberOfBytes": "96"
					},
					"t_uint256": {
						"encoding": "inplace",
						"label": "uint256",
						"numberOfBytes": "32"
					}
				}
			},
			"userdoc": {
				"kind": "user",
				"methods": {},
				"version": 1
			}
		}
	}
}