{
	"internal/repo/contracts/attendance/attendance.sol": {
		"AttendanceContract": {
			"abi": [
				{
					"inputs": [],
					"stateMutability": "nonpayable",
					"type": "constructor"
				},
				{
					"anonymous": false,
					"inputs": [
						{
							"indexed": true,
							"internalType": "uint256",
							"name": "employeeId",
							"type": "uint256"
						},
						{
							"indexed": false,
							"internalType": "uint256",
							"name": "checkInTime",
							"type": "uint256"
						},
						{
							"indexed": false,
							"internalType": "string",
							"name": "details",
							"type": "string"
						}
					],
					"name": "AttendanceRecorded",
					"type": "event"
				},
				{
					"anonymous": false,
					"inputs": [
						{
							"indexed": true,
							"internalType": "uint256",
							"name": "employeeId",
							"type": "uint256"
						},
						{
							"indexed": false,
							"internalType": "uint256",
							"name": "index",
							"type": "uint256"
						},
						{
							"indexed": false,
							"internalType": "uint256",
							"name": "newCheckInTime",
							"type": "uint256"
						},
						{
							"indexed": false,
							"internalType": "string",
							"name": "newDetails",
							"type": "string"
						}
					],
					"name": "AttendanceUpdated",
					"type": "event"
				},
				{
					"inputs": [
						{
							"internalType": "address",
							"name": "_entity",
							"type": "address"
						}
					],
					"name": "authorizeEntity",
					"outputs": [],
					"stateMutability": "nonpayable",
					"type": "function"
				},
				{
					"inputs": [
						{
							"internalType": "uint256",
							"name": "_employeeId",
							"type": "uint256"
						},
						{
							"internalType": "uint256",
							"name": "_start",
							"type": "uint256"
						},
						{
							"internalType": "uint256",
							"name": "_end",
							"type": "uint256"
						}
					],
					"name": "getAttendanceByDateRange",
					"outputs": [
						{
							"components": [
								{
									"internalType": "uint256",
									"name": "employeeId",
									"type": "uint256"
								},
								{
									"internalType": "uint256",
									"name": "index",
									"type": "uint256"
								},
								{
									"internalType": "uint256",
									"name": "checkInTime",
									"type": "uint256"
								},
								{
									"internalType": "string",
									"name": "details",
									"type": "string"
								}
							],
							"internalType": "struct AttendanceContract.AttendanceRecord[]",
							"name": "",
							"type": "tuple[]"
						}
					],
					"stateMutability": "view",
					"type": "function"
				},
				{
					"inputs": [
						{
							"internalType": "uint256",
							"name": "_employeeId",
							"type": "uint256"
						}
					],
					"name": "getAttendanceByEmployeeId",
					"outputs": [
						{
							"components": [
								{
									"internalType": "uint256",
									"name": "employeeId",
									"type": "uint256"
								},
								{
									"internalType": "uint256",
									"name": "index",
									"type": "uint256"
								},
								{
									"internalType": "uint256",
									"name": "checkInTime",
									"type": "uint256"
								},
								{
									"internalType": "string",
									"name": "details",
									"type": "string"
								}
							],
							"internalType": "struct AttendanceContract.AttendanceRecord[]",
							"name": "",
							"type": "tuple[]"
						}
					],
					"stateMutability": "view",
					"type": "function"
				},
				{
					"inputs": [
						{
							"internalType": "uint256",
							"name": "_employeeId",
							"type": "uint256"
						},
						{
							"internalType": "uint256",
							"name": "_checkInTime",
							"type": "uint256"
						},
						{
							"internalType": "string",
							"name": "_details",
							"type": "string"
						}
					],
					"name": "recordAttendance",
					"outputs": [],
					"stateMutability": "nonpayable",
					"type": "function"
				},
				{
					"inputs": [
						{
							"internalType": "address",
							"name": "_entity",
							"type": "address"
						}
					],
					"name": "revokeAuthorization",
					"outputs": [],
					"stateMutability": "nonpayable",
					"type": "function"
				},
				{
					"inputs": [
						{
							"internalType": "uint256",
							"name": "_employeeId",
							"type": "uint256"
						},
						{
							"internalType": "uint256",
							"name": "_index",
							"type": "uint256"
						},
						{
							"internalType": "uint256",
							"name": "_newCheckInTime",
							"type": "uint256"
						},
						{
							"internalType": "string",
							"name": "_newDetails",
							"type": "string"
						}
					],
					"name": "updateAttendance",
					"outputs": [],
					"stateMutability": "nonpayable",
					"type": "function"
				}
			],
			"devdoc": {
				"kind": "dev",
				"methods": {},
				"version": 1
			},
			"evm": {
				"assembly": "    /* \"internal/repo/contracts/attendance/attendance.sol\":59:2835  contract AttendanceContract {... */\n  mstore(0x40, 0x80)\n    /* \"internal/repo/contracts/attendance/attendance.sol\":250:251  1 */\n  0x01\n    /* \"internal/repo/contracts/attendance/attendance.sol\":225:251  uint256 private number = 1 */\n  0x00\n  sstore\n    /* \"internal/repo/contracts/attendance/attendance.sol\":582:690  constructor() {... */\n  callvalue\n  dup1\n  iszero\n  tag_1\n  jumpi\n  0x00\n  dup1\n  revert\ntag_1:\n  pop\n    /* \"internal/repo/contracts/attendance/attendance.sol\":639:646  1000000 */\n  0x0f4240\n    /* \"internal/repo/contracts/attendance/attendance.sol\":606:624  authorizedEntities */\n  0x02\n    /* \"internal/repo/contracts/attendance/attendance.sol\":606:636  authorizedEntities[msg.sender] */\n  0x00\n    /* \"internal/repo/contracts/attendance/attendance.sol\":625:635  msg.sender */\n  caller\n    /* \"internal/repo/contracts/attendance/attendance.sol\":606:636  authorizedEntities[msg.sender] */\n  0xffffffffffffffffffffffffffffffffffffffff\n  and\n  0xffffffffffffffffffffffffffffffffffffffff\n  and\n  dup2\n  mstore\n  0x20\n  add\n  swap1\n  dup2\n  mstore\n  0x20\n  add\n  0x00\n  keccak256\n    /* \"internal/repo/contracts/attendance/attendance.sol\":606:646  authorizedEntities[msg.sender] = 1000000 */\n  dup2\n  swap1\n  sstore\n  pop\n    /* \"internal/repo/contracts/attendance/attendance.sol\":59:2835  contract AttendanceContract {... */\n  dataSize(sub_0)\n  dup1\n  dataOffset(sub_0)\n  0x00\n  codecopy\n  0x00\n  return\nstop\n\nsub_0: assembly {\n        /* \"internal/repo/contracts/attendance/attendance.sol\":59:2835  contract AttendanceContract {... */\n      mstore(0x40, 0x80)\n      callvalue\n      dup1\n      iszero\n      tag_1\n      jumpi\n      0x00\n      dup1\n      revert\n    tag_1:\n      pop\n      jumpi(tag_2, lt(calldatasize, 0x04))\n      shr(0xe0, calldataload(0x00))\n      dup1\n      0x02031024\n      eq\n      tag_3\n      jumpi\n      dup1\n      0x08c220c2\n      eq\n      tag_4\n      jumpi\n      dup1\n      0x9f43f46f\n      eq\n      tag_5\n      jumpi\n      dup1\n      0xb48028e3\n      eq\n      tag_6\n      jumpi\n      dup1\n      0xb608d3a4\n      eq\n      tag_7\n      jumpi\n      dup1\n      0xdd0826c6\n      eq\n      tag_8\n      jumpi\n    tag_2:\n      0x00\n      dup1\n      revert\n        /* \"internal/repo/contracts/attendance/attendance.sol\":2567:2711  function authorizeEntity(address _entity) public onlyAuthorized {... */\n    tag_3:\n      tag_9\n      0x04\n      dup1\n      calldatasize\n      sub\n      dup2\n      add\n      swap1\n      tag_10\n      swap2\n      swap1\n      tag_11\n      jump\t// in\n    tag_10:\n      tag_12\n      jump\t// in\n    tag_9:\n      stop\n        /* \"internal/repo/contracts/attendance/attendance.sol\":901:1394  function recordAttendance(uint _employeeId, uint _checkInTime, string memory _details) public onlyAuthorized {... */\n    tag_4:\n      tag_13\n      0x04\n      dup1\n      calldatasize\n      sub\n      dup2\n      add\n      swap1\n      tag_14\n      swap2\n      swap1\n      tag_15\n      jump\t// in\n    tag_14:\n      tag_16\n      jump\t// in\n    tag_13:\n      stop\n        /* \"internal/repo/contracts/attendance/attendance.sol\":1561:2101  function getAttendanceByDateRange(uint _employeeId, uint _start, uint _end) public view returns (AttendanceRecord[] memory) {... */\n    tag_5:\n      tag_17\n      0x04\n      dup1\n      calldatasize\n      sub\n      dup2\n      add\n      swap1\n      tag_18\n      swap2\n      swap1\n      tag_19\n      jump\t// in\n    tag_18:\n      tag_20\n      jump\t// in\n    tag_17:\n      mload(0x40)\n      tag_21\n      swap2\n      swap1\n      tag_22\n      jump\t// in\n    tag_21:\n      mload(0x40)\n      dup1\n      swap2\n      sub\n      swap1\n      return\n        /* \"internal/repo/contracts/attendance/attendance.sol\":2717:2833  function revokeAuthorization(address _entity) public onlyAuthorized {... */\n    tag_6:\n      tag_23\n      0x04\n      dup1\n      calldatasize\n      sub\n      dup2\n      add\n      swap1\n      tag_24\n      swap2\n      swap1\n      tag_11\n      jump\t// in\n    tag_24:\n      tag_25\n      jump\t// in\n    tag_23:\n      stop\n        /* \"internal/repo/contracts/attendance/attendance.sol\":2107:2561  function updateAttendance(uint _employeeId, uint _index, uint _newCheckInTime, string memory _newDetails) public onlyAuthorized {... */\n    tag_7:\n      tag_26\n      0x04\n      dup1\n      calldatasize\n      sub\n      dup2\n      add\n      swap1\n      tag_27\n      swap2\n      swap1\n      tag_28\n      jump\t// in\n    tag_27:\n      tag_29\n      jump\t// in\n    tag_26:\n      stop\n        /* \"internal/repo/contracts/attendance/attendance.sol\":1400:1555  function getAttendanceByEmployeeId(uint _employeeId) public view returns (AttendanceRecord[] memory) {... */\n    tag_8:\n      tag_30\n      0x04\n      dup1\n      calldatasize\n      sub\n      dup2\n      add\n      swap1\n      tag_31\n      swap2\n      swap1\n      tag_32\n      jump\t// in\n    tag_31:\n      tag_33\n      jump\t// in\n    tag_30:\n      mload(0x40)\n      tag_34\n      swap2\n      swap1\n      tag_22\n      jump\t// in\n    tag_34:\n      mload(0x40)\n      dup1\n      swap2\n      sub\n      swap1\n      return\n        /* \"internal/repo/contracts/attendance/attendance.sol\":2567:2711  function authorizeEntity(address _entity) public onlyAuthorized {... */\n    tag_12:\n        /* \"internal/repo/contracts/attendance/attendance.sol\":794:795  0 */\n      0x00\n        /* \"internal/repo/contracts/attendance/attendance.sol\":760:778  authorizedEntities */\n      0x02\n        /* \"internal/repo/contracts/attendance/attendance.sol\":760:790  authorizedEntities[msg.sender] */\n      0x00\n        /* \"internal/repo/contracts/attendance/attendance.sol\":779:789  msg.sender */\n      caller\n        /* \"internal/repo/contracts/attendance/attendance.sol\":760:790  authorizedEntities[msg.sender] */\n      0xffffffffffffffffffffffffffffffffffffffff\n      and\n      0xffffffffffffffffffffffffffffffffffffffff\n      and\n      dup2\n      mstore\n      0x20\n      add\n      swap1\n      dup2\n      mstore\n      0x20\n      add\n      0x00\n      keccak256\n      sload\n        /* \"internal/repo/contracts/attendance/attendance.sol\":760:795  authorizedEntities[msg.sender] != 0 */\n      sub\n        /* \"internal/repo/contracts/attendance/attendance.sol\":752:819  require(authorizedEntities[msg.sender] != 0, \"Unauthorized access\") */\n      tag_36\n      jumpi\n      mload(0x40)\n      0x08c379a000000000000000000000000000000000000000000000000000000000\n      dup2\n      mstore\n      0x04\n      add\n      tag_37\n      swap1\n      tag_38\n      jump\t// in\n    tag_37:\n      mload(0x40)\n      dup1\n      swap2\n      sub\n      swap1\n      revert\n    tag_36:\n        /* \"internal/repo/contracts/attendance/attendance.sol\":2650:2656  number */\n      0x00\n      dup1\n        /* \"internal/repo/contracts/attendance/attendance.sol\":2650:2658  number++ */\n      dup2\n      sload\n      dup1\n      swap3\n      swap2\n      swap1\n      tag_40\n      swap1\n      tag_41\n      jump\t// in\n    tag_40:\n      swap2\n      swap1\n      pop\n      sstore\n        /* \"internal/repo/contracts/attendance/attendance.sol\":2641:2647  number */\n      0x00\n        /* \"internal/repo/contracts/attendance/attendance.sol\":2641:2658  number = number++ */\n      dup2\n      swap1\n      sstore\n      pop\n        /* \"internal/repo/contracts/attendance/attendance.sol\":2698:2704  number */\n      sload(0x00)\n        /* \"internal/repo/contracts/attendance/attendance.sol\":2668:2686  authorizedEntities */\n      0x02\n        /* \"internal/repo/contracts/attendance/attendance.sol\":2668:2695  authorizedEntities[_entity] */\n      0x00\n        /* \"internal/repo/contracts/attendance/attendance.sol\":2687:2694  _entity */\n      dup4\n        /* \"internal/repo/contracts/attendance/attendance.sol\":2668:2695  authorizedEntities[_entity] */\n      0xffffffffffffffffffffffffffffffffffffffff\n      and\n      0xffffffffffffffffffffffffffffffffffffffff\n      and\n      dup2\n      mstore\n      0x20\n      add\n      swap1\n      dup2\n      mstore\n      0x20\n      add\n      0x00\n      keccak256\n        /* \"internal/repo/contracts/attendance/attendance.sol\":2668:2704  authorizedEntities[_entity] = number */\n      dup2\n      swap1\n      sstore\n      pop\n        /* \"internal/repo/contracts/attendance/attendance.sol\":2567:2711  function authorizeEntity(address _entity) public onlyAuthorized {... */\n      pop\n      jump\t// out\n        /* \"internal/repo/contracts/attendance/attendance.sol\":901:1394  function recordAttendance(uint _employeeId, uint _checkInTime, string memory _details) public onlyAuthorized {... */\n    tag_16:\n        /* \"internal/repo/contracts/attendance/attendance.sol\":794:795  0 */\n      0x00\n        /* \"internal/repo/contracts/attendance/attendance.sol\":760:778  authorizedEntities */\n      0x02\n        /* \"internal/repo/contracts/attendance/attendance.sol\":760:790  authorizedEntities[msg.sender] */\n      0x00\n        /* \"internal/repo/contracts/attendance/attendance.sol\":779:789  msg.sender */\n      caller\n        /* \"internal/repo/contracts/attendance/attendance.sol\":760:790  authorizedEntities[msg.sender] */\n      0xffffffffffffffffffffffffffffffffffffffff\n      and\n      0xffffffffffffffffffffffffffffffffffffffff\n      and\n      dup2\n      mstore\n      0x20\n      add\n      swap1\n      dup2\n      mstore\n      0x20\n      add\n      0x00\n      keccak256\n      sload\n        /* \"internal/repo/contracts/attendance/attendance.sol\":760:795  authorizedEntities[msg.sender] != 0 */\n      sub\n        /* \"internal/repo/contracts/attendance/attendance.sol\":752:819  require(authorizedEntities[msg.sender] != 0, \"Unauthorized access\") */\n      tag_43\n      jumpi\n      mload(0x40)\n      0x08c379a000000000000000000000000000000000000000000000000000000000\n      dup2\n      mstore\n      0x04\n      add\n      tag_44\n      swap1\n      tag_38\n      jump\t// in\n    tag_44:\n      mload(0x40)\n      dup1\n      swap2\n      sub\n      swap1\n      revert\n    tag_43:\n        /* \"internal/repo/contracts/attendance/attendance.sol\":1058:1065  1000000 */\n      0x0f4240\n        /* \"internal/repo/contracts/attendance/attendance.sol\":1024:1042  authorizedEntities */\n      0x02\n        /* \"internal/repo/contracts/attendance/attendance.sol\":1024:1054  authorizedEntities[msg.sender] */\n      0x00\n        /* \"internal/repo/contracts/attendance/attendance.sol\":1043:1053  msg.sender */\n      caller\n        /* \"internal/repo/contracts/attendance/attendance.sol\":1024:1054  authorizedEntities[msg.sender] */\n      0xffffffffffffffffffffffffffffffffffffffff\n      and\n      0xffffffffffffffffffffffffffffffffffffffff\n      and\n      dup2\n      mstore\n      0x20\n      add\n      swap1\n      dup2\n      mstore\n      0x20\n      add\n      0x00\n      keccak256\n      sload\n        /* \"internal/repo/contracts/attendance/attendance.sol\":1024:1065  authorizedEntities[msg.sender] != 1000000 */\n      eq\n      iszero\n        /* \"internal/repo/contracts/attendance/attendance.sol\":1024:1115  authorizedEntities[msg.sender] != 1000000  && _employeeId != authorizedEntities[msg.sender] */\n      dup1\n      iszero\n      tag_46\n      jumpi\n      pop\n        /* \"internal/repo/contracts/attendance/attendance.sol\":1085:1103  authorizedEntities */\n      0x02\n        /* \"internal/repo/contracts/attendance/attendance.sol\":1085:1115  authorizedEntities[msg.sender] */\n      0x00\n        /* \"internal/repo/contracts/attendance/attendance.sol\":1104:1114  msg.sender */\n      caller\n        /* \"internal/repo/contracts/attendance/attendance.sol\":1085:1115  authorizedEntities[msg.sender] */\n      0xffffffffffffffffffffffffffffffffffffffff\n      and\n      0xffffffffffffffffffffffffffffffffffffffff\n      and\n      dup2\n      mstore\n      0x20\n      add\n      swap1\n      dup2\n      mstore\n      0x20\n      add\n      0x00\n      keccak256\n      sload\n        /* \"internal/repo/contracts/attendance/attendance.sol\":1070:1081  _employeeId */\n      dup4\n        /* \"internal/repo/contracts/attendance/attendance.sol\":1070:1115  _employeeId != authorizedEntities[msg.sender] */\n      eq\n      iszero\n        /* \"internal/repo/contracts/attendance/attendance.sol\":1024:1115  authorizedEntities[msg.sender] != 1000000  && _employeeId != authorizedEntities[msg.sender] */\n    tag_46:\n        /* \"internal/repo/contracts/attendance/attendance.sol\":1130:1137  return; */\n      tag_45\n        /* \"internal/repo/contracts/attendance/attendance.sol\":1020:1147  if (authorizedEntities[msg.sender] != 1000000  && _employeeId != authorizedEntities[msg.sender]){... */\n      jumpi\n        /* \"internal/repo/contracts/attendance/attendance.sol\":1157:1168  uint _index */\n      0x00\n        /* \"internal/repo/contracts/attendance/attendance.sol\":1171:1188  attendanceRecords */\n      0x01\n        /* \"internal/repo/contracts/attendance/attendance.sol\":1171:1201  attendanceRecords[_employeeId] */\n      0x00\n        /* \"internal/repo/contracts/attendance/attendance.sol\":1189:1200  _employeeId */\n      dup6\n        /* \"internal/repo/contracts/attendance/attendance.sol\":1171:1201  attendanceRecords[_employeeId] */\n      dup2\n      mstore\n      0x20\n      add\n      swap1\n      dup2\n      mstore\n      0x20\n      add\n      0x00\n      keccak256\n        /* \"internal/repo/contracts/attendance/attendance.sol\":1171:1208  attendanceRecords[_employeeId].length */\n      dup1\n      sload\n      swap1\n      pop\n        /* \"internal/repo/contracts/attendance/attendance.sol\":1157:1208  uint _index = attendanceRecords[_employeeId].length */\n      swap1\n      pop\n        /* \"internal/repo/contracts/attendance/attendance.sol\":1218:1235  attendanceRecords */\n      0x01\n        /* \"internal/repo/contracts/attendance/attendance.sol\":1218:1248  attendanceRecords[_employeeId] */\n      0x00\n        /* \"internal/repo/contracts/attendance/attendance.sol\":1236:1247  _employeeId */\n      dup6\n        /* \"internal/repo/contracts/attendance/attendance.sol\":1218:1248  attendanceRecords[_employeeId] */\n      dup2\n      mstore\n      0x20\n      add\n      swap1\n      dup2\n      mstore\n      0x20\n      add\n      0x00\n      keccak256\n        /* \"internal/repo/contracts/attendance/attendance.sol\":1254:1315  AttendanceRecord(_employeeId, _index, _checkInTime, _details) */\n      mload(0x40)\n      dup1\n      0x80\n      add\n      0x40\n      mstore\n      dup1\n        /* \"internal/repo/contracts/attendance/attendance.sol\":1271:1282  _employeeId */\n      dup7\n        /* \"internal/repo/contracts/attendance/attendance.sol\":1254:1315  AttendanceRecord(_employeeId, _index, _checkInTime, _details) */\n      dup2\n      mstore\n      0x20\n      add\n        /* \"internal/repo/contracts/attendance/attendance.sol\":1284:1290  _index */\n      dup4\n        /* \"internal/repo/contracts/attendance/attendance.sol\":1254:1315  AttendanceRecord(_employeeId, _index, _checkInTime, _details) */\n      dup2\n      mstore\n      0x20\n      add\n        /* \"internal/repo/contracts/attendance/attendance.sol\":1292:1304  _checkInTime */\n      dup6\n        /* \"internal/repo/contracts/attendance/attendance.sol\":1254:1315  AttendanceRecord(_employeeId, _index, _checkInTime, _details) */\n      dup2\n      mstore\n      0x20\n      add\n        /* \"internal/repo/contracts/attendance/attendance.sol\":1306:1314  _details */\n      dup5\n        /* \"internal/repo/contracts/attendance/attendance.sol\":1254:1315  AttendanceRecord(_employeeId, _index, _checkInTime, _details) */\n      dup2\n      mstore\n      pop\n        /* \"internal/repo/contracts/attendance/attendance.sol\":1218:1316  attendanceRecords[_employeeId].push(AttendanceRecord(_employeeId, _index, _checkInTime, _details)) */\n      swap1\n      dup1\n      0x01\n      dup2\n      sload\n      add\n      dup1\n      dup3\n      sstore\n      dup1\n      swap2\n      pop\n      pop\n      0x01\n      swap1\n      sub\n      swap1\n      0x00\n      mstore\n      keccak256(0x00, 0x20)\n      swap1\n      0x04\n      mul\n      add\n      0x00\n      swap1\n      swap2\n      swap1\n      swap2\n      swap1\n      swap2\n      pop\n      0x00\n      dup3\n      add\n      mload\n      dup2\n      0x00\n      add\n      sstore\n      0x20\n      dup3\n      add\n      mload\n      dup2\n      0x01\n      add\n      sstore\n      0x40\n      dup3\n      add\n      mload\n      dup2\n      0x02\n      add\n      sstore\n      0x60\n      dup3\n      add\n      mload\n      dup2\n      0x03\n      add\n      swap1\n      dup2\n      tag_49\n      swap2\n      swap1\n      tag_50\n      jump\t// in\n    tag_49:\n      pop\n      pop\n      pop\n        /* \"internal/repo/contracts/attendance/attendance.sol\":1351:1362  _employeeId */\n      dup4\n        /* \"internal/repo/contracts/attendance/attendance.sol\":1332:1387  AttendanceRecorded(_employeeId, _checkInTime, _details) */\n      0x32e7c28972e89757b6baa3898e54af0a57a00f3a4df3d1ad95609eb202460b3a\n        /* \"internal/repo/contracts/attendance/attendance.sol\":1364:1376  _checkInTime */\n      dup5\n        /* \"internal/repo/contracts/attendance/attendance.sol\":1378:1386  _details */\n      dup5\n        /* \"internal/repo/contracts/attendance/attendance.sol\":1332:1387  AttendanceRecorded(_employeeId, _checkInTime, _details) */\n      mload(0x40)\n      tag_51\n      swap3\n      swap2\n      swap1\n      tag_52\n      jump\t// in\n    tag_51:\n      mload(0x40)\n      dup1\n      swap2\n      sub\n      swap1\n      log2\n        /* \"internal/repo/contracts/attendance/attendance.sol\":1010:1394  {... */\n      pop\n        /* \"internal/repo/contracts/attendance/attendance.sol\":829:830  _ */\n    tag_45:\n        /* \"internal/repo/contracts/attendance/attendance.sol\":901:1394  function recordAttendance(uint _employeeId, uint _checkInTime, string memory _details) public onlyAuthorized {... */\n      pop\n      pop\n      pop\n      jump\t// out\n        /* \"internal/repo/contracts/attendance/attendance.sol\":1561:2101  function getAttendanceByDateRange(uint _employeeId, uint _start, uint _end) public view returns (AttendanceRecord[] memory) {... */\n    tag_20:\n        /* \"internal/repo/contracts/attendance/attendance.sol\":1658:1683  AttendanceRecord[] memory */\n      0x60\n        /* \"internal/repo/contracts/attendance/attendance.sol\":1695:1728  AttendanceRecord[] memory records */\n      0x00\n        /* \"internal/repo/contracts/attendance/attendance.sol\":1731:1748  attendanceRecords */\n      0x01\n        /* \"internal/repo/contracts/attendance/attendance.sol\":1731:1761  attendanceRecords[_employeeId] */\n      0x00\n        /* \"internal/repo/contracts/attendance/attendance.sol\":1749:1760  _employeeId */\n      dup7\n        /* \"internal/repo/contracts/attendance/attendance.sol\":1731:1761  attendanceRecords[_employeeId] */\n      dup2\n      mstore\n      0x20\n      add\n      swap1\n      dup2\n      mstore\n      0x20\n      add\n      0x00\n      keccak256\n        /* \"internal/repo/contracts/attendance/attendance.sol\":1695:1761  AttendanceRecord[] memory records = attendanceRecords[_employeeId] */\n      dup1\n      sload\n      dup1\n      0x20\n      mul\n      0x20\n      add\n      mload(0x40)\n      swap1\n      dup2\n      add\n      0x40\n      mstore\n      dup1\n      swap3\n      swap2\n      swap1\n      dup2\n      dup2\n      mstore\n      0x20\n      add\n      0x00\n      swap1\n    tag_54:\n      dup3\n      dup3\n      lt\n      iszero\n      tag_55\n      jumpi\n      dup4\n      dup3\n      swap1\n      0x00\n      mstore\n      keccak256(0x00, 0x20)\n      swap1\n      0x04\n      mul\n      add\n      mload(0x40)\n      dup1\n      0x80\n      add\n      0x40\n      mstore\n      swap1\n      dup2\n      0x00\n      dup3\n      add\n      sload\n      dup2\n      mstore\n      0x20\n      add\n      0x01\n      dup3\n      add\n      sload\n      dup2\n      mstore\n      0x20\n      add\n      0x02\n      dup3\n      add\n      sload\n      dup2\n      mstore\n      0x20\n      add\n      0x03\n      dup3\n      add\n      dup1\n      sload\n      tag_57\n      swap1\n      tag_58\n      jump\t// in\n    tag_57:\n      dup1\n      0x1f\n      add\n      0x20\n      dup1\n      swap2\n      div\n      mul\n      0x20\n      add\n      mload(0x40)\n      swap1\n      dup2\n      add\n      0x40\n      mstore\n      dup1\n      swap3\n      swap2\n      swap1\n      dup2\n      dup2\n      mstore\n      0x20\n      add\n      dup3\n      dup1\n      sload\n      tag_59\n      swap1\n      tag_58\n      jump\t// in\n    tag_59:\n      dup1\n      iszero\n      tag_60\n      jumpi\n      dup1\n      0x1f\n      lt\n      tag_61\n      jumpi\n      0x0100\n      dup1\n      dup4\n      sload\n      div\n      mul\n      dup4\n      mstore\n      swap2\n      0x20\n      add\n      swap2\n      jump(tag_60)\n    tag_61:\n      dup3\n      add\n      swap2\n      swap1\n      0x00\n      mstore\n      keccak256(0x00, 0x20)\n      swap1\n    tag_62:\n      dup2\n      sload\n      dup2\n      mstore\n      swap1\n      0x01\n      add\n      swap1\n      0x20\n      add\n      dup1\n      dup4\n      gt\n      tag_62\n      jumpi\n      dup3\n      swap1\n      sub\n      0x1f\n      and\n      dup3\n      add\n      swap2\n    tag_60:\n      pop\n      pop\n      pop\n      pop\n      pop\n      dup2\n      mstore\n      pop\n      pop\n      dup2\n      mstore\n      0x20\n      add\n      swap1\n      0x01\n      add\n      swap1\n      jump(tag_54)\n    tag_55:\n      pop\n      pop\n      pop\n      pop\n      swap1\n      pop\n        /* \"internal/repo/contracts/attendance/attendance.sol\":1771:1812  AttendanceRecord[] memory filteredRecords */\n      0x00\n        /* \"internal/repo/contracts/attendance/attendance.sol\":1838:1845  records */\n      dup2\n        /* \"internal/repo/contracts/attendance/attendance.sol\":1838:1852  records.length */\n      mload\n        /* \"internal/repo/contracts/attendance/attendance.sol\":1815:1853  new AttendanceRecord[](records.length) */\n      0xffffffffffffffff\n      dup2\n      gt\n      iszero\n      tag_63\n      jumpi\n      tag_64\n      tag_65\n      jump\t// in\n    tag_64:\n    tag_63:\n      mload(0x40)\n      swap1\n      dup1\n      dup3\n      mstore\n      dup1\n      0x20\n      mul\n      0x20\n      add\n      dup3\n      add\n      0x40\n      mstore\n      dup1\n      iszero\n      tag_66\n      jumpi\n      dup2\n      0x20\n      add\n    tag_67:\n      tag_68\n      tag_69\n      jump\t// in\n    tag_68:\n      dup2\n      mstore\n      0x20\n      add\n      swap1\n      0x01\n      swap1\n      sub\n      swap1\n      dup2\n      tag_67\n      jumpi\n      swap1\n      pop\n    tag_66:\n      pop\n        /* \"internal/repo/contracts/attendance/attendance.sol\":1771:1853  AttendanceRecord[] memory filteredRecords = new AttendanceRecord[](records.length) */\n      swap1\n      pop\n        /* \"internal/repo/contracts/attendance/attendance.sol\":1868:1874  uint i */\n      0x00\n        /* \"internal/repo/contracts/attendance/attendance.sol\":1863:2063  for (uint i = 0; i < records.length; i++) {... */\n    tag_70:\n        /* \"internal/repo/contracts/attendance/attendance.sol\":1884:1891  records */\n      dup3\n        /* \"internal/repo/contracts/attendance/attendance.sol\":1884:1898  records.length */\n      mload\n        /* \"internal/repo/contracts/attendance/attendance.sol\":1880:1881  i */\n      dup2\n        /* \"internal/repo/contracts/attendance/attendance.sol\":1880:1898  i < records.length */\n      lt\n        /* \"internal/repo/contracts/attendance/attendance.sol\":1863:2063  for (uint i = 0; i < records.length; i++) {... */\n      iszero\n      tag_71\n      jumpi\n        /* \"internal/repo/contracts/attendance/attendance.sol\":1949:1955  _start */\n      dup6\n        /* \"internal/repo/contracts/attendance/attendance.sol\":1923:1930  records */\n      dup4\n        /* \"internal/repo/contracts/attendance/attendance.sol\":1931:1932  i */\n      dup3\n        /* \"internal/repo/contracts/attendance/attendance.sol\":1923:1933  records[i] */\n      dup2\n      mload\n      dup2\n      lt\n      tag_73\n      jumpi\n      tag_74\n      tag_75\n      jump\t// in\n    tag_74:\n    tag_73:\n      0x20\n      mul\n      0x20\n      add\n      add\n      mload\n        /* \"internal/repo/contracts/attendance/attendance.sol\":1923:1945  records[i].checkInTime */\n      0x40\n      add\n      mload\n        /* \"internal/repo/contracts/attendance/attendance.sol\":1923:1955  records[i].checkInTime >= _start */\n      lt\n      iszero\n        /* \"internal/repo/contracts/attendance/attendance.sol\":1923:1989  records[i].checkInTime >= _start && records[i].checkInTime <= _end */\n      dup1\n      iszero\n      tag_76\n      jumpi\n      pop\n        /* \"internal/repo/contracts/attendance/attendance.sol\":1985:1989  _end */\n      dup5\n        /* \"internal/repo/contracts/attendance/attendance.sol\":1959:1966  records */\n      dup4\n        /* \"internal/repo/contracts/attendance/attendance.sol\":1967:1968  i */\n      dup3\n        /* \"internal/repo/contracts/attendance/attendance.sol\":1959:1969  records[i] */\n      dup2\n      mload\n      dup2\n      lt\n      tag_77\n      jumpi\n      tag_78\n      tag_75\n      jump\t// in\n    tag_78:\n    tag_77:\n      0x20\n      mul\n      0x20\n      add\n      add\n      mload\n        /* \"internal/repo/contracts/attendance/attendance.sol\":1959:1981  records[i].checkInTime */\n      0x40\n      add\n      mload\n        /* \"internal/repo/contracts/attendance/attendance.sol\":1959:1989  records[i].checkInTime <= _end */\n      gt\n      iszero\n        /* \"internal/repo/contracts/attendance/attendance.sol\":1923:1989  records[i].checkInTime >= _start && records[i].checkInTime <= _end */\n    tag_76:\n        /* \"internal/repo/contracts/attendance/attendance.sol\":1919:2053  if (records[i].checkInTime >= _start && records[i].checkInTime <= _end) {... */\n      iszero\n      tag_79\n      jumpi\n        /* \"internal/repo/contracts/attendance/attendance.sol\":2028:2035  records */\n      dup3\n        /* \"internal/repo/contracts/attendance/attendance.sol\":2036:2037  i */\n      dup2\n        /* \"internal/repo/contracts/attendance/attendance.sol\":2028:2038  records[i] */\n      dup2\n      mload\n      dup2\n      lt\n      tag_80\n      jumpi\n      tag_81\n      tag_75\n      jump\t// in\n    tag_81:\n    tag_80:\n      0x20\n      mul\n      0x20\n      add\n      add\n      mload\n        /* \"internal/repo/contracts/attendance/attendance.sol\":2009:2024  filteredRecords */\n      dup3\n        /* \"internal/repo/contracts/attendance/attendance.sol\":2025:2026  i */\n      dup3\n        /* \"internal/repo/contracts/attendance/attendance.sol\":2009:2027  filteredRecords[i] */\n      dup2\n      mload\n      dup2\n      lt\n      tag_82\n      jumpi\n      tag_83\n      tag_75\n      jump\t// in\n    tag_83:\n    tag_82:\n      0x20\n      mul\n      0x20\n      add\n      add\n        /* \"internal/repo/contracts/attendance/attendance.sol\":2009:2038  filteredRecords[i]=records[i] */\n      dup2\n      swap1\n      mstore\n      pop\n        /* \"internal/repo/contracts/attendance/attendance.sol\":1919:2053  if (records[i].checkInTime >= _start && records[i].checkInTime <= _end) {... */\n    tag_79:\n        /* \"internal/repo/contracts/attendance/attendance.sol\":1900:1903  i++ */\n      dup1\n      dup1\n      0x01\n      add\n      swap2\n      pop\n      pop\n        /* \"internal/repo/contracts/attendance/attendance.sol\":1863:2063  for (uint i = 0; i < records.length; i++) {... */\n      jump(tag_70)\n    tag_71:\n      pop\n        /* \"internal/repo/contracts/attendance/attendance.sol\":2079:2094  filteredRecords */\n      dup1\n        /* \"internal/repo/contracts/attendance/attendance.sol\":2072:2094  return filteredRecords */\n      swap3\n      pop\n      pop\n      pop\n        /* \"internal/repo/contracts/attendance/attendance.sol\":1561:2101  function getAttendanceByDateRange(uint _employeeId, uint _start, uint _end) public view returns (AttendanceRecord[] memory) {... */\n      swap4\n      swap3\n      pop\n      pop\n      pop\n      jump\t// out\n        /* \"internal/repo/contracts/attendance/attendance.sol\":2717:2833  function revokeAuthorization(address _entity) public onlyAuthorized {... */\n    tag_25:\n        /* \"internal/repo/contracts/attendance/attendance.sol\":794:795  0 */\n      0x00\n        /* \"internal/repo/contracts/attendance/attendance.sol\":760:778  authorizedEntities */\n      0x02\n        /* \"internal/repo/contracts/attendance/attendance.sol\":760:790  authorizedEntities[msg.sender] */\n      0x00\n        /* \"internal/repo/contracts/attendance/attendance.sol\":779:789  msg.sender */\n      caller\n        /* \"internal/repo/contracts/attendance/attendance.sol\":760:790  authorizedEntities[msg.sender] */\n      0xffffffffffffffffffffffffffffffffffffffff\n      and\n      0xffffffffffffffffffffffffffffffffffffffff\n      and\n      dup2\n      mstore\n      0x20\n      add\n      swap1\n      dup2\n      mstore\n      0x20\n      add\n      0x00\n      keccak256\n      sload\n        /* \"internal/repo/contracts/attendance/attendance.sol\":760:795  authorizedEntities[msg.sender] != 0 */\n      sub\n        /* \"internal/repo/contracts/attendance/attendance.sol\":752:819  require(authorizedEntities[msg.sender] != 0, \"Unauthorized access\") */\n      tag_85\n      jumpi\n      mload(0x40)\n      0x08c379a000000000000000000000000000000000000000000000000000000000\n      dup2\n      mstore\n      0x04\n      add\n      tag_86\n      swap1\n      tag_38\n      jump\t// in\n    tag_86:\n      mload(0x40)\n      dup1\n      swap2\n      sub\n      swap1\n      revert\n    tag_85:\n        /* \"internal/repo/contracts/attendance/attendance.sol\":2825:2826  0 */\n      0x00\n        /* \"internal/repo/contracts/attendance/attendance.sol\":2795:2813  authorizedEntities */\n      0x02\n        /* \"internal/repo/contracts/attendance/attendance.sol\":2795:2822  authorizedEntities[_entity] */\n      0x00\n        /* \"internal/repo/contracts/attendance/attendance.sol\":2814:2821  _entity */\n      dup4\n        /* \"internal/repo/contracts/attendance/attendance.sol\":2795:2822  authorizedEntities[_entity] */\n      0xffffffffffffffffffffffffffffffffffffffff\n      and\n      0xffffffffffffffffffffffffffffffffffffffff\n      and\n      dup2\n      mstore\n      0x20\n      add\n      swap1\n      dup2\n      mstore\n      0x20\n      add\n      0x00\n      keccak256\n        /* \"internal/repo/contracts/attendance/attendance.sol\":2795:2826  authorizedEntities[_entity] = 0 */\n      dup2\n      swap1\n      sstore\n      pop\n        /* \"internal/repo/contracts/attendance/attendance.sol\":2717:2833  function revokeAuthorization(address _entity) public onlyAuthorized {... */\n      pop\n      jump\t// out\n        /* \"internal/repo/contracts/attendance/attendance.sol\":2107:2561  function updateAttendance(uint _employeeId, uint _index, uint _newCheckInTime, string memory _newDetails) public onlyAuthorized {... */\n    tag_29:\n        /* \"internal/repo/contracts/attendance/attendance.sol\":794:795  0 */\n      0x00\n        /* \"internal/repo/contracts/attendance/attendance.sol\":760:778  authorizedEntities */\n      0x02\n        /* \"internal/repo/contracts/attendance/attendance.sol\":760:790  authorizedEntities[msg.sender] */\n      0x00\n        /* \"internal/repo/contracts/attendance/attendance.sol\":779:789  msg.sender */\n      caller\n        /* \"internal/repo/contracts/attendance/attendance.sol\":760:790  authorizedEntities[msg.sender] */\n      0xffffffffffffffffffffffffffffffffffffffff\n      and\n      0xffffffffffffffffffffffffffffffffffffffff\n      and\n      dup2\n      mstore\n      0x20\n      add\n      swap1\n      dup2\n      mstore\n      0x20\n      add\n      0x00\n      keccak256\n      sload\n        /* \"internal/repo/contracts/attendance/attendance.sol\":760:795  authorizedEntities[msg.sender] != 0 */\n      sub\n        /* \"internal/repo/contracts/attendance/attendance.sol\":752:819  require(authorizedEntities[msg.sender] != 0, \"Unauthorized access\") */\n      tag_89\n      jumpi\n      mload(0x40)\n      0x08c379a000000000000000000000000000000000000000000000000000000000\n      dup2\n      mstore\n      0x04\n      add\n      tag_90\n      swap1\n      tag_38\n      jump\t// in\n    tag_90:\n      mload(0x40)\n      dup1\n      swap2\n      sub\n      swap1\n      revert\n    tag_89:\n        /* \"internal/repo/contracts/attendance/attendance.sol\":2262:2279  attendanceRecords */\n      0x01\n        /* \"internal/repo/contracts/attendance/attendance.sol\":2262:2292  attendanceRecords[_employeeId] */\n      0x00\n        /* \"internal/repo/contracts/attendance/attendance.sol\":2280:2291  _employeeId */\n      dup6\n        /* \"internal/repo/contracts/attendance/attendance.sol\":2262:2292  attendanceRecords[_employeeId] */\n      dup2\n      mstore\n      0x20\n      add\n      swap1\n      dup2\n      mstore\n      0x20\n      add\n      0x00\n      keccak256\n        /* \"internal/repo/contracts/attendance/attendance.sol\":2262:2299  attendanceRecords[_employeeId].length */\n      dup1\n      sload\n      swap1\n      pop\n        /* \"internal/repo/contracts/attendance/attendance.sol\":2253:2259  _index */\n      dup4\n        /* \"internal/repo/contracts/attendance/attendance.sol\":2253:2299  _index < attendanceRecords[_employeeId].length */\n      lt\n        /* \"internal/repo/contracts/attendance/attendance.sol\":2245:2323  require(_index < attendanceRecords[_employeeId].length, \"Index out of bounds\") */\n      tag_92\n      jumpi\n      mload(0x40)\n      0x08c379a000000000000000000000000000000000000000000000000000000000\n      dup2\n      mstore\n      0x04\n      add\n      tag_93\n      swap1\n      tag_94\n      jump\t// in\n    tag_93:\n      mload(0x40)\n      dup1\n      swap2\n      sub\n      swap1\n      revert\n    tag_92:\n        /* \"internal/repo/contracts/attendance/attendance.sol\":2386:2401  _newCheckInTime */\n      dup2\n        /* \"internal/repo/contracts/attendance/attendance.sol\":2333:2350  attendanceRecords */\n      0x01\n        /* \"internal/repo/contracts/attendance/attendance.sol\":2333:2363  attendanceRecords[_employeeId] */\n      0x00\n        /* \"internal/repo/contracts/attendance/attendance.sol\":2351:2362  _employeeId */\n      dup7\n        /* \"internal/repo/contracts/attendance/attendance.sol\":2333:2363  attendanceRecords[_employeeId] */\n      dup2\n      mstore\n      0x20\n      add\n      swap1\n      dup2\n      mstore\n      0x20\n      add\n      0x00\n      keccak256\n        /* \"internal/repo/contracts/attendance/attendance.sol\":2364:2370  _index */\n      dup5\n        /* \"internal/repo/contracts/attendance/attendance.sol\":2333:2371  attendanceRecords[_employeeId][_index] */\n      dup2\n      sload\n      dup2\n      lt\n      tag_95\n      jumpi\n      tag_96\n      tag_75\n      jump\t// in\n    tag_96:\n    tag_95:\n      swap1\n      0x00\n      mstore\n      keccak256(0x00, 0x20)\n      swap1\n      0x04\n      mul\n      add\n        /* \"internal/repo/contracts/attendance/attendance.sol\":2333:2383  attendanceRecords[_employeeId][_index].checkInTime */\n      0x02\n      add\n        /* \"internal/repo/contracts/attendance/attendance.sol\":2333:2401  attendanceRecords[_employeeId][_index].checkInTime = _newCheckInTime */\n      dup2\n      swap1\n      sstore\n      pop\n        /* \"internal/repo/contracts/attendance/attendance.sol\":2460:2471  _newDetails */\n      dup1\n        /* \"internal/repo/contracts/attendance/attendance.sol\":2411:2428  attendanceRecords */\n      0x01\n        /* \"internal/repo/contracts/attendance/attendance.sol\":2411:2441  attendanceRecords[_employeeId] */\n      0x00\n        /* \"internal/repo/contracts/attendance/attendance.sol\":2429:2440  _employeeId */\n      dup7\n        /* \"internal/repo/contracts/attendance/attendance.sol\":2411:2441  attendanceRecords[_employeeId] */\n      dup2\n      mstore\n      0x20\n      add\n      swap1\n      dup2\n      mstore\n      0x20\n      add\n      0x00\n      keccak256\n        /* \"internal/repo/contracts/attendance/attendance.sol\":2442:2448  _index */\n      dup5\n        /* \"internal/repo/contracts/attendance/attendance.sol\":2411:2449  attendanceRecords[_employeeId][_index] */\n      dup2\n      sload\n      dup2\n      lt\n      tag_98\n      jumpi\n      tag_99\n      tag_75\n      jump\t// in\n    tag_99:\n    tag_98:\n      swap1\n      0x00\n      mstore\n      keccak256(0x00, 0x20)\n      swap1\n      0x04\n      mul\n      add\n        /* \"internal/repo/contracts/attendance/attendance.sol\":2411:2457  attendanceRecords[_employeeId][_index].details */\n      0x03\n      add\n        /* \"internal/repo/contracts/attendance/attendance.sol\":2411:2471  attendanceRecords[_employeeId][_index].details = _newDetails */\n      swap1\n      dup2\n      tag_101\n      swap2\n      swap1\n      tag_50\n      jump\t// in\n    tag_101:\n      pop\n        /* \"internal/repo/contracts/attendance/attendance.sol\":2504:2515  _employeeId */\n      dup4\n        /* \"internal/repo/contracts/attendance/attendance.sol\":2486:2554  AttendanceUpdated(_employeeId, _index, _newCheckInTime, _newDetails) */\n      0xa0d3071670661a556feb29023709b20ab2a62d5c56f63343d67c087d28be3df7\n        /* \"internal/repo/contracts/attendance/attendance.sol\":2517:2523  _index */\n      dup5\n        /* \"internal/repo/contracts/attendance/attendance.sol\":2525:2540  _newCheckInTime */\n      dup5\n        /* \"internal/repo/contracts/attendance/attendance.sol\":2542:2553  _newDetails */\n      dup5\n        /* \"internal/repo/contracts/attendance/attendance.sol\":2486:2554  AttendanceUpdated(_employeeId, _index, _newCheckInTime, _newDetails) */\n      mload(0x40)\n      tag_102\n      swap4\n      swap3\n      swap2\n      swap1\n      tag_103\n      jump\t// in\n    tag_102:\n      mload(0x40)\n      dup1\n      swap2\n      sub\n      swap1\n      log2\n        /* \"internal/repo/contracts/attendance/attendance.sol\":2107:2561  function updateAttendance(uint _employeeId, uint _index, uint _newCheckInTime, string memory _newDetails) public onlyAuthorized {... */\n      pop\n      pop\n      pop\n      pop\n      jump\t// out\n        /* \"internal/repo/contracts/attendance/attendance.sol\":1400:1555  function getAttendanceByEmployeeId(uint _employeeId) public view returns (AttendanceRecord[] memory) {... */\n    tag_33:\n        /* \"internal/repo/contracts/attendance/attendance.sol\":1474:1499  AttendanceRecord[] memory */\n      0x60\n        /* \"internal/repo/contracts/attendance/attendance.sol\":1518:1535  attendanceRecords */\n      0x01\n        /* \"internal/repo/contracts/attendance/attendance.sol\":1518:1548  attendanceRecords[_employeeId] */\n      0x00\n        /* \"internal/repo/contracts/attendance/attendance.sol\":1536:1547  _employeeId */\n      dup4\n        /* \"internal/repo/contracts/attendance/attendance.sol\":1518:1548  attendanceRecords[_employeeId] */\n      dup2\n      mstore\n      0x20\n      add\n      swap1\n      dup2\n      mstore\n      0x20\n      add\n      0x00\n      keccak256\n        /* \"internal/repo/contracts/attendance/attendance.sol\":1511:1548  return attendanceRecords[_employeeId] */\n      dup1\n      sload\n      dup1\n      0x20\n      mul\n      0x20\n      add\n      mload(0x40)\n      swap1\n      dup2\n      add\n      0x40\n      mstore\n      dup1\n      swap3\n      swap2\n      swap1\n      dup2\n      dup2\n      mstore\n      0x20\n      add\n      0x00\n      swap1\n    tag_105:\n      dup3\n      dup3\n      lt\n      iszero\n      tag_106\n      jumpi\n      dup4\n      dup3\n      swap1\n      0x00\n      mstore\n      keccak256(0x00, 0x20)\n      swap1\n      0x04\n      mul\n      add\n      mload(0x40)\n      dup1\n      0x80\n      add\n      0x40\n      mstore\n      swap1\n      dup2\n      0x00\n      dup3\n      add\n      sload\n      dup2\n      mstore\n      0x20\n      add\n      0x01\n      dup3\n      add\n      sload\n      dup2\n      mstore\n      0x20\n      add\n      0x02\n      dup3\n      add\n      sload\n      dup2\n      mstore\n      0x20\n      add\n      0x03\n      dup3\n      add\n      dup1\n      sload\n      tag_108\n      swap1\n      tag_58\n      jump\t// in\n    tag_108:\n      dup1\n      0x1f\n      add\n      0x20\n      dup1\n      swap2\n      div\n      mul\n      0x20\n      add\n      mload(0x40)\n      swap1\n      dup2\n      add\n      0x40\n      mstore\n      dup1\n      swap3\n      swap2\n      swap1\n      dup2\n      dup2\n      mstore\n      0x20\n      add\n      dup3\n      dup1\n      sload\n      tag_109\n      swap1\n      tag_58\n      jump\t// in\n    tag_109:\n      dup1\n      iszero\n      tag_110\n      jumpi\n      dup1\n      0x1f\n      lt\n      tag_111\n      jumpi\n      0x0100\n      dup1\n      dup4\n      sload\n      div\n      mul\n      dup4\n      mstore\n      swap2\n      0x20\n      add\n      swap2\n      jump(tag_110)\n    tag_111:\n      dup3\n      add\n      swap2\n      swap1\n      0x00\n      mstore\n      keccak256(0x00, 0x20)\n      swap1\n    tag_112:\n      dup2\n      sload\n      dup2\n      mstore\n      swap1\n      0x01\n      add\n      swap1\n      0x20\n      add\n      dup1\n      dup4\n      gt\n      tag_112\n      jumpi\n      dup3\n      swap1\n      sub\n      0x1f\n      and\n      dup3\n      add\n      swap2\n    tag_110:\n      pop\n      pop\n      pop\n      pop\n      pop\n      dup2\n      mstore\n      pop\n      pop\n      dup2\n      mstore\n      0x20\n      add\n      swap1\n      0x01\n      add\n      swap1\n      jump(tag_105)\n    tag_106:\n      pop\n      pop\n      pop\n      pop\n      swap1\n      pop\n        /* \"internal/repo/contracts/attendance/attendance.sol\":1400:1555  function getAttendanceByEmployeeId(uint _employeeId) public view returns (AttendanceRecord[] memory) {... */\n      swap2\n      swap1\n      pop\n      jump\t// out\n    tag_69:\n      mload(0x40)\n      dup1\n      0x80\n      add\n      0x40\n      mstore\n      dup1\n      0x00\n      dup2\n      mstore\n      0x20\n      add\n      0x00\n      dup2\n      mstore\n      0x20\n      add\n      0x00\n      dup2\n      mstore\n      0x20\n      add\n      0x60\n      dup2\n      mstore\n      pop\n      swap1\n      jump\t// out\n        /* \"#utility.yul\":7:82   */\n    tag_113:\n        /* \"#utility.yul\":40:46   */\n      0x00\n        /* \"#utility.yul\":73:75   */\n      0x40\n        /* \"#utility.yul\":67:76   */\n      mload\n        /* \"#utility.yul\":57:76   */\n      swap1\n      pop\n        /* \"#utility.yul\":7:82   */\n      swap1\n      jump\t// out\n        /* \"#utility.yul\":88:205   */\n    tag_114:\n        /* \"#utility.yul\":197:198   */\n      0x00\n        /* \"#utility.yul\":194:195   */\n      dup1\n        /* \"#utility.yul\":187:199   */\n      revert\n        /* \"#utility.yul\":211:328   */\n    tag_115:\n        /* \"#utility.yul\":320:321   */\n      0x00\n        /* \"#utility.yul\":317:318   */\n      dup1\n        /* \"#utility.yul\":310:322   */\n      revert\n        /* \"#utility.yul\":334:460   */\n    tag_116:\n        /* \"#utility.yul\":371:378   */\n      0x00\n        /* \"#utility.yul\":411:453   */\n      0xffffffffffffffffffffffffffffffffffffffff\n        /* \"#utility.yul\":404:409   */\n      dup3\n        /* \"#utility.yul\":400:454   */\n      and\n        /* \"#utility.yul\":389:454   */\n      swap1\n      pop\n        /* \"#utility.yul\":334:460   */\n      swap2\n      swap1\n      pop\n      jump\t// out\n        /* \"#utility.yul\":466:562   */\n    tag_117:\n        /* \"#utility.yul\":503:510   */\n      0x00\n        /* \"#utility.yul\":532:556   */\n      tag_174\n        /* \"#utility.yul\":550:555   */\n      dup3\n        /* \"#utility.yul\":532:556   */\n      tag_116\n      jump\t// in\n    tag_174:\n        /* \"#utility.yul\":521:556   */\n      swap1\n      pop\n        /* \"#utility.yul\":466:562   */\n      swap2\n      swap1\n      pop\n      jump\t// out\n        /* \"#utility.yul\":568:690   */\n    tag_118:\n        /* \"#utility.yul\":641:665   */\n      tag_176\n        /* \"#utility.yul\":659:664   */\n      dup2\n        /* \"#utility.yul\":641:665   */\n      tag_117\n      jump\t// in\n    tag_176:\n        /* \"#utility.yul\":634:639   */\n      dup2\n        /* \"#utility.yul\":631:666   */\n      eq\n        /* \"#utility.yul\":621:684   */\n      tag_177\n      jumpi\n        /* \"#utility.yul\":680:681   */\n      0x00\n        /* \"#utility.yul\":677:678   */\n      dup1\n        /* \"#utility.yul\":670:682   */\n      revert\n        /* \"#utility.yul\":621:684   */\n    tag_177:\n        /* \"#utility.yul\":568:690   */\n      pop\n      jump\t// out\n        /* \"#utility.yul\":696:835   */\n    tag_119:\n        /* \"#utility.yul\":742:747   */\n      0x00\n        /* \"#utility.yul\":780:786   */\n      dup2\n        /* \"#utility.yul\":767:787   */\n      calldataload\n        /* \"#utility.yul\":758:787   */\n      swap1\n      pop\n        /* \"#utility.yul\":796:829   */\n      tag_179\n        /* \"#utility.yul\":823:828   */\n      dup2\n        /* \"#utility.yul\":796:829   */\n      tag_118\n      jump\t// in\n    tag_179:\n        /* \"#utility.yul\":696:835   */\n      swap3\n      swap2\n      pop\n      pop\n      jump\t// out\n        /* \"#utility.yul\":841:1170   */\n    tag_11:\n        /* \"#utility.yul\":900:906   */\n      0x00\n        /* \"#utility.yul\":949:951   */\n      0x20\n        /* \"#utility.yul\":937:946   */\n      dup3\n        /* \"#utility.yul\":928:935   */\n      dup5\n        /* \"#utility.yul\":924:947   */\n      sub\n        /* \"#utility.yul\":920:952   */\n      slt\n        /* \"#utility.yul\":917:1036   */\n      iszero\n      tag_181\n      jumpi\n        /* \"#utility.yul\":955:1034   */\n      tag_182\n      tag_114\n      jump\t// in\n    tag_182:\n        /* \"#utility.yul\":917:1036   */\n    tag_181:\n        /* \"#utility.yul\":1075:1076   */\n      0x00\n        /* \"#utility.yul\":1100:1153   */\n      tag_183\n        /* \"#utility.yul\":1145:1152   */\n      dup5\n        /* \"#utility.yul\":1136:1142   */\n      dup3\n        /* \"#utility.yul\":1125:1134   */\n      dup6\n        /* \"#utility.yul\":1121:1143   */\n      add\n        /* \"#utility.yul\":1100:1153   */\n      tag_119\n      jump\t// in\n    tag_183:\n        /* \"#utility.yul\":1090:1153   */\n      swap2\n      pop\n        /* \"#utility.yul\":1046:1163   */\n      pop\n        /* \"#utility.yul\":841:1170   */\n      swap3\n      swap2\n      pop\n      pop\n      jump\t// out\n        /* \"#utility.yul\":1176:1253   */\n    tag_120:\n        /* \"#utility.yul\":1213:1220   */\n      0x00\n        /* \"#utility.yul\":1242:1247   */\n      dup2\n        /* \"#utility.yul\":1231:1247   */\n      swap1\n      pop\n        /* \"#utility.yul\":1176:1253   */\n      swap2\n      swap1\n      pop\n      jump\t// out\n        /* \"#utility.yul\":1259:1381   */\n    tag_121:\n        /* \"#utility.yul\":1332:1356   */\n      tag_186\n        /* \"#utility.yul\":1350:1355   */\n      dup2\n        /* \"#utility.yul\":1332:1356   */\n      tag_120\n      jump\t// in\n    tag_186:\n        /* \"#utility.yul\":1325:1330   */\n      dup2\n        /* \"#utility.yul\":1322:1357   */\n      eq\n        /* \"#utility.yul\":1312:1375   */\n      tag_187\n      jumpi\n        /* \"#utility.yul\":1371:1372   */\n      0x00\n        /* \"#utility.yul\":1368:1369   */\n      dup1\n        /* \"#utility.yul\":1361:1373   */\n      revert\n        /* \"#utility.yul\":1312:1375   */\n    tag_187:\n        /* \"#utility.yul\":1259:1381   */\n      pop\n      jump\t// out\n        /* \"#utility.yul\":1387:1526   */\n    tag_122:\n        /* \"#utility.yul\":1433:1438   */\n      0x00\n        /* \"#utility.yul\":1471:1477   */\n      dup2\n        /* \"#utility.yul\":1458:1478   */\n      calldataload\n        /* \"#utility.yul\":1449:1478   */\n      swap1\n      pop\n        /* \"#utility.yul\":1487:1520   */\n      tag_189\n        /* \"#utility.yul\":1514:1519   */\n      dup2\n        /* \"#utility.yul\":1487:1520   */\n      tag_121\n      jump\t// in\n    tag_189:\n        /* \"#utility.yul\":1387:1526   */\n      swap3\n      swap2\n      pop\n      pop\n      jump\t// out\n        /* \"#utility.yul\":1532:1649   */\n    tag_123:\n        /* \"#utility.yul\":1641:1642   */\n      0x00\n        /* \"#utility.yul\":1638:1639   */\n      dup1\n        /* \"#utility.yul\":1631:1643   */\n      revert\n        /* \"#utility.yul\":1655:1772   */\n    tag_124:\n        /* \"#utility.yul\":1764:1765   */\n      0x00\n        /* \"#utility.yul\":1761:1762   */\n      dup1\n        /* \"#utility.yul\":1754:1766   */\n      revert\n        /* \"#utility.yul\":1778:1880   */\n    tag_125:\n        /* \"#utility.yul\":1819:1825   */\n      0x00\n        /* \"#utility.yul\":1870:1872   */\n      0x1f\n        /* \"#utility.yul\":1866:1873   */\n      not\n        /* \"#utility.yul\":1861:1863   */\n      0x1f\n        /* \"#utility.yul\":1854:1859   */\n      dup4\n        /* \"#utility.yul\":1850:1864   */\n      add\n        /* \"#utility.yul\":1846:1874   */\n      and\n        /* \"#utility.yul\":1836:1874   */\n      swap1\n      pop\n        /* \"#utility.yul\":1778:1880   */\n      swap2\n      swap1\n      pop\n      jump\t// out\n        /* \"#utility.yul\":1886:2066   */\n    tag_65:\n        /* \"#utility.yul\":1934:2011   */\n      0x4e487b7100000000000000000000000000000000000000000000000000000000\n        /* \"#utility.yul\":1931:1932   */\n      0x00\n        /* \"#utility.yul\":1924:2012   */\n      mstore\n        /* \"#utility.yul\":2031:2035   */\n      0x41\n        /* \"#utility.yul\":2028:2029   */\n      0x04\n        /* \"#utility.yul\":2021:2036   */\n      mstore\n        /* \"#utility.yul\":2055:2059   */\n      0x24\n        /* \"#utility.yul\":2052:2053   */\n      0x00\n        /* \"#utility.yul\":2045:2060   */\n      revert\n        /* \"#utility.yul\":2072:2353   */\n    tag_126:\n        /* \"#utility.yul\":2155:2182   */\n      tag_195\n        /* \"#utility.yul\":2177:2181   */\n      dup3\n        /* \"#utility.yul\":2155:2182   */\n      tag_125\n      jump\t// in\n    tag_195:\n        /* \"#utility.yul\":2147:2153   */\n      dup2\n        /* \"#utility.yul\":2143:2183   */\n      add\n        /* \"#utility.yul\":2285:2291   */\n      dup2\n        /* \"#utility.yul\":2273:2283   */\n      dup2\n        /* \"#utility.yul\":2270:2292   */\n      lt\n        /* \"#utility.yul\":2249:2267   */\n      0xffffffffffffffff\n        /* \"#utility.yul\":2237:2247   */\n      dup3\n        /* \"#utility.yul\":2234:2268   */\n      gt\n        /* \"#utility.yul\":2231:2293   */\n      or\n        /* \"#utility.yul\":2228:2316   */\n      iszero\n      tag_196\n      jumpi\n        /* \"#utility.yul\":2296:2314   */\n      tag_197\n      tag_65\n      jump\t// in\n    tag_197:\n        /* \"#utility.yul\":2228:2316   */\n    tag_196:\n        /* \"#utility.yul\":2336:2346   */\n      dup1\n        /* \"#utility.yul\":2332:2334   */\n      0x40\n        /* \"#utility.yul\":2325:2347   */\n      mstore\n        /* \"#utility.yul\":2115:2353   */\n      pop\n        /* \"#utility.yul\":2072:2353   */\n      pop\n      pop\n      jump\t// out\n        /* \"#utility.yul\":2359:2488   */\n    tag_127:\n        /* \"#utility.yul\":2393:2399   */\n      0x00\n        /* \"#utility.yul\":2420:2440   */\n      tag_199\n      tag_113\n      jump\t// in\n    tag_199:\n        /* \"#utility.yul\":2410:2440   */\n      swap1\n      pop\n        /* \"#utility.yul\":2449:2482   */\n      tag_200\n        /* \"#utility.yul\":2477:2481   */\n      dup3\n        /* \"#utility.yul\":2469:2475   */\n      dup3\n        /* \"#utility.yul\":2449:2482   */\n      tag_126\n      jump\t// in\n    tag_200:\n        /* \"#utility.yul\":2359:2488   */\n      swap2\n      swap1\n      pop\n      jump\t// out\n        /* \"#utility.yul\":2494:2802   */\n    tag_128:\n        /* \"#utility.yul\":2556:2560   */\n      0x00\n        /* \"#utility.yul\":2646:2664   */\n      0xffffffffffffffff\n        /* \"#utility.yul\":2638:2644   */\n      dup3\n        /* \"#utility.yul\":2635:2665   */\n      gt\n        /* \"#utility.yul\":2632:2688   */\n      iszero\n      tag_202\n      jumpi\n        /* \"#utility.yul\":2668:2686   */\n      tag_203\n      tag_65\n      jump\t// in\n    tag_203:\n        /* \"#utility.yul\":2632:2688   */\n    tag_202:\n        /* \"#utility.yul\":2706:2735   */\n      tag_204\n        /* \"#utility.yul\":2728:2734   */\n      dup3\n        /* \"#utility.yul\":2706:2735   */\n      tag_125\n      jump\t// in\n    tag_204:\n        /* \"#utility.yul\":2698:2735   */\n      swap1\n      pop\n        /* \"#utility.yul\":2790:2794   */\n      0x20\n        /* \"#utility.yul\":2784:2788   */\n      dup2\n        /* \"#utility.yul\":2780:2795   */\n      add\n        /* \"#utility.yul\":2772:2795   */\n      swap1\n      pop\n        /* \"#utility.yul\":2494:2802   */\n      swap2\n      swap1\n      pop\n      jump\t// out\n        /* \"#utility.yul\":2808:2954   */\n    tag_129:\n        /* \"#utility.yul\":2905:2911   */\n      dup3\n        /* \"#utility.yul\":2900:2903   */\n      dup2\n        /* \"#utility.yul\":2895:2898   */\n      dup4\n        /* \"#utility.yul\":2882:2912   */\n      calldatacopy\n        /* \"#utility.yul\":2946:2947   */\n      0x00\n        /* \"#utility.yul\":2937:2943   */\n      dup4\n        /* \"#utility.yul\":2932:2935   */\n      dup4\n        /* \"#utility.yul\":2928:2944   */\n      add\n        /* \"#utility.yul\":2921:2948   */\n      mstore\n        /* \"#utility.yul\":2808:2954   */\n      pop\n      pop\n      pop\n      jump\t// out\n        /* \"#utility.yul\":2960:3385   */\n    tag_130:\n        /* \"#utility.yul\":3038:3043   */\n      0x00\n        /* \"#utility.yul\":3063:3129   */\n      tag_207\n        /* \"#utility.yul\":3079:3128   */\n      tag_208\n        /* \"#utility.yul\":3121:3127   */\n      dup5\n        /* \"#utility.yul\":3079:3128   */\n      tag_128\n      jump\t// in\n    tag_208:\n        /* \"#utility.yul\":3063:3129   */\n      tag_127\n      jump\t// in\n    tag_207:\n        /* \"#utility.yul\":3054:3129   */\n      swap1\n      pop\n        /* \"#utility.yul\":3152:3158   */\n      dup3\n        /* \"#utility.yul\":3145:3150   */\n      dup2\n        /* \"#utility.yul\":3138:3159   */\n      mstore\n        /* \"#utility.yul\":3190:3194   */\n      0x20\n        /* \"#utility.yul\":3183:3188   */\n      dup2\n        /* \"#utility.yul\":3179:3195   */\n      add\n        /* \"#utility.yul\":3228:3231   */\n      dup5\n        /* \"#utility.yul\":3219:3225   */\n      dup5\n        /* \"#utility.yul\":3214:3217   */\n      dup5\n        /* \"#utility.yul\":3210:3226   */\n      add\n        /* \"#utility.yul\":3207:3232   */\n      gt\n        /* \"#utility.yul\":3204:3316   */\n      iszero\n      tag_209\n      jumpi\n        /* \"#utility.yul\":3235:3314   */\n      tag_210\n      tag_124\n      jump\t// in\n    tag_210:\n        /* \"#utility.yul\":3204:3316   */\n    tag_209:\n        /* \"#utility.yul\":3325:3379   */\n      tag_211\n        /* \"#utility.yul\":3372:3378   */\n      dup5\n        /* \"#utility.yul\":3367:3370   */\n      dup3\n        /* \"#utility.yul\":3362:3365   */\n      dup6\n        /* \"#utility.yul\":3325:3379   */\n      tag_129\n      jump\t// in\n    tag_211:\n        /* \"#utility.yul\":3044:3385   */\n      pop\n        /* \"#utility.yul\":2960:3385   */\n      swap4\n      swap3\n      pop\n      pop\n      pop\n      jump\t// out\n        /* \"#utility.yul\":3405:3745   */\n    tag_131:\n        /* \"#utility.yul\":3461:3466   */\n      0x00\n        /* \"#utility.yul\":3510:3513   */\n      dup3\n        /* \"#utility.yul\":3503:3507   */\n      0x1f\n        /* \"#utility.yul\":3495:3501   */\n      dup4\n        /* \"#utility.yul\":3491:3508   */\n      add\n        /* \"#utility.yul\":3487:3514   */\n      slt\n        /* \"#utility.yul\":3477:3599   */\n      tag_213\n      jumpi\n        /* \"#utility.yul\":3518:3597   */\n      tag_214\n      tag_123\n      jump\t// in\n    tag_214:\n        /* \"#utility.yul\":3477:3599   */\n    tag_213:\n        /* \"#utility.yul\":3635:3641   */\n      dup2\n        /* \"#utility.yul\":3622:3642   */\n      calldataload\n        /* \"#utility.yul\":3660:3739   */\n      tag_215\n        /* \"#utility.yul\":3735:3738   */\n      dup5\n        /* \"#utility.yul\":3727:3733   */\n      dup3\n        /* \"#utility.yul\":3720:3724   */\n      0x20\n        /* \"#utility.yul\":3712:3718   */\n      dup7\n        /* \"#utility.yul\":3708:3725   */\n      add\n        /* \"#utility.yul\":3660:3739   */\n      tag_130\n      jump\t// in\n    tag_215:\n        /* \"#utility.yul\":3651:3739   */\n      swap2\n      pop\n        /* \"#utility.yul\":3467:3745   */\n      pop\n        /* \"#utility.yul\":3405:3745   */\n      swap3\n      swap2\n      pop\n      pop\n      jump\t// out\n        /* \"#utility.yul\":3751:4550   */\n    tag_15:\n        /* \"#utility.yul\":3838:3844   */\n      0x00\n        /* \"#utility.yul\":3846:3852   */\n      dup1\n        /* \"#utility.yul\":3854:3860   */\n      0x00\n        /* \"#utility.yul\":3903:3905   */\n      0x60\n        /* \"#utility.yul\":3891:3900   */\n      dup5\n        /* \"#utility.yul\":3882:3889   */\n      dup7\n        /* \"#utility.yul\":3878:3901   */\n      sub\n        /* \"#utility.yul\":3874:3906   */\n      slt\n        /* \"#utility.yul\":3871:3990   */\n      iszero\n      tag_217\n      jumpi\n        /* \"#utility.yul\":3909:3988   */\n      tag_218\n      tag_114\n      jump\t// in\n    tag_218:\n        /* \"#utility.yul\":3871:3990   */\n    tag_217:\n        /* \"#utility.yul\":4029:4030   */\n      0x00\n        /* \"#utility.yul\":4054:4107   */\n      tag_219\n        /* \"#utility.yul\":4099:4106   */\n      dup7\n        /* \"#utility.yul\":4090:4096   */\n      dup3\n        /* \"#utility.yul\":4079:4088   */\n      dup8\n        /* \"#utility.yul\":4075:4097   */\n      add\n        /* \"#utility.yul\":4054:4107   */\n      tag_122\n      jump\t// in\n    tag_219:\n        /* \"#utility.yul\":4044:4107   */\n      swap4\n      pop\n        /* \"#utility.yul\":4000:4117   */\n      pop\n        /* \"#utility.yul\":4156:4158   */\n      0x20\n        /* \"#utility.yul\":4182:4235   */\n      tag_220\n        /* \"#utility.yul\":4227:4234   */\n      dup7\n        /* \"#utility.yul\":4218:4224   */\n      dup3\n        /* \"#utility.yul\":4207:4216   */\n      dup8\n        /* \"#utility.yul\":4203:4225   */\n      add\n        /* \"#utility.yul\":4182:4235   */\n      tag_122\n      jump\t// in\n    tag_220:\n        /* \"#utility.yul\":4172:4235   */\n      swap3\n      pop\n        /* \"#utility.yul\":4127:4245   */\n      pop\n        /* \"#utility.yul\":4312:4314   */\n      0x40\n        /* \"#utility.yul\":4301:4310   */\n      dup5\n        /* \"#utility.yul\":4297:4315   */\n      add\n        /* \"#utility.yul\":4284:4316   */\n      calldataload\n        /* \"#utility.yul\":4343:4361   */\n      0xffffffffffffffff\n        /* \"#utility.yul\":4335:4341   */\n      dup2\n        /* \"#utility.yul\":4332:4362   */\n      gt\n        /* \"#utility.yul\":4329:4446   */\n      iszero\n      tag_221\n      jumpi\n        /* \"#utility.yul\":4365:4444   */\n      tag_222\n      tag_115\n      jump\t// in\n    tag_222:\n        /* \"#utility.yul\":4329:4446   */\n    tag_221:\n        /* \"#utility.yul\":4470:4533   */\n      tag_223\n        /* \"#utility.yul\":4525:4532   */\n      dup7\n        /* \"#utility.yul\":4516:4522   */\n      dup3\n        /* \"#utility.yul\":4505:4514   */\n      dup8\n        /* \"#utility.yul\":4501:4523   */\n      add\n        /* \"#utility.yul\":4470:4533   */\n      tag_131\n      jump\t// in\n    tag_223:\n        /* \"#utility.yul\":4460:4533   */\n      swap2\n      pop\n        /* \"#utility.yul\":4255:4543   */\n      pop\n        /* \"#utility.yul\":3751:4550   */\n      swap3\n      pop\n      swap3\n      pop\n      swap3\n      jump\t// out\n        /* \"#utility.yul\":4556:5175   */\n    tag_19:\n        /* \"#utility.yul\":4633:4639   */\n      0x00\n        /* \"#utility.yul\":4641:4647   */\n      dup1\n        /* \"#utility.yul\":4649:4655   */\n      0x00\n        /* \"#utility.yul\":4698:4700   */\n      0x60\n        /* \"#utility.yul\":4686:4695   */\n      dup5\n        /* \"#utility.yul\":4677:4684   */\n      dup7\n        /* \"#utility.yul\":4673:4696   */\n      sub\n        /* \"#utility.yul\":4669:4701   */\n      slt\n        /* \"#utility.yul\":4666:4785   */\n      iszero\n      tag_225\n      jumpi\n        /* \"#utility.yul\":4704:4783   */\n      tag_226\n      tag_114\n      jump\t// in\n    tag_226:\n        /* \"#utility.yul\":4666:4785   */\n    tag_225:\n        /* \"#utility.yul\":4824:4825   */\n      0x00\n        /* \"#utility.yul\":4849:4902   */\n      tag_227\n        /* \"#utility.yul\":4894:4901   */\n      dup7\n        /* \"#utility.yul\":4885:4891   */\n      dup3\n        /* \"#utility.yul\":4874:4883   */\n      dup8\n        /* \"#utility.yul\":4870:4892   */\n      add\n        /* \"#utility.yul\":4849:4902   */\n      tag_122\n      jump\t// in\n    tag_227:\n        /* \"#utility.yul\":4839:4902   */\n      swap4\n      pop\n        /* \"#utility.yul\":4795:4912   */\n      pop\n        /* \"#utility.yul\":4951:4953   */\n      0x20\n        /* \"#utility.yul\":4977:5030   */\n      tag_228\n        /* \"#utility.yul\":5022:5029   */\n      dup7\n        /* \"#utility.yul\":5013:5019   */\n      dup3\n        /* \"#utility.yul\":5002:5011   */\n      dup8\n        /* \"#utility.yul\":4998:5020   */\n      add\n        /* \"#utility.yul\":4977:5030   */\n      tag_122\n      jump\t// in\n    tag_228:\n        /* \"#utility.yul\":4967:5030   */\n      swap3\n      pop\n        /* \"#utility.yul\":4922:5040   */\n      pop\n        /* \"#utility.yul\":5079:5081   */\n      0x40\n        /* \"#utility.yul\":5105:5158   */\n      tag_229\n        /* \"#utility.yul\":5150:5157   */\n      dup7\n        /* \"#utility.yul\":5141:5147   */\n      dup3\n        /* \"#utility.yul\":5130:5139   */\n      dup8\n        /* \"#utility.yul\":5126:5148   */\n      add\n        /* \"#utility.yul\":5105:5158   */\n      tag_122\n      jump\t// in\n    tag_229:\n        /* \"#utility.yul\":5095:5158   */\n      swap2\n      pop\n        /* \"#utility.yul\":5050:5168   */\n      pop\n        /* \"#utility.yul\":4556:5175   */\n      swap3\n      pop\n      swap3\n      pop\n      swap3\n      jump\t// out\n        /* \"#utility.yul\":5181:5327   */\n    tag_132:\n        /* \"#utility.yul\":5280:5286   */\n      0x00\n        /* \"#utility.yul\":5314:5319   */\n      dup2\n        /* \"#utility.yul\":5308:5320   */\n      mload\n        /* \"#utility.yul\":5298:5320   */\n      swap1\n      pop\n        /* \"#utility.yul\":5181:5327   */\n      swap2\n      swap1\n      pop\n      jump\t// out\n        /* \"#utility.yul\":5333:5549   */\n    tag_133:\n        /* \"#utility.yul\":5464:5475   */\n      0x00\n        /* \"#utility.yul\":5498:5504   */\n      dup3\n        /* \"#utility.yul\":5493:5496   */\n      dup3\n        /* \"#utility.yul\":5486:5505   */\n      mstore\n        /* \"#utility.yul\":5538:5542   */\n      0x20\n        /* \"#utility.yul\":5533:5536   */\n      dup3\n        /* \"#utility.yul\":5529:5543   */\n      add\n        /* \"#utility.yul\":5514:5543   */\n      swap1\n      pop\n        /* \"#utility.yul\":5333:5549   */\n      swap3\n      swap2\n      pop\n      pop\n      jump\t// out\n        /* \"#utility.yul\":5555:5719   */\n    tag_134:\n        /* \"#utility.yul\":5654:5658   */\n      0x00\n        /* \"#utility.yul\":5677:5680   */\n      dup2\n        /* \"#utility.yul\":5669:5680   */\n      swap1\n      pop\n        /* \"#utility.yul\":5707:5711   */\n      0x20\n        /* \"#utility.yul\":5702:5705   */\n      dup3\n        /* \"#utility.yul\":5698:5712   */\n      add\n        /* \"#utility.yul\":5690:5712   */\n      swap1\n      pop\n        /* \"#utility.yul\":5555:5719   */\n      swap2\n      swap1\n      pop\n      jump\t// out\n        /* \"#utility.yul\":5725:5833   */\n    tag_135:\n        /* \"#utility.yul\":5802:5826   */\n      tag_234\n        /* \"#utility.yul\":5820:5825   */\n      dup2\n        /* \"#utility.yul\":5802:5826   */\n      tag_120\n      jump\t// in\n    tag_234:\n        /* \"#utility.yul\":5797:5800   */\n      dup3\n        /* \"#utility.yul\":5790:5827   */\n      mstore\n        /* \"#utility.yul\":5725:5833   */\n      pop\n      pop\n      jump\t// out\n        /* \"#utility.yul\":5839:5938   */\n    tag_136:\n        /* \"#utility.yul\":5891:5897   */\n      0x00\n        /* \"#utility.yul\":5925:5930   */\n      dup2\n        /* \"#utility.yul\":5919:5931   */\n      mload\n        /* \"#utility.yul\":5909:5931   */\n      swap1\n      pop\n        /* \"#utility.yul\":5839:5938   */\n      swap2\n      swap1\n      pop\n      jump\t// out\n        /* \"#utility.yul\":5944:6103   */\n    tag_137:\n        /* \"#utility.yul\":6018:6029   */\n      0x00\n        /* \"#utility.yul\":6052:6058   */\n      dup3\n        /* \"#utility.yul\":6047:6050   */\n      dup3\n        /* \"#utility.yul\":6040:6059   */\n      mstore\n        /* \"#utility.yul\":6092:6096   */\n      0x20\n        /* \"#utility.yul\":6087:6090   */\n      dup3\n        /* \"#utility.yul\":6083:6097   */\n      add\n        /* \"#utility.yul\":6068:6097   */\n      swap1\n      pop\n        /* \"#utility.yul\":5944:6103   */\n      swap3\n      swap2\n      pop\n      pop\n      jump\t// out\n        /* \"#utility.yul\":6109:6355   */\n    tag_138:\n        /* \"#utility.yul\":6190:6191   */\n      0x00\n        /* \"#utility.yul\":6200:6313   */\n    tag_238:\n        /* \"#utility.yul\":6214:6220   */\n      dup4\n        /* \"#utility.yul\":6211:6212   */\n      dup2\n        /* \"#utility.yul\":6208:6221   */\n      lt\n        /* \"#utility.yul\":6200:6313   */\n      iszero\n      tag_240\n      jumpi\n        /* \"#utility.yul\":6299:6300   */\n      dup1\n        /* \"#utility.yul\":6294:6297   */\n      dup3\n        /* \"#utility.yul\":6290:6301   */\n      add\n        /* \"#utility.yul\":6284:6302   */\n      mload\n        /* \"#utility.yul\":6280:6281   */\n      dup2\n        /* \"#utility.yul\":6275:6278   */\n      dup5\n        /* \"#utility.yul\":6271:6282   */\n      add\n        /* \"#utility.yul\":6264:6303   */\n      mstore\n        /* \"#utility.yul\":6236:6238   */\n      0x20\n        /* \"#utility.yul\":6233:6234   */\n      dup2\n        /* \"#utility.yul\":6229:6239   */\n      add\n        /* \"#utility.yul\":6224:6239   */\n      swap1\n      pop\n        /* \"#utility.yul\":6200:6313   */\n      jump(tag_238)\n    tag_240:\n        /* \"#utility.yul\":6347:6348   */\n      0x00\n        /* \"#utility.yul\":6338:6344   */\n      dup5\n        /* \"#utility.yul\":6333:6336   */\n      dup5\n        /* \"#utility.yul\":6329:6345   */\n      add\n        /* \"#utility.yul\":6322:6349   */\n      mstore\n        /* \"#utility.yul\":6171:6355   */\n      pop\n        /* \"#utility.yul\":6109:6355   */\n      pop\n      pop\n      pop\n      jump\t// out\n        /* \"#utility.yul\":6361:6718   */\n    tag_139:\n        /* \"#utility.yul\":6439:6442   */\n      0x00\n        /* \"#utility.yul\":6467:6506   */\n      tag_242\n        /* \"#utility.yul\":6500:6505   */\n      dup3\n        /* \"#utility.yul\":6467:6506   */\n      tag_136\n      jump\t// in\n    tag_242:\n        /* \"#utility.yul\":6522:6583   */\n      tag_243\n        /* \"#utility.yul\":6576:6582   */\n      dup2\n        /* \"#utility.yul\":6571:6574   */\n      dup6\n        /* \"#utility.yul\":6522:6583   */\n      tag_137\n      jump\t// in\n    tag_243:\n        /* \"#utility.yul\":6515:6583   */\n      swap4\n      pop\n        /* \"#utility.yul\":6592:6657   */\n      tag_244\n        /* \"#utility.yul\":6650:6656   */\n      dup2\n        /* \"#utility.yul\":6645:6648   */\n      dup6\n        /* \"#utility.yul\":6638:6642   */\n      0x20\n        /* \"#utility.yul\":6631:6636   */\n      dup7\n        /* \"#utility.yul\":6627:6643   */\n      add\n        /* \"#utility.yul\":6592:6657   */\n      tag_138\n      jump\t// in\n    tag_244:\n        /* \"#utility.yul\":6682:6711   */\n      tag_245\n        /* \"#utility.yul\":6704:6710   */\n      dup2\n        /* \"#utility.yul\":6682:6711   */\n      tag_125\n      jump\t// in\n    tag_245:\n        /* \"#utility.yul\":6677:6680   */\n      dup5\n        /* \"#utility.yul\":6673:6712   */\n      add\n        /* \"#utility.yul\":6666:6712   */\n      swap2\n      pop\n        /* \"#utility.yul\":6443:6718   */\n      pop\n        /* \"#utility.yul\":6361:6718   */\n      swap3\n      swap2\n      pop\n      pop\n      jump\t// out\n        /* \"#utility.yul\":6820:7795   */\n    tag_140:\n        /* \"#utility.yul\":6943:6946   */\n      0x00\n        /* \"#utility.yul\":6979:6983   */\n      0x80\n        /* \"#utility.yul\":6974:6977   */\n      dup4\n        /* \"#utility.yul\":6970:6984   */\n      add\n        /* \"#utility.yul\":7072:7076   */\n      0x00\n        /* \"#utility.yul\":7065:7070   */\n      dup4\n        /* \"#utility.yul\":7061:7077   */\n      add\n        /* \"#utility.yul\":7055:7078   */\n      mload\n        /* \"#utility.yul\":7091:7154   */\n      tag_247\n        /* \"#utility.yul\":7148:7152   */\n      0x00\n        /* \"#utility.yul\":7143:7146   */\n      dup7\n        /* \"#utility.yul\":7139:7153   */\n      add\n        /* \"#utility.yul\":7125:7137   */\n      dup3\n        /* \"#utility.yul\":7091:7154   */\n      tag_135\n      jump\t// in\n    tag_247:\n        /* \"#utility.yul\":6994:7164   */\n      pop\n        /* \"#utility.yul\":7247:7251   */\n      0x20\n        /* \"#utility.yul\":7240:7245   */\n      dup4\n        /* \"#utility.yul\":7236:7252   */\n      add\n        /* \"#utility.yul\":7230:7253   */\n      mload\n        /* \"#utility.yul\":7266:7329   */\n      tag_248\n        /* \"#utility.yul\":7323:7327   */\n      0x20\n        /* \"#utility.yul\":7318:7321   */\n      dup7\n        /* \"#utility.yul\":7314:7328   */\n      add\n        /* \"#utility.yul\":7300:7312   */\n      dup3\n        /* \"#utility.yul\":7266:7329   */\n      tag_135\n      jump\t// in\n    tag_248:\n        /* \"#utility.yul\":7174:7339   */\n      pop\n        /* \"#utility.yul\":7428:7432   */\n      0x40\n        /* \"#utility.yul\":7421:7426   */\n      dup4\n        /* \"#utility.yul\":7417:7433   */\n      add\n        /* \"#utility.yul\":7411:7434   */\n      mload\n        /* \"#utility.yul\":7447:7510   */\n      tag_249\n        /* \"#utility.yul\":7504:7508   */\n      0x40\n        /* \"#utility.yul\":7499:7502   */\n      dup7\n        /* \"#utility.yul\":7495:7509   */\n      add\n        /* \"#utility.yul\":7481:7493   */\n      dup3\n        /* \"#utility.yul\":7447:7510   */\n      tag_135\n      jump\t// in\n    tag_249:\n        /* \"#utility.yul\":7349:7520   */\n      pop\n        /* \"#utility.yul\":7605:7609   */\n      0x60\n        /* \"#utility.yul\":7598:7603   */\n      dup4\n        /* \"#utility.yul\":7594:7610   */\n      add\n        /* \"#utility.yul\":7588:7611   */\n      mload\n        /* \"#utility.yul\":7658:7661   */\n      dup5\n        /* \"#utility.yul\":7652:7656   */\n      dup3\n        /* \"#utility.yul\":7648:7662   */\n      sub\n        /* \"#utility.yul\":7641:7645   */\n      0x60\n        /* \"#utility.yul\":7636:7639   */\n      dup7\n        /* \"#utility.yul\":7632:7646   */\n      add\n        /* \"#utility.yul\":7625:7663   */\n      mstore\n        /* \"#utility.yul\":7684:7757   */\n      tag_250\n        /* \"#utility.yul\":7752:7756   */\n      dup3\n        /* \"#utility.yul\":7738:7750   */\n      dup3\n        /* \"#utility.yul\":7684:7757   */\n      tag_139\n      jump\t// in\n    tag_250:\n        /* \"#utility.yul\":7676:7757   */\n      swap2\n      pop\n        /* \"#utility.yul\":7530:7768   */\n      pop\n        /* \"#utility.yul\":7785:7789   */\n      dup1\n        /* \"#utility.yul\":7778:7789   */\n      swap2\n      pop\n        /* \"#utility.yul\":6948:7795   */\n      pop\n        /* \"#utility.yul\":6820:7795   */\n      swap3\n      swap2\n      pop\n      pop\n      jump\t// out\n        /* \"#utility.yul\":7801:8085   */\n    tag_141:\n        /* \"#utility.yul\":7934:7944   */\n      0x00\n        /* \"#utility.yul\":7969:8079   */\n      tag_252\n        /* \"#utility.yul\":8075:8078   */\n      dup4\n        /* \"#utility.yul\":8067:8073   */\n      dup4\n        /* \"#utility.yul\":7969:8079   */\n      tag_140\n      jump\t// in\n    tag_252:\n        /* \"#utility.yul\":7955:8079   */\n      swap1\n      pop\n        /* \"#utility.yul\":7801:8085   */\n      swap3\n      swap2\n      pop\n      pop\n      jump\t// out\n        /* \"#utility.yul\":8091:8236   */\n    tag_142:\n        /* \"#utility.yul\":8193:8197   */\n      0x00\n        /* \"#utility.yul\":8225:8229   */\n      0x20\n        /* \"#utility.yul\":8220:8223   */\n      dup3\n        /* \"#utility.yul\":8216:8230   */\n      add\n        /* \"#utility.yul\":8208:8230   */\n      swap1\n      pop\n        /* \"#utility.yul\":8091:8236   */\n      swap2\n      swap1\n      pop\n      jump\t// out\n        /* \"#utility.yul\":8342:9509   */\n    tag_143:\n        /* \"#utility.yul\":8525:8528   */\n      0x00\n        /* \"#utility.yul\":8554:8640   */\n      tag_255\n        /* \"#utility.yul\":8634:8639   */\n      dup3\n        /* \"#utility.yul\":8554:8640   */\n      tag_132\n      jump\t// in\n    tag_255:\n        /* \"#utility.yul\":8656:8774   */\n      tag_256\n        /* \"#utility.yul\":8767:8773   */\n      dup2\n        /* \"#utility.yul\":8762:8765   */\n      dup6\n        /* \"#utility.yul\":8656:8774   */\n      tag_133\n      jump\t// in\n    tag_256:\n        /* \"#utility.yul\":8649:8774   */\n      swap4\n      pop\n        /* \"#utility.yul\":8800:8803   */\n      dup4\n        /* \"#utility.yul\":8845:8849   */\n      0x20\n        /* \"#utility.yul\":8837:8843   */\n      dup3\n        /* \"#utility.yul\":8833:8850   */\n      mul\n        /* \"#utility.yul\":8828:8831   */\n      dup6\n        /* \"#utility.yul\":8824:8851   */\n      add\n        /* \"#utility.yul\":8875:8963   */\n      tag_257\n        /* \"#utility.yul\":8957:8962   */\n      dup6\n        /* \"#utility.yul\":8875:8963   */\n      tag_134\n      jump\t// in\n    tag_257:\n        /* \"#utility.yul\":8986:8993   */\n      dup1\n        /* \"#utility.yul\":9017:9018   */\n      0x00\n        /* \"#utility.yul\":9002:9464   */\n    tag_258:\n        /* \"#utility.yul\":9027:9033   */\n      dup6\n        /* \"#utility.yul\":9024:9025   */\n      dup2\n        /* \"#utility.yul\":9021:9034   */\n      lt\n        /* \"#utility.yul\":9002:9464   */\n      iszero\n      tag_260\n      jumpi\n        /* \"#utility.yul\":9098:9107   */\n      dup5\n        /* \"#utility.yul\":9092:9096   */\n      dup5\n        /* \"#utility.yul\":9088:9108   */\n      sub\n        /* \"#utility.yul\":9083:9086   */\n      dup10\n        /* \"#utility.yul\":9076:9109   */\n      mstore\n        /* \"#utility.yul\":9149:9155   */\n      dup2\n        /* \"#utility.yul\":9143:9156   */\n      mload\n        /* \"#utility.yul\":9177:9305   */\n      tag_261\n        /* \"#utility.yul\":9300:9304   */\n      dup6\n        /* \"#utility.yul\":9285:9298   */\n      dup3\n        /* \"#utility.yul\":9177:9305   */\n      tag_141\n      jump\t// in\n    tag_261:\n        /* \"#utility.yul\":9169:9305   */\n      swap5\n      pop\n        /* \"#utility.yul\":9328:9420   */\n      tag_262\n        /* \"#utility.yul\":9413:9419   */\n      dup4\n        /* \"#utility.yul\":9328:9420   */\n      tag_142\n      jump\t// in\n    tag_262:\n        /* \"#utility.yul\":9318:9420   */\n      swap3\n      pop\n        /* \"#utility.yul\":9449:9453   */\n      0x20\n        /* \"#utility.yul\":9444:9447   */\n      dup11\n        /* \"#utility.yul\":9440:9454   */\n      add\n        /* \"#utility.yul\":9433:9454   */\n      swap10\n      pop\n        /* \"#utility.yul\":9062:9464   */\n      pop\n        /* \"#utility.yul\":9049:9050   */\n      0x01\n        /* \"#utility.yul\":9046:9047   */\n      dup2\n        /* \"#utility.yul\":9042:9051   */\n      add\n        /* \"#utility.yul\":9037:9051   */\n      swap1\n      pop\n        /* \"#utility.yul\":9002:9464   */\n      jump(tag_258)\n    tag_260:\n        /* \"#utility.yul\":9006:9020   */\n      pop\n        /* \"#utility.yul\":9480:9484   */\n      dup3\n        /* \"#utility.yul\":9473:9484   */\n      swap8\n      pop\n        /* \"#utility.yul\":9500:9503   */\n      dup8\n        /* \"#utility.yul\":9493:9503   */\n      swap6\n      pop\n        /* \"#utility.yul\":8530:9509   */\n      pop\n      pop\n      pop\n      pop\n      pop\n        /* \"#utility.yul\":8342:9509   */\n      swap3\n      swap2\n      pop\n      pop\n      jump\t// out\n        /* \"#utility.yul\":9515:10016   */\n    tag_22:\n        /* \"#utility.yul\":9722:9726   */\n      0x00\n        /* \"#utility.yul\":9760:9762   */\n      0x20\n        /* \"#utility.yul\":9749:9758   */\n      dup3\n        /* \"#utility.yul\":9745:9763   */\n      add\n        /* \"#utility.yul\":9737:9763   */\n      swap1\n      pop\n        /* \"#utility.yul\":9809:9818   */\n      dup2\n        /* \"#utility.yul\":9803:9807   */\n      dup2\n        /* \"#utility.yul\":9799:9819   */\n      sub\n        /* \"#utility.yul\":9795:9796   */\n      0x00\n        /* \"#utility.yul\":9784:9793   */\n      dup4\n        /* \"#utility.yul\":9780:9797   */\n      add\n        /* \"#utility.yul\":9773:9820   */\n      mstore\n        /* \"#utility.yul\":9837:10009   */\n      tag_264\n        /* \"#utility.yul\":10004:10008   */\n      dup2\n        /* \"#utility.yul\":9995:10001   */\n      dup5\n        /* \"#utility.yul\":9837:10009   */\n      tag_143\n      jump\t// in\n    tag_264:\n        /* \"#utility.yul\":9829:10009   */\n      swap1\n      pop\n        /* \"#utility.yul\":9515:10016   */\n      swap3\n      swap2\n      pop\n      pop\n      jump\t// out\n        /* \"#utility.yul\":10022:10967   */\n    tag_28:\n        /* \"#utility.yul\":10118:10124   */\n      0x00\n        /* \"#utility.yul\":10126:10132   */\n      dup1\n        /* \"#utility.yul\":10134:10140   */\n      0x00\n        /* \"#utility.yul\":10142:10148   */\n      dup1\n        /* \"#utility.yul\":10191:10194   */\n      0x80\n        /* \"#utility.yul\":10179:10188   */\n      dup6\n        /* \"#utility.yul\":10170:10177   */\n      dup8\n        /* \"#utility.yul\":10166:10189   */\n      sub\n        /* \"#utility.yul\":10162:10195   */\n      slt\n        /* \"#utility.yul\":10159:10279   */\n      iszero\n      tag_266\n      jumpi\n        /* \"#utility.yul\":10198:10277   */\n      tag_267\n      tag_114\n      jump\t// in\n    tag_267:\n        /* \"#utility.yul\":10159:10279   */\n    tag_266:\n        /* \"#utility.yul\":10318:10319   */\n      0x00\n        /* \"#utility.yul\":10343:10396   */\n      tag_268\n        /* \"#utility.yul\":10388:10395   */\n      dup8\n        /* \"#utility.yul\":10379:10385   */\n      dup3\n        /* \"#utility.yul\":10368:10377   */\n      dup9\n        /* \"#utility.yul\":10364:10386   */\n      add\n        /* \"#utility.yul\":10343:10396   */\n      tag_122\n      jump\t// in\n    tag_268:\n        /* \"#utility.yul\":10333:10396   */\n      swap5\n      pop\n        /* \"#utility.yul\":10289:10406   */\n      pop\n        /* \"#utility.yul\":10445:10447   */\n      0x20\n        /* \"#utility.yul\":10471:10524   */\n      tag_269\n        /* \"#utility.yul\":10516:10523   */\n      dup8\n        /* \"#utility.yul\":10507:10513   */\n      dup3\n        /* \"#utility.yul\":10496:10505   */\n      dup9\n        /* \"#utility.yul\":10492:10514   */\n      add\n        /* \"#utility.yul\":10471:10524   */\n      tag_122\n      jump\t// in\n    tag_269:\n        /* \"#utility.yul\":10461:10524   */\n      swap4\n      pop\n        /* \"#utility.yul\":10416:10534   */\n      pop\n        /* \"#utility.yul\":10573:10575   */\n      0x40\n        /* \"#utility.yul\":10599:10652   */\n      tag_270\n        /* \"#utility.yul\":10644:10651   */\n      dup8\n        /* \"#utility.yul\":10635:10641   */\n      dup3\n        /* \"#utility.yul\":10624:10633   */\n      dup9\n        /* \"#utility.yul\":10620:10642   */\n      add\n        /* \"#utility.yul\":10599:10652   */\n      tag_122\n      jump\t// in\n    tag_270:\n        /* \"#utility.yul\":10589:10652   */\n      swap3\n      pop\n        /* \"#utility.yul\":10544:10662   */\n      pop\n        /* \"#utility.yul\":10729:10731   */\n      0x60\n        /* \"#utility.yul\":10718:10727   */\n      dup6\n        /* \"#utility.yul\":10714:10732   */\n      add\n        /* \"#utility.yul\":10701:10733   */\n      calldataload\n        /* \"#utility.yul\":10760:10778   */\n      0xffffffffffffffff\n        /* \"#utility.yul\":10752:10758   */\n      dup2\n        /* \"#utility.yul\":10749:10779   */\n      gt\n        /* \"#utility.yul\":10746:10863   */\n      iszero\n      tag_271\n      jumpi\n        /* \"#utility.yul\":10782:10861   */\n      tag_272\n      tag_115\n      jump\t// in\n    tag_272:\n        /* \"#utility.yul\":10746:10863   */\n    tag_271:\n        /* \"#utility.yul\":10887:10950   */\n      tag_273\n        /* \"#utility.yul\":10942:10949   */\n      dup8\n        /* \"#utility.yul\":10933:10939   */\n      dup3\n        /* \"#utility.yul\":10922:10931   */\n      dup9\n        /* \"#utility.yul\":10918:10940   */\n      add\n        /* \"#utility.yul\":10887:10950   */\n      tag_131\n      jump\t// in\n    tag_273:\n        /* \"#utility.yul\":10877:10950   */\n      swap2\n      pop\n        /* \"#utility.yul\":10672:10960   */\n      pop\n        /* \"#utility.yul\":10022:10967   */\n      swap3\n      swap6\n      swap2\n      swap5\n      pop\n      swap3\n      pop\n      jump\t// out\n        /* \"#utility.yul\":10973:11302   */\n    tag_32:\n        /* \"#utility.yul\":11032:11038   */\n      0x00\n        /* \"#utility.yul\":11081:11083   */\n      0x20\n        /* \"#utility.yul\":11069:11078   */\n      dup3\n        /* \"#utility.yul\":11060:11067   */\n      dup5\n        /* \"#utility.yul\":11056:11079   */\n      sub\n        /* \"#utility.yul\":11052:11084   */\n      slt\n        /* \"#utility.yul\":11049:11168   */\n      iszero\n      tag_275\n      jumpi\n        /* \"#utility.yul\":11087:11166   */\n      tag_276\n      tag_114\n      jump\t// in\n    tag_276:\n        /* \"#utility.yul\":11049:11168   */\n    tag_275:\n        /* \"#utility.yul\":11207:11208   */\n      0x00\n        /* \"#utility.yul\":11232:11285   */\n      tag_277\n        /* \"#utility.yul\":11277:11284   */\n      dup5\n        /* \"#utility.yul\":11268:11274   */\n      dup3\n        /* \"#utility.yul\":11257:11266   */\n      dup6\n        /* \"#utility.yul\":11253:11275   */\n      add\n        /* \"#utility.yul\":11232:11285   */\n      tag_122\n      jump\t// in\n    tag_277:\n        /* \"#utility.yul\":11222:11285   */\n      swap2\n      pop\n        /* \"#utility.yul\":11178:11295   */\n      pop\n        /* \"#utility.yul\":10973:11302   */\n      swap3\n      swap2\n      pop\n      pop\n      jump\t// out\n        /* \"#utility.yul\":11308:11477   */\n    tag_144:\n        /* \"#utility.yul\":11392:11403   */\n      0x00\n        /* \"#utility.yul\":11426:11432   */\n      dup3\n        /* \"#utility.yul\":11421:11424   */\n      dup3\n        /* \"#utility.yul\":11414:11433   */\n      mstore\n        /* \"#utility.yul\":11466:11470   */\n      0x20\n        /* \"#utility.yul\":11461:11464   */\n      dup3\n        /* \"#utility.yul\":11457:11471   */\n      add\n        /* \"#utility.yul\":11442:11471   */\n      swap1\n      pop\n        /* \"#utility.yul\":11308:11477   */\n      swap3\n      swap2\n      pop\n      pop\n      jump\t// out\n        /* \"#utility.yul\":11483:11652   */\n    tag_145:\n        /* \"#utility.yul\":11623:11644   */\n      0x556e617574686f72697a65642061636365737300000000000000000000000000\n        /* \"#utility.yul\":11619:11620   */\n      0x00\n        /* \"#utility.yul\":11611:11617   */\n      dup3\n        /* \"#utility.yul\":11607:11621   */\n      add\n        /* \"#utility.yul\":11600:11645   */\n      mstore\n        /* \"#utility.yul\":11483:11652   */\n      pop\n      jump\t// out\n        /* \"#utility.yul\":11658:12024   */\n    tag_146:\n        /* \"#utility.yul\":11800:11803   */\n      0x00\n        /* \"#utility.yul\":11821:11888   */\n      tag_281\n        /* \"#utility.yul\":11885:11887   */\n      0x13\n        /* \"#utility.yul\":11880:11883   */\n      dup4\n        /* \"#utility.yul\":11821:11888   */\n      tag_144\n      jump\t// in\n    tag_281:\n        /* \"#utility.yul\":11814:11888   */\n      swap2\n      pop\n        /* \"#utility.yul\":11897:11990   */\n      tag_282\n        /* \"#utility.yul\":11986:11989   */\n      dup3\n        /* \"#utility.yul\":11897:11990   */\n      tag_145\n      jump\t// in\n    tag_282:\n        /* \"#utility.yul\":12015:12017   */\n      0x20\n        /* \"#utility.yul\":12010:12013   */\n      dup3\n        /* \"#utility.yul\":12006:12018   */\n      add\n        /* \"#utility.yul\":11999:12018   */\n      swap1\n      pop\n        /* \"#utility.yul\":11658:12024   */\n      swap2\n      swap1\n      pop\n      jump\t// out\n        /* \"#utility.yul\":12030:12449   */\n    tag_38:\n        /* \"#utility.yul\":12196:12200   */\n      0x00\n        /* \"#utility.yul\":12234:12236   */\n      0x20\n        /* \"#utility.yul\":12223:12232   */\n      dup3\n        /* \"#utility.yul\":12219:12237   */\n      add\n        /* \"#utility.yul\":12211:12237   */\n      swap1\n      pop\n        /* \"#utility.yul\":12283:12292   */\n      dup2\n        /* \"#utility.yul\":12277:12281   */\n      dup2\n        /* \"#utility.yul\":12273:12293   */\n      sub\n        /* \"#utility.yul\":12269:12270   */\n      0x00\n        /* \"#utility.yul\":12258:12267   */\n      dup4\n        /* \"#utility.yul\":12254:12271   */\n      add\n        /* \"#utility.yul\":12247:12294   */\n      mstore\n        /* \"#utility.yul\":12311:12442   */\n      tag_284\n        /* \"#utility.yul\":12437:12441   */\n      dup2\n        /* \"#utility.yul\":12311:12442   */\n      tag_146\n      jump\t// in\n    tag_284:\n        /* \"#utility.yul\":12303:12442   */\n      swap1\n      pop\n        /* \"#utility.yul\":12030:12449   */\n      swap2\n      swap1\n      pop\n      jump\t// out\n        /* \"#utility.yul\":12455:12635   */\n    tag_147:\n        /* \"#utility.yul\":12503:12580   */\n      0x4e487b7100000000000000000000000000000000000000000000000000000000\n        /* \"#utility.yul\":12500:12501   */\n      0x00\n        /* \"#utility.yul\":12493:12581   */\n      mstore\n        /* \"#utility.yul\":12600:12604   */\n      0x11\n        /* \"#utility.yul\":12597:12598   */\n      0x04\n        /* \"#utility.yul\":12590:12605   */\n      mstore\n        /* \"#utility.yul\":12624:12628   */\n      0x24\n        /* \"#utility.yul\":12621:12622   */\n      0x00\n        /* \"#utility.yul\":12614:12629   */\n      revert\n        /* \"#utility.yul\":12641:12874   */\n    tag_41:\n        /* \"#utility.yul\":12680:12683   */\n      0x00\n        /* \"#utility.yul\":12703:12727   */\n      tag_287\n        /* \"#utility.yul\":12721:12726   */\n      dup3\n        /* \"#utility.yul\":12703:12727   */\n      tag_120\n      jump\t// in\n    tag_287:\n        /* \"#utility.yul\":12694:12727   */\n      swap2\n      pop\n        /* \"#utility.yul\":12749:12815   */\n      0xffffffffffffffffffffffffffffffffffffffffffffffffffffffffffffffff\n        /* \"#utility.yul\":12742:12747   */\n      dup3\n        /* \"#utility.yul\":12739:12816   */\n      sub\n        /* \"#utility.yul\":12736:12839   */\n      tag_288\n      jumpi\n        /* \"#utility.yul\":12819:12837   */\n      tag_289\n      tag_147\n      jump\t// in\n    tag_289:\n        /* \"#utility.yul\":12736:12839   */\n    tag_288:\n        /* \"#utility.yul\":12866:12867   */\n      0x01\n        /* \"#utility.yul\":12859:12864   */\n      dup3\n        /* \"#utility.yul\":12855:12868   */\n      add\n        /* \"#utility.yul\":12848:12868   */\n      swap1\n      pop\n        /* \"#utility.yul\":12641:12874   */\n      swap2\n      swap1\n      pop\n      jump\t// out\n        /* \"#utility.yul\":12880:13060   */\n    tag_148:\n        /* \"#utility.yul\":12928:13005   */\n      0x4e487b7100000000000000000000000000000000000000000000000000000000\n        /* \"#utility.yul\":12925:12926   */\n      0x00\n        /* \"#utility.yul\":12918:13006   */\n      mstore\n        /* \"#utility.yul\":13025:13029   */\n      0x22\n        /* \"#utility.yul\":13022:13023   */\n      0x04\n        /* \"#utility.yul\":13015:13030   */\n      mstore\n        /* \"#utility.yul\":13049:13053   */\n      0x24\n        /* \"#utility.yul\":13046:13047   */\n      0x00\n        /* \"#utility.yul\":13039:13054   */\n      revert\n        /* \"#utility.yul\":13066:13386   */\n    tag_58:\n        /* \"#utility.yul\":13110:13116   */\n      0x00\n        /* \"#utility.yul\":13147:13148   */\n      0x02\n        /* \"#utility.yul\":13141:13145   */\n      dup3\n        /* \"#utility.yul\":13137:13149   */\n      div\n        /* \"#utility.yul\":13127:13149   */\n      swap1\n      pop\n        /* \"#utility.yul\":13194:13195   */\n      0x01\n        /* \"#utility.yul\":13188:13192   */\n      dup3\n        /* \"#utility.yul\":13184:13196   */\n      and\n        /* \"#utility.yul\":13215:13233   */\n      dup1\n        /* \"#utility.yul\":13205:13286   */\n      tag_292\n      jumpi\n        /* \"#utility.yul\":13271:13275   */\n      0x7f\n        /* \"#utility.yul\":13263:13269   */\n      dup3\n        /* \"#utility.yul\":13259:13276   */\n      and\n        /* \"#utility.yul\":13249:13276   */\n      swap2\n      pop\n        /* \"#utility.yul\":13205:13286   */\n    tag_292:\n        /* \"#utility.yul\":13333:13335   */\n      0x20\n        /* \"#utility.yul\":13325:13331   */\n      dup3\n        /* \"#utility.yul\":13322:13336   */\n      lt\n        /* \"#utility.yul\":13302:13320   */\n      dup2\n        /* \"#utility.yul\":13299:13337   */\n      sub\n        /* \"#utility.yul\":13296:13380   */\n      tag_293\n      jumpi\n        /* \"#utility.yul\":13352:13370   */\n      tag_294\n      tag_148\n      jump\t// in\n    tag_294:\n        /* \"#utility.yul\":13296:13380   */\n    tag_293:\n        /* \"#utility.yul\":13117:13386   */\n      pop\n        /* \"#utility.yul\":13066:13386   */\n      swap2\n      swap1\n      pop\n      jump\t// out\n        /* \"#utility.yul\":13392:13533   */\n    tag_149:\n        /* \"#utility.yul\":13441:13445   */\n      0x00\n        /* \"#utility.yul\":13464:13467   */\n      dup2\n        /* \"#utility.yul\":13456:13467   */\n      swap1\n      pop\n        /* \"#utility.yul\":13487:13490   */\n      dup2\n        /* \"#utility.yul\":13484:13485   */\n      0x00\n        /* \"#utility.yul\":13477:13491   */\n      mstore\n        /* \"#utility.yul\":13521:13525   */\n      0x20\n        /* \"#utility.yul\":13518:13519   */\n      0x00\n        /* \"#utility.yul\":13508:13526   */\n      keccak256\n        /* \"#utility.yul\":13500:13526   */\n      swap1\n      pop\n        /* \"#utility.yul\":13392:13533   */\n      swap2\n      swap1\n      pop\n      jump\t// out\n        /* \"#utility.yul\":13539:13632   */\n    tag_150:\n        /* \"#utility.yul\":13576:13582   */\n      0x00\n        /* \"#utility.yul\":13623:13625   */\n      0x20\n        /* \"#utility.yul\":13618:13620   */\n      0x1f\n        /* \"#utility.yul\":13611:13616   */\n      dup4\n        /* \"#utility.yul\":13607:13621   */\n      add\n        /* \"#utility.yul\":13603:13626   */\n      div\n        /* \"#utility.yul\":13593:13626   */\n      swap1\n      pop\n        /* \"#utility.yul\":13539:13632   */\n      swap2\n      swap1\n      pop\n      jump\t// out\n        /* \"#utility.yul\":13638:13745   */\n    tag_151:\n        /* \"#utility.yul\":13682:13690   */\n      0x00\n        /* \"#utility.yul\":13732:13737   */\n      dup3\n        /* \"#utility.yul\":13726:13730   */\n      dup3\n        /* \"#utility.yul\":13722:13738   */\n      shl\n        /* \"#utility.yul\":13701:13738   */\n      swap1\n      pop\n        /* \"#utility.yul\":13638:13745   */\n      swap3\n      swap2\n      pop\n      pop\n      jump\t// out\n        /* \"#utility.yul\":13751:14144   */\n    tag_152:\n        /* \"#utility.yul\":13820:13826   */\n      0x00\n        /* \"#utility.yul\":13870:13871   */\n      0x08\n        /* \"#utility.yul\":13858:13868   */\n      dup4\n        /* \"#utility.yul\":13854:13872   */\n      mul\n        /* \"#utility.yul\":13893:13990   */\n      tag_299\n        /* \"#utility.yul\":13923:13989   */\n      0xffffffffffffffffffffffffffffffffffffffffffffffffffffffffffffffff\n        /* \"#utility.yul\":13912:13921   */\n      dup3\n        /* \"#utility.yul\":13893:13990   */\n      tag_151\n      jump\t// in\n    tag_299:\n        /* \"#utility.yul\":14011:14050   */\n      tag_300\n        /* \"#utility.yul\":14041:14049   */\n      dup7\n        /* \"#utility.yul\":14030:14039   */\n      dup4\n        /* \"#utility.yul\":14011:14050   */\n      tag_151\n      jump\t// in\n    tag_300:\n        /* \"#utility.yul\":13999:14050   */\n      swap6\n      pop\n        /* \"#utility.yul\":14083:14087   */\n      dup1\n        /* \"#utility.yul\":14079:14088   */\n      not\n        /* \"#utility.yul\":14072:14077   */\n      dup5\n        /* \"#utility.yul\":14068:14089   */\n      and\n        /* \"#utility.yul\":14059:14089   */\n      swap4\n      pop\n        /* \"#utility.yul\":14132:14136   */\n      dup1\n        /* \"#utility.yul\":14122:14130   */\n      dup7\n        /* \"#utility.yul\":14118:14137   */\n      and\n        /* \"#utility.yul\":14111:14116   */\n      dup5\n        /* \"#utility.yul\":14108:14138   */\n      or\n        /* \"#utility.yul\":14098:14138   */\n      swap3\n      pop\n        /* \"#utility.yul\":13827:14144   */\n      pop\n      pop\n        /* \"#utility.yul\":13751:14144   */\n      swap4\n      swap3\n      pop\n      pop\n      pop\n      jump\t// out\n        /* \"#utility.yul\":14150:14210   */\n    tag_153:\n        /* \"#utility.yul\":14178:14181   */\n      0x00\n        /* \"#utility.yul\":14199:14204   */\n      dup2\n        /* \"#utility.yul\":14192:14204   */\n      swap1\n      pop\n        /* \"#utility.yul\":14150:14210   */\n      swap2\n      swap1\n      pop\n      jump\t// out\n        /* \"#utility.yul\":14216:14358   */\n    tag_154:\n        /* \"#utility.yul\":14266:14275   */\n      0x00\n        /* \"#utility.yul\":14299:14352   */\n      tag_303\n        /* \"#utility.yul\":14317:14351   */\n      tag_304\n        /* \"#utility.yul\":14326:14350   */\n      tag_305\n        /* \"#utility.yul\":14344:14349   */\n      dup5\n        /* \"#utility.yul\":14326:14350   */\n      tag_120\n      jump\t// in\n    tag_305:\n        /* \"#utility.yul\":14317:14351   */\n      tag_153\n      jump\t// in\n    tag_304:\n        /* \"#utility.yul\":14299:14352   */\n      tag_120\n      jump\t// in\n    tag_303:\n        /* \"#utility.yul\":14286:14352   */\n      swap1\n      pop\n        /* \"#utility.yul\":14216:14358   */\n      swap2\n      swap1\n      pop\n      jump\t// out\n        /* \"#utility.yul\":14364:14439   */\n    tag_155:\n        /* \"#utility.yul\":14407:14410   */\n      0x00\n        /* \"#utility.yul\":14428:14433   */\n      dup2\n        /* \"#utility.yul\":14421:14433   */\n      swap1\n      pop\n        /* \"#utility.yul\":14364:14439   */\n      swap2\n      swap1\n      pop\n      jump\t// out\n        /* \"#utility.yul\":14445:14714   */\n    tag_156:\n        /* \"#utility.yul\":14555:14594   */\n      tag_308\n        /* \"#utility.yul\":14586:14593   */\n      dup4\n        /* \"#utility.yul\":14555:14594   */\n      tag_154\n      jump\t// in\n    tag_308:\n        /* \"#utility.yul\":14616:14707   */\n      tag_309\n        /* \"#utility.yul\":14665:14706   */\n      tag_310\n        /* \"#utility.yul\":14689:14705   */\n      dup3\n        /* \"#utility.yul\":14665:14706   */\n      tag_155\n      jump\t// in\n    tag_310:\n        /* \"#utility.yul\":14657:14663   */\n      dup5\n        /* \"#utility.yul\":14650:14654   */\n      dup5\n        /* \"#utility.yul\":14644:14655   */\n      sload\n        /* \"#utility.yul\":14616:14707   */\n      tag_152\n      jump\t// in\n    tag_309:\n        /* \"#utility.yul\":14610:14614   */\n      dup3\n        /* \"#utility.yul\":14603:14708   */\n      sstore\n        /* \"#utility.yul\":14521:14714   */\n      pop\n        /* \"#utility.yul\":14445:14714   */\n      pop\n      pop\n      pop\n      jump\t// out\n        /* \"#utility.yul\":14720:14793   */\n    tag_157:\n        /* \"#utility.yul\":14765:14768   */\n      0x00\n        /* \"#utility.yul\":14720:14793   */\n      swap1\n      jump\t// out\n        /* \"#utility.yul\":14799:14988   */\n    tag_158:\n        /* \"#utility.yul\":14876:14908   */\n      tag_313\n      tag_157\n      jump\t// in\n    tag_313:\n        /* \"#utility.yul\":14917:14982   */\n      tag_314\n        /* \"#utility.yul\":14975:14981   */\n      dup2\n        /* \"#utility.yul\":14967:14973   */\n      dup5\n        /* \"#utility.yul\":14961:14965   */\n      dup5\n        /* \"#utility.yul\":14917:14982   */\n      tag_156\n      jump\t// in\n    tag_314:\n        /* \"#utility.yul\":14852:14988   */\n      pop\n        /* \"#utility.yul\":14799:14988   */\n      pop\n      pop\n      jump\t// out\n        /* \"#utility.yul\":14994:15180   */\n    tag_159:\n        /* \"#utility.yul\":15054:15174   */\n    tag_316:\n        /* \"#utility.yul\":15071:15074   */\n      dup2\n        /* \"#utility.yul\":15064:15069   */\n      dup2\n        /* \"#utility.yul\":15061:15075   */\n      lt\n        /* \"#utility.yul\":15054:15174   */\n      iszero\n      tag_318\n      jumpi\n        /* \"#utility.yul\":15125:15164   */\n      tag_319\n        /* \"#utility.yul\":15162:15163   */\n      0x00\n        /* \"#utility.yul\":15155:15160   */\n      dup3\n        /* \"#utility.yul\":15125:15164   */\n      tag_158\n      jump\t// in\n    tag_319:\n        /* \"#utility.yul\":15098:15099   */\n      0x01\n        /* \"#utility.yul\":15091:15096   */\n      dup2\n        /* \"#utility.yul\":15087:15100   */\n      add\n        /* \"#utility.yul\":15078:15100   */\n      swap1\n      pop\n        /* \"#utility.yul\":15054:15174   */\n      jump(tag_316)\n    tag_318:\n        /* \"#utility.yul\":14994:15180   */\n      pop\n      pop\n      jump\t// out\n        /* \"#utility.yul\":15186:15729   */\n    tag_160:\n        /* \"#utility.yul\":15287:15289   */\n      0x1f\n        /* \"#utility.yul\":15282:15285   */\n      dup3\n        /* \"#utility.yul\":15279:15290   */\n      gt\n        /* \"#utility.yul\":15276:15722   */\n      iszero\n      tag_321\n      jumpi\n        /* \"#utility.yul\":15321:15359   */\n      tag_322\n        /* \"#utility.yul\":15353:15358   */\n      dup2\n        /* \"#utility.yul\":15321:15359   */\n      tag_149\n      jump\t// in\n    tag_322:\n        /* \"#utility.yul\":15405:15434   */\n      tag_323\n        /* \"#utility.yul\":15423:15433   */\n      dup5\n        /* \"#utility.yul\":15405:15434   */\n      tag_150\n      jump\t// in\n    tag_323:\n        /* \"#utility.yul\":15395:15403   */\n      dup2\n        /* \"#utility.yul\":15391:15435   */\n      add\n        /* \"#utility.yul\":15588:15590   */\n      0x20\n        /* \"#utility.yul\":15576:15586   */\n      dup6\n        /* \"#utility.yul\":15573:15591   */\n      lt\n        /* \"#utility.yul\":15570:15619   */\n      iszero\n      tag_324\n      jumpi\n        /* \"#utility.yul\":15609:15617   */\n      dup2\n        /* \"#utility.yul\":15594:15617   */\n      swap1\n      pop\n        /* \"#utility.yul\":15570:15619   */\n    tag_324:\n        /* \"#utility.yul\":15632:15712   */\n      tag_325\n        /* \"#utility.yul\":15688:15710   */\n      tag_326\n        /* \"#utility.yul\":15706:15709   */\n      dup6\n        /* \"#utility.yul\":15688:15710   */\n      tag_150\n      jump\t// in\n    tag_326:\n        /* \"#utility.yul\":15678:15686   */\n      dup4\n        /* \"#utility.yul\":15674:15711   */\n      add\n        /* \"#utility.yul\":15661:15672   */\n      dup3\n        /* \"#utility.yul\":15632:15712   */\n      tag_159\n      jump\t// in\n    tag_325:\n        /* \"#utility.yul\":15291:15722   */\n      pop\n      pop\n        /* \"#utility.yul\":15276:15722   */\n    tag_321:\n        /* \"#utility.yul\":15186:15729   */\n      pop\n      pop\n      pop\n      jump\t// out\n        /* \"#utility.yul\":15735:15852   */\n    tag_161:\n        /* \"#utility.yul\":15789:15797   */\n      0x00\n        /* \"#utility.yul\":15839:15844   */\n      dup3\n        /* \"#utility.yul\":15833:15837   */\n      dup3\n        /* \"#utility.yul\":15829:15845   */\n      shr\n        /* \"#utility.yul\":15808:15845   */\n      swap1\n      pop\n        /* \"#utility.yul\":15735:15852   */\n      swap3\n      swap2\n      pop\n      pop\n      jump\t// out\n        /* \"#utility.yul\":15858:16027   */\n    tag_162:\n        /* \"#utility.yul\":15902:15908   */\n      0x00\n        /* \"#utility.yul\":15935:15986   */\n      tag_329\n        /* \"#utility.yul\":15983:15984   */\n      0x00\n        /* \"#utility.yul\":15979:15985   */\n      not\n        /* \"#utility.yul\":15971:15976   */\n      dup5\n        /* \"#utility.yul\":15968:15969   */\n      0x08\n        /* \"#utility.yul\":15964:15977   */\n      mul\n        /* \"#utility.yul\":15935:15986   */\n      tag_161\n      jump\t// in\n    tag_329:\n        /* \"#utility.yul\":15931:15987   */\n      not\n        /* \"#utility.yul\":16016:16020   */\n      dup1\n        /* \"#utility.yul\":16010:16014   */\n      dup4\n        /* \"#utility.yul\":16006:16021   */\n      and\n        /* \"#utility.yul\":15996:16021   */\n      swap2\n      pop\n        /* \"#utility.yul\":15909:16027   */\n      pop\n        /* \"#utility.yul\":15858:16027   */\n      swap3\n      swap2\n      pop\n      pop\n      jump\t// out\n        /* \"#utility.yul\":16032:16327   */\n    tag_163:\n        /* \"#utility.yul\":16108:16112   */\n      0x00\n        /* \"#utility.yul\":16254:16283   */\n      tag_331\n        /* \"#utility.yul\":16279:16282   */\n      dup4\n        /* \"#utility.yul\":16273:16277   */\n      dup4\n        /* \"#utility.yul\":16254:16283   */\n      tag_162\n      jump\t// in\n    tag_331:\n        /* \"#utility.yul\":16246:16283   */\n      swap2\n      pop\n        /* \"#utility.yul\":16316:16319   */\n      dup3\n        /* \"#utility.yul\":16313:16314   */\n      0x02\n        /* \"#utility.yul\":16309:16320   */\n      mul\n        /* \"#utility.yul\":16303:16307   */\n      dup3\n        /* \"#utility.yul\":16300:16321   */\n      or\n        /* \"#utility.yul\":16292:16321   */\n      swap1\n      pop\n        /* \"#utility.yul\":16032:16327   */\n      swap3\n      swap2\n      pop\n      pop\n      jump\t// out\n        /* \"#utility.yul\":16332:17727   */\n    tag_50:\n        /* \"#utility.yul\":16449:16486   */\n      tag_333\n        /* \"#utility.yul\":16482:16485   */\n      dup3\n        /* \"#utility.yul\":16449:16486   */\n      tag_136\n      jump\t// in\n    tag_333:\n        /* \"#utility.yul\":16551:16569   */\n      0xffffffffffffffff\n        /* \"#utility.yul\":16543:16549   */\n      dup2\n        /* \"#utility.yul\":16540:16570   */\n      gt\n        /* \"#utility.yul\":16537:16593   */\n      iszero\n      tag_334\n      jumpi\n        /* \"#utility.yul\":16573:16591   */\n      tag_335\n      tag_65\n      jump\t// in\n    tag_335:\n        /* \"#utility.yul\":16537:16593   */\n    tag_334:\n        /* \"#utility.yul\":16617:16655   */\n      tag_336\n        /* \"#utility.yul\":16649:16653   */\n      dup3\n        /* \"#utility.yul\":16643:16654   */\n      sload\n        /* \"#utility.yul\":16617:16655   */\n      tag_58\n      jump\t// in\n    tag_336:\n        /* \"#utility.yul\":16702:16769   */\n      tag_337\n        /* \"#utility.yul\":16762:16768   */\n      dup3\n        /* \"#utility.yul\":16754:16760   */\n      dup3\n        /* \"#utility.yul\":16748:16752   */\n      dup6\n        /* \"#utility.yul\":16702:16769   */\n      tag_160\n      jump\t// in\n    tag_337:\n        /* \"#utility.yul\":16796:16797   */\n      0x00\n        /* \"#utility.yul\":16820:16824   */\n      0x20\n        /* \"#utility.yul\":16807:16824   */\n      swap1\n      pop\n        /* \"#utility.yul\":16852:16854   */\n      0x1f\n        /* \"#utility.yul\":16844:16850   */\n      dup4\n        /* \"#utility.yul\":16841:16855   */\n      gt\n        /* \"#utility.yul\":16869:16870   */\n      0x01\n        /* \"#utility.yul\":16864:17482   */\n      dup2\n      eq\n      tag_339\n      jumpi\n        /* \"#utility.yul\":17526:17527   */\n      0x00\n        /* \"#utility.yul\":17543:17549   */\n      dup5\n        /* \"#utility.yul\":17540:17617   */\n      iszero\n      tag_340\n      jumpi\n        /* \"#utility.yul\":17592:17601   */\n      dup3\n        /* \"#utility.yul\":17587:17590   */\n      dup8\n        /* \"#utility.yul\":17583:17602   */\n      add\n        /* \"#utility.yul\":17577:17603   */\n      mload\n        /* \"#utility.yul\":17568:17603   */\n      swap1\n      pop\n        /* \"#utility.yul\":17540:17617   */\n    tag_340:\n        /* \"#utility.yul\":17643:17710   */\n      tag_341\n        /* \"#utility.yul\":17703:17709   */\n      dup6\n        /* \"#utility.yul\":17696:17701   */\n      dup3\n        /* \"#utility.yul\":17643:17710   */\n      tag_163\n      jump\t// in\n    tag_341:\n        /* \"#utility.yul\":17637:17641   */\n      dup7\n        /* \"#utility.yul\":17630:17711   */\n      sstore\n        /* \"#utility.yul\":17499:17721   */\n      pop\n        /* \"#utility.yul\":16834:17721   */\n      jump(tag_338)\n        /* \"#utility.yul\":16864:17482   */\n    tag_339:\n        /* \"#utility.yul\":16916:16920   */\n      0x1f\n        /* \"#utility.yul\":16912:16921   */\n      not\n        /* \"#utility.yul\":16904:16910   */\n      dup5\n        /* \"#utility.yul\":16900:16922   */\n      and\n        /* \"#utility.yul\":16950:16987   */\n      tag_342\n        /* \"#utility.yul\":16982:16986   */\n      dup7\n        /* \"#utility.yul\":16950:16987   */\n      tag_149\n      jump\t// in\n    tag_342:\n        /* \"#utility.yul\":17009:17010   */\n      0x00\n        /* \"#utility.yul\":17023:17231   */\n    tag_343:\n        /* \"#utility.yul\":17037:17044   */\n      dup3\n        /* \"#utility.yul\":17034:17035   */\n      dup2\n        /* \"#utility.yul\":17031:17045   */\n      lt\n        /* \"#utility.yul\":17023:17231   */\n      iszero\n      tag_345\n      jumpi\n        /* \"#utility.yul\":17116:17125   */\n      dup5\n        /* \"#utility.yul\":17111:17114   */\n      dup10\n        /* \"#utility.yul\":17107:17126   */\n      add\n        /* \"#utility.yul\":17101:17127   */\n      mload\n        /* \"#utility.yul\":17093:17099   */\n      dup3\n        /* \"#utility.yul\":17086:17128   */\n      sstore\n        /* \"#utility.yul\":17167:17168   */\n      0x01\n        /* \"#utility.yul\":17159:17165   */\n      dup3\n        /* \"#utility.yul\":17155:17169   */\n      add\n        /* \"#utility.yul\":17145:17169   */\n      swap2\n      pop\n        /* \"#utility.yul\":17214:17216   */\n      0x20\n        /* \"#utility.yul\":17203:17212   */\n      dup6\n        /* \"#utility.yul\":17199:17217   */\n      add\n        /* \"#utility.yul\":17186:17217   */\n      swap5\n      pop\n        /* \"#utility.yul\":17060:17064   */\n      0x20\n        /* \"#utility.yul\":17057:17058   */\n      dup2\n        /* \"#utility.yul\":17053:17065   */\n      add\n        /* \"#utility.yul\":17048:17065   */\n      swap1\n      pop\n        /* \"#utility.yul\":17023:17231   */\n      jump(tag_343)\n    tag_345:\n        /* \"#utility.yul\":17259:17265   */\n      dup7\n        /* \"#utility.yul\":17250:17257   */\n      dup4\n        /* \"#utility.yul\":17247:17266   */\n      lt\n        /* \"#utility.yul\":17244:17423   */\n      iszero\n      tag_346\n      jumpi\n        /* \"#utility.yul\":17317:17326   */\n      dup5\n        /* \"#utility.yul\":17312:17315   */\n      dup10\n        /* \"#utility.yul\":17308:17327   */\n      add\n        /* \"#utility.yul\":17302:17328   */\n      mload\n        /* \"#utility.yul\":17360:17408   */\n      tag_347\n        /* \"#utility.yul\":17402:17406   */\n      0x1f\n        /* \"#utility.yul\":17394:17400   */\n      dup10\n        /* \"#utility.yul\":17390:17407   */\n      and\n        /* \"#utility.yul\":17379:17388   */\n      dup3\n        /* \"#utility.yul\":17360:17408   */\n      tag_162\n      jump\t// in\n    tag_347:\n        /* \"#utility.yul\":17352:17358   */\n      dup4\n        /* \"#utility.yul\":17345:17409   */\n      sstore\n        /* \"#utility.yul\":17267:17423   */\n      pop\n        /* \"#utility.yul\":17244:17423   */\n    tag_346:\n        /* \"#utility.yul\":17469:17470   */\n      0x01\n        /* \"#utility.yul\":17465:17466   */\n      0x02\n        /* \"#utility.yul\":17457:17463   */\n      dup9\n        /* \"#utility.yul\":17453:17467   */\n      mul\n        /* \"#utility.yul\":17449:17471   */\n      add\n        /* \"#utility.yul\":17443:17447   */\n      dup9\n        /* \"#utility.yul\":17436:17472   */\n      sstore\n        /* \"#utility.yul\":16871:17482   */\n      pop\n      pop\n      pop\n        /* \"#utility.yul\":16834:17721   */\n    tag_338:\n      pop\n        /* \"#utility.yul\":16424:17727   */\n      pop\n      pop\n      pop\n        /* \"#utility.yul\":16332:17727   */\n      pop\n      pop\n      jump\t// out\n        /* \"#utility.yul\":17733:17851   */\n    tag_164:\n        /* \"#utility.yul\":17820:17844   */\n      tag_349\n        /* \"#utility.yul\":17838:17843   */\n      dup2\n        /* \"#utility.yul\":17820:17844   */\n      tag_120\n      jump\t// in\n    tag_349:\n        /* \"#utility.yul\":17815:17818   */\n      dup3\n        /* \"#utility.yul\":17808:17845   */\n      mstore\n        /* \"#utility.yul\":17733:17851   */\n      pop\n      pop\n      jump\t// out\n        /* \"#utility.yul\":17857:18234   */\n    tag_165:\n        /* \"#utility.yul\":17945:17948   */\n      0x00\n        /* \"#utility.yul\":17973:18012   */\n      tag_351\n        /* \"#utility.yul\":18006:18011   */\n      dup3\n        /* \"#utility.yul\":17973:18012   */\n      tag_136\n      jump\t// in\n    tag_351:\n        /* \"#utility.yul\":18028:18099   */\n      tag_352\n        /* \"#utility.yul\":18092:18098   */\n      dup2\n        /* \"#utility.yul\":18087:18090   */\n      dup6\n        /* \"#utility.yul\":18028:18099   */\n      tag_144\n      jump\t// in\n    tag_352:\n        /* \"#utility.yul\":18021:18099   */\n      swap4\n      pop\n        /* \"#utility.yul\":18108:18173   */\n      tag_353\n        /* \"#utility.yul\":18166:18172   */\n      dup2\n        /* \"#utility.yul\":18161:18164   */\n      dup6\n        /* \"#utility.yul\":18154:18158   */\n      0x20\n        /* \"#utility.yul\":18147:18152   */\n      dup7\n        /* \"#utility.yul\":18143:18159   */\n      add\n        /* \"#utility.yul\":18108:18173   */\n      tag_138\n      jump\t// in\n    tag_353:\n        /* \"#utility.yul\":18198:18227   */\n      tag_354\n        /* \"#utility.yul\":18220:18226   */\n      dup2\n        /* \"#utility.yul\":18198:18227   */\n      tag_125\n      jump\t// in\n    tag_354:\n        /* \"#utility.yul\":18193:18196   */\n      dup5\n        /* \"#utility.yul\":18189:18228   */\n      add\n        /* \"#utility.yul\":18182:18228   */\n      swap2\n      pop\n        /* \"#utility.yul\":17949:18234   */\n      pop\n        /* \"#utility.yul\":17857:18234   */\n      swap3\n      swap2\n      pop\n      pop\n      jump\t// out\n        /* \"#utility.yul\":18240:18663   */\n    tag_52:\n        /* \"#utility.yul\":18381:18385   */\n      0x00\n        /* \"#utility.yul\":18419:18421   */\n      0x40\n        /* \"#utility.yul\":18408:18417   */\n      dup3\n        /* \"#utility.yul\":18404:18422   */\n      add\n        /* \"#utility.yul\":18396:18422   */\n      swap1\n      pop\n        /* \"#utility.yul\":18432:18503   */\n      tag_356\n        /* \"#utility.yul\":18500:18501   */\n      0x00\n        /* \"#utility.yul\":18489:18498   */\n      dup4\n        /* \"#utility.yul\":18485:18502   */\n      add\n        /* \"#utility.yul\":18476:18482   */\n      dup6\n        /* \"#utility.yul\":18432:18503   */\n      tag_164\n      jump\t// in\n    tag_356:\n        /* \"#utility.yul\":18550:18559   */\n      dup2\n        /* \"#utility.yul\":18544:18548   */\n      dup2\n        /* \"#utility.yul\":18540:18560   */\n      sub\n        /* \"#utility.yul\":18535:18537   */\n      0x20\n        /* \"#utility.yul\":18524:18533   */\n      dup4\n        /* \"#utility.yul\":18520:18538   */\n      add\n        /* \"#utility.yul\":18513:18561   */\n      mstore\n        /* \"#utility.yul\":18578:18656   */\n      tag_357\n        /* \"#utility.yul\":18651:18655   */\n      dup2\n        /* \"#utility.yul\":18642:18648   */\n      dup5\n        /* \"#utility.yul\":18578:18656   */\n      tag_165\n      jump\t// in\n    tag_357:\n        /* \"#utility.yul\":18570:18656   */\n      swap1\n      pop\n        /* \"#utility.yul\":18240:18663   */\n      swap4\n      swap3\n      pop\n      pop\n      pop\n      jump\t// out\n        /* \"#utility.yul\":18669:18849   */\n    tag_75:\n        /* \"#utility.yul\":18717:18794   */\n      0x4e487b7100000000000000000000000000000000000000000000000000000000\n        /* \"#utility.yul\":18714:18715   */\n      0x00\n        /* \"#utility.yul\":18707:18795   */\n      mstore\n        /* \"#utility.yul\":18814:18818   */\n      0x32\n        /* \"#utility.yul\":18811:18812   */\n      0x04\n        /* \"#utility.yul\":18804:18819   */\n      mstore\n        /* \"#utility.yul\":18838:18842   */\n      0x24\n        /* \"#utility.yul\":18835:18836   */\n      0x00\n        /* \"#utility.yul\":18828:18843   */\n      revert\n        /* \"#utility.yul\":18855:19024   */\n    tag_166:\n        /* \"#utility.yul\":18995:19016   */\n      0x496e646578206f7574206f6620626f756e647300000000000000000000000000\n        /* \"#utility.yul\":18991:18992   */\n      0x00\n        /* \"#utility.yul\":18983:18989   */\n      dup3\n        /* \"#utility.yul\":18979:18993   */\n      add\n        /* \"#utility.yul\":18972:19017   */\n      mstore\n        /* \"#utility.yul\":18855:19024   */\n      pop\n      jump\t// out\n        /* \"#utility.yul\":19030:19396   */\n    tag_167:\n        /* \"#utility.yul\":19172:19175   */\n      0x00\n        /* \"#utility.yul\":19193:19260   */\n      tag_361\n        /* \"#utility.yul\":19257:19259   */\n      0x13\n        /* \"#utility.yul\":19252:19255   */\n      dup4\n        /* \"#utility.yul\":19193:19260   */\n      tag_144\n      jump\t// in\n    tag_361:\n        /* \"#utility.yul\":19186:19260   */\n      swap2\n      pop\n        /* \"#utility.yul\":19269:19362   */\n      tag_362\n        /* \"#utility.yul\":19358:19361   */\n      dup3\n        /* \"#utility.yul\":19269:19362   */\n      tag_166\n      jump\t// in\n    tag_362:\n        /* \"#utility.yul\":19387:19389   */\n      0x20\n        /* \"#utility.yul\":19382:19385   */\n      dup3\n        /* \"#utility.yul\":19378:19390   */\n      add\n        /* \"#utility.yul\":19371:19390   */\n      swap1\n      pop\n        /* \"#utility.yul\":19030:19396   */\n      swap2\n      swap1\n      pop\n      jump\t// out\n        /* \"#utility.yul\":19402:19821   */\n    tag_94:\n        /* \"#utility.yul\":19568:19572   */\n      0x00\n        /* \"#utility.yul\":19606:19608   */\n      0x20\n        /* \"#utility.yul\":19595:19604   */\n      dup3\n        /* \"#utility.yul\":19591:19609   */\n      add\n        /* \"#utility.yul\":19583:19609   */\n      swap1\n      pop\n        /* \"#utility.yul\":19655:19664   */\n      dup2\n        /* \"#utility.yul\":19649:19653   */\n      dup2\n        /* \"#utility.yul\":19645:19665   */\n      sub\n        /* \"#utility.yul\":19641:19642   */\n      0x00\n        /* \"#utility.yul\":19630:19639   */\n      dup4\n        /* \"#utility.yul\":19626:19643   */\n      add\n        /* \"#utility.yul\":19619:19666   */\n      mstore\n        /* \"#utility.yul\":19683:19814   */\n      tag_364\n        /* \"#utility.yul\":19809:19813   */\n      dup2\n        /* \"#utility.yul\":19683:19814   */\n      tag_167\n      jump\t// in\n    tag_364:\n        /* \"#utility.yul\":19675:19814   */\n      swap1\n      pop\n        /* \"#utility.yul\":19402:19821   */\n      swap2\n      swap1\n      pop\n      jump\t// out\n        /* \"#utility.yul\":19827:20360   */\n    tag_103:\n        /* \"#utility.yul\":19996:20000   */\n      0x00\n        /* \"#utility.yul\":20034:20036   */\n      0x60\n        /* \"#utility.yul\":20023:20032   */\n      dup3\n        /* \"#utility.yul\":20019:20037   */\n      add\n        /* \"#utility.yul\":20011:20037   */\n      swap1\n      pop\n        /* \"#utility.yul\":20047:20118   */\n      tag_366\n        /* \"#utility.yul\":20115:20116   */\n      0x00\n        /* \"#utility.yul\":20104:20113   */\n      dup4\n        /* \"#utility.yul\":20100:20117   */\n      add\n        /* \"#utility.yul\":20091:20097   */\n      dup7\n        /* \"#utility.yul\":20047:20118   */\n      tag_164\n      jump\t// in\n    tag_366:\n        /* \"#utility.yul\":20128:20200   */\n      tag_367\n        /* \"#utility.yul\":20196:20198   */\n      0x20\n        /* \"#utility.yul\":20185:20194   */\n      dup4\n        /* \"#utility.yul\":20181:20199   */\n      add\n        /* \"#utility.yul\":20172:20178   */\n      dup6\n        /* \"#utility.yul\":20128:20200   */\n      tag_164\n      jump\t// in\n    tag_367:\n        /* \"#utility.yul\":20247:20256   */\n      dup2\n        /* \"#utility.yul\":20241:20245   */\n      dup2\n        /* \"#utility.yul\":20237:20257   */\n      sub\n        /* \"#utility.yul\":20232:20234   */\n      0x40\n        /* \"#utility.yul\":20221:20230   */\n      dup4\n        /* \"#utility.yul\":20217:20235   */\n      add\n        /* \"#utility.yul\":20210:20258   */\n      mstore\n        /* \"#utility.yul\":20275:20353   */\n      tag_368\n        /* \"#utility.yul\":20348:20352   */\n      dup2\n        /* \"#utility.yul\":20339:20345   */\n      dup5\n        /* \"#utility.yul\":20275:20353   */\n      tag_165\n      jump\t// in\n    tag_368:\n        /* \"#utility.yul\":20267:20353   */\n      swap1\n      pop\n        /* \"#utility.yul\":19827:20360   */\n      swap5\n      swap4\n      pop\n      pop\n      pop\n      pop\n      jump\t// out\n\n    auxdata: 0xa26469706673582212206936de31b76489136a3d8b8e269691b4f62e7eb82354da891fd04ee80917bb8264736f6c63430008160033\n}\n",
				"bytecode": {
					"linkReferences": {},
					"object": "608060405260015f55348015610013575f80fd5b50620f424060025f3373ffffffffffffffffffffffffffffffffffffffff1673ffffffffffffffffffffffffffffffffffffffff1681526020019081526020015f2081905550611418806100665f395ff3fe608060405234801561000f575f80fd5b5060043610610060575f3560e01c8063020310241461006457806308c220c2146100805780639f43f46f1461009c578063b48028e3146100cc578063b608d3a4146100e8578063dd0826c614610104575b5f80fd5b61007e60048036038101906100799190610a22565b610134565b005b61009a60048036038101906100959190610bbc565b610213565b005b6100b660048036038101906100b19190610c28565b610408565b6040516100c39190610e1c565b60405180910390f35b6100e660048036038101906100e19190610a22565b610626565b005b61010260048036038101906100fd9190610e3c565b6106ea565b005b61011e60048036038101906101199190610ebc565b610878565b60405161012b9190610e1c565b60405180910390f35b5f60025f3373ffffffffffffffffffffffffffffffffffffffff1673ffffffffffffffffffffffffffffffffffffffff1681526020019081526020015f2054036101b3576040517f08c379a00000000000000000000000000000000000000000000000000000000081526004016101aa90610f41565b60405180910390fd5b5f808154809291906101c490610f8c565b919050555f819055505f5460025f8373ffffffffffffffffffffffffffffffffffffffff1673ffffffffffffffffffffffffffffffffffffffff1681526020019081526020015f208190555050565b5f60025f3373ffffffffffffffffffffffffffffffffffffffff1673ffffffffffffffffffffffffffffffffffffffff1681526020019081526020015f205403610292576040517f08c379a000000000000000000000000000000000000000000000000000000000815260040161028990610f41565b60405180910390fd5b620f424060025f3373ffffffffffffffffffffffffffffffffffffffff1673ffffffffffffffffffffffffffffffffffffffff1681526020019081526020015f20541415801561031f575060025f3373ffffffffffffffffffffffffffffffffffffffff1673ffffffffffffffffffffffffffffffffffffffff1681526020019081526020015f20548314155b610403575f60015f8581526020019081526020015f2080549050905060015f8581526020019081526020015f20604051806080016040528086815260200183815260200185815260200184815250908060018154018082558091505060019003905f5260205f2090600402015f909190919091505f820151815f0155602082015181600101556040820151816002015560608201518160030190816103c491906111cd565b505050837f32e7c28972e89757b6baa3898e54af0a57a00f3a4df3d1ad95609eb202460b3a84846040516103f99291906112e3565b60405180910390a2505b505050565b60605f60015f8681526020019081526020015f20805480602002602001604051908101604052809291908181526020015f905b82821015610518578382905f5260205f2090600402016040518060800160405290815f8201548152602001600182015481526020016002820154815260200160038201805461048990611000565b80601f01602080910402602001604051908101604052809291908181526020018280546104b590611000565b80156105005780601f106104d757610100808354040283529160200191610500565b820191905f5260205f20905b8154815290600101906020018083116104e357829003601f168201915b5050505050815250508152602001906001019061043b565b5050505090505f815167ffffffffffffffff81111561053a57610539610a98565b5b60405190808252806020026020018201604052801561057357816020015b610560610992565b8152602001906001900390816105585790505b5090505f5b8251811015610619578583828151811061059557610594611311565b5b602002602001015160400151101580156105cd5750848382815181106105be576105bd611311565b5b60200260200101516040015111155b1561060c578281815181106105e5576105e4611311565b5b6020026020010151828281518110610600576105ff611311565b5b60200260200101819052505b8080600101915050610578565b5080925050509392505050565b5f60025f3373ffffffffffffffffffffffffffffffffffffffff1673ffffffffffffffffffffffffffffffffffffffff1681526020019081526020015f2054036106a5576040517f08c379a000000000000000000000000000000000000000000000000000000000815260040161069c90610f41565b60405180910390fd5b5f60025f8373ffffffffffffffffffffffffffffffffffffffff1673ffffffffffffffffffffffffffffffffffffffff1681526020019081526020015f208190555050565b5f60025f3373ffffffffffffffffffffffffffffffffffffffff1673ffffffffffffffffffffffffffffffffffffffff1681526020019081526020015f205403610769576040517f08c379a000000000000000000000000000000000000000000000000000000000815260040161076090610f41565b60405180910390fd5b60015f8581526020019081526020015f208054905083106107bf576040517f08c379a00000000000000000000000000000000000000000000000000000000081526004016107b690611388565b60405180910390fd5b8160015f8681526020019081526020015f2084815481106107e3576107e2611311565b5b905f5260205f209060040201600201819055508060015f8681526020019081526020015f20848154811061081a57610819611311565b5b905f5260205f209060040201600301908161083591906111cd565b50837fa0d3071670661a556feb29023709b20ab2a62d5c56f63343d67c087d28be3df784848460405161086a939291906113a6565b60405180910390a250505050565b606060015f8381526020019081526020015f20805480602002602001604051908101604052809291908181526020015f905b82821015610987578382905f5260205f2090600402016040518060800160405290815f820154815260200160018201548152602001600282015481526020016003820180546108f890611000565b80601f016020809104026020016040519081016040528092919081815260200182805461092490611000565b801561096f5780601f106109465761010080835404028352916020019161096f565b820191905f5260205f20905b81548152906001019060200180831161095257829003601f168201915b505050505081525050815260200190600101906108aa565b505050509050919050565b60405180608001604052805f81526020015f81526020015f8152602001606081525090565b5f604051905090565b5f80fd5b5f80fd5b5f73ffffffffffffffffffffffffffffffffffffffff82169050919050565b5f6109f1826109c8565b9050919050565b610a01816109e7565b8114610a0b575f80fd5b50565b5f81359050610a1c816109f8565b92915050565b5f60208284031215610a3757610a366109c0565b5b5f610a4484828501610a0e565b91505092915050565b5f819050919050565b610a5f81610a4d565b8114610a69575f80fd5b50565b5f81359050610a7a81610a56565b92915050565b5f80fd5b5f80fd5b5f601f19601f8301169050919050565b7f4e487b71000000000000000000000000000000000000000000000000000000005f52604160045260245ffd5b610ace82610a88565b810181811067ffffffffffffffff82111715610aed57610aec610a98565b5b80604052505050565b5f610aff6109b7565b9050610b0b8282610ac5565b919050565b5f67ffffffffffffffff821115610b2a57610b29610a98565b5b610b3382610a88565b9050602081019050919050565b828183375f83830152505050565b5f610b60610b5b84610b10565b610af6565b905082815260208101848484011115610b7c57610b7b610a84565b5b610b87848285610b40565b509392505050565b5f82601f830112610ba357610ba2610a80565b5b8135610bb3848260208601610b4e565b91505092915050565b5f805f60608486031215610bd357610bd26109c0565b5b5f610be086828701610a6c565b9350506020610bf186828701610a6c565b925050604084013567ffffffffffffffff811115610c1257610c116109c4565b5b610c1e86828701610b8f565b9150509250925092565b5f805f60608486031215610c3f57610c3e6109c0565b5b5f610c4c86828701610a6c565b9350506020610c5d86828701610a6c565b9250506040610c6e86828701610a6c565b9150509250925092565b5f81519050919050565b5f82825260208201905092915050565b5f819050602082019050919050565b610caa81610a4d565b82525050565b5f81519050919050565b5f82825260208201905092915050565b5f5b83811015610ce7578082015181840152602081019050610ccc565b5f8484015250505050565b5f610cfc82610cb0565b610d068185610cba565b9350610d16818560208601610cca565b610d1f81610a88565b840191505092915050565b5f608083015f830151610d3f5f860182610ca1565b506020830151610d526020860182610ca1565b506040830151610d656040860182610ca1565b5060608301518482036060860152610d7d8282610cf2565b9150508091505092915050565b5f610d958383610d2a565b905092915050565b5f602082019050919050565b5f610db382610c78565b610dbd8185610c82565b935083602082028501610dcf85610c92565b805f5b85811015610e0a5784840389528151610deb8582610d8a565b9450610df683610d9d565b925060208a01995050600181019050610dd2565b50829750879550505050505092915050565b5f6020820190508181035f830152610e348184610da9565b905092915050565b5f805f8060808587031215610e5457610e536109c0565b5b5f610e6187828801610a6c565b9450506020610e7287828801610a6c565b9350506040610e8387828801610a6c565b925050606085013567ffffffffffffffff811115610ea457610ea36109c4565b5b610eb087828801610b8f565b91505092959194509250565b5f60208284031215610ed157610ed06109c0565b5b5f610ede84828501610a6c565b91505092915050565b5f82825260208201905092915050565b7f556e617574686f72697a656420616363657373000000000000000000000000005f82015250565b5f610f2b601383610ee7565b9150610f3682610ef7565b602082019050919050565b5f6020820190508181035f830152610f5881610f1f565b9050919050565b7f4e487b71000000000000000000000000000000000000000000000000000000005f52601160045260245ffd5b5f610f9682610a4d565b91507fffffffffffffffffffffffffffffffffffffffffffffffffffffffffffffffff8203610fc857610fc7610f5f565b5b600182019050919050565b7f4e487b71000000000000000000000000000000000000000000000000000000005f52602260045260245ffd5b5f600282049050600182168061101757607f821691505b60208210810361102a57611029610fd3565b5b50919050565b5f819050815f5260205f209050919050565b5f6020601f8301049050919050565b5f82821b905092915050565b5f6008830261108c7fffffffffffffffffffffffffffffffffffffffffffffffffffffffffffffffff82611051565b6110968683611051565b95508019841693508086168417925050509392505050565b5f819050919050565b5f6110d16110cc6110c784610a4d565b6110ae565b610a4d565b9050919050565b5f819050919050565b6110ea836110b7565b6110fe6110f6826110d8565b84845461105d565b825550505050565b5f90565b611112611106565b61111d8184846110e1565b505050565b5b81811015611140576111355f8261110a565b600181019050611123565b5050565b601f8211156111855761115681611030565b61115f84611042565b8101602085101561116e578190505b61118261117a85611042565b830182611122565b50505b505050565b5f82821c905092915050565b5f6111a55f198460080261118a565b1980831691505092915050565b5f6111bd8383611196565b9150826002028217905092915050565b6111d682610cb0565b67ffffffffffffffff8111156111ef576111ee610a98565b5b6111f98254611000565b611204828285611144565b5f60209050601f831160018114611235575f8415611223578287015190505b61122d85826111b2565b865550611294565b601f19841661124386611030565b5f5b8281101561126a57848901518255600182019150602085019450602081019050611245565b868310156112875784890151611283601f891682611196565b8355505b6001600288020188555050505b505050505050565b6112a581610a4d565b82525050565b5f6112b582610cb0565b6112bf8185610ee7565b93506112cf818560208601610cca565b6112d881610a88565b840191505092915050565b5f6040820190506112f65f83018561129c565b818103602083015261130881846112ab565b90509392505050565b7f4e487b71000000000000000000000000000000000000000000000000000000005f52603260045260245ffd5b7f496e646578206f7574206f6620626f756e6473000000000000000000000000005f82015250565b5f611372601383610ee7565b915061137d8261133e565b602082019050919050565b5f6020820190508181035f83015261139f81611366565b9050919050565b5f6060820190506113b95f83018661129c565b6113c6602083018561129c565b81810360408301526113d881846112ab565b905094935050505056fea26469706673582212206936de31b76489136a3d8b8e269691b4f62e7eb82354da891fd04ee80917bb8264736f6c63430008160033",
					"opcodes": "PUSH1 0x80 PUSH1 0x40 MSTORE PUSH1 0x1 PUSH0 SSTORE CALLVALUE DUP1 ISZERO PUSH2 0x13 JUMPI PUSH0 DUP1 REVERT JUMPDEST POP PUSH3 0xF4240 PUSH1 0x2 PUSH0 CALLER PUSH20 0xFFFFFFFFFFFFFFFFFFFFFFFFFFFFFFFFFFFFFFFF AND PUSH20 0xFFFFFFFFFFFFFFFFFFFFFFFFFFFFFFFFFFFFFFFF AND DUP2 MSTORE PUSH1 0x20 ADD SWAP1 DUP2 MSTORE PUSH1 0x20 ADD PUSH0 KECCAK256 DUP2 SWAP1 SSTORE POP PUSH2 0x1418 DUP1 PUSH2 0x66 PUSH0 CODECOPY PUSH0 RETURN INVALID PUSH1 0x80 PUSH1 0x40 MSTORE CALLVALUE DUP1 ISZERO PUSH2 0xF JUMPI PUSH0 DUP1 REVERT JUMPDEST POP PUSH1 0x4 CALLDATASIZE LT PUSH2 0x60 JUMPI PUSH0 CALLDATALOAD PUSH1 0xE0 SHR DUP1 PUSH4 0x2031024 EQ PUSH2 0x64 JUMPI DUP1 PUSH4 0x8C220C2 EQ PUSH2 0x80 JUMPI DUP1 PUSH4 0x9F43F46F EQ PUSH2 0x9C JUMPI DUP1 PUSH4 0xB48028E3 EQ PUSH2 0xCC JUMPI DUP1 PUSH4 0xB608D3A4 EQ PUSH2 0xE8 JUMPI DUP1 PUSH4 0xDD0826C6 EQ PUSH2 0x104 JUMPI JUMPDEST PUSH0 DUP1 REVERT JUMPDEST PUSH2 0x7E PUSH1 0x4 DUP1 CALLDATASIZE SUB DUP2 ADD SWAP1 PUSH2 0x79 SWAP2 SWAP1 PUSH2 0xA22 JUMP JUMPDEST PUSH2 0x134 JUMP JUMPDEST STOP JUMPDEST PUSH2 0x9A PUSH1 0x4 DUP1 CALLDATASIZE SUB DUP2 ADD SWAP1 PUSH2 0x95 SWAP2 SWAP1 PUSH2 0xBBC JUMP JUMPDEST PUSH2 0x213 JUMP JUMPDEST STOP JUMPDEST PUSH2 0xB6 PUSH1 0x4 DUP1 CALLDATASIZE SUB DUP2 ADD SWAP1 PUSH2 0xB1 SWAP2 SWAP1 PUSH2 0xC28 JUMP JUMPDEST PUSH2 0x408 JUMP JUMPDEST PUSH1 0x40 MLOAD PUSH2 0xC3 SWAP2 SWAP1 PUSH2 0xE1C JUMP JUMPDEST PUSH1 0x40 MLOAD DUP1 SWAP2 SUB SWAP1 RETURN JUMPDEST PUSH2 0xE6 PUSH1 0x4 DUP1 CALLDATASIZE SUB DUP2 ADD SWAP1 PUSH2 0xE1 SWAP2 SWAP1 PUSH2 0xA22 JUMP JUMPDEST PUSH2 0x626 JUMP JUMPDEST STOP JUMPDEST PUSH2 0x102 PUSH1 0x4 DUP1 CALLDATASIZE SUB DUP2 ADD SWAP1 PUSH2 0xFD SWAP2 SWAP1 PUSH2 0xE3C JUMP JUMPDEST PUSH2 0x6EA JUMP JUMPDEST STOP JUMPDEST PUSH2 0x11E PUSH1 0x4 DUP1 CALLDATASIZE SUB DUP2 ADD SWAP1 PUSH2 0x119 SWAP2 SWAP1 PUSH2 0xEBC JUMP JUMPDEST PUSH2 0x878 JUMP JUMPDEST PUSH1 0x40 MLOAD PUSH2 0x12B SWAP2 SWAP1 PUSH2 0xE1C JUMP JUMPDEST PUSH1 0x40 MLOAD DUP1 SWAP2 SUB SWAP1 RETURN JUMPDEST PUSH0 PUSH1 0x2 PUSH0 CALLER PUSH20 0xFFFFFFFFFFFFFFFFFFFFFFFFFFFFFFFFFFFFFFFF AND PUSH20 0xFFFFFFFFFFFFFFFFFFFFFFFFFFFFFFFFFFFFFFFF AND DUP2 MSTORE PUSH1 0x20 ADD SWAP1 DUP2 MSTORE PUSH1 0x20 ADD PUSH0 KECCAK256 SLOAD SUB PUSH2 0x1B3 JUMPI PUSH1 0x40 MLOAD PUSH32 0x8C379A000000000000000000000000000000000000000000000000000000000 DUP2 MSTORE PUSH1 0x4 ADD PUSH2 0x1AA SWAP1 PUSH2 0xF41 JUMP JUMPDEST PUSH1 0x40 MLOAD DUP1 SWAP2 SUB SWAP1 REVERT JUMPDEST PUSH0 DUP1 DUP2 SLOAD DUP1 SWAP3 SWAP2 SWAP1 PUSH2 0x1C4 SWAP1 PUSH2 0xF8C JUMP JUMPDEST SWAP2 SWAP1 POP SSTORE PUSH0 DUP2 SWAP1 SSTORE POP PUSH0 SLOAD PUSH1 0x2 PUSH0 DUP4 PUSH20 0xFFFFFFFFFFFFFFFFFFFFFFFFFFFFFFFFFFFFFFFF AND PUSH20 0xFFFFFFFFFFFFFFFFFFFFFFFFFFFFFFFFFFFFFFFF AND DUP2 MSTORE PUSH1 0x20 ADD SWAP1 DUP2 MSTORE PUSH1 0x20 ADD PUSH0 KECCAK256 DUP2 SWAP1 SSTORE POP POP JUMP JUMPDEST PUSH0 PUSH1 0x2 PUSH0 CALLER PUSH20 0xFFFFFFFFFFFFFFFFFFFFFFFFFFFFFFFFFFFFFFFF AND PUSH20 0xFFFFFFFFFFFFFFFFFFFFFFFFFFFFFFFFFFFFFFFF AND DUP2 MSTORE PUSH1 0x20 ADD SWAP1 DUP2 MSTORE PUSH1 0x20 ADD PUSH0 KECCAK256 SLOAD SUB PUSH2 0x292 JUMPI PUSH1 0x40 MLOAD PUSH32 0x8C379A000000000000000000000000000000000000000000000000000000000 DUP2 MSTORE PUSH1 0x4 ADD PUSH2 0x289 SWAP1 PUSH2 0xF41 JUMP JUMPDEST PUSH1 0x40 MLOAD DUP1 SWAP2 SUB SWAP1 REVERT JUMPDEST PUSH3 0xF4240 PUSH1 0x2 PUSH0 CALLER PUSH20 0xFFFFFFFFFFFFFFFFFFFFFFFFFFFFFFFFFFFFFFFF AND PUSH20 0xFFFFFFFFFFFFFFFFFFFFFFFFFFFFFFFFFFFFFFFF AND DUP2 MSTORE PUSH1 0x20 ADD SWAP1 DUP2 MSTORE PUSH1 0x20 ADD PUSH0 KECCAK256 SLOAD EQ ISZERO DUP1 ISZERO PUSH2 0x31F JUMPI POP PUSH1 0x2 PUSH0 CALLER PUSH20 0xFFFFFFFFFFFFFFFFFFFFFFFFFFFFFFFFFFFFFFFF AND PUSH20 0xFFFFFFFFFFFFFFFFFFFFFFFFFFFFFFFFFFFFFFFF AND DUP2 MSTORE PUSH1 0x20 ADD SWAP1 DUP2 MSTORE PUSH1 0x20 ADD PUSH0 KECCAK256 SLOAD DUP4 EQ ISZERO JUMPDEST PUSH2 0x403 JUMPI PUSH0 PUSH1 0x1 PUSH0 DUP6 DUP2 MSTORE PUSH1 0x20 ADD SWAP1 DUP2 MSTORE PUSH1 0x20 ADD PUSH0 KECCAK256 DUP1 SLOAD SWAP1 POP SWAP1 POP PUSH1 0x1 PUSH0 DUP6 DUP2 MSTORE PUSH1 0x20 ADD SWAP1 DUP2 MSTORE PUSH1 0x20 ADD PUSH0 KECCAK256 PUSH1 0x40 MLOAD DUP1 PUSH1 0x80 ADD PUSH1 0x40 MSTORE DUP1 DUP7 DUP2 MSTORE PUSH1 0x20 ADD DUP4 DUP2 MSTORE PUSH1 0x20 ADD DUP6 DUP2 MSTORE PUSH1 0x20 ADD DUP5 DUP2 MSTORE POP SWAP1 DUP1 PUSH1 0x1 DUP2 SLOAD ADD DUP1 DUP3 SSTORE DUP1 SWAP2 POP POP PUSH1 0x1 SWAP1 SUB SWAP1 PUSH0 MSTORE PUSH1 0x20 PUSH0 KECCAK256 SWAP1 PUSH1 0x4 MUL ADD PUSH0 SWAP1 SWAP2 SWAP1 SWAP2 SWAP1 SWAP2 POP PUSH0 DUP3 ADD MLOAD DUP2 PUSH0 ADD SSTORE PUSH1 0x20 DUP3 ADD MLOAD DUP2 PUSH1 0x1 ADD SSTORE PUSH1 0x40 DUP3 ADD MLOAD DUP2 PUSH1 0x2 ADD SSTORE PUSH1 0x60 DUP3 ADD MLOAD DUP2 PUSH1 0x3 ADD SWAP1 DUP2 PUSH2 0x3C4 SWAP2 SWAP1 PUSH2 0x11CD JUMP JUMPDEST POP POP POP DUP4 PUSH32 0x32E7C28972E89757B6BAA3898E54AF0A57A00F3A4DF3D1AD95609EB202460B3A DUP5 DUP5 PUSH1 0x40 MLOAD PUSH2 0x3F9 SWAP3 SWAP2 SWAP1 PUSH2 0x12E3 JUMP JUMPDEST PUSH1 0x40 MLOAD DUP1 SWAP2 SUB SWAP1 LOG2 POP JUMPDEST POP POP POP JUMP JUMPDEST PUSH1 0x60 PUSH0 PUSH1 0x1 PUSH0 DUP7 DUP2 MSTORE PUSH1 0x20 ADD SWAP1 DUP2 MSTORE PUSH1 0x20 ADD PUSH0 KECCAK256 DUP1 SLOAD DUP1 PUSH1 0x20 MUL PUSH1 0x20 ADD PUSH1 0x40 MLOAD SWAP1 DUP2 ADD PUSH1 0x40 MSTORE DUP1 SWAP3 SWAP2 SWAP1 DUP2 DUP2 MSTORE PUSH1 0x20 ADD PUSH0 SWAP1 JUMPDEST DUP3 DUP3 LT ISZERO PUSH2 0x518 JUMPI DUP4 DUP3 SWAP1 PUSH0 MSTORE PUSH1 0x20 PUSH0 KECCAK256 SWAP1 PUSH1 0x4 MUL ADD PUSH1 0x40 MLOAD DUP1 PUSH1 0x80 ADD PUSH1 0x40 MSTORE SWAP1 DUP2 PUSH0 DUP3 ADD SLOAD DUP2 MSTORE PUSH1 0x20 ADD PUSH1 0x1 DUP3 ADD SLOAD DUP2 MSTORE PUSH1 0x20 ADD PUSH1 0x2 DUP3 ADD SLOAD DUP2 MSTORE PUSH1 0x20 ADD PUSH1 0x3 DUP3 ADD DUP1 SLOAD PUSH2 0x489 SWAP1 PUSH2 0x1000 JUMP JUMPDEST DUP1 PUSH1 0x1F ADD PUSH1 0x20 DUP1 SWAP2 DIV MUL PUSH1 0x20 ADD PUSH1 0x40 MLOAD SWAP1 DUP2 ADD PUSH1 0x40 MSTORE DUP1 SWAP3 SWAP2 SWAP1 DUP2 DUP2 MSTORE PUSH1 0x20 ADD DUP3 DUP1 SLOAD PUSH2 0x4B5 SWAP1 PUSH2 0x1000 JUMP JUMPDEST DUP1 ISZERO PUSH2 0x500 JUMPI DUP1 PUSH1 0x1F LT PUSH2 0x4D7 JUMPI PUSH2 0x100 DUP1 DUP4 SLOAD DIV MUL DUP4 MSTORE SWAP2 PUSH1 0x20 ADD SWAP2 PUSH2 0x500 JUMP JUMPDEST DUP3 ADD SWAP2 SWAP1 PUSH0 MSTORE PUSH1 0x20 PUSH0 KECCAK256 SWAP1 JUMPDEST DUP2 SLOAD DUP2 MSTORE SWAP1 PUSH1 0x1 ADD SWAP1 PUSH1 0x20 ADD DUP1 DUP4 GT PUSH2 0x4E3 JUMPI DUP3 SWAP1 SUB PUSH1 0x1F AND DUP3 ADD SWAP2 JUMPDEST POP POP POP POP POP DUP2 MSTORE POP POP DUP2 MSTORE PUSH1 0x20 ADD SWAP1 PUSH1 0x1 ADD SWAP1 PUSH2 0x43B JUMP JUMPDEST POP POP POP POP SWAP1 POP PUSH0 DUP2 MLOAD PUSH8 0xFFFFFFFFFFFFFFFF DUP2 GT ISZERO PUSH2 0x53A JUMPI PUSH2 0x539 PUSH2 0xA98 JUMP JUMPDEST JUMPDEST PUSH1 0x40 MLOAD SWAP1 DUP1 DUP3 MSTORE DUP1 PUSH1 0x20 MUL PUSH1 0x20 ADD DUP3 ADD PUSH1 0x40 MSTORE DUP1 ISZERO PUSH2 0x573 JUMPI DUP2 PUSH1 0x20 ADD JUMPDEST PUSH2 0x560 PUSH2 0x992 JUMP JUMPDEST DUP2 MSTORE PUSH1 0x20 ADD SWAP1 PUSH1 0x1 SWAP1 SUB SWAP1 DUP2 PUSH2 0x558 JUMPI SWAP1 POP JUMPDEST POP SWAP1 POP PUSH0 JUMPDEST DUP3 MLOAD DUP2 LT ISZERO PUSH2 0x619 JUMPI DUP6 DUP4 DUP3 DUP2 MLOAD DUP2 LT PUSH2 0x595 JUMPI PUSH2 0x594 PUSH2 0x1311 JUMP JUMPDEST JUMPDEST PUSH1 0x20 MUL PUSH1 0x20 ADD ADD MLOAD PUSH1 0x40 ADD MLOAD LT ISZERO DUP1 ISZERO PUSH2 0x5CD JUMPI POP DUP5 DUP4 DUP3 DUP2 MLOAD DUP2 LT PUSH2 0x5BE JUMPI PUSH2 0x5BD PUSH2 0x1311 JUMP JUMPDEST JUMPDEST PUSH1 0x20 MUL PUSH1 0x20 ADD ADD MLOAD PUSH1 0x40 ADD MLOAD GT ISZERO JUMPDEST ISZERO PUSH2 0x60C JUMPI DUP3 DUP2 DUP2 MLOAD DUP2 LT PUSH2 0x5E5 JUMPI PUSH2 0x5E4 PUSH2 0x1311 JUMP JUMPDEST JUMPDEST PUSH1 0x20 MUL PUSH1 0x20 ADD ADD MLOAD DUP3 DUP3 DUP2 MLOAD DUP2 LT PUSH2 0x600 JUMPI PUSH2 0x5FF PUSH2 0x1311 JUMP JUMPDEST JUMPDEST PUSH1 0x20 MUL PUSH1 0x20 ADD ADD DUP2 SWAP1 MSTORE POP JUMPDEST DUP1 DUP1 PUSH1 0x1 ADD SWAP2 POP POP PUSH2 0x578 JUMP JUMPDEST POP DUP1 SWAP3 POP POP POP SWAP4 SWAP3 POP POP POP JUMP JUMPDEST PUSH0 PUSH1 0x2 PUSH0 CALLER PUSH20 0xFFFFFFFFFFFFFFFFFFFFFFFFFFFFFFFFFFFFFFFF AND PUSH20 0xFFFFFFFFFFFFFFFFFFFFFFFFFFFFFFFFFFFFFFFF AND DUP2 MSTORE PUSH1 0x20 ADD SWAP1 DUP2 MSTORE PUSH1 0x20 ADD PUSH0 KECCAK256 SLOAD SUB PUSH2 0x6A5 JUMPI PUSH1 0x40 MLOAD PUSH32 0x8C379A000000000000000000000000000000000000000000000000000000000 DUP2 MSTORE PUSH1 0x4 ADD PUSH2 0x69C SWAP1 PUSH2 0xF41 JUMP JUMPDEST PUSH1 0x40 MLOAD DUP1 SWAP2 SUB SWAP1 REVERT JUMPDEST PUSH0 PUSH1 0x2 PUSH0 DUP4 PUSH20 0xFFFFFFFFFFFFFFFFFFFFFFFFFFFFFFFFFFFFFFFF AND PUSH20 0xFFFFFFFFFFFFFFFFFFFFFFFFFFFFFFFFFFFFFFFF AND DUP2 MSTORE PUSH1 0x20 ADD SWAP1 DUP2 MSTORE PUSH1 0x20 ADD PUSH0 KECCAK256 DUP2 SWAP1 SSTORE POP POP JUMP JUMPDEST PUSH0 PUSH1 0x2 PUSH0 CALLER PUSH20 0xFFFFFFFFFFFFFFFFFFFFFFFFFFFFFFFFFFFFFFFF AND PUSH20 0xFFFFFFFFFFFFFFFFFFFFFFFFFFFFFFFFFFFFFFFF AND DUP2 MSTORE PUSH1 0x20 ADD SWAP1 DUP2 MSTORE PUSH1 0x20 ADD PUSH0 KECCAK256 SLOAD SUB PUSH2 0x769 JUMPI PUSH1 0x40 MLOAD PUSH32 0x8C379A000000000000000000000000000000000000000000000000000000000 DUP2 MSTORE PUSH1 0x4 ADD PUSH2 0x760 SWAP1 PUSH2 0xF41 JUMP JUMPDEST PUSH1 0x40 MLOAD DUP1 SWAP2 SUB SWAP1 REVERT JUMPDEST PUSH1 0x1 PUSH0 DUP6 DUP2 MSTORE PUSH1 0x20 ADD SWAP1 DUP2 MSTORE PUSH1 0x20 ADD PUSH0 KECCAK256 DUP1 SLOAD SWAP1 POP DUP4 LT PUSH2 0x7BF JUMPI PUSH1 0x40 MLOAD PUSH32 0x8C379A000000000000000000000000000000000000000000000000000000000 DUP2 MSTORE PUSH1 0x4 ADD PUSH2 0x7B6 SWAP1 PUSH2 0x1388 JUMP JUMPDEST PUSH1 0x40 MLOAD DUP1 SWAP2 SUB SWAP1 REVERT JUMPDEST DUP2 PUSH1 0x1 PUSH0 DUP7 DUP2 MSTORE PUSH1 0x20 ADD SWAP1 DUP2 MSTORE PUSH1 0x20 ADD PUSH0 KECCAK256 DUP5 DUP2 SLOAD DUP2 LT PUSH2 0x7E3 JUMPI PUSH2 0x7E2 PUSH2 0x1311 JUMP JUMPDEST JUMPDEST SWAP1 PUSH0 MSTORE PUSH1 0x20 PUSH0 KECCAK256 SWAP1 PUSH1 0x4 MUL ADD PUSH1 0x2 ADD DUP2 SWAP1 SSTORE POP DUP1 PUSH1 0x1 PUSH0 DUP7 DUP2 MSTORE PUSH1 0x20 ADD SWAP1 DUP2 MSTORE PUSH1 0x20 ADD PUSH0 KECCAK256 DUP5 DUP2 SLOAD DUP2 LT PUSH2 0x81A JUMPI PUSH2 0x819 PUSH2 0x1311 JUMP JUMPDEST JUMPDEST SWAP1 PUSH0 MSTORE PUSH1 0x20 PUSH0 KECCAK256 SWAP1 PUSH1 0x4 MUL ADD PUSH1 0x3 ADD SWAP1 DUP2 PUSH2 0x835 SWAP2 SWAP1 PUSH2 0x11CD JUMP JUMPDEST POP DUP4 PUSH32 0xA0D3071670661A556FEB29023709B20AB2A62D5C56F63343D67C087D28BE3DF7 DUP5 DUP5 DUP5 PUSH1 0x40 MLOAD PUSH2 0x86A SWAP4 SWAP3 SWAP2 SWAP1 PUSH2 0x13A6 JUMP JUMPDEST PUSH1 0x40 MLOAD DUP1 SWAP2 SUB SWAP1 LOG2 POP POP POP POP JUMP JUMPDEST PUSH1 0x60 PUSH1 0x1 PUSH0 DUP4 DUP2 MSTORE PUSH1 0x20 ADD SWAP1 DUP2 MSTORE PUSH1 0x20 ADD PUSH0 KECCAK256 DUP1 SLOAD DUP1 PUSH1 0x20 MUL PUSH1 0x20 ADD PUSH1 0x40 MLOAD SWAP1 DUP2 ADD PUSH1 0x40 MSTORE DUP1 SWAP3 SWAP2 SWAP1 DUP2 DUP2 MSTORE PUSH1 0x20 ADD PUSH0 SWAP1 JUMPDEST DUP3 DUP3 LT ISZERO PUSH2 0x987 JUMPI DUP4 DUP3 SWAP1 PUSH0 MSTORE PUSH1 0x20 PUSH0 KECCAK256 SWAP1 PUSH1 0x4 MUL ADD PUSH1 0x40 MLOAD DUP1 PUSH1 0x80 ADD PUSH1 0x40 MSTORE SWAP1 DUP2 PUSH0 DUP3 ADD SLOAD DUP2 MSTORE PUSH1 0x20 ADD PUSH1 0x1 DUP3 ADD SLOAD DUP2 MSTORE PUSH1 0x20 ADD PUSH1 0x2 DUP3 ADD SLOAD DUP2 MSTORE PUSH1 0x20 ADD PUSH1 0x3 DUP3 ADD DUP1 SLOAD PUSH2 0x8F8 SWAP1 PUSH2 0x1000 JUMP JUMPDEST DUP1 PUSH1 0x1F ADD PUSH1 0x20 DUP1 SWAP2 DIV MUL PUSH1 0x20 ADD PUSH1 0x40 MLOAD SWAP1 DUP2 ADD PUSH1 0x40 MSTORE DUP1 SWAP3 SWAP2 SWAP1 DUP2 DUP2 MSTORE PUSH1 0x20 ADD DUP3 DUP1 SLOAD PUSH2 0x924 SWAP1 PUSH2 0x1000 JUMP JUMPDEST DUP1 ISZERO PUSH2 0x96F JUMPI DUP1 PUSH1 0x1F LT PUSH2 0x946 JUMPI PUSH2 0x100 DUP1 DUP4 SLOAD DIV MUL DUP4 MSTORE SWAP2 PUSH1 0x20 ADD SWAP2 PUSH2 0x96F JUMP JUMPDEST DUP3 ADD SWAP2 SWAP1 PUSH0 MSTORE PUSH1 0x20 PUSH0 KECCAK256 SWAP1 JUMPDEST DUP2 SLOAD DUP2 MSTORE SWAP1 PUSH1 0x1 ADD SWAP1 PUSH1 0x20 ADD DUP1 DUP4 GT PUSH2 0x952 JUMPI DUP3 SWAP1 SUB PUSH1 0x1F AND DUP3 ADD SWAP2 JUMPDEST POP POP POP POP POP DUP2 MSTORE POP POP DUP2 MSTORE PUSH1 0x20 ADD SWAP1 PUSH1 0x1 ADD SWAP1 PUSH2 0x8AA JUMP JUMPDEST POP POP POP POP SWAP1 POP SWAP2 SWAP1 POP JUMP JUMPDEST PUSH1 0x40 MLOAD DUP1 PUSH1 0x80 ADD PUSH1 0x40 MSTORE DUP1 PUSH0 DUP2 MSTORE PUSH1 0x20 ADD PUSH0 DUP2 MSTORE PUSH1 0x20 ADD PUSH0 DUP2 MSTORE PUSH1 0x20 ADD PUSH1 0x60 DUP2 MSTORE POP SWAP1 JUMP JUMPDEST PUSH0 PUSH1 0x40 MLOAD SWAP1 POP SWAP1 JUMP JUMPDEST PUSH0 DUP1 REVERT JUMPDEST PUSH0 DUP1 REVERT JUMPDEST PUSH0 PUSH20 0xFFFFFFFFFFFFFFFFFFFFFFFFFFFFFFFFFFFFFFFF DUP3 AND SWAP1 POP SWAP2 SWAP1 POP JUMP JUMPDEST PUSH0 PUSH2 0x9F1 DUP3 PUSH2 0x9C8 JUMP JUMPDEST SWAP1 POP SWAP2 SWAP1 POP JUMP JUMPDEST PUSH2 0xA01 DUP2 PUSH2 0x9E7 JUMP JUMPDEST DUP2 EQ PUSH2 0xA0B JUMPI PUSH0 DUP1 REVERT JUMPDEST POP JUMP JUMPDEST PUSH0 DUP2 CALLDATALOAD SWAP1 POP PUSH2 0xA1C DUP2 PUSH2 0x9F8 JUMP JUMPDEST SWAP3 SWAP2 POP POP JUMP JUMPDEST PUSH0 PUSH1 0x20 DUP3 DUP5 SUB SLT ISZERO PUSH2 0xA37 JUMPI PUSH2 0xA36 PUSH2 0x9C0 JUMP JUMPDEST JUMPDEST PUSH0 PUSH2 0xA44 DUP5 DUP3 DUP6 ADD PUSH2 0xA0E JUMP JUMPDEST SWAP2 POP POP SWAP3 SWAP2 POP POP JUMP JUMPDEST PUSH0 DUP2 SWAP1 POP SWAP2 SWAP1 POP JUMP JUMPDEST PUSH2 0xA5F DUP2 PUSH2 0xA4D JUMP JUMPDEST DUP2 EQ PUSH2 0xA69 JUMPI PUSH0 DUP1 REVERT JUMPDEST POP JUMP JUMPDEST PUSH0 DUP2 CALLDATALOAD SWAP1 POP PUSH2 0xA7A DUP2 PUSH2 0xA56 JUMP JUMPDEST SWAP3 SWAP2 POP POP JUMP JUMPDEST PUSH0 DUP1 REVERT JUMPDEST PUSH0 DUP1 REVERT JUMPDEST PUSH0 PUSH1 0x1F NOT PUSH1 0x1F DUP4 ADD AND SWAP1 POP SWAP2 SWAP1 POP JUMP JUMPDEST PUSH32 0x4E487B7100000000000000000000000000000000000000000000000000000000 PUSH0 MSTORE PUSH1 0x41 PUSH1 0x4 MSTORE PUSH1 0x24 PUSH0 REVERT JUMPDEST PUSH2 0xACE DUP3 PUSH2 0xA88 JUMP JUMPDEST DUP2 ADD DUP2 DUP2 LT PUSH8 0xFFFFFFFFFFFFFFFF DUP3 GT OR ISZERO PUSH2 0xAED JUMPI PUSH2 0xAEC PUSH2 0xA98 JUMP JUMPDEST JUMPDEST DUP1 PUSH1 0x40 MSTORE POP POP POP JUMP JUMPDEST PUSH0 PUSH2 0xAFF PUSH2 0x9B7 JUMP JUMPDEST SWAP1 POP PUSH2 0xB0B DUP3 DUP3 PUSH2 0xAC5 JUMP JUMPDEST SWAP2 SWAP1 POP JUMP JUMPDEST PUSH0 PUSH8 0xFFFFFFFFFFFFFFFF DUP3 GT ISZERO PUSH2 0xB2A JUMPI PUSH2 0xB29 PUSH2 0xA98 JUMP JUMPDEST JUMPDEST PUSH2 0xB33 DUP3 PUSH2 0xA88 JUMP JUMPDEST SWAP1 POP PUSH1 0x20 DUP2 ADD SWAP1 POP SWAP2 SWAP1 POP JUMP JUMPDEST DUP3 DUP2 DUP4 CALLDATACOPY PUSH0 DUP4 DUP4 ADD MSTORE POP POP POP JUMP JUMPDEST PUSH0 PUSH2 0xB60 PUSH2 0xB5B DUP5 PUSH2 0xB10 JUMP JUMPDEST PUSH2 0xAF6 JUMP JUMPDEST SWAP1 POP DUP3 DUP2 MSTORE PUSH1 0x20 DUP2 ADD DUP5 DUP5 DUP5 ADD GT ISZERO PUSH2 0xB7C JUMPI PUSH2 0xB7B PUSH2 0xA84 JUMP JUMPDEST JUMPDEST PUSH2 0xB87 DUP5 DUP3 DUP6 PUSH2 0xB40 JUMP JUMPDEST POP SWAP4 SWAP3 POP POP POP JUMP JUMPDEST PUSH0 DUP3 PUSH1 0x1F DUP4 ADD SLT PUSH2 0xBA3 JUMPI PUSH2 0xBA2 PUSH2 0xA80 JUMP JUMPDEST JUMPDEST DUP2 CALLDATALOAD PUSH2 0xBB3 DUP5 DUP3 PUSH1 0x20 DUP7 ADD PUSH2 0xB4E JUMP JUMPDEST SWAP2 POP POP SWAP3 SWAP2 POP POP JUMP JUMPDEST PUSH0 DUP1 PUSH0 PUSH1 0x60 DUP5 DUP7 SUB SLT ISZERO PUSH2 0xBD3 JUMPI PUSH2 0xBD2 PUSH2 0x9C0 JUMP JUMPDEST JUMPDEST PUSH0 PUSH2 0xBE0 DUP7 DUP3 DUP8 ADD PUSH2 0xA6C JUMP JUMPDEST SWAP4 POP POP PUSH1 0x20 PUSH2 0xBF1 DUP7 DUP3 DUP8 ADD PUSH2 0xA6C JUMP JUMPDEST SWAP3 POP POP PUSH1 0x40 DUP5 ADD CALLDATALOAD PUSH8 0xFFFFFFFFFFFFFFFF DUP2 GT ISZERO PUSH2 0xC12 JUMPI PUSH2 0xC11 PUSH2 0x9C4 JUMP JUMPDEST JUMPDEST PUSH2 0xC1E DUP7 DUP3 DUP8 ADD PUSH2 0xB8F JUMP JUMPDEST SWAP2 POP POP SWAP3 POP SWAP3 POP SWAP3 JUMP JUMPDEST PUSH0 DUP1 PUSH0 PUSH1 0x60 DUP5 DUP7 SUB SLT ISZERO PUSH2 0xC3F JUMPI PUSH2 0xC3E PUSH2 0x9C0 JUMP JUMPDEST JUMPDEST PUSH0 PUSH2 0xC4C DUP7 DUP3 DUP8 ADD PUSH2 0xA6C JUMP JUMPDEST SWAP4 POP POP PUSH1 0x20 PUSH2 0xC5D DUP7 DUP3 DUP8 ADD PUSH2 0xA6C JUMP JUMPDEST SWAP3 POP POP PUSH1 0x40 PUSH2 0xC6E DUP7 DUP3 DUP8 ADD PUSH2 0xA6C JUMP JUMPDEST SWAP2 POP POP SWAP3 POP SWAP3 POP SWAP3 JUMP JUMPDEST PUSH0 DUP2 MLOAD SWAP1 POP SWAP2 SWAP1 POP JUMP JUMPDEST PUSH0 DUP3 DUP3 MSTORE PUSH1 0x20 DUP3 ADD SWAP1 POP SWAP3 SWAP2 POP POP JUMP JUMPDEST PUSH0 DUP2 SWAP1 POP PUSH1 0x20 DUP3 ADD SWAP1 POP SWAP2 SWAP1 POP JUMP JUMPDEST PUSH2 0xCAA DUP2 PUSH2 0xA4D JUMP JUMPDEST DUP3 MSTORE POP POP JUMP JUMPDEST PUSH0 DUP2 MLOAD SWAP1 POP SWAP2 SWAP1 POP JUMP JUMPDEST PUSH0 DUP3 DUP3 MSTORE PUSH1 0x20 DUP3 ADD SWAP1 POP SWAP3 SWAP2 POP POP JUMP JUMPDEST PUSH0 JUMPDEST DUP4 DUP2 LT ISZERO PUSH2 0xCE7 JUMPI DUP1 DUP3 ADD MLOAD DUP2 DUP5 ADD MSTORE PUSH1 0x20 DUP2 ADD SWAP1 POP PUSH2 0xCCC JUMP JUMPDEST PUSH0 DUP5 DUP5 ADD MSTORE POP POP POP POP JUMP JUMPDEST PUSH0 PUSH2 0xCFC DUP3 PUSH2 0xCB0 JUMP JUMPDEST PUSH2 0xD06 DUP2 DUP6 PUSH2 0xCBA JUMP JUMPDEST SWAP4 POP PUSH2 0xD16 DUP2 DUP6 PUSH1 0x20 DUP7 ADD PUSH2 0xCCA JUMP JUMPDEST PUSH2 0xD1F DUP2 PUSH2 0xA88 JUMP JUMPDEST DUP5 ADD SWAP2 POP POP SWAP3 SWAP2 POP POP JUMP JUMPDEST PUSH0 PUSH1 0x80 DUP4 ADD PUSH0 DUP4 ADD MLOAD PUSH2 0xD3F PUSH0 DUP7 ADD DUP3 PUSH2 0xCA1 JUMP JUMPDEST POP PUSH1 0x20 DUP4 ADD MLOAD PUSH2 0xD52 PUSH1 0x20 DUP7 ADD DUP3 PUSH2 0xCA1 JUMP JUMPDEST POP PUSH1 0x40 DUP4 ADD MLOAD PUSH2 0xD65 PUSH1 0x40 DUP7 ADD DUP3 PUSH2 0xCA1 JUMP JUMPDEST POP PUSH1 0x60 DUP4 ADD MLOAD DUP5 DUP3 SUB PUSH1 0x60 DUP7 ADD MSTORE PUSH2 0xD7D DUP3 DUP3 PUSH2 0xCF2 JUMP JUMPDEST SWAP2 POP POP DUP1 SWAP2 POP POP SWAP3 SWAP2 POP POP JUMP JUMPDEST PUSH0 PUSH2 0xD95 DUP4 DUP4 PUSH2 0xD2A JUMP JUMPDEST SWAP1 POP SWAP3 SWAP2 POP POP JUMP JUMPDEST PUSH0 PUSH1 0x20 DUP3 ADD SWAP1 POP SWAP2 SWAP1 POP JUMP JUMPDEST PUSH0 PUSH2 0xDB3 DUP3 PUSH2 0xC78 JUMP JUMPDEST PUSH2 0xDBD DUP2 DUP6 PUSH2 0xC82 JUMP JUMPDEST SWAP4 POP DUP4 PUSH1 0x20 DUP3 MUL DUP6 ADD PUSH2 0xDCF DUP6 PUSH2 0xC92 JUMP JUMPDEST DUP1 PUSH0 JUMPDEST DUP6 DUP2 LT ISZERO PUSH2 0xE0A JUMPI DUP5 DUP5 SUB DUP10 MSTORE DUP2 MLOAD PUSH2 0xDEB DUP6 DUP3 PUSH2 0xD8A JUMP JUMPDEST SWAP5 POP PUSH2 0xDF6 DUP4 PUSH2 0xD9D JUMP JUMPDEST SWAP3 POP PUSH1 0x20 DUP11 ADD SWAP10 POP POP PUSH1 0x1 DUP2 ADD SWAP1 POP PUSH2 0xDD2 JUMP JUMPDEST POP DUP3 SWAP8 POP DUP8 SWAP6 POP POP POP POP POP POP SWAP3 SWAP2 POP POP JUMP JUMPDEST PUSH0 PUSH1 0x20 DUP3 ADD SWAP1 POP DUP2 DUP2 SUB PUSH0 DUP4 ADD MSTORE PUSH2 0xE34 DUP2 DUP5 PUSH2 0xDA9 JUMP JUMPDEST SWAP1 POP SWAP3 SWAP2 POP POP JUMP JUMPDEST PUSH0 DUP1 PUSH0 DUP1 PUSH1 0x80 DUP6 DUP8 SUB SLT ISZERO PUSH2 0xE54 JUMPI PUSH2 0xE53 PUSH2 0x9C0 JUMP JUMPDEST JUMPDEST PUSH0 PUSH2 0xE61 DUP8 DUP3 DUP9 ADD PUSH2 0xA6C JUMP JUMPDEST SWAP5 POP POP PUSH1 0x20 PUSH2 0xE72 DUP8 DUP3 DUP9 ADD PUSH2 0xA6C JUMP JUMPDEST SWAP4 POP POP PUSH1 0x40 PUSH2 0xE83 DUP8 DUP3 DUP9 ADD PUSH2 0xA6C JUMP JUMPDEST SWAP3 POP POP PUSH1 0x60 DUP6 ADD CALLDATALOAD PUSH8 0xFFFFFFFFFFFFFFFF DUP2 GT ISZERO PUSH2 0xEA4 JUMPI PUSH2 0xEA3 PUSH2 0x9C4 JUMP JUMPDEST JUMPDEST PUSH2 0xEB0 DUP8 DUP3 DUP9 ADD PUSH2 0xB8F JUMP JUMPDEST SWAP2 POP POP SWAP3 SWAP6 SWAP2 SWAP5 POP SWAP3 POP JUMP JUMPDEST PUSH0 PUSH1 0x20 DUP3 DUP5 SUB SLT ISZERO PUSH2 0xED1 JUMPI PUSH2 0xED0 PUSH2 0x9C0 JUMP JUMPDEST JUMPDEST PUSH0 PUSH2 0xEDE DUP5 DUP3 DUP6 ADD PUSH2 0xA6C JUMP JUMPDEST SWAP2 POP POP SWAP3 SWAP2 POP POP JUMP JUMPDEST PUSH0 DUP3 DUP3 MSTORE PUSH1 0x20 DUP3 ADD SWAP1 POP SWAP3 SWAP2 POP POP JUMP JUMPDEST PUSH32 0x556E617574686F72697A65642061636365737300000000000000000000000000 PUSH0 DUP3 ADD MSTORE POP JUMP JUMPDEST PUSH0 PUSH2 0xF2B PUSH1 0x13 DUP4 PUSH2 0xEE7 JUMP JUMPDEST SWAP2 POP PUSH2 0xF36 DUP3 PUSH2 0xEF7 JUMP JUMPDEST PUSH1 0x20 DUP3 ADD SWAP1 POP SWAP2 SWAP1 POP JUMP JUMPDEST PUSH0 PUSH1 0x20 DUP3 ADD SWAP1 POP DUP2 DUP2 SUB PUSH0 DUP4 ADD MSTORE PUSH2 0xF58 DUP2 PUSH2 0xF1F JUMP JUMPDEST SWAP1 POP SWAP2 SWAP1 POP JUMP JUMPDEST PUSH32 0x4E487B7100000000000000000000000000000000000000000000000000000000 PUSH0 MSTORE PUSH1 0x11 PUSH1 0x4 MSTORE PUSH1 0x24 PUSH0 REVERT JUMPDEST PUSH0 PUSH2 0xF96 DUP3 PUSH2 0xA4D JUMP JUMPDEST SWAP2 POP PUSH32 0xFFFFFFFFFFFFFFFFFFFFFFFFFFFFFFFFFFFFFFFFFFFFFFFFFFFFFFFFFFFFFFFF DUP3 SUB PUSH2 0xFC8 JUMPI PUSH2 0xFC7 PUSH2 0xF5F JUMP JUMPDEST JUMPDEST PUSH1 0x1 DUP3 ADD SWAP1 POP SWAP2 SWAP1 POP JUMP JUMPDEST PUSH32 0x4E487B7100000000000000000000000000000000000000000000000000000000 PUSH0 MSTORE PUSH1 0x22 PUSH1 0x4 MSTORE PUSH1 0x24 PUSH0 REVERT JUMPDEST PUSH0 PUSH1 0x2 DUP3 DIV SWAP1 POP PUSH1 0x1 DUP3 AND DUP1 PUSH2 0x1017 JUMPI PUSH1 0x7F DUP3 AND SWAP2 POP JUMPDEST PUSH1 0x20 DUP3 LT DUP2 SUB PUSH2 0x102A JUMPI PUSH2 0x1029 PUSH2 0xFD3 JUMP JUMPDEST JUMPDEST POP SWAP2 SWAP1 POP JUMP JUMPDEST PUSH0 DUP2 SWAP1 POP DUP2 PUSH0 MSTORE PUSH1 0x20 PUSH0 KECCAK256 SWAP1 POP SWAP2 SWAP1 POP JUMP JUMPDEST PUSH0 PUSH1 0x20 PUSH1 0x1F DUP4 ADD DIV SWAP1 POP SWAP2 SWAP1 POP JUMP JUMPDEST PUSH0 DUP3 DUP3 SHL SWAP1 POP SWAP3 SWAP2 POP POP JUMP JUMPDEST PUSH0 PUSH1 0x8 DUP4 MUL PUSH2 0x108C PUSH32 0xFFFFFFFFFFFFFFFFFFFFFFFFFFFFFFFFFFFFFFFFFFFFFFFFFFFFFFFFFFFFFFFF DUP3 PUSH2 0x1051 JUMP JUMPDEST PUSH2 0x1096 DUP7 DUP4 PUSH2 0x1051 JUMP JUMPDEST SWAP6 POP DUP1 NOT DUP5 AND SWAP4 POP DUP1 DUP7 AND DUP5 OR SWAP3 POP POP POP SWAP4 SWAP3 POP POP POP JUMP JUMPDEST PUSH0 DUP2 SWAP1 POP SWAP2 SWAP1 POP JUMP JUMPDEST PUSH0 PUSH2 0x10D1 PUSH2 0x10CC PUSH2 0x10C7 DUP5 PUSH2 0xA4D JUMP JUMPDEST PUSH2 0x10AE JUMP JUMPDEST PUSH2 0xA4D JUMP JUMPDEST SWAP1 POP SWAP2 SWAP1 POP JUMP JUMPDEST PUSH0 DUP2 SWAP1 POP SWAP2 SWAP1 POP JUMP JUMPDEST PUSH2 0x10EA DUP4 PUSH2 0x10B7 JUMP JUMPDEST PUSH2 0x10FE PUSH2 0x10F6 DUP3 PUSH2 0x10D8 JUMP JUMPDEST DUP5 DUP5 SLOAD PUSH2 0x105D JUMP JUMPDEST DUP3 SSTORE POP POP POP POP JUMP JUMPDEST PUSH0 SWAP1 JUMP JUMPDEST PUSH2 0x1112 PUSH2 0x1106 JUMP JUMPDEST PUSH2 0x111D DUP2 DUP5 DUP5 PUSH2 0x10E1 JUMP JUMPDEST POP POP POP JUMP JUMPDEST JUMPDEST DUP2 DUP2 LT ISZERO PUSH2 0x1140 JUMPI PUSH2 0x1135 PUSH0 DUP3 PUSH2 0x110A JUMP JUMPDEST PUSH1 0x1 DUP2 ADD SWAP1 POP PUSH2 0x1123 JUMP JUMPDEST POP POP JUMP JUMPDEST PUSH1 0x1F DUP3 GT ISZERO PUSH2 0x1185 JUMPI PUSH2 0x1156 DUP2 PUSH2 0x1030 JUMP JUMPDEST PUSH2 0x115F DUP5 PUSH2 0x1042 JUMP JUMPDEST DUP2 ADD PUSH1 0x20 DUP6 LT ISZERO PUSH2 0x116E JUMPI DUP2 SWAP1 POP JUMPDEST PUSH2 0x1182 PUSH2 0x117A DUP6 PUSH2 0x1042 JUMP JUMPDEST DUP4 ADD DUP3 PUSH2 0x1122 JUMP JUMPDEST POP POP JUMPDEST POP POP POP JUMP JUMPDEST PUSH0 DUP3 DUP3 SHR SWAP1 POP SWAP3 SWAP2 POP POP JUMP JUMPDEST PUSH0 PUSH2 0x11A5 PUSH0 NOT DUP5 PUSH1 0x8 MUL PUSH2 0x118A JUMP JUMPDEST NOT DUP1 DUP4 AND SWAP2 POP POP SWAP3 SWAP2 POP POP JUMP JUMPDEST PUSH0 PUSH2 0x11BD DUP4 DUP4 PUSH2 0x1196 JUMP JUMPDEST SWAP2 POP DUP3 PUSH1 0x2 MUL DUP3 OR SWAP1 POP SWAP3 SWAP2 POP POP JUMP JUMPDEST PUSH2 0x11D6 DUP3 PUSH2 0xCB0 JUMP JUMPDEST PUSH8 0xFFFFFFFFFFFFFFFF DUP2 GT ISZERO PUSH2 0x11EF JUMPI PUSH2 0x11EE PUSH2 0xA98 JUMP JUMPDEST JUMPDEST PUSH2 0x11F9 DUP3 SLOAD PUSH2 0x1000 JUMP JUMPDEST PUSH2 0x1204 DUP3 DUP3 DUP6 PUSH2 0x1144 JUMP JUMPDEST PUSH0 PUSH1 0x20 SWAP1 POP PUSH1 0x1F DUP4 GT PUSH1 0x1 DUP2 EQ PUSH2 0x1235 JUMPI PUSH0 DUP5 ISZERO PUSH2 0x1223 JUMPI DUP3 DUP8 ADD MLOAD SWAP1 POP JUMPDEST PUSH2 0x122D DUP6 DUP3 PUSH2 0x11B2 JUMP JUMPDEST DUP7 SSTORE POP PUSH2 0x1294 JUMP JUMPDEST PUSH1 0x1F NOT DUP5 AND PUSH2 0x1243 DUP7 PUSH2 0x1030 JUMP JUMPDEST PUSH0 JUMPDEST DUP3 DUP2 LT ISZERO PUSH2 0x126A JUMPI DUP5 DUP10 ADD MLOAD DUP3 SSTORE PUSH1 0x1 DUP3 ADD SWAP2 POP PUSH1 0x20 DUP6 ADD SWAP5 POP PUSH1 0x20 DUP2 ADD SWAP1 POP PUSH2 0x1245 JUMP JUMPDEST DUP7 DUP4 LT ISZERO PUSH2 0x1287 JUMPI DUP5 DUP10 ADD MLOAD PUSH2 0x1283 PUSH1 0x1F DUP10 AND DUP3 PUSH2 0x1196 JUMP JUMPDEST DUP4 SSTORE POP JUMPDEST PUSH1 0x1 PUSH1 0x2 DUP9 MUL ADD DUP9 SSTORE POP POP POP JUMPDEST POP POP POP POP POP POP JUMP JUMPDEST PUSH2 0x12A5 DUP2 PUSH2 0xA4D JUMP JUMPDEST DUP3 MSTORE POP POP JUMP JUMPDEST PUSH0 PUSH2 0x12B5 DUP3 PUSH2 0xCB0 JUMP JUMPDEST PUSH2 0x12BF DUP2 DUP6 PUSH2 0xEE7 JUMP JUMPDEST SWAP4 POP PUSH2 0x12CF DUP2 DUP6 PUSH1 0x20 DUP7 ADD PUSH2 0xCCA JUMP JUMPDEST PUSH2 0x12D8 DUP2 PUSH2 0xA88 JUMP JUMPDEST DUP5 ADD SWAP2 POP POP SWAP3 SWAP2 POP POP JUMP JUMPDEST PUSH0 PUSH1 0x40 DUP3 ADD SWAP1 POP PUSH2 0x12F6 PUSH0 DUP4 ADD DUP6 PUSH2 0x129C JUMP JUMPDEST DUP2 DUP2 SUB PUSH1 0x20 DUP4 ADD MSTORE PUSH2 0x1308 DUP2 DUP5 PUSH2 0x12AB JUMP JUMPDEST SWAP1 POP SWAP4 SWAP3 POP POP POP JUMP JUMPDEST PUSH32 0x4E487B7100000000000000000000000000000000000000000000000000000000 PUSH0 MSTORE PUSH1 0x32 PUSH1 0x4 MSTORE PUSH1 0x24 PUSH0 REVERT JUMPDEST PUSH32 0x496E646578206F7574206F6620626F756E647300000000000000000000000000 PUSH0 DUP3 ADD MSTORE POP JUMP JUMPDEST PUSH0 PUSH2 0x1372 PUSH1 0x13 DUP4 PUSH2 0xEE7 JUMP JUMPDEST SWAP2 POP PUSH2 0x137D DUP3 PUSH2 0x133E JUMP JUMPDEST PUSH1 0x20 DUP3 ADD SWAP1 POP SWAP2 SWAP1 POP JUMP JUMPDEST PUSH0 PUSH1 0x20 DUP3 ADD SWAP1 POP DUP2 DUP2 SUB PUSH0 DUP4 ADD MSTORE PUSH2 0x139F DUP2 PUSH2 0x1366 JUMP JUMPDEST SWAP1 POP SWAP2 SWAP1 POP JUMP JUMPDEST PUSH0 PUSH1 0x60 DUP3 ADD SWAP1 POP PUSH2 0x13B9 PUSH0 DUP4 ADD DUP7 PUSH2 0x129C JUMP JUMPDEST PUSH2 0x13C6 PUSH1 0x20 DUP4 ADD DUP6 PUSH2 0x129C JUMP JUMPDEST DUP2 DUP2 SUB PUSH1 0x40 DUP4 ADD MSTORE PUSH2 0x13D8 DUP2 DUP5 PUSH2 0x12AB JUMP JUMPDEST SWAP1 POP SWAP5 SWAP4 POP POP POP POP JUMP INVALID LOG2 PUSH5 0x6970667358 0x22 SLT KECCAK256 PUSH10 0x36DE31B76489136A3D8B DUP15 0x26 SWAP7 SWAP2 0xB4 0xF6 0x2E PUSH31 0xB82354DA891FD04EE80917BB8264736F6C6343000816003300000000000000 "
				},
				"gasEstimates": {
					"creation": {
						"codeDepositCost": "1028800",
						"executionCost": "45371",
						"totalCost": "1074171"
					},
					"external": {
						"authorizeEntity(address)": "73399",
						"getAttendanceByDateRange(uint256,uint256,uint256)": "infinite",
						"getAttendanceByEmployeeId(uint256)": "infinite",
						"recordAttendance(uint256,uint256,string)": "infinite",
						"revokeAuthorization(address)": "7803",
						"updateAttendance(uint256,uint256,uint256,string)": "infinite"
					}
				},
				"methodIdentifiers": {
					"authorizeEntity(address)": "02031024",
					"getAttendanceByDateRange(uint256,uint256,uint256)": "9f43f46f",
					"getAttendanceByEmployeeId(uint256)": "dd0826c6",
					"recordAttendance(uint256,uint256,string)": "08c220c2",
					"revokeAuthorization(address)": "b48028e3",
					"updateAttendance(uint256,uint256,uint256,string)": "b608d3a4"
				}
			},
			"storageLayout": {
				"storage": [
					{
						"astId": 13,
						"contract": "internal/repo/contracts/attendance/attendance.sol:AttendanceContract",
						"label": "number",
						"offset": 0,
						"slot": "0",
						"type": "t_uint256"
					},
					{
						"astId": 19,
						"contract": "internal/repo/contracts/attendance/attendance.sol:AttendanceContract",
						"label": "attendanceRecords",
						"offset": 0,
						"slot": "1",
						"type": "t_mapping(t_uint256,t_array(t_struct(AttendanceRecord)10_storage)dyn_storage)"
					},
					{
						"astId": 23,
						"contract": "internal/repo/contracts/attendance/attendance.sol:AttendanceContract",
						"label": "authorizedEntities",
						"offset": 0,
						"slot": "2",
						"type": "t_mapping(t_address,t_uint256)"
					}
				],
				"types": {
					"t_address": {
						"encoding": "inplace",
						"label": "address",
						"numberOfBytes": "20"
					},
					"t_array(t_struct(AttendanceRecord)10_storage)dyn_storage": {
						"base": "t_struct(AttendanceRecord)10_storage",
						"encoding": "dynamic_array",
						"label": "struct AttendanceContract.AttendanceRecord[]",
						"numberOfBytes": "32"
					},
					"t_mapping(t_address,t_uint256)": {
						"encoding": "mapping",
						"key": "t_address",
						"label": "mapping(address => uint256)",
						"numberOfBytes": "32",
						"value": "t_uint256"
					},
					"t_mapping(t_uint256,t_array(t_struct(AttendanceRecord)10_storage)dyn_storage)": {
						"encoding": "mapping",
						"key": "t_uint256",
						"label": "mapping(uint256 => struct AttendanceContract.AttendanceRecord[])",
						"numberOfBytes": "32",
						"value": "t_array(t_struct(AttendanceRecord)10_storage)dyn_storage"
					},
					"t_string_storage": {
						"encoding": "bytes",
						"label": "string",
						"numberOfBytes": "32"
					},
					"t_struct(AttendanceRecord)10_storage": {
						"encoding": "inplace",
						"label": "struct AttendanceContract.AttendanceRecord",
						"members": [
							{
								"astId": 3,
								"contract": "internal/repo/contracts/attendance/attendance.sol:AttendanceContract",
								"label": "employeeId",
								"offset": 0,
								"slot": "0",
								"type": "t_uint256"
							},
							{
								"astId": 5,
								"contract": "internal/repo/contracts/attendance/attendance.sol:AttendanceContract",
								"label": "index",
								"offset": 0,
								"slot": "1",
								"type": "t_uint256"
							},
							{
								"astId": 7,
								"contract": "internal/repo/contracts/attendance/attendance.sol:AttendanceContract",
								"label": "checkInTime",
								"offset": 0,
								"slot": "2",
								"type": "t_uint256"
							},
							{
								"astId": 9,
								"contract": "internal/repo/contracts/attendance/attendance.sol:AttendanceContract",
								"label": "details",
								"offset": 0,
								"slot": "3",
								"type": "t_string_storage"
							}
						],
						"numberOfBytes": "128"
					},
					"t_uint256": {
						"encoding": "inplace",
						"label": "uint256",
						"numberOfBytes": "32"
					}
				}
			},
			"userdoc": {
				"kind": "user",
				"methods": {},
				"version": 1
			}
		}
	}
}