{
	"data": {
		"bytecode": {
			"linkReferences": {},
			"object": "608060405260015f55348015610013575f80fd5b50620f424060025f3373ffffffffffffffffffffffffffffffffffffffff1673ffffffffffffffffffffffffffffffffffffffff1681526020019081526020015f20819055506113c2806100665f395ff3fe608060405234801561000f575f80fd5b5060043610610060575f3560e01c8063020310241461006457806308c220c2146100805780639f43f46f1461009c578063b48028e3146100cc578063b608d3a4146100e8578063dd0826c614610104575b5f80fd5b61007e600480360381019061007991906109df565b610134565b005b61009a60048036038101906100959190610b79565b610213565b005b6100b660048036038101906100b19190610be5565b6103df565b6040516100c39190610dc6565b60405180910390f35b6100e660048036038101906100e191906109df565b6105f3565b005b61010260048036038101906100fd9190610de6565b6106b7565b005b61011e60048036038101906101199190610e66565b610845565b60405161012b9190610dc6565b60405180910390f35b5f60025f3373ffffffffffffffffffffffffffffffffffffffff1673ffffffffffffffffffffffffffffffffffffffff1681526020019081526020015f2054036101b3576040517f08c379a00000000000000000000000000000000000000000000000000000000081526004016101aa90610eeb565b60405180910390fd5b5f808154809291906101c490610f36565b919050555f819055505f5460025f8373ffffffffffffffffffffffffffffffffffffffff1673ffffffffffffffffffffffffffffffffffffffff1681526020019081526020015f208190555050565b5f60025f3373ffffffffffffffffffffffffffffffffffffffff1673ffffffffffffffffffffffffffffffffffffffff1681526020019081526020015f205403610292576040517f08c379a000000000000000000000000000000000000000000000000000000000815260040161028990610eeb565b60405180910390fd5b620f424060025f3373ffffffffffffffffffffffffffffffffffffffff1673ffffffffffffffffffffffffffffffffffffffff1681526020019081526020015f20541415801561031f575060025f3373ffffffffffffffffffffffffffffffffffffffff1673ffffffffffffffffffffffffffffffffffffffff1681526020019081526020015f20548314155b6103da5760015f8481526020019081526020015f20604051806060016040528085815260200184815260200183815250908060018154018082558091505060019003905f5260205f2090600302015f909190919091505f820151815f015560208201518160010155604082015181600201908161039c9190611177565b505050827f32e7c28972e89757b6baa3898e54af0a57a00f3a4df3d1ad95609eb202460b3a83836040516103d192919061128d565b60405180910390a25b505050565b60605f60015f8681526020019081526020015f20805480602002602001604051908101604052809291908181526020015f905b828210156104e5578382905f5260205f2090600302016040518060600160405290815f82015481526020016001820154815260200160028201805461045690610faa565b80601f016020809104026020016040519081016040528092919081815260200182805461048290610faa565b80156104cd5780601f106104a4576101008083540402835291602001916104cd565b820191905f5260205f20905b8154815290600101906020018083116104b057829003601f168201915b50505050508152505081526020019060010190610412565b5050505090505f815167ffffffffffffffff81111561050757610506610a55565b5b60405190808252806020026020018201604052801561054057816020015b61052d610955565b8152602001906001900390816105255790505b5090505f5b82518110156105e65785838281518110610562576105616112bb565b5b6020026020010151602001511015801561059a57508483828151811061058b5761058a6112bb565b5b60200260200101516020015111155b156105d9578281815181106105b2576105b16112bb565b5b60200260200101518282815181106105cd576105cc6112bb565b5b60200260200101819052505b8080600101915050610545565b5080925050509392505050565b5f60025f3373ffffffffffffffffffffffffffffffffffffffff1673ffffffffffffffffffffffffffffffffffffffff1681526020019081526020015f205403610672576040517f08c379a000000000000000000000000000000000000000000000000000000000815260040161066990610eeb565b60405180910390fd5b5f60025f8373ffffffffffffffffffffffffffffffffffffffff1673ffffffffffffffffffffffffffffffffffffffff1681526020019081526020015f208190555050565b5f60025f3373ffffffffffffffffffffffffffffffffffffffff1673ffffffffffffffffffffffffffffffffffffffff1681526020019081526020015f205403610736576040517f08c379a000000000000000000000000000000000000000000000000000000000815260040161072d90610eeb565b60405180910390fd5b60015f8581526020019081526020015f2080549050831061078c576040517f08c379a000000000000000000000000000000000000000000000000000000000815260040161078390611332565b60405180910390fd5b8160015f8681526020019081526020015f2084815481106107b0576107af6112bb565b5b905f5260205f209060030201600101819055508060015f8681526020019081526020015f2084815481106107e7576107e66112bb565b5b905f5260205f20906003020160020190816108029190611177565b50837fa0d3071670661a556feb29023709b20ab2a62d5c56f63343d67c087d28be3df784848460405161083793929190611350565b60405180910390a250505050565b606060015f8381526020019081526020015f20805480602002602001604051908101604052809291908181526020015f905b8282101561094a578382905f5260205f2090600302016040518060600160405290815f8201548152602001600182015481526020016002820180546108bb90610faa565b80601f01602080910402602001604051908101604052809291908181526020018280546108e790610faa565b80156109325780601f1061090957610100808354040283529160200191610932565b820191905f5260205f20905b81548152906001019060200180831161091557829003601f168201915b50505050508152505081526020019060010190610877565b505050509050919050565b60405180606001604052805f81526020015f8152602001606081525090565b5f604051905090565b5f80fd5b5f80fd5b5f73ffffffffffffffffffffffffffffffffffffffff82169050919050565b5f6109ae82610985565b9050919050565b6109be816109a4565b81146109c8575f80fd5b50565b5f813590506109d9816109b5565b92915050565b5f602082840312156109f4576109f361097d565b5b5f610a01848285016109cb565b91505092915050565b5f819050919050565b610a1c81610a0a565b8114610a26575f80fd5b50565b5f81359050610a3781610a13565b92915050565b5f80fd5b5f80fd5b5f601f19601f8301169050919050565b7f4e487b71000000000000000000000000000000000000000000000000000000005f52604160045260245ffd5b610a8b82610a45565b810181811067ffffffffffffffff82111715610aaa57610aa9610a55565b5b80604052505050565b5f610abc610974565b9050610ac88282610a82565b919050565b5f67ffffffffffffffff821115610ae757610ae6610a55565b5b610af082610a45565b9050602081019050919050565b828183375f83830152505050565b5f610b1d610b1884610acd565b610ab3565b905082815260208101848484011115610b3957610b38610a41565b5b610b44848285610afd565b509392505050565b5f82601f830112610b6057610b5f610a3d565b5b8135610b70848260208601610b0b565b91505092915050565b5f805f60608486031215610b9057610b8f61097d565b5b5f610b9d86828701610a29565b9350506020610bae86828701610a29565b925050604084013567ffffffffffffffff811115610bcf57610bce610981565b5b610bdb86828701610b4c565b9150509250925092565b5f805f60608486031215610bfc57610bfb61097d565b5b5f610c0986828701610a29565b9350506020610c1a86828701610a29565b9250506040610c2b86828701610a29565b9150509250925092565b5f81519050919050565b5f82825260208201905092915050565b5f819050602082019050919050565b610c6781610a0a565b82525050565b5f81519050919050565b5f82825260208201905092915050565b5f5b83811015610ca4578082015181840152602081019050610c89565b5f8484015250505050565b5f610cb982610c6d565b610cc38185610c77565b9350610cd3818560208601610c87565b610cdc81610a45565b840191505092915050565b5f606083015f830151610cfc5f860182610c5e565b506020830151610d0f6020860182610c5e565b5060408301518482036040860152610d278282610caf565b9150508091505092915050565b5f610d3f8383610ce7565b905092915050565b5f602082019050919050565b5f610d5d82610c35565b610d678185610c3f565b935083602082028501610d7985610c4f565b805f5b85811015610db45784840389528151610d958582610d34565b9450610da083610d47565b925060208a01995050600181019050610d7c565b50829750879550505050505092915050565b5f6020820190508181035f830152610dde8184610d53565b905092915050565b5f805f8060808587031215610dfe57610dfd61097d565b5b5f610e0b87828801610a29565b9450506020610e1c87828801610a29565b9350506040610e2d87828801610a29565b925050606085013567ffffffffffffffff811115610e4e57610e4d610981565b5b610e5a87828801610b4c565b91505092959194509250565b5f60208284031215610e7b57610e7a61097d565b5b5f610e8884828501610a29565b91505092915050565b5f82825260208201905092915050565b7f556e617574686f72697a656420616363657373000000000000000000000000005f82015250565b5f610ed5601383610e91565b9150610ee082610ea1565b602082019050919050565b5f6020820190508181035f830152610f0281610ec9565b9050919050565b7f4e487b71000000000000000000000000000000000000000000000000000000005f52601160045260245ffd5b5f610f4082610a0a565b91507fffffffffffffffffffffffffffffffffffffffffffffffffffffffffffffffff8203610f7257610f71610f09565b5b600182019050919050565b7f4e487b71000000000000000000000000000000000000000000000000000000005f52602260045260245ffd5b5f6002820490506001821680610fc157607f821691505b602082108103610fd457610fd3610f7d565b5b50919050565b5f819050815f5260205f209050919050565b5f6020601f8301049050919050565b5f82821b905092915050565b5f600883026110367fffffffffffffffffffffffffffffffffffffffffffffffffffffffffffffffff82610ffb565b6110408683610ffb565b95508019841693508086168417925050509392505050565b5f819050919050565b5f61107b61107661107184610a0a565b611058565b610a0a565b9050919050565b5f819050919050565b61109483611061565b6110a86110a082611082565b848454611007565b825550505050565b5f90565b6110bc6110b0565b6110c781848461108b565b505050565b5b818110156110ea576110df5f826110b4565b6001810190506110cd565b5050565b601f82111561112f5761110081610fda565b61110984610fec565b81016020851015611118578190505b61112c61112485610fec565b8301826110cc565b50505b505050565b5f82821c905092915050565b5f61114f5f1984600802611134565b1980831691505092915050565b5f6111678383611140565b9150826002028217905092915050565b61118082610c6d565b67ffffffffffffffff81111561119957611198610a55565b5b6111a38254610faa565b6111ae8282856110ee565b5f60209050601f8311600181146111df575f84156111cd578287015190505b6111d7858261115c565b86555061123e565b601f1984166111ed86610fda565b5f5b82811015611214578489015182556001820191506020850194506020810190506111ef565b86831015611231578489015161122d601f891682611140565b8355505b6001600288020188555050505b505050505050565b61124f81610a0a565b82525050565b5f61125f82610c6d565b6112698185610e91565b9350611279818560208601610c87565b61128281610a45565b840191505092915050565b5f6040820190506112a05f830185611246565b81810360208301526112b28184611255565b90509392505050565b7f4e487b71000000000000000000000000000000000000000000000000000000005f52603260045260245ffd5b7f496e646578206f7574206f6620626f756e6473000000000000000000000000005f82015250565b5f61131c601383610e91565b9150611327826112e8565b602082019050919050565b5f6020820190508181035f83015261134981611310565b9050919050565b5f6060820190506113635f830186611246565b6113706020830185611246565b81810360408301526113828184611255565b905094935050505056fea2646970667358221220b7b712d5f5c57002394679683bacdbec68547e54586f567c4614d3b7faa43f2964736f6c63430008160033",
			"opcodes": "PUSH1 0x80 PUSH1 0x40 MSTORE PUSH1 0x1 PUSH0 SSTORE CALLVALUE DUP1 ISZERO PUSH2 0x13 JUMPI PUSH0 DUP1 REVERT JUMPDEST POP PUSH3 0xF4240 PUSH1 0x2 PUSH0 CALLER PUSH20 0xFFFFFFFFFFFFFFFFFFFFFFFFFFFFFFFFFFFFFFFF AND PUSH20 0xFFFFFFFFFFFFFFFFFFFFFFFFFFFFFFFFFFFFFFFF AND DUP2 MSTORE PUSH1 0x20 ADD SWAP1 DUP2 MSTORE PUSH1 0x20 ADD PUSH0 KECCAK256 DUP2 SWAP1 SSTORE POP PUSH2 0x13C2 DUP1 PUSH2 0x66 PUSH0 CODECOPY PUSH0 RETURN INVALID PUSH1 0x80 PUSH1 0x40 MSTORE CALLVALUE DUP1 ISZERO PUSH2 0xF JUMPI PUSH0 DUP1 REVERT JUMPDEST POP PUSH1 0x4 CALLDATASIZE LT PUSH2 0x60 JUMPI PUSH0 CALLDATALOAD PUSH1 0xE0 SHR DUP1 PUSH4 0x2031024 EQ PUSH2 0x64 JUMPI DUP1 PUSH4 0x8C220C2 EQ PUSH2 0x80 JUMPI DUP1 PUSH4 0x9F43F46F EQ PUSH2 0x9C JUMPI DUP1 PUSH4 0xB48028E3 EQ PUSH2 0xCC JUMPI DUP1 PUSH4 0xB608D3A4 EQ PUSH2 0xE8 JUMPI DUP1 PUSH4 0xDD0826C6 EQ PUSH2 0x104 JUMPI JUMPDEST PUSH0 DUP1 REVERT JUMPDEST PUSH2 0x7E PUSH1 0x4 DUP1 CALLDATASIZE SUB DUP2 ADD SWAP1 PUSH2 0x79 SWAP2 SWAP1 PUSH2 0x9DF JUMP JUMPDEST PUSH2 0x134 JUMP JUMPDEST STOP JUMPDEST PUSH2 0x9A PUSH1 0x4 DUP1 CALLDATASIZE SUB DUP2 ADD SWAP1 PUSH2 0x95 SWAP2 SWAP1 PUSH2 0xB79 JUMP JUMPDEST PUSH2 0x213 JUMP JUMPDEST STOP JUMPDEST PUSH2 0xB6 PUSH1 0x4 DUP1 CALLDATASIZE SUB DUP2 ADD SWAP1 PUSH2 0xB1 SWAP2 SWAP1 PUSH2 0xBE5 JUMP JUMPDEST PUSH2 0x3DF JUMP JUMPDEST PUSH1 0x40 MLOAD PUSH2 0xC3 SWAP2 SWAP1 PUSH2 0xDC6 JUMP JUMPDEST PUSH1 0x40 MLOAD DUP1 SWAP2 SUB SWAP1 RETURN JUMPDEST PUSH2 0xE6 PUSH1 0x4 DUP1 CALLDATASIZE SUB DUP2 ADD SWAP1 PUSH2 0xE1 SWAP2 SWAP1 PUSH2 0x9DF JUMP JUMPDEST PUSH2 0x5F3 JUMP JUMPDEST STOP JUMPDEST PUSH2 0x102 PUSH1 0x4 DUP1 CALLDATASIZE SUB DUP2 ADD SWAP1 PUSH2 0xFD SWAP2 SWAP1 PUSH2 0xDE6 JUMP JUMPDEST PUSH2 0x6B7 JUMP JUMPDEST STOP JUMPDEST PUSH2 0x11E PUSH1 0x4 DUP1 CALLDATASIZE SUB DUP2 ADD SWAP1 PUSH2 0x119 SWAP2 SWAP1 PUSH2 0xE66 JUMP JUMPDEST PUSH2 0x845 JUMP JUMPDEST PUSH1 0x40 MLOAD PUSH2 0x12B SWAP2 SWAP1 PUSH2 0xDC6 JUMP JUMPDEST PUSH1 0x40 MLOAD DUP1 SWAP2 SUB SWAP1 RETURN JUMPDEST PUSH0 PUSH1 0x2 PUSH0 CALLER PUSH20 0xFFFFFFFFFFFFFFFFFFFFFFFFFFFFFFFFFFFFFFFF AND PUSH20 0xFFFFFFFFFFFFFFFFFFFFFFFFFFFFFFFFFFFFFFFF AND DUP2 MSTORE PUSH1 0x20 ADD SWAP1 DUP2 MSTORE PUSH1 0x20 ADD PUSH0 KECCAK256 SLOAD SUB PUSH2 0x1B3 JUMPI PUSH1 0x40 MLOAD PUSH32 0x8C379A000000000000000000000000000000000000000000000000000000000 DUP2 MSTORE PUSH1 0x4 ADD PUSH2 0x1AA SWAP1 PUSH2 0xEEB JUMP JUMPDEST PUSH1 0x40 MLOAD DUP1 SWAP2 SUB SWAP1 REVERT JUMPDEST PUSH0 DUP1 DUP2 SLOAD DUP1 SWAP3 SWAP2 SWAP1 PUSH2 0x1C4 SWAP1 PUSH2 0xF36 JUMP JUMPDEST SWAP2 SWAP1 POP SSTORE PUSH0 DUP2 SWAP1 SSTORE POP PUSH0 SLOAD PUSH1 0x2 PUSH0 DUP4 PUSH20 0xFFFFFFFFFFFFFFFFFFFFFFFFFFFFFFFFFFFFFFFF AND PUSH20 0xFFFFFFFFFFFFFFFFFFFFFFFFFFFFFFFFFFFFFFFF AND DUP2 MSTORE PUSH1 0x20 ADD SWAP1 DUP2 MSTORE PUSH1 0x20 ADD PUSH0 KECCAK256 DUP2 SWAP1 SSTORE POP POP JUMP JUMPDEST PUSH0 PUSH1 0x2 PUSH0 CALLER PUSH20 0xFFFFFFFFFFFFFFFFFFFFFFFFFFFFFFFFFFFFFFFF AND PUSH20 0xFFFFFFFFFFFFFFFFFFFFFFFFFFFFFFFFFFFFFFFF AND DUP2 MSTORE PUSH1 0x20 ADD SWAP1 DUP2 MSTORE PUSH1 0x20 ADD PUSH0 KECCAK256 SLOAD SUB PUSH2 0x292 JUMPI PUSH1 0x40 MLOAD PUSH32 0x8C379A000000000000000000000000000000000000000000000000000000000 DUP2 MSTORE PUSH1 0x4 ADD PUSH2 0x289 SWAP1 PUSH2 0xEEB JUMP JUMPDEST PUSH1 0x40 MLOAD DUP1 SWAP2 SUB SWAP1 REVERT JUMPDEST PUSH3 0xF4240 PUSH1 0x2 PUSH0 CALLER PUSH20 0xFFFFFFFFFFFFFFFFFFFFFFFFFFFFFFFFFFFFFFFF AND PUSH20 0xFFFFFFFFFFFFFFFFFFFFFFFFFFFFFFFFFFFFFFFF AND DUP2 MSTORE PUSH1 0x20 ADD SWAP1 DUP2 MSTORE PUSH1 0x20 ADD PUSH0 KECCAK256 SLOAD EQ ISZERO DUP1 ISZERO PUSH2 0x31F JUMPI POP PUSH1 0x2 PUSH0 CALLER PUSH20 0xFFFFFFFFFFFFFFFFFFFFFFFFFFFFFFFFFFFFFFFF AND PUSH20 0xFFFFFFFFFFFFFFFFFFFFFFFFFFFFFFFFFFFFFFFF AND DUP2 MSTORE PUSH1 0x20 ADD SWAP1 DUP2 MSTORE PUSH1 0x20 ADD PUSH0 KECCAK256 SLOAD DUP4 EQ ISZERO JUMPDEST PUSH2 0x3DA JUMPI PUSH1 0x1 PUSH0 DUP5 DUP2 MSTORE PUSH1 0x20 ADD SWAP1 DUP2 MSTORE PUSH1 0x20 ADD PUSH0 KECCAK256 PUSH1 0x40 MLOAD DUP1 PUSH1 0x60 ADD PUSH1 0x40 MSTORE DUP1 DUP6 DUP2 MSTORE PUSH1 0x20 ADD DUP5 DUP2 MSTORE PUSH1 0x20 ADD DUP4 DUP2 MSTORE POP SWAP1 DUP1 PUSH1 0x1 DUP2 SLOAD ADD DUP1 DUP3 SSTORE DUP1 SWAP2 POP POP PUSH1 0x1 SWAP1 SUB SWAP1 PUSH0 MSTORE PUSH1 0x20 PUSH0 KECCAK256 SWAP1 PUSH1 0x3 MUL ADD PUSH0 SWAP1 SWAP2 SWAP1 SWAP2 SWAP1 SWAP2 POP PUSH0 DUP3 ADD MLOAD DUP2 PUSH0 ADD SSTORE PUSH1 0x20 DUP3 ADD MLOAD DUP2 PUSH1 0x1 ADD SSTORE PUSH1 0x40 DUP3 ADD MLOAD DUP2 PUSH1 0x2 ADD SWAP1 DUP2 PUSH2 0x39C SWAP2 SWAP1 PUSH2 0x1177 JUMP JUMPDEST POP POP POP DUP3 PUSH32 0x32E7C28972E89757B6BAA3898E54AF0A57A00F3A4DF3D1AD95609EB202460B3A DUP4 DUP4 PUSH1 0x40 MLOAD PUSH2 0x3D1 SWAP3 SWAP2 SWAP1 PUSH2 0x128D JUMP JUMPDEST PUSH1 0x40 MLOAD DUP1 SWAP2 SUB SWAP1 LOG2 JUMPDEST POP POP POP JUMP JUMPDEST PUSH1 0x60 PUSH0 PUSH1 0x1 PUSH0 DUP7 DUP2 MSTORE PUSH1 0x20 ADD SWAP1 DUP2 MSTORE PUSH1 0x20 ADD PUSH0 KECCAK256 DUP1 SLOAD DUP1 PUSH1 0x20 MUL PUSH1 0x20 ADD PUSH1 0x40 MLOAD SWAP1 DUP2 ADD PUSH1 0x40 MSTORE DUP1 SWAP3 SWAP2 SWAP1 DUP2 DUP2 MSTORE PUSH1 0x20 ADD PUSH0 SWAP1 JUMPDEST DUP3 DUP3 LT ISZERO PUSH2 0x4E5 JUMPI DUP4 DUP3 SWAP1 PUSH0 MSTORE PUSH1 0x20 PUSH0 KECCAK256 SWAP1 PUSH1 0x3 MUL ADD PUSH1 0x40 MLOAD DUP1 PUSH1 0x60 ADD PUSH1 0x40 MSTORE SWAP1 DUP2 PUSH0 DUP3 ADD SLOAD DUP2 MSTORE PUSH1 0x20 ADD PUSH1 0x1 DUP3 ADD SLOAD DUP2 MSTORE PUSH1 0x20 ADD PUSH1 0x2 DUP3 ADD DUP1 SLOAD PUSH2 0x456 SWAP1 PUSH2 0xFAA JUMP JUMPDEST DUP1 PUSH1 0x1F ADD PUSH1 0x20 DUP1 SWAP2 DIV MUL PUSH1 0x20 ADD PUSH1 0x40 MLOAD SWAP1 DUP2 ADD PUSH1 0x40 MSTORE DUP1 SWAP3 SWAP2 SWAP1 DUP2 DUP2 MSTORE PUSH1 0x20 ADD DUP3 DUP1 SLOAD PUSH2 0x482 SWAP1 PUSH2 0xFAA JUMP JUMPDEST DUP1 ISZERO PUSH2 0x4CD JUMPI DUP1 PUSH1 0x1F LT PUSH2 0x4A4 JUMPI PUSH2 0x100 DUP1 DUP4 SLOAD DIV MUL DUP4 MSTORE SWAP2 PUSH1 0x20 ADD SWAP2 PUSH2 0x4CD JUMP JUMPDEST DUP3 ADD SWAP2 SWAP1 PUSH0 MSTORE PUSH1 0x20 PUSH0 KECCAK256 SWAP1 JUMPDEST DUP2 SLOAD DUP2 MSTORE SWAP1 PUSH1 0x1 ADD SWAP1 PUSH1 0x20 ADD DUP1 DUP4 GT PUSH2 0x4B0 JUMPI DUP3 SWAP1 SUB PUSH1 0x1F AND DUP3 ADD SWAP2 JUMPDEST POP POP POP POP POP DUP2 MSTORE POP POP DUP2 MSTORE PUSH1 0x20 ADD SWAP1 PUSH1 0x1 ADD SWAP1 PUSH2 0x412 JUMP JUMPDEST POP POP POP POP SWAP1 POP PUSH0 DUP2 MLOAD PUSH8 0xFFFFFFFFFFFFFFFF DUP2 GT ISZERO PUSH2 0x507 JUMPI PUSH2 0x506 PUSH2 0xA55 JUMP JUMPDEST JUMPDEST PUSH1 0x40 MLOAD SWAP1 DUP1 DUP3 MSTORE DUP1 PUSH1 0x20 MUL PUSH1 0x20 ADD DUP3 ADD PUSH1 0x40 MSTORE DUP1 ISZERO PUSH2 0x540 JUMPI DUP2 PUSH1 0x20 ADD JUMPDEST PUSH2 0x52D PUSH2 0x955 JUMP JUMPDEST DUP2 MSTORE PUSH1 0x20 ADD SWAP1 PUSH1 0x1 SWAP1 SUB SWAP1 DUP2 PUSH2 0x525 JUMPI SWAP1 POP JUMPDEST POP SWAP1 POP PUSH0 JUMPDEST DUP3 MLOAD DUP2 LT ISZERO PUSH2 0x5E6 JUMPI DUP6 DUP4 DUP3 DUP2 MLOAD DUP2 LT PUSH2 0x562 JUMPI PUSH2 0x561 PUSH2 0x12BB JUMP JUMPDEST JUMPDEST PUSH1 0x20 MUL PUSH1 0x20 ADD ADD MLOAD PUSH1 0x20 ADD MLOAD LT ISZERO DUP1 ISZERO PUSH2 0x59A JUMPI POP DUP5 DUP4 DUP3 DUP2 MLOAD DUP2 LT PUSH2 0x58B JUMPI PUSH2 0x58A PUSH2 0x12BB JUMP JUMPDEST JUMPDEST PUSH1 0x20 MUL PUSH1 0x20 ADD ADD MLOAD PUSH1 0x20 ADD MLOAD GT ISZERO JUMPDEST ISZERO PUSH2 0x5D9 JUMPI DUP3 DUP2 DUP2 MLOAD DUP2 LT PUSH2 0x5B2 JUMPI PUSH2 0x5B1 PUSH2 0x12BB JUMP JUMPDEST JUMPDEST PUSH1 0x20 MUL PUSH1 0x20 ADD ADD MLOAD DUP3 DUP3 DUP2 MLOAD DUP2 LT PUSH2 0x5CD JUMPI PUSH2 0x5CC PUSH2 0x12BB JUMP JUMPDEST JUMPDEST PUSH1 0x20 MUL PUSH1 0x20 ADD ADD DUP2 SWAP1 MSTORE POP JUMPDEST DUP1 DUP1 PUSH1 0x1 ADD SWAP2 POP POP PUSH2 0x545 JUMP JUMPDEST POP DUP1 SWAP3 POP POP POP SWAP4 SWAP3 POP POP POP JUMP JUMPDEST PUSH0 PUSH1 0x2 PUSH0 CALLER PUSH20 0xFFFFFFFFFFFFFFFFFFFFFFFFFFFFFFFFFFFFFFFF AND PUSH20 0xFFFFFFFFFFFFFFFFFFFFFFFFFFFFFFFFFFFFFFFF AND DUP2 MSTORE PUSH1 0x20 ADD SWAP1 DUP2 MSTORE PUSH1 0x20 ADD PUSH0 KECCAK256 SLOAD SUB PUSH2 0x672 JUMPI PUSH1 0x40 MLOAD PUSH32 0x8C379A000000000000000000000000000000000000000000000000000000000 DUP2 MSTORE PUSH1 0x4 ADD PUSH2 0x669 SWAP1 PUSH2 0xEEB JUMP JUMPDEST PUSH1 0x40 MLOAD DUP1 SWAP2 SUB SWAP1 REVERT JUMPDEST PUSH0 PUSH1 0x2 PUSH0 DUP4 PUSH20 0xFFFFFFFFFFFFFFFFFFFFFFFFFFFFFFFFFFFFFFFF AND PUSH20 0xFFFFFFFFFFFFFFFFFFFFFFFFFFFFFFFFFFFFFFFF AND DUP2 MSTORE PUSH1 0x20 ADD SWAP1 DUP2 MSTORE PUSH1 0x20 ADD PUSH0 KECCAK256 DUP2 SWAP1 SSTORE POP POP JUMP JUMPDEST PUSH0 PUSH1 0x2 PUSH0 CALLER PUSH20 0xFFFFFFFFFFFFFFFFFFFFFFFFFFFFFFFFFFFFFFFF AND PUSH20 0xFFFFFFFFFFFFFFFFFFFFFFFFFFFFFFFFFFFFFFFF AND DUP2 MSTORE PUSH1 0x20 ADD SWAP1 DUP2 MSTORE PUSH1 0x20 ADD PUSH0 KECCAK256 SLOAD SUB PUSH2 0x736 JUMPI PUSH1 0x40 MLOAD PUSH32 0x8C379A000000000000000000000000000000000000000000000000000000000 DUP2 MSTORE PUSH1 0x4 ADD PUSH2 0x72D SWAP1 PUSH2 0xEEB JUMP JUMPDEST PUSH1 0x40 MLOAD DUP1 SWAP2 SUB SWAP1 REVERT JUMPDEST PUSH1 0x1 PUSH0 DUP6 DUP2 MSTORE PUSH1 0x20 ADD SWAP1 DUP2 MSTORE PUSH1 0x20 ADD PUSH0 KECCAK256 DUP1 SLOAD SWAP1 POP DUP4 LT PUSH2 0x78C JUMPI PUSH1 0x40 MLOAD PUSH32 0x8C379A000000000000000000000000000000000000000000000000000000000 DUP2 MSTORE PUSH1 0x4 ADD PUSH2 0x783 SWAP1 PUSH2 0x1332 JUMP JUMPDEST PUSH1 0x40 MLOAD DUP1 SWAP2 SUB SWAP1 REVERT JUMPDEST DUP2 PUSH1 0x1 PUSH0 DUP7 DUP2 MSTORE PUSH1 0x20 ADD SWAP1 DUP2 MSTORE PUSH1 0x20 ADD PUSH0 KECCAK256 DUP5 DUP2 SLOAD DUP2 LT PUSH2 0x7B0 JUMPI PUSH2 0x7AF PUSH2 0x12BB JUMP JUMPDEST JUMPDEST SWAP1 PUSH0 MSTORE PUSH1 0x20 PUSH0 KECCAK256 SWAP1 PUSH1 0x3 MUL ADD PUSH1 0x1 ADD DUP2 SWAP1 SSTORE POP DUP1 PUSH1 0x1 PUSH0 DUP7 DUP2 MSTORE PUSH1 0x20 ADD SWAP1 DUP2 MSTORE PUSH1 0x20 ADD PUSH0 KECCAK256 DUP5 DUP2 SLOAD DUP2 LT PUSH2 0x7E7 JUMPI PUSH2 0x7E6 PUSH2 0x12BB JUMP JUMPDEST JUMPDEST SWAP1 PUSH0 MSTORE PUSH1 0x20 PUSH0 KECCAK256 SWAP1 PUSH1 0x3 MUL ADD PUSH1 0x2 ADD SWAP1 DUP2 PUSH2 0x802 SWAP2 SWAP1 PUSH2 0x1177 JUMP JUMPDEST POP DUP4 PUSH32 0xA0D3071670661A556FEB29023709B20AB2A62D5C56F63343D67C087D28BE3DF7 DUP5 DUP5 DUP5 PUSH1 0x40 MLOAD PUSH2 0x837 SWAP4 SWAP3 SWAP2 SWAP1 PUSH2 0x1350 JUMP JUMPDEST PUSH1 0x40 MLOAD DUP1 SWAP2 SUB SWAP1 LOG2 POP POP POP POP JUMP JUMPDEST PUSH1 0x60 PUSH1 0x1 PUSH0 DUP4 DUP2 MSTORE PUSH1 0x20 ADD SWAP1 DUP2 MSTORE PUSH1 0x20 ADD PUSH0 KECCAK256 DUP1 SLOAD DUP1 PUSH1 0x20 MUL PUSH1 0x20 ADD PUSH1 0x40 MLOAD SWAP1 DUP2 ADD PUSH1 0x40 MSTORE DUP1 SWAP3 SWAP2 SWAP1 DUP2 DUP2 MSTORE PUSH1 0x20 ADD PUSH0 SWAP1 JUMPDEST DUP3 DUP3 LT ISZERO PUSH2 0x94A JUMPI DUP4 DUP3 SWAP1 PUSH0 MSTORE PUSH1 0x20 PUSH0 KECCAK256 SWAP1 PUSH1 0x3 MUL ADD PUSH1 0x40 MLOAD DUP1 PUSH1 0x60 ADD PUSH1 0x40 MSTORE SWAP1 DUP2 PUSH0 DUP3 ADD SLOAD DUP2 MSTORE PUSH1 0x20 ADD PUSH1 0x1 DUP3 ADD SLOAD DUP2 MSTORE PUSH1 0x20 ADD PUSH1 0x2 DUP3 ADD DUP1 SLOAD PUSH2 0x8BB SWAP1 PUSH2 0xFAA JUMP JUMPDEST DUP1 PUSH1 0x1F ADD PUSH1 0x20 DUP1 SWAP2 DIV MUL PUSH1 0x20 ADD PUSH1 0x40 MLOAD SWAP1 DUP2 ADD PUSH1 0x40 MSTORE DUP1 SWAP3 SWAP2 SWAP1 DUP2 DUP2 MSTORE PUSH1 0x20 ADD DUP3 DUP1 SLOAD PUSH2 0x8E7 SWAP1 PUSH2 0xFAA JUMP JUMPDEST DUP1 ISZERO PUSH2 0x932 JUMPI DUP1 PUSH1 0x1F LT PUSH2 0x909 JUMPI PUSH2 0x100 DUP1 DUP4 SLOAD DIV MUL DUP4 MSTORE SWAP2 PUSH1 0x20 ADD SWAP2 PUSH2 0x932 JUMP JUMPDEST DUP3 ADD SWAP2 SWAP1 PUSH0 MSTORE PUSH1 0x20 PUSH0 KECCAK256 SWAP1 JUMPDEST DUP2 SLOAD DUP2 MSTORE SWAP1 PUSH1 0x1 ADD SWAP1 PUSH1 0x20 ADD DUP1 DUP4 GT PUSH2 0x915 JUMPI DUP3 SWAP1 SUB PUSH1 0x1F AND DUP3 ADD SWAP2 JUMPDEST POP POP POP POP POP DUP2 MSTORE POP POP DUP2 MSTORE PUSH1 0x20 ADD SWAP1 PUSH1 0x1 ADD SWAP1 PUSH2 0x877 JUMP JUMPDEST POP POP POP POP SWAP1 POP SWAP2 SWAP1 POP JUMP JUMPDEST PUSH1 0x40 MLOAD DUP1 PUSH1 0x60 ADD PUSH1 0x40 MSTORE DUP1 PUSH0 DUP2 MSTORE PUSH1 0x20 ADD PUSH0 DUP2 MSTORE PUSH1 0x20 ADD PUSH1 0x60 DUP2 MSTORE POP SWAP1 JUMP JUMPDEST PUSH0 PUSH1 0x40 MLOAD SWAP1 POP SWAP1 JUMP JUMPDEST PUSH0 DUP1 REVERT JUMPDEST PUSH0 DUP1 REVERT JUMPDEST PUSH0 PUSH20 0xFFFFFFFFFFFFFFFFFFFFFFFFFFFFFFFFFFFFFFFF DUP3 AND SWAP1 POP SWAP2 SWAP1 POP JUMP JUMPDEST PUSH0 PUSH2 0x9AE DUP3 PUSH2 0x985 JUMP JUMPDEST SWAP1 POP SWAP2 SWAP1 POP JUMP JUMPDEST PUSH2 0x9BE DUP2 PUSH2 0x9A4 JUMP JUMPDEST DUP2 EQ PUSH2 0x9C8 JUMPI PUSH0 DUP1 REVERT JUMPDEST POP JUMP JUMPDEST PUSH0 DUP2 CALLDATALOAD SWAP1 POP PUSH2 0x9D9 DUP2 PUSH2 0x9B5 JUMP JUMPDEST SWAP3 SWAP2 POP POP JUMP JUMPDEST PUSH0 PUSH1 0x20 DUP3 DUP5 SUB SLT ISZERO PUSH2 0x9F4 JUMPI PUSH2 0x9F3 PUSH2 0x97D JUMP JUMPDEST JUMPDEST PUSH0 PUSH2 0xA01 DUP5 DUP3 DUP6 ADD PUSH2 0x9CB JUMP JUMPDEST SWAP2 POP POP SWAP3 SWAP2 POP POP JUMP JUMPDEST PUSH0 DUP2 SWAP1 POP SWAP2 SWAP1 POP JUMP JUMPDEST PUSH2 0xA1C DUP2 PUSH2 0xA0A JUMP JUMPDEST DUP2 EQ PUSH2 0xA26 JUMPI PUSH0 DUP1 REVERT JUMPDEST POP JUMP JUMPDEST PUSH0 DUP2 CALLDATALOAD SWAP1 POP PUSH2 0xA37 DUP2 PUSH2 0xA13 JUMP JUMPDEST SWAP3 SWAP2 POP POP JUMP JUMPDEST PUSH0 DUP1 REVERT JUMPDEST PUSH0 DUP1 REVERT JUMPDEST PUSH0 PUSH1 0x1F NOT PUSH1 0x1F DUP4 ADD AND SWAP1 POP SWAP2 SWAP1 POP JUMP JUMPDEST PUSH32 0x4E487B7100000000000000000000000000000000000000000000000000000000 PUSH0 MSTORE PUSH1 0x41 PUSH1 0x4 MSTORE PUSH1 0x24 PUSH0 REVERT JUMPDEST PUSH2 0xA8B DUP3 PUSH2 0xA45 JUMP JUMPDEST DUP2 ADD DUP2 DUP2 LT PUSH8 0xFFFFFFFFFFFFFFFF DUP3 GT OR ISZERO PUSH2 0xAAA JUMPI PUSH2 0xAA9 PUSH2 0xA55 JUMP JUMPDEST JUMPDEST DUP1 PUSH1 0x40 MSTORE POP POP POP JUMP JUMPDEST PUSH0 PUSH2 0xABC PUSH2 0x974 JUMP JUMPDEST SWAP1 POP PUSH2 0xAC8 DUP3 DUP3 PUSH2 0xA82 JUMP JUMPDEST SWAP2 SWAP1 POP JUMP JUMPDEST PUSH0 PUSH8 0xFFFFFFFFFFFFFFFF DUP3 GT ISZERO PUSH2 0xAE7 JUMPI PUSH2 0xAE6 PUSH2 0xA55 JUMP JUMPDEST JUMPDEST PUSH2 0xAF0 DUP3 PUSH2 0xA45 JUMP JUMPDEST SWAP1 POP PUSH1 0x20 DUP2 ADD SWAP1 POP SWAP2 SWAP1 POP JUMP JUMPDEST DUP3 DUP2 DUP4 CALLDATACOPY PUSH0 DUP4 DUP4 ADD MSTORE POP POP POP JUMP JUMPDEST PUSH0 PUSH2 0xB1D PUSH2 0xB18 DUP5 PUSH2 0xACD JUMP JUMPDEST PUSH2 0xAB3 JUMP JUMPDEST SWAP1 POP DUP3 DUP2 MSTORE PUSH1 0x20 DUP2 ADD DUP5 DUP5 DUP5 ADD GT ISZERO PUSH2 0xB39 JUMPI PUSH2 0xB38 PUSH2 0xA41 JUMP JUMPDEST JUMPDEST PUSH2 0xB44 DUP5 DUP3 DUP6 PUSH2 0xAFD JUMP JUMPDEST POP SWAP4 SWAP3 POP POP POP JUMP JUMPDEST PUSH0 DUP3 PUSH1 0x1F DUP4 ADD SLT PUSH2 0xB60 JUMPI PUSH2 0xB5F PUSH2 0xA3D JUMP JUMPDEST JUMPDEST DUP2 CALLDATALOAD PUSH2 0xB70 DUP5 DUP3 PUSH1 0x20 DUP7 ADD PUSH2 0xB0B JUMP JUMPDEST SWAP2 POP POP SWAP3 SWAP2 POP POP JUMP JUMPDEST PUSH0 DUP1 PUSH0 PUSH1 0x60 DUP5 DUP7 SUB SLT ISZERO PUSH2 0xB90 JUMPI PUSH2 0xB8F PUSH2 0x97D JUMP JUMPDEST JUMPDEST PUSH0 PUSH2 0xB9D DUP7 DUP3 DUP8 ADD PUSH2 0xA29 JUMP JUMPDEST SWAP4 POP POP PUSH1 0x20 PUSH2 0xBAE DUP7 DUP3 DUP8 ADD PUSH2 0xA29 JUMP JUMPDEST SWAP3 POP POP PUSH1 0x40 DUP5 ADD CALLDATALOAD PUSH8 0xFFFFFFFFFFFFFFFF DUP2 GT ISZERO PUSH2 0xBCF JUMPI PUSH2 0xBCE PUSH2 0x981 JUMP JUMPDEST JUMPDEST PUSH2 0xBDB DUP7 DUP3 DUP8 ADD PUSH2 0xB4C JUMP JUMPDEST SWAP2 POP POP SWAP3 POP SWAP3 POP SWAP3 JUMP JUMPDEST PUSH0 DUP1 PUSH0 PUSH1 0x60 DUP5 DUP7 SUB SLT ISZERO PUSH2 0xBFC JUMPI PUSH2 0xBFB PUSH2 0x97D JUMP JUMPDEST JUMPDEST PUSH0 PUSH2 0xC09 DUP7 DUP3 DUP8 ADD PUSH2 0xA29 JUMP JUMPDEST SWAP4 POP POP PUSH1 0x20 PUSH2 0xC1A DUP7 DUP3 DUP8 ADD PUSH2 0xA29 JUMP JUMPDEST SWAP3 POP POP PUSH1 0x40 PUSH2 0xC2B DUP7 DUP3 DUP8 ADD PUSH2 0xA29 JUMP JUMPDEST SWAP2 POP POP SWAP3 POP SWAP3 POP SWAP3 JUMP JUMPDEST PUSH0 DUP2 MLOAD SWAP1 POP SWAP2 SWAP1 POP JUMP JUMPDEST PUSH0 DUP3 DUP3 MSTORE PUSH1 0x20 DUP3 ADD SWAP1 POP SWAP3 SWAP2 POP POP JUMP JUMPDEST PUSH0 DUP2 SWAP1 POP PUSH1 0x20 DUP3 ADD SWAP1 POP SWAP2 SWAP1 POP JUMP JUMPDEST PUSH2 0xC67 DUP2 PUSH2 0xA0A JUMP JUMPDEST DUP3 MSTORE POP POP JUMP JUMPDEST PUSH0 DUP2 MLOAD SWAP1 POP SWAP2 SWAP1 POP JUMP JUMPDEST PUSH0 DUP3 DUP3 MSTORE PUSH1 0x20 DUP3 ADD SWAP1 POP SWAP3 SWAP2 POP POP JUMP JUMPDEST PUSH0 JUMPDEST DUP4 DUP2 LT ISZERO PUSH2 0xCA4 JUMPI DUP1 DUP3 ADD MLOAD DUP2 DUP5 ADD MSTORE PUSH1 0x20 DUP2 ADD SWAP1 POP PUSH2 0xC89 JUMP JUMPDEST PUSH0 DUP5 DUP5 ADD MSTORE POP POP POP POP JUMP JUMPDEST PUSH0 PUSH2 0xCB9 DUP3 PUSH2 0xC6D JUMP JUMPDEST PUSH2 0xCC3 DUP2 DUP6 PUSH2 0xC77 JUMP JUMPDEST SWAP4 POP PUSH2 0xCD3 DUP2 DUP6 PUSH1 0x20 DUP7 ADD PUSH2 0xC87 JUMP JUMPDEST PUSH2 0xCDC DUP2 PUSH2 0xA45 JUMP JUMPDEST DUP5 ADD SWAP2 POP POP SWAP3 SWAP2 POP POP JUMP JUMPDEST PUSH0 PUSH1 0x60 DUP4 ADD PUSH0 DUP4 ADD MLOAD PUSH2 0xCFC PUSH0 DUP7 ADD DUP3 PUSH2 0xC5E JUMP JUMPDEST POP PUSH1 0x20 DUP4 ADD MLOAD PUSH2 0xD0F PUSH1 0x20 DUP7 ADD DUP3 PUSH2 0xC5E JUMP JUMPDEST POP PUSH1 0x40 DUP4 ADD MLOAD DUP5 DUP3 SUB PUSH1 0x40 DUP7 ADD MSTORE PUSH2 0xD27 DUP3 DUP3 PUSH2 0xCAF JUMP JUMPDEST SWAP2 POP POP DUP1 SWAP2 POP POP SWAP3 SWAP2 POP POP JUMP JUMPDEST PUSH0 PUSH2 0xD3F DUP4 DUP4 PUSH2 0xCE7 JUMP JUMPDEST SWAP1 POP SWAP3 SWAP2 POP POP JUMP JUMPDEST PUSH0 PUSH1 0x20 DUP3 ADD SWAP1 POP SWAP2 SWAP1 POP JUMP JUMPDEST PUSH0 PUSH2 0xD5D DUP3 PUSH2 0xC35 JUMP JUMPDEST PUSH2 0xD67 DUP2 DUP6 PUSH2 0xC3F JUMP JUMPDEST SWAP4 POP DUP4 PUSH1 0x20 DUP3 MUL DUP6 ADD PUSH2 0xD79 DUP6 PUSH2 0xC4F JUMP JUMPDEST DUP1 PUSH0 JUMPDEST DUP6 DUP2 LT ISZERO PUSH2 0xDB4 JUMPI DUP5 DUP5 SUB DUP10 MSTORE DUP2 MLOAD PUSH2 0xD95 DUP6 DUP3 PUSH2 0xD34 JUMP JUMPDEST SWAP5 POP PUSH2 0xDA0 DUP4 PUSH2 0xD47 JUMP JUMPDEST SWAP3 POP PUSH1 0x20 DUP11 ADD SWAP10 POP POP PUSH1 0x1 DUP2 ADD SWAP1 POP PUSH2 0xD7C JUMP JUMPDEST POP DUP3 SWAP8 POP DUP8 SWAP6 POP POP POP POP POP POP SWAP3 SWAP2 POP POP JUMP JUMPDEST PUSH0 PUSH1 0x20 DUP3 ADD SWAP1 POP DUP2 DUP2 SUB PUSH0 DUP4 ADD MSTORE PUSH2 0xDDE DUP2 DUP5 PUSH2 0xD53 JUMP JUMPDEST SWAP1 POP SWAP3 SWAP2 POP POP JUMP JUMPDEST PUSH0 DUP1 PUSH0 DUP1 PUSH1 0x80 DUP6 DUP8 SUB SLT ISZERO PUSH2 0xDFE JUMPI PUSH2 0xDFD PUSH2 0x97D JUMP JUMPDEST JUMPDEST PUSH0 PUSH2 0xE0B DUP8 DUP3 DUP9 ADD PUSH2 0xA29 JUMP JUMPDEST SWAP5 POP POP PUSH1 0x20 PUSH2 0xE1C DUP8 DUP3 DUP9 ADD PUSH2 0xA29 JUMP JUMPDEST SWAP4 POP POP PUSH1 0x40 PUSH2 0xE2D DUP8 DUP3 DUP9 ADD PUSH2 0xA29 JUMP JUMPDEST SWAP3 POP POP PUSH1 0x60 DUP6 ADD CALLDATALOAD PUSH8 0xFFFFFFFFFFFFFFFF DUP2 GT ISZERO PUSH2 0xE4E JUMPI PUSH2 0xE4D PUSH2 0x981 JUMP JUMPDEST JUMPDEST PUSH2 0xE5A DUP8 DUP3 DUP9 ADD PUSH2 0xB4C JUMP JUMPDEST SWAP2 POP POP SWAP3 SWAP6 SWAP2 SWAP5 POP SWAP3 POP JUMP JUMPDEST PUSH0 PUSH1 0x20 DUP3 DUP5 SUB SLT ISZERO PUSH2 0xE7B JUMPI PUSH2 0xE7A PUSH2 0x97D JUMP JUMPDEST JUMPDEST PUSH0 PUSH2 0xE88 DUP5 DUP3 DUP6 ADD PUSH2 0xA29 JUMP JUMPDEST SWAP2 POP POP SWAP3 SWAP2 POP POP JUMP JUMPDEST PUSH0 DUP3 DUP3 MSTORE PUSH1 0x20 DUP3 ADD SWAP1 POP SWAP3 SWAP2 POP POP JUMP JUMPDEST PUSH32 0x556E617574686F72697A65642061636365737300000000000000000000000000 PUSH0 DUP3 ADD MSTORE POP JUMP JUMPDEST PUSH0 PUSH2 0xED5 PUSH1 0x13 DUP4 PUSH2 0xE91 JUMP JUMPDEST SWAP2 POP PUSH2 0xEE0 DUP3 PUSH2 0xEA1 JUMP JUMPDEST PUSH1 0x20 DUP3 ADD SWAP1 POP SWAP2 SWAP1 POP JUMP JUMPDEST PUSH0 PUSH1 0x20 DUP3 ADD SWAP1 POP DUP2 DUP2 SUB PUSH0 DUP4 ADD MSTORE PUSH2 0xF02 DUP2 PUSH2 0xEC9 JUMP JUMPDEST SWAP1 POP SWAP2 SWAP1 POP JUMP JUMPDEST PUSH32 0x4E487B7100000000000000000000000000000000000000000000000000000000 PUSH0 MSTORE PUSH1 0x11 PUSH1 0x4 MSTORE PUSH1 0x24 PUSH0 REVERT JUMPDEST PUSH0 PUSH2 0xF40 DUP3 PUSH2 0xA0A JUMP JUMPDEST SWAP2 POP PUSH32 0xFFFFFFFFFFFFFFFFFFFFFFFFFFFFFFFFFFFFFFFFFFFFFFFFFFFFFFFFFFFFFFFF DUP3 SUB PUSH2 0xF72 JUMPI PUSH2 0xF71 PUSH2 0xF09 JUMP JUMPDEST JUMPDEST PUSH1 0x1 DUP3 ADD SWAP1 POP SWAP2 SWAP1 POP JUMP JUMPDEST PUSH32 0x4E487B7100000000000000000000000000000000000000000000000000000000 PUSH0 MSTORE PUSH1 0x22 PUSH1 0x4 MSTORE PUSH1 0x24 PUSH0 REVERT JUMPDEST PUSH0 PUSH1 0x2 DUP3 DIV SWAP1 POP PUSH1 0x1 DUP3 AND DUP1 PUSH2 0xFC1 JUMPI PUSH1 0x7F DUP3 AND SWAP2 POP JUMPDEST PUSH1 0x20 DUP3 LT DUP2 SUB PUSH2 0xFD4 JUMPI PUSH2 0xFD3 PUSH2 0xF7D JUMP JUMPDEST JUMPDEST POP SWAP2 SWAP1 POP JUMP JUMPDEST PUSH0 DUP2 SWAP1 POP DUP2 PUSH0 MSTORE PUSH1 0x20 PUSH0 KECCAK256 SWAP1 POP SWAP2 SWAP1 POP JUMP JUMPDEST PUSH0 PUSH1 0x20 PUSH1 0x1F DUP4 ADD DIV SWAP1 POP SWAP2 SWAP1 POP JUMP JUMPDEST PUSH0 DUP3 DUP3 SHL SWAP1 POP SWAP3 SWAP2 POP POP JUMP JUMPDEST PUSH0 PUSH1 0x8 DUP4 MUL PUSH2 0x1036 PUSH32 0xFFFFFFFFFFFFFFFFFFFFFFFFFFFFFFFFFFFFFFFFFFFFFFFFFFFFFFFFFFFFFFFF DUP3 PUSH2 0xFFB JUMP JUMPDEST PUSH2 0x1040 DUP7 DUP4 PUSH2 0xFFB JUMP JUMPDEST SWAP6 POP DUP1 NOT DUP5 AND SWAP4 POP DUP1 DUP7 AND DUP5 OR SWAP3 POP POP POP SWAP4 SWAP3 POP POP POP JUMP JUMPDEST PUSH0 DUP2 SWAP1 POP SWAP2 SWAP1 POP JUMP JUMPDEST PUSH0 PUSH2 0x107B PUSH2 0x1076 PUSH2 0x1071 DUP5 PUSH2 0xA0A JUMP JUMPDEST PUSH2 0x1058 JUMP JUMPDEST PUSH2 0xA0A JUMP JUMPDEST SWAP1 POP SWAP2 SWAP1 POP JUMP JUMPDEST PUSH0 DUP2 SWAP1 POP SWAP2 SWAP1 POP JUMP JUMPDEST PUSH2 0x1094 DUP4 PUSH2 0x1061 JUMP JUMPDEST PUSH2 0x10A8 PUSH2 0x10A0 DUP3 PUSH2 0x1082 JUMP JUMPDEST DUP5 DUP5 SLOAD PUSH2 0x1007 JUMP JUMPDEST DUP3 SSTORE POP POP POP POP JUMP JUMPDEST PUSH0 SWAP1 JUMP JUMPDEST PUSH2 0x10BC PUSH2 0x10B0 JUMP JUMPDEST PUSH2 0x10C7 DUP2 DUP5 DUP5 PUSH2 0x108B JUMP JUMPDEST POP POP POP JUMP JUMPDEST JUMPDEST DUP2 DUP2 LT ISZERO PUSH2 0x10EA JUMPI PUSH2 0x10DF PUSH0 DUP3 PUSH2 0x10B4 JUMP JUMPDEST PUSH1 0x1 DUP2 ADD SWAP1 POP PUSH2 0x10CD JUMP JUMPDEST POP POP JUMP JUMPDEST PUSH1 0x1F DUP3 GT ISZERO PUSH2 0x112F JUMPI PUSH2 0x1100 DUP2 PUSH2 0xFDA JUMP JUMPDEST PUSH2 0x1109 DUP5 PUSH2 0xFEC JUMP JUMPDEST DUP2 ADD PUSH1 0x20 DUP6 LT ISZERO PUSH2 0x1118 JUMPI DUP2 SWAP1 POP JUMPDEST PUSH2 0x112C PUSH2 0x1124 DUP6 PUSH2 0xFEC JUMP JUMPDEST DUP4 ADD DUP3 PUSH2 0x10CC JUMP JUMPDEST POP POP JUMPDEST POP POP POP JUMP JUMPDEST PUSH0 DUP3 DUP3 SHR SWAP1 POP SWAP3 SWAP2 POP POP JUMP JUMPDEST PUSH0 PUSH2 0x114F PUSH0 NOT DUP5 PUSH1 0x8 MUL PUSH2 0x1134 JUMP JUMPDEST NOT DUP1 DUP4 AND SWAP2 POP POP SWAP3 SWAP2 POP POP JUMP JUMPDEST PUSH0 PUSH2 0x1167 DUP4 DUP4 PUSH2 0x1140 JUMP JUMPDEST SWAP2 POP DUP3 PUSH1 0x2 MUL DUP3 OR SWAP1 POP SWAP3 SWAP2 POP POP JUMP JUMPDEST PUSH2 0x1180 DUP3 PUSH2 0xC6D JUMP JUMPDEST PUSH8 0xFFFFFFFFFFFFFFFF DUP2 GT ISZERO PUSH2 0x1199 JUMPI PUSH2 0x1198 PUSH2 0xA55 JUMP JUMPDEST JUMPDEST PUSH2 0x11A3 DUP3 SLOAD PUSH2 0xFAA JUMP JUMPDEST PUSH2 0x11AE DUP3 DUP3 DUP6 PUSH2 0x10EE JUMP JUMPDEST PUSH0 PUSH1 0x20 SWAP1 POP PUSH1 0x1F DUP4 GT PUSH1 0x1 DUP2 EQ PUSH2 0x11DF JUMPI PUSH0 DUP5 ISZERO PUSH2 0x11CD JUMPI DUP3 DUP8 ADD MLOAD SWAP1 POP JUMPDEST PUSH2 0x11D7 DUP6 DUP3 PUSH2 0x115C JUMP JUMPDEST DUP7 SSTORE POP PUSH2 0x123E JUMP JUMPDEST PUSH1 0x1F NOT DUP5 AND PUSH2 0x11ED DUP7 PUSH2 0xFDA JUMP JUMPDEST PUSH0 JUMPDEST DUP3 DUP2 LT ISZERO PUSH2 0x1214 JUMPI DUP5 DUP10 ADD MLOAD DUP3 SSTORE PUSH1 0x1 DUP3 ADD SWAP2 POP PUSH1 0x20 DUP6 ADD SWAP5 POP PUSH1 0x20 DUP2 ADD SWAP1 POP PUSH2 0x11EF JUMP JUMPDEST DUP7 DUP4 LT ISZERO PUSH2 0x1231 JUMPI DUP5 DUP10 ADD MLOAD PUSH2 0x122D PUSH1 0x1F DUP10 AND DUP3 PUSH2 0x1140 JUMP JUMPDEST DUP4 SSTORE POP JUMPDEST PUSH1 0x1 PUSH1 0x2 DUP9 MUL ADD DUP9 SSTORE POP POP POP JUMPDEST POP POP POP POP POP POP JUMP JUMPDEST PUSH2 0x124F DUP2 PUSH2 0xA0A JUMP JUMPDEST DUP3 MSTORE POP POP JUMP JUMPDEST PUSH0 PUSH2 0x125F DUP3 PUSH2 0xC6D JUMP JUMPDEST PUSH2 0x1269 DUP2 DUP6 PUSH2 0xE91 JUMP JUMPDEST SWAP4 POP PUSH2 0x1279 DUP2 DUP6 PUSH1 0x20 DUP7 ADD PUSH2 0xC87 JUMP JUMPDEST PUSH2 0x1282 DUP2 PUSH2 0xA45 JUMP JUMPDEST DUP5 ADD SWAP2 POP POP SWAP3 SWAP2 POP POP JUMP JUMPDEST PUSH0 PUSH1 0x40 DUP3 ADD SWAP1 POP PUSH2 0x12A0 PUSH0 DUP4 ADD DUP6 PUSH2 0x1246 JUMP JUMPDEST DUP2 DUP2 SUB PUSH1 0x20 DUP4 ADD MSTORE PUSH2 0x12B2 DUP2 DUP5 PUSH2 0x1255 JUMP JUMPDEST SWAP1 POP SWAP4 SWAP3 POP POP POP JUMP JUMPDEST PUSH32 0x4E487B7100000000000000000000000000000000000000000000000000000000 PUSH0 MSTORE PUSH1 0x32 PUSH1 0x4 MSTORE PUSH1 0x24 PUSH0 REVERT JUMPDEST PUSH32 0x496E646578206F7574206F6620626F756E647300000000000000000000000000 PUSH0 DUP3 ADD MSTORE POP JUMP JUMPDEST PUSH0 PUSH2 0x131C PUSH1 0x13 DUP4 PUSH2 0xE91 JUMP JUMPDEST SWAP2 POP PUSH2 0x1327 DUP3 PUSH2 0x12E8 JUMP JUMPDEST PUSH1 0x20 DUP3 ADD SWAP1 POP SWAP2 SWAP1 POP JUMP JUMPDEST PUSH0 PUSH1 0x20 DUP3 ADD SWAP1 POP DUP2 DUP2 SUB PUSH0 DUP4 ADD MSTORE PUSH2 0x1349 DUP2 PUSH2 0x1310 JUMP JUMPDEST SWAP1 POP SWAP2 SWAP1 POP JUMP JUMPDEST PUSH0 PUSH1 0x60 DUP3 ADD SWAP1 POP PUSH2 0x1363 PUSH0 DUP4 ADD DUP7 PUSH2 0x1246 JUMP JUMPDEST PUSH2 0x1370 PUSH1 0x20 DUP4 ADD DUP6 PUSH2 0x1246 JUMP JUMPDEST DUP2 DUP2 SUB PUSH1 0x40 DUP4 ADD MSTORE PUSH2 0x1382 DUP2 DUP5 PUSH2 0x1255 JUMP JUMPDEST SWAP1 POP SWAP5 SWAP4 POP POP POP POP JUMP INVALID LOG2 PUSH5 0x6970667358 0x22 SLT KECCAK256 0xB7 0xB7 SLT 0xD5 CREATE2 0xC5 PUSH17 0x2394679683BACDBEC68547E54586F567C CHAINID EQ 0xD3 0xB7 STATICCALL LOG4 EXTCODEHASH 0x29 PUSH5 0x736F6C6343 STOP ADDMOD AND STOP CALLER "
		},
		"gasEstimates": {
			"creation": {
				"codeDepositCost": "1011600",
				"executionCost": "45358",
				"totalCost": "1056958"
			},
			"external": {
				"authorizeEntity(address)": "73399",
				"getAttendanceByDateRange(uint256,uint256,uint256)": "infinite",
				"getAttendanceByEmployeeId(uint256)": "infinite",
				"recordAttendance(uint256,uint256,string)": "infinite",
				"revokeAuthorization(address)": "7803",
				"updateAttendance(uint256,uint256,uint256,string)": "infinite"
			}
		},
		"methodIdentifiers": {
			"authorizeEntity(address)": "02031024",
			"getAttendanceByDateRange(uint256,uint256,uint256)": "9f43f46f",
			"getAttendanceByEmployeeId(uint256)": "dd0826c6",
			"recordAttendance(uint256,uint256,string)": "08c220c2",
			"revokeAuthorization(address)": "b48028e3",
			"updateAttendance(uint256,uint256,uint256,string)": "b608d3a4"
		}
	},
	"abi": [
		{
			"inputs": [],
			"stateMutability": "nonpayable",
			"type": "constructor"
		},
		{
			"anonymous": false,
			"inputs": [
				{
					"indexed": true,
					"internalType": "uint256",
					"name": "employeeId",
					"type": "uint256"
				},
				{
					"indexed": false,
					"internalType": "uint256",
					"name": "checkInTime",
					"type": "uint256"
				},
				{
					"indexed": false,
					"internalType": "string",
					"name": "details",
					"type": "string"
				}
			],
			"name": "AttendanceRecorded",
			"type": "event"
		},
		{
			"anonymous": false,
			"inputs": [
				{
					"indexed": true,
					"internalType": "uint256",
					"name": "employeeId",
					"type": "uint256"
				},
				{
					"indexed": false,
					"internalType": "uint256",
					"name": "index",
					"type": "uint256"
				},
				{
					"indexed": false,
					"internalType": "uint256",
					"name": "newCheckInTime",
					"type": "uint256"
				},
				{
					"indexed": false,
					"internalType": "string",
					"name": "newDetails",
					"type": "string"
				}
			],
			"name": "AttendanceUpdated",
			"type": "event"
		},
		{
			"inputs": [
				{
					"internalType": "address",
					"name": "_entity",
					"type": "address"
				}
			],
			"name": "authorizeEntity",
			"outputs": [],
			"stateMutability": "nonpayable",
			"type": "function"
		},
		{
			"inputs": [
				{
					"internalType": "uint256",
					"name": "_employeeId",
					"type": "uint256"
				},
				{
					"internalType": "uint256",
					"name": "_start",
					"type": "uint256"
				},
				{
					"internalType": "uint256",
					"name": "_end",
					"type": "uint256"
				}
			],
			"name": "getAttendanceByDateRange",
			"outputs": [
				{
					"components": [
						{
							"internalType": "uint256",
							"name": "employeeId",
							"type": "uint256"
						},
						{
							"internalType": "uint256",
							"name": "checkInTime",
							"type": "uint256"
						},
						{
							"internalType": "string",
							"name": "details",
							"type": "string"
						}
					],
					"internalType": "struct AttendanceContract.AttendanceRecord[]",
					"name": "",
					"type": "tuple[]"
				}
			],
			"stateMutability": "view",
			"type": "function"
		},
		{
			"inputs": [
				{
					"internalType": "uint256",
					"name": "_employeeId",
					"type": "uint256"
				}
			],
			"name": "getAttendanceByEmployeeId",
			"outputs": [
				{
					"components": [
						{
							"internalType": "uint256",
							"name": "employeeId",
							"type": "uint256"
						},
						{
							"internalType": "uint256",
							"name": "checkInTime",
							"type": "uint256"
						},
						{
							"internalType": "string",
							"name": "details",
							"type": "string"
						}
					],
					"internalType": "struct AttendanceContract.AttendanceRecord[]",
					"name": "",
					"type": "tuple[]"
				}
			],
			"stateMutability": "view",
			"type": "function"
		},
		{
			"inputs": [
				{
					"internalType": "uint256",
					"name": "_employeeId",
					"type": "uint256"
				},
				{
					"internalType": "uint256",
					"name": "_checkInTime",
					"type": "uint256"
				},
				{
					"internalType": "string",
					"name": "_details",
					"type": "string"
				}
			],
			"name": "recordAttendance",
			"outputs": [],
			"stateMutability": "nonpayable",
			"type": "function"
		},
		{
			"inputs": [
				{
					"internalType": "address",
					"name": "_entity",
					"type": "address"
				}
			],
			"name": "revokeAuthorization",
			"outputs": [],
			"stateMutability": "nonpayable",
			"type": "function"
		},
		{
			"inputs": [
				{
					"internalType": "uint256",
					"name": "_employeeId",
					"type": "uint256"
				},
				{
					"internalType": "uint256",
					"name": "_index",
					"type": "uint256"
				},
				{
					"internalType": "uint256",
					"name": "_newCheckInTime",
					"type": "uint256"
				},
				{
					"internalType": "string",
					"name": "_newDetails",
					"type": "string"
				}
			],
			"name": "updateAttendance",
			"outputs": [],
			"stateMutability": "nonpayable",
			"type": "function"
		}
	]
}